{
  "contractName": "BurnableToken",
  "abi": [
    {
      "constant": true,
      "inputs": [
        {
          "name": "addr",
          "type": "address"
        },
        {
          "name": "roleName",
          "type": "string"
        }
      ],
      "name": "checkRole",
      "outputs": [],
      "payable": false,
      "stateMutability": "view",
      "type": "function"
    },
    {
      "constant": true,
      "inputs": [],
      "name": "totalSupply",
      "outputs": [
        {
          "name": "",
          "type": "uint256"
        }
      ],
      "payable": false,
      "stateMutability": "view",
      "type": "function"
    },
    {
      "constant": true,
      "inputs": [
        {
          "name": "addr",
          "type": "address"
        },
        {
          "name": "roleName",
          "type": "string"
        }
      ],
      "name": "hasRole",
      "outputs": [
        {
          "name": "",
          "type": "bool"
        }
      ],
      "payable": false,
      "stateMutability": "view",
      "type": "function"
    },
    {
      "constant": true,
      "inputs": [
        {
          "name": "_owner",
          "type": "address"
        }
      ],
      "name": "balanceOf",
      "outputs": [
        {
          "name": "balance",
          "type": "uint256"
        }
      ],
      "payable": false,
      "stateMutability": "view",
      "type": "function"
    },
    {
      "constant": false,
      "inputs": [],
      "name": "destroy",
      "outputs": [],
      "payable": false,
      "stateMutability": "nonpayable",
      "type": "function"
    },
    {
      "constant": false,
      "inputs": [
        {
          "name": "addr",
          "type": "address"
        },
        {
          "name": "roleName",
          "type": "string"
        }
      ],
      "name": "adminRemoveRole",
      "outputs": [],
      "payable": false,
      "stateMutability": "nonpayable",
      "type": "function"
    },
    {
      "constant": false,
      "inputs": [
        {
          "name": "_to",
          "type": "address"
        },
        {
          "name": "_value",
          "type": "uint256"
        }
      ],
      "name": "transfer",
      "outputs": [
        {
          "name": "",
          "type": "bool"
        }
      ],
      "payable": false,
      "stateMutability": "nonpayable",
      "type": "function"
    },
    {
      "constant": false,
      "inputs": [
        {
          "name": "addr",
          "type": "address"
        },
        {
          "name": "roleName",
          "type": "string"
        }
      ],
      "name": "adminAddRole",
      "outputs": [],
      "payable": false,
      "stateMutability": "nonpayable",
      "type": "function"
    },
    {
      "constant": true,
      "inputs": [],
      "name": "ROLE_ADMIN",
      "outputs": [
        {
          "name": "",
          "type": "string"
        }
      ],
      "payable": false,
      "stateMutability": "view",
      "type": "function"
    },
    {
      "anonymous": false,
      "inputs": [
        {
          "indexed": true,
          "name": "burner",
          "type": "address"
        },
        {
          "indexed": false,
          "name": "value",
          "type": "uint256"
        }
      ],
      "name": "Burn",
      "type": "event"
    },
    {
      "anonymous": false,
      "inputs": [
        {
          "indexed": false,
          "name": "addr",
          "type": "address"
        },
        {
          "indexed": false,
          "name": "roleName",
          "type": "string"
        }
      ],
      "name": "RoleAdded",
      "type": "event"
    },
    {
      "anonymous": false,
      "inputs": [
        {
          "indexed": false,
          "name": "addr",
          "type": "address"
        },
        {
          "indexed": false,
          "name": "roleName",
          "type": "string"
        }
      ],
      "name": "RoleRemoved",
      "type": "event"
    },
    {
      "anonymous": false,
      "inputs": [
        {
          "indexed": true,
          "name": "from",
          "type": "address"
        },
        {
          "indexed": true,
          "name": "to",
          "type": "address"
        },
        {
          "indexed": false,
          "name": "value",
          "type": "uint256"
        }
      ],
      "name": "Transfer",
      "type": "event"
    },
    {
      "constant": false,
      "inputs": [
        {
          "name": "_from",
          "type": "address"
        },
        {
          "name": "_value",
          "type": "uint256"
        }
      ],
      "name": "burn",
      "outputs": [],
      "payable": false,
      "stateMutability": "nonpayable",
      "type": "function"
    }
  ],
  "bytecode": "0x606060405261004e3360408051908101604052600581527f61646d696e000000000000000000000000000000000000000000000000000000602082015264010000000061091e61005382021704565b6101a2565b6100d0826002836040518082805190602001908083835b602083106100895780518252601f19909201916020918201910161006a565b6001836020036101000a03801982511681845116808217855250505050505090500191505090815260200160405190819003902090640100000000610a2361017d82021704565b7fbfec83d64eaa953f2708271a023ab9ee82057f8f3578d548c1a4ba0b5b7004898282604051600160a060020a038316815260406020820181815290820183818151815260200191508051906020019080838360005b8381101561013e578082015183820152602001610126565b50505050905090810190601f16801561016b5780820380516001836020036101000a031916815260200191505b50935050505060405180910390a15050565b600160a060020a0316600090815260209190915260409020805460ff19166001179055565b610a74806101b16000396000f3006060604052600436106100a35763ffffffff7c01000000000000000000000000000000000000000000000000000000006000350416630988ca8c81146100a857806318160ddd14610109578063217fe6c61461012e57806370a08231146101a157806383197ef0146101c057806388cee87e146101d35780639dc29fac14610232578063a9059cbb14610254578063b25fa92c14610276578063d391014b146102d5575b600080fd5b34156100b357600080fd5b61010760048035600160a060020a03169060446024803590810190830135806020601f8201819004810201604051908101604052818152929190602084018383808284375094965061035f95505050505050565b005b341561011457600080fd5b61011c6103d9565b60405190815260200160405180910390f35b341561013957600080fd5b61018d60048035600160a060020a03169060446024803590810190830135806020601f820181900481020160405190810160405281815292919060208401838380828437509496506103df95505050505050565b604051901515815260200160405180910390f35b34156101ac57600080fd5b61011c600160a060020a036004351661045e565b34156101cb57600080fd5b610107610479565b34156101de57600080fd5b61010760048035600160a060020a03169060446024803590810190830135806020601f8201819004810201604051908101604052818152929190602084018383808284375094965061048595505050505050565b341561023d57600080fd5b610107600160a060020a03600435166024356104cc565b341561025f57600080fd5b61018d600160a060020a0360043516602435610519565b341561028157600080fd5b61010760048035600160a060020a03169060446024803590810190830135806020601f8201819004810201604051908101604052818152929190602084018383808284375094965061062b95505050505050565b34156102e057600080fd5b6102e8610672565b60405160208082528190810183818151815260200191508051906020019080838360005b8381101561032457808201518382015260200161030c565b50505050905090810190601f1680156103515780820380516001836020036101000a031916815260200191505b509250505060405180910390f35b6103d5826002836040518082805190602001908083835b602083106103955780518252601f199092019160209182019101610376565b6001836020036101000a0380198251168184511680821785525050505050509050019150509081526020016040519081900390209063ffffffff6106a916565b5050565b60015490565b6000610457836002846040518082805190602001908083835b602083106104175780518252601f1990920191602091820191016103f8565b6001836020036101000a0380198251168184511680821785525050505050509050019150509081526020016040519081900390209063ffffffff6106be16565b9392505050565b600160a060020a031660009081526020819052604090205490565b33600160a060020a0316ff5b6104c23360408051908101604052600581527f61646d696e000000000000000000000000000000000000000000000000000000602082015261035f565b6103d582826106dd565b60408051908101604052600981527f4275726e4167656e740000000000000000000000000000000000000000000000602082015261050a338261035f565b6105148383610800565b505050565b6000600160a060020a038316151561053057600080fd5b600160a060020a03331660009081526020819052604090205482111561055557600080fd5b600160a060020a03331660009081526020819052604090205461057e908363ffffffff6108fd16565b600160a060020a0333811660009081526020819052604080822093909355908516815220546105b3908363ffffffff61090f16565b60008085600160a060020a0316600160a060020a031681526020019081526020016000208190555082600160a060020a031633600160a060020a03167fddf252ad1be2c89b69c2b068fc378daa952ba7f163c4a11628f55a4df523b3ef8460405190815260200160405180910390a350600192915050565b6106683360408051908101604052600581527f61646d696e000000000000000000000000000000000000000000000000000000602082015261035f565b6103d5828261091e565b60408051908101604052600581527f61646d696e000000000000000000000000000000000000000000000000000000602082015281565b6106b382826106be565b15156103d557600080fd5b600160a060020a03166000908152602091909152604090205460ff1690565b610753826002836040518082805190602001908083835b602083106107135780518252601f1990920191602091820191016106f4565b6001836020036101000a0380198251168184511680821785525050505050509050019150509081526020016040519081900390209063ffffffff610a0116565b7fd211483f91fc6eff862467f8de606587a30c8fc9981056f051b897a418df803a8282604051600160a060020a038316815260406020820181815290820183818151815260200191508051906020019080838360005b838110156107c15780820151838201526020016107a9565b50505050905090810190601f1680156107ee5780820380516001836020036101000a031916815260200191505b50935050505060405180910390a15050565b600160a060020a03821660009081526020819052604090205481111561082557600080fd5b600160a060020a03821660009081526020819052604090205461084e908263ffffffff6108fd16565b600160a060020a03831660009081526020819052604090205560015461087a908263ffffffff6108fd16565b600155600160a060020a0382167fcc16f5dbb4873280815c1ee09dbd06736cffcc184412cf7a71a0fdb75d397ca58260405190815260200160405180910390a26000600160a060020a0383167fddf252ad1be2c89b69c2b068fc378daa952ba7f163c4a11628f55a4df523b3ef8360405190815260200160405180910390a35050565b60008282111561090957fe5b50900390565b60008282018381101561045757fe5b610994826002836040518082805190602001908083835b602083106109545780518252601f199092019160209182019101610935565b6001836020036101000a0380198251168184511680821785525050505050509050019150509081526020016040519081900390209063ffffffff610a2316565b7fbfec83d64eaa953f2708271a023ab9ee82057f8f3578d548c1a4ba0b5b7004898282604051600160a060020a03831681526040602082018181529082018381815181526020019150805190602001908083836000838110156107c15780820151838201526020016107a9565b600160a060020a0316600090815260209190915260409020805460ff19169055565b600160a060020a0316600090815260209190915260409020805460ff191660011790555600a165627a7a723058202d503d94bbc574bbc0a1716beb036e39b90f0bdf57add7a955a1b6668a12230c0029",
  "source": "pragma solidity ^0.4.21;\n\nimport \"./BasicToken.sol\";\nimport \"../security/rbac/RBACWithAdmin.sol\";\n\n/**\n * @title Burnable Token\n * @dev Token that can be irreversibly burned (destroyed).\n */\ncontract BurnableToken is BasicToken, RBACWithAdmin {\n\n  event Burn(address indexed burner, uint256 value);\n\n  /**\n   * @dev Burns a specific amount of tokens.\n   * @param _value The amount of token to be burned.\n   */\n  function burn(address _from, uint256 _value) public onlyRole(\"BurnAgent\") {\n    _burn(_from, _value);\n  }\n\n  function _burn(address _who, uint256 _value) private {\n    require(_value <= balances[_who]);\n    // no need to require value <= totalSupply, since that would imply the\n    // sender's balance is greater than the totalSupply, which *should* be an assertion failure\n\n    balances[_who] = balances[_who].sub(_value);\n    totalSupply_ = totalSupply_.sub(_value);\n    emit Burn(_who, _value);\n    emit Transfer(_who, address(0), _value);\n  }\n}\n",
  "sourcePath": "/home/k/work/eth/CD/DragonETH/contracts/contracts/ERC20/BurnableToken.sol",
  "compiler": {
    "name": "solc",
    "version": "0.4.21+commit.dfe3193c.Emscripten.clang"
  },
  "schemaVersion": "2.0.0",
  "updatedAt": "2018-04-16T22:46:31.770Z"
}