{
  "contractName": "BurnableToken",
  "abi": [
    {
      "constant": true,
      "inputs": [
        {
          "name": "addr",
          "type": "address"
        },
        {
          "name": "roleName",
          "type": "string"
        }
      ],
      "name": "checkRole",
      "outputs": [],
      "payable": false,
      "stateMutability": "view",
      "type": "function"
    },
    {
      "constant": true,
      "inputs": [],
      "name": "totalSupply",
      "outputs": [
        {
          "name": "",
          "type": "uint256"
        }
      ],
      "payable": false,
      "stateMutability": "view",
      "type": "function"
    },
    {
      "constant": true,
      "inputs": [
        {
          "name": "addr",
          "type": "address"
        },
        {
          "name": "roleName",
          "type": "string"
        }
      ],
      "name": "hasRole",
      "outputs": [
        {
          "name": "",
          "type": "bool"
        }
      ],
      "payable": false,
      "stateMutability": "view",
      "type": "function"
    },
    {
      "constant": true,
      "inputs": [],
      "name": "ROLE_PAUSE_ADMIN",
      "outputs": [
        {
          "name": "",
          "type": "string"
        }
      ],
      "payable": false,
      "stateMutability": "view",
      "type": "function"
    },
    {
      "constant": true,
      "inputs": [
        {
          "name": "_owner",
          "type": "address"
        }
      ],
      "name": "balanceOf",
      "outputs": [
        {
          "name": "balance",
          "type": "uint256"
        }
      ],
      "payable": false,
      "stateMutability": "view",
      "type": "function"
    },
    {
      "constant": false,
      "inputs": [],
      "name": "destroy",
      "outputs": [],
      "payable": false,
      "stateMutability": "nonpayable",
      "type": "function"
    },
    {
      "constant": false,
      "inputs": [
        {
          "name": "addr",
          "type": "address"
        },
        {
          "name": "roleName",
          "type": "string"
        }
      ],
      "name": "adminRemoveRole",
      "outputs": [],
      "payable": false,
      "stateMutability": "nonpayable",
      "type": "function"
    },
    {
      "constant": false,
      "inputs": [
        {
          "name": "_to",
          "type": "address"
        },
        {
          "name": "_value",
          "type": "uint256"
        }
      ],
      "name": "transfer",
      "outputs": [
        {
          "name": "",
          "type": "bool"
        }
      ],
      "payable": false,
      "stateMutability": "nonpayable",
      "type": "function"
    },
    {
      "constant": false,
      "inputs": [
        {
          "name": "addr",
          "type": "address"
        },
        {
          "name": "roleName",
          "type": "string"
        }
      ],
      "name": "adminAddRole",
      "outputs": [],
      "payable": false,
      "stateMutability": "nonpayable",
      "type": "function"
    },
    {
      "constant": true,
      "inputs": [],
      "name": "ROLE_ADMIN",
      "outputs": [
        {
          "name": "",
          "type": "string"
        }
      ],
      "payable": false,
      "stateMutability": "view",
      "type": "function"
    },
    {
      "anonymous": false,
      "inputs": [
        {
          "indexed": true,
          "name": "burner",
          "type": "address"
        },
        {
          "indexed": false,
          "name": "value",
          "type": "uint256"
        }
      ],
      "name": "Burn",
      "type": "event"
    },
    {
      "anonymous": false,
      "inputs": [
        {
          "indexed": false,
          "name": "addr",
          "type": "address"
        },
        {
          "indexed": false,
          "name": "roleName",
          "type": "string"
        }
      ],
      "name": "RoleAdded",
      "type": "event"
    },
    {
      "anonymous": false,
      "inputs": [
        {
          "indexed": false,
          "name": "addr",
          "type": "address"
        },
        {
          "indexed": false,
          "name": "roleName",
          "type": "string"
        }
      ],
      "name": "RoleRemoved",
      "type": "event"
    },
    {
      "anonymous": false,
      "inputs": [
        {
          "indexed": true,
          "name": "from",
          "type": "address"
        },
        {
          "indexed": true,
          "name": "to",
          "type": "address"
        },
        {
          "indexed": false,
          "name": "value",
          "type": "uint256"
        }
      ],
      "name": "Transfer",
      "type": "event"
    },
    {
      "constant": false,
      "inputs": [
        {
          "name": "_from",
          "type": "address"
        },
        {
          "name": "_value",
          "type": "uint256"
        }
      ],
      "name": "burn",
      "outputs": [],
      "payable": false,
      "stateMutability": "nonpayable",
      "type": "function"
    }
  ],
  "bytecode": "0x606060405261004e3360408051908101604052600581527f61646d696e000000000000000000000000000000000000000000000000000000602082015264010000000061097361009d82021704565b6100983360408051908101604052600a81527f706175736541646d696e00000000000000000000000000000000000000000000602082015264010000000061097361009d82021704565b6101ec565b61011a826002836040518082805190602001908083835b602083106100d35780518252601f1990920191602091820191016100b4565b6001836020036101000a03801982511681845116808217855250505050505090500191505090815260200160405190819003902090640100000000610a786101c782021704565b7fbfec83d64eaa953f2708271a023ab9ee82057f8f3578d548c1a4ba0b5b7004898282604051600160a060020a038316815260406020820181815290820183818151815260200191508051906020019080838360005b83811015610188578082015183820152602001610170565b50505050905090810190601f1680156101b55780820380516001836020036101000a031916815260200191505b50935050505060405180910390a15050565b600160a060020a0316600090815260209190915260409020805460ff19166001179055565b610ac9806101fb6000396000f3006060604052600436106100ae5763ffffffff7c01000000000000000000000000000000000000000000000000000000006000350416630988ca8c81146100b357806318160ddd14610114578063217fe6c61461013957806347492352146101ac57806370a082311461023657806383197ef01461025557806388cee87e146102685780639dc29fac146102c7578063a9059cbb146102e9578063b25fa92c1461030b578063d391014b1461036a575b600080fd5b34156100be57600080fd5b61011260048035600160a060020a03169060446024803590810190830135806020601f8201819004810201604051908101604052818152929190602084018383808284375094965061037d95505050505050565b005b341561011f57600080fd5b6101276103f7565b60405190815260200160405180910390f35b341561014457600080fd5b61019860048035600160a060020a03169060446024803590810190830135806020601f820181900481020160405190810160405281815292919060208401838380828437509496506103fd95505050505050565b604051901515815260200160405180910390f35b34156101b757600080fd5b6101bf61047c565b60405160208082528190810183818151815260200191508051906020019080838360005b838110156101fb5780820151838201526020016101e3565b50505050905090810190601f1680156102285780820380516001836020036101000a031916815260200191505b509250505060405180910390f35b341561024157600080fd5b610127600160a060020a03600435166104b3565b341561026057600080fd5b6101126104ce565b341561027357600080fd5b61011260048035600160a060020a03169060446024803590810190830135806020601f820181900481020160405190810160405281815292919060208401838380828437509496506104da95505050505050565b34156102d257600080fd5b610112600160a060020a0360043516602435610521565b34156102f457600080fd5b610198600160a060020a036004351660243561056e565b341561031657600080fd5b61011260048035600160a060020a03169060446024803590810190830135806020601f8201819004810201604051908101604052818152929190602084018383808284375094965061068095505050505050565b341561037557600080fd5b6101bf6106c7565b6103f3826002836040518082805190602001908083835b602083106103b35780518252601f199092019160209182019101610394565b6001836020036101000a0380198251168184511680821785525050505050509050019150509081526020016040519081900390209063ffffffff6106fe16565b5050565b60015490565b6000610475836002846040518082805190602001908083835b602083106104355780518252601f199092019160209182019101610416565b6001836020036101000a0380198251168184511680821785525050505050509050019150509081526020016040519081900390209063ffffffff61071316565b9392505050565b60408051908101604052600a81527f706175736541646d696e00000000000000000000000000000000000000000000602082015281565b600160a060020a031660009081526020819052604090205490565b33600160a060020a0316ff5b6105173360408051908101604052600581527f61646d696e000000000000000000000000000000000000000000000000000000602082015261037d565b6103f38282610732565b60408051908101604052600981527f4275726e4167656e740000000000000000000000000000000000000000000000602082015261055f338261037d565b6105698383610855565b505050565b6000600160a060020a038316151561058557600080fd5b600160a060020a0333166000908152602081905260409020548211156105aa57600080fd5b600160a060020a0333166000908152602081905260409020546105d3908363ffffffff61095216565b600160a060020a033381166000908152602081905260408082209390935590851681522054610608908363ffffffff61096416565b60008085600160a060020a0316600160a060020a031681526020019081526020016000208190555082600160a060020a031633600160a060020a03167fddf252ad1be2c89b69c2b068fc378daa952ba7f163c4a11628f55a4df523b3ef8460405190815260200160405180910390a350600192915050565b6106bd3360408051908101604052600581527f61646d696e000000000000000000000000000000000000000000000000000000602082015261037d565b6103f38282610973565b60408051908101604052600581527f61646d696e000000000000000000000000000000000000000000000000000000602082015281565b6107088282610713565b15156103f357600080fd5b600160a060020a03166000908152602091909152604090205460ff1690565b6107a8826002836040518082805190602001908083835b602083106107685780518252601f199092019160209182019101610749565b6001836020036101000a0380198251168184511680821785525050505050509050019150509081526020016040519081900390209063ffffffff610a5616565b7fd211483f91fc6eff862467f8de606587a30c8fc9981056f051b897a418df803a8282604051600160a060020a038316815260406020820181815290820183818151815260200191508051906020019080838360005b838110156108165780820151838201526020016107fe565b50505050905090810190601f1680156108435780820380516001836020036101000a031916815260200191505b50935050505060405180910390a15050565b600160a060020a03821660009081526020819052604090205481111561087a57600080fd5b600160a060020a0382166000908152602081905260409020546108a3908263ffffffff61095216565b600160a060020a0383166000908152602081905260409020556001546108cf908263ffffffff61095216565b600155600160a060020a0382167fcc16f5dbb4873280815c1ee09dbd06736cffcc184412cf7a71a0fdb75d397ca58260405190815260200160405180910390a26000600160a060020a0383167fddf252ad1be2c89b69c2b068fc378daa952ba7f163c4a11628f55a4df523b3ef8360405190815260200160405180910390a35050565b60008282111561095e57fe5b50900390565b60008282018381101561047557fe5b6109e9826002836040518082805190602001908083835b602083106109a95780518252601f19909201916020918201910161098a565b6001836020036101000a0380198251168184511680821785525050505050509050019150509081526020016040519081900390209063ffffffff610a7816565b7fbfec83d64eaa953f2708271a023ab9ee82057f8f3578d548c1a4ba0b5b7004898282604051600160a060020a03831681526040602082018181529082018381815181526020019150805190602001908083836000838110156108165780820151838201526020016107fe565b600160a060020a0316600090815260209190915260409020805460ff19169055565b600160a060020a0316600090815260209190915260409020805460ff191660011790555600a165627a7a72305820d9e6e2e6d280e970fd747493492700f118ffa51c5a698116358627abe2e0796b0029",
  "source": "pragma solidity ^0.4.21;\n\nimport \"./BasicToken.sol\";\nimport \"../security/rbac/RBACWithAdmin.sol\";\n\n/**\n * @title Burnable Token\n * @dev Token that can be irreversibly burned (destroyed).\n */\ncontract BurnableToken is BasicToken, RBACWithAdmin {\n\n  event Burn(address indexed burner, uint256 value);\n\n  /**\n   * @dev Burns a specific amount of tokens.\n   * @param _value The amount of token to be burned.\n   */\n  function burn(address _from, uint256 _value) public onlyRole(\"BurnAgent\") {\n    _burn(_from, _value);\n  }\n\n  function _burn(address _who, uint256 _value) private {\n    require(_value <= balances[_who]);\n    // no need to require value <= totalSupply, since that would imply the\n    // sender's balance is greater than the totalSupply, which *should* be an assertion failure\n\n    balances[_who] = balances[_who].sub(_value);\n    totalSupply_ = totalSupply_.sub(_value);\n    emit Burn(_who, _value);\n    emit Transfer(_who, address(0), _value);\n  }\n}\n",
  "sourcePath": "/home/k/work/eth/CD/DragonETH/contracts/contracts/ERC20/BurnableToken.sol",
  "compiler": {
    "name": "solc",
    "version": "0.4.21+commit.dfe3193c.Emscripten.clang"
  },
  "schemaVersion": "2.0.0",
  "updatedAt": "2018-04-17T04:04:35.483Z"
}