{
  "contractName": "CrowdSaleDragonETH",
  "abi": [
    {
      "constant": true,
      "inputs": [
        {
          "name": "addr",
          "type": "address"
        },
        {
          "name": "roleName",
          "type": "string"
        }
      ],
      "name": "checkRole",
      "outputs": [],
      "payable": false,
      "stateMutability": "view",
      "type": "function"
    },
    {
      "constant": true,
      "inputs": [
        {
          "name": "addr",
          "type": "address"
        },
        {
          "name": "roleName",
          "type": "string"
        }
      ],
      "name": "hasRole",
      "outputs": [
        {
          "name": "",
          "type": "bool"
        }
      ],
      "payable": false,
      "stateMutability": "view",
      "type": "function"
    },
    {
      "constant": true,
      "inputs": [],
      "name": "timeToFirstBorn",
      "outputs": [
        {
          "name": "",
          "type": "uint256"
        }
      ],
      "payable": false,
      "stateMutability": "view",
      "type": "function"
    },
    {
      "constant": true,
      "inputs": [],
      "name": "priceChanger",
      "outputs": [
        {
          "name": "",
          "type": "uint256"
        }
      ],
      "payable": false,
      "stateMutability": "view",
      "type": "function"
    },
    {
      "constant": false,
      "inputs": [],
      "name": "unpause",
      "outputs": [],
      "payable": false,
      "stateMutability": "nonpayable",
      "type": "function"
    },
    {
      "constant": true,
      "inputs": [],
      "name": "timeToBorn",
      "outputs": [
        {
          "name": "",
          "type": "uint256"
        }
      ],
      "payable": false,
      "stateMutability": "view",
      "type": "function"
    },
    {
      "constant": true,
      "inputs": [],
      "name": "ROLE_PAUSE_ADMIN",
      "outputs": [
        {
          "name": "",
          "type": "string"
        }
      ],
      "payable": false,
      "stateMutability": "view",
      "type": "function"
    },
    {
      "constant": true,
      "inputs": [],
      "name": "paused",
      "outputs": [
        {
          "name": "",
          "type": "bool"
        }
      ],
      "payable": false,
      "stateMutability": "view",
      "type": "function"
    },
    {
      "constant": true,
      "inputs": [],
      "name": "soldDragons",
      "outputs": [
        {
          "name": "",
          "type": "uint256"
        }
      ],
      "payable": false,
      "stateMutability": "view",
      "type": "function"
    },
    {
      "constant": false,
      "inputs": [],
      "name": "destroy",
      "outputs": [],
      "payable": false,
      "stateMutability": "nonpayable",
      "type": "function"
    },
    {
      "constant": false,
      "inputs": [],
      "name": "pause",
      "outputs": [],
      "payable": false,
      "stateMutability": "nonpayable",
      "type": "function"
    },
    {
      "constant": false,
      "inputs": [
        {
          "name": "addr",
          "type": "address"
        },
        {
          "name": "roleName",
          "type": "string"
        }
      ],
      "name": "adminRemoveRole",
      "outputs": [],
      "payable": false,
      "stateMutability": "nonpayable",
      "type": "function"
    },
    {
      "constant": true,
      "inputs": [],
      "name": "crowdSaleDragonPrice",
      "outputs": [
        {
          "name": "",
          "type": "uint256"
        }
      ],
      "payable": false,
      "stateMutability": "view",
      "type": "function"
    },
    {
      "constant": false,
      "inputs": [
        {
          "name": "addr",
          "type": "address"
        },
        {
          "name": "roleName",
          "type": "string"
        }
      ],
      "name": "adminAddRole",
      "outputs": [],
      "payable": false,
      "stateMutability": "nonpayable",
      "type": "function"
    },
    {
      "constant": true,
      "inputs": [],
      "name": "mainContract",
      "outputs": [
        {
          "name": "",
          "type": "address"
        }
      ],
      "payable": false,
      "stateMutability": "view",
      "type": "function"
    },
    {
      "constant": true,
      "inputs": [],
      "name": "ROLE_ADMIN",
      "outputs": [
        {
          "name": "",
          "type": "string"
        }
      ],
      "payable": false,
      "stateMutability": "view",
      "type": "function"
    },
    {
      "inputs": [
        {
          "name": "_wallet",
          "type": "address"
        },
        {
          "name": "_mainContract",
          "type": "address"
        }
      ],
      "payable": false,
      "stateMutability": "nonpayable",
      "type": "constructor"
    },
    {
      "payable": true,
      "stateMutability": "payable",
      "type": "fallback"
    },
    {
      "anonymous": false,
      "inputs": [],
      "name": "Pause",
      "type": "event"
    },
    {
      "anonymous": false,
      "inputs": [],
      "name": "Unpause",
      "type": "event"
    },
    {
      "anonymous": false,
      "inputs": [
        {
          "indexed": false,
          "name": "addr",
          "type": "address"
        },
        {
          "indexed": false,
          "name": "roleName",
          "type": "string"
        }
      ],
      "name": "RoleAdded",
      "type": "event"
    },
    {
      "anonymous": false,
      "inputs": [
        {
          "indexed": false,
          "name": "addr",
          "type": "address"
        },
        {
          "indexed": false,
          "name": "roleName",
          "type": "string"
        }
      ],
      "name": "RoleRemoved",
      "type": "event"
    },
    {
      "constant": false,
      "inputs": [
        {
          "name": "_price",
          "type": "uint256"
        }
      ],
      "name": "changePrice",
      "outputs": [],
      "payable": false,
      "stateMutability": "nonpayable",
      "type": "function"
    },
    {
      "constant": false,
      "inputs": [
        {
          "name": "_priceChanger",
          "type": "uint256"
        }
      ],
      "name": "setPriceChanger",
      "outputs": [],
      "payable": false,
      "stateMutability": "nonpayable",
      "type": "function"
    },
    {
      "constant": false,
      "inputs": [
        {
          "name": "_wallet",
          "type": "address"
        }
      ],
      "name": "changeWallet",
      "outputs": [],
      "payable": false,
      "stateMutability": "nonpayable",
      "type": "function"
    },
    {
      "constant": false,
      "inputs": [
        {
          "name": "_timeToBorn",
          "type": "uint256"
        },
        {
          "name": "_timeToFirstBorn",
          "type": "uint256"
        }
      ],
      "name": "setTimeToBorn",
      "outputs": [],
      "payable": false,
      "stateMutability": "nonpayable",
      "type": "function"
    },
    {
      "constant": false,
      "inputs": [],
      "name": "withdrawAllEther",
      "outputs": [],
      "payable": false,
      "stateMutability": "nonpayable",
      "type": "function"
    }
  ],
  "bytecode": "0x60606040526001805461ffff19169055662386f26fc10000600355652d79883d2000600555611680600655341561003557600080fd5b604051604080620011328339810160405280805191906020018051915061009e90503360408051908101604052600581527f61646d696e0000000000000000000000000000000000000000000000000000006020820152640100000000610d4f61012e82021704565b6100e83360408051908101604052600a81527f706175736541646d696e000000000000000000000000000000000000000000006020820152640100000000610d4f61012e82021704565b600180546201000060b060020a03191662010000600160a060020a039485160217905560028054600160a060020a031916919092161790554362013b000160075561027d565b6101ab826000836040518082805190602001908083835b602083106101645780518252601f199092019160209182019101610145565b6001836020036101000a03801982511681845116808217855250505050505090500191505090815260200160405190819003902090640100000000610e5461025882021704565b7fbfec83d64eaa953f2708271a023ab9ee82057f8f3578d548c1a4ba0b5b7004898282604051600160a060020a038316815260406020820181815290820183818151815260200191508051906020019080838360005b83811015610219578082015183820152602001610201565b50505050905090810190601f1680156102465780820380516001836020036101000a031916815260200191505b50935050505060405180910390a15050565b600160a060020a0316600090815260209190915260409020805460ff19166001179055565b610ea5806200028d6000396000f3006060604052600436106101035763ffffffff60e060020a6000350416630988ca8c81146103d2578063217fe6c614610433578063293f5bed146104a65780632da0c25c146104cb57806331c91117146104de5780633f4ba83a146104f15780634256fa5a1461050457806347492352146105175780635c975abb146105a157806371443c4d146105b457806383197ef0146105c75780638456cb59146105da57806388cee87e146105ed57806391be0b311461064c57806398b9a2dc14610662578063a2b40d1914610681578063ae26211414610697578063b25fa92c146106aa578063c8af065f14610709578063d270e7ab14610722578063d391014b14610751575b6001546000908190819060ff161561011a57600080fd5b600154610100900460ff161561012f57600080fd5b6001805461ff001916610100179055600454620186a090111561015157600080fd5b60035434101561016057600080fd5b61017233600160a060020a0316610764565b1561017c57600080fd5b60035461019090349063ffffffff61076c16565b925060018310156101a057600080fd5b60058311156101ae57600592505b60035483023403915060008211156101f157600160a060020a03331682156108fc0283604051600060405180830381858888f1935050505015156101f157600080fd5b600154600160a060020a0362010000909104163483900380156108fc0290604051600060405180830381858888f19350505050151561022f57600080fd5b5060015b8281116103c2576007544310156102f557600254600754600160a060020a0390911690633f07618d903390600080808060405160e060020a63ffffffff8916028152600160a060020a03909616600487015260248601949094526044850192909252606484015260848301527dffffffffffffffffffffffffffffffffffffffffffffffffffffffffffff1660a482015260c401600060405180830381600087803b15156102e057600080fd5b5af115156102ed57600080fd5b5050506103a4565b600254600654600160a060020a0390911690633f07618d9033904301600080808060405160e060020a63ffffffff8916028152600160a060020a03909616600487015260248601949094526044850192909252606484015260848301527dffffffffffffffffffffffffffffffffffffffffffffffffffffffffffff1660a482015260c401600060405180830381600087803b151561039357600080fd5b5af115156103a057600080fd5b5050505b60048054600190810190915560055460038054909101905501610233565b50506001805461ff001916905550005b34156103dd57600080fd5b61043160048035600160a060020a03169060446024803590810190830135806020601f8201819004810201604051908101604052818152929190602084018383808284375094965061078195505050505050565b005b341561043e57600080fd5b61049260048035600160a060020a03169060446024803590810190830135806020601f820181900481020160405190810160405281815292919060208401838380828437509496506107fb95505050505050565b604051901515815260200160405180910390f35b34156104b157600080fd5b6104b961087a565b60405190815260200160405180910390f35b34156104d657600080fd5b6104b9610880565b34156104e957600080fd5b610431610886565b34156104fc57600080fd5b61043161090c565b341561050f57600080fd5b6104b9610992565b341561052257600080fd5b61052a610998565b60405160208082528190810183818151815260200191508051906020019080838360005b8381101561056657808201518382015260200161054e565b50505050905090810190601f1680156105935780820380516001836020036101000a031916815260200191505b509250505060405180910390f35b34156105ac57600080fd5b6104926109cf565b34156105bf57600080fd5b6104b96109d8565b34156105d257600080fd5b6104316109de565b34156105e557600080fd5b6104316109ea565b34156105f857600080fd5b61043160048035600160a060020a03169060446024803590810190830135806020601f82018190048102016040519081016040528181529291906020840183838082843750949650610a7195505050505050565b341561065757600080fd5b610431600435610aa3565b341561066d57600080fd5b610431600160a060020a0360043516610ad0565b341561068c57600080fd5b610431600435610b2f565b34156106a257600080fd5b6104b9610b5c565b34156106b557600080fd5b61043160048035600160a060020a03169060446024803590810190830135806020601f82018190048102016040519081016040528181529291906020840183838082843750949650610b6295505050505050565b341561071457600080fd5b610431600435602435610b94565b341561072d57600080fd5b610735610bc7565b604051600160a060020a03909116815260200160405180910390f35b341561075c57600080fd5b61052a610bd6565b6000903b1190565b6000818381151561077957fe5b049392505050565b6107f7826000836040518082805190602001908083835b602083106107b75780518252601f199092019160209182019101610798565b6001836020036101000a0380198251168184511680821785525050505050509050019150509081526020016040519081900390209063ffffffff610bf816565b5050565b6000610873836000846040518082805190602001908083835b602083106108335780518252601f199092019160209182019101610814565b6001836020036101000a0380198251168184511680821785525050505050509050019150509081526020016040519081900390209063ffffffff610c0d16565b9392505050565b60075481565b60055481565b6108ae33604080519081016040526005815260d960020a6430b236b4b7026020820152610781565b600154620100009004600160a060020a031615156108cb57600080fd5b600154600160a060020a036201000090910481169030163180156108fc0290604051600060405180830381858888f19350505050151561090a57600080fd5b565b6109493360408051908101604052600a81527f706175736541646d696e000000000000000000000000000000000000000000006020820152610781565b60015460ff16151561095a57600080fd5b6001805460ff191690557f7805862f689e2f13df9f062ff482ad3ad112aca9e0847911ed832e158c525b3360405160405180910390a1565b60065481565b60408051908101604052600a81527f706175736541646d696e00000000000000000000000000000000000000000000602082015281565b60015460ff1681565b60045481565b33600160a060020a0316ff5b610a273360408051908101604052600a81527f706175736541646d696e000000000000000000000000000000000000000000006020820152610781565b60015460ff1615610a3757600080fd5b6001805460ff1916811790557f6985a02210a168e66602d3235cb6db0e70f92b3ba4d376a33c0f3d9434bff62560405160405180910390a1565b610a9933604080519081016040526005815260d960020a6430b236b4b7026020820152610781565b6107f78282610c2c565b610acb33604080519081016040526005815260d960020a6430b236b4b7026020820152610781565b600555565b610af833604080519081016040526005815260d960020a6430b236b4b7026020820152610781565b60018054600160a060020a03909216620100000275ffffffffffffffffffffffffffffffffffffffff000019909216919091179055565b610b5733604080519081016040526005815260d960020a6430b236b4b7026020820152610781565b600355565b60035481565b610b8a33604080519081016040526005815260d960020a6430b236b4b7026020820152610781565b6107f78282610d4f565b610bbc33604080519081016040526005815260d960020a6430b236b4b7026020820152610781565b600691909155600755565b600254600160a060020a031681565b604080519081016040526005815260d960020a6430b236b4b702602082015281565b610c028282610c0d565b15156107f757600080fd5b600160a060020a03166000908152602091909152604090205460ff1690565b610ca2826000836040518082805190602001908083835b60208310610c625780518252601f199092019160209182019101610c43565b6001836020036101000a0380198251168184511680821785525050505050509050019150509081526020016040519081900390209063ffffffff610e3216565b7fd211483f91fc6eff862467f8de606587a30c8fc9981056f051b897a418df803a8282604051600160a060020a038316815260406020820181815290820183818151815260200191508051906020019080838360005b83811015610d10578082015183820152602001610cf8565b50505050905090810190601f168015610d3d5780820380516001836020036101000a031916815260200191505b50935050505060405180910390a15050565b610dc5826000836040518082805190602001908083835b60208310610d855780518252601f199092019160209182019101610d66565b6001836020036101000a0380198251168184511680821785525050505050509050019150509081526020016040519081900390209063ffffffff610e5416565b7fbfec83d64eaa953f2708271a023ab9ee82057f8f3578d548c1a4ba0b5b7004898282604051600160a060020a0383168152604060208201818152908201838181518152602001915080519060200190808383600083811015610d10578082015183820152602001610cf8565b600160a060020a0316600090815260209190915260409020805460ff19169055565b600160a060020a0316600090815260209190915260409020805460ff191660011790555600a165627a7a72305820c5aaf5703d5d187b540409ea7dfce7b735cd05aed32172243fb7c63f4ea2b8840029",
  "source": "pragma solidity ^0.4.21;\n\nimport \"./security/Pausable.sol\";\nimport \"./math/SafeMath.sol\";\nimport \"./security/ReentrancyGuard.sol\";\nimport \"./ERC721/AddressUtils.sol\";\n\ncontract DragonETH {\n\nfunction createDragon(address _to, uint256 _timeToBorn, uint256 _parentOne, uint256 _parentTwo, uint256 _gen1, uint240 _gen2) external;\n\n}\ncontract CrowdSaleDragonETH is Pausable, ReentrancyGuard {\n    using SafeMath for uint256;\n    using AddressUtils for address;\n    address private wallet;\n    address public mainContract;\n    uint256 public crowdSaleDragonPrice = 0.01 ether;\n    uint256 public soldDragons;\n    uint256 public priceChanger = 0.00005 ether;\n    uint256 public timeToBorn = 5760; // ~ 24h \n    uint256 public timeToFirstBorn;\n    \n    function CrowdSaleDragonETH(address _wallet, address _mainContract) public {\n        wallet = _wallet;\n        mainContract = _mainContract;\n        timeToFirstBorn = block.number + 80640; // ~14 days \n    }\n\n\n    function() external payable whenNotPaused nonReentrant {\n       require(soldDragons <= 100000);\n       require(msg.value >= crowdSaleDragonPrice);\n       require(!msg.sender.isContract());\n        uint256 count_to_buy;\n        uint256 return_value;\n  \n        count_to_buy = msg.value.div(crowdSaleDragonPrice);\n        require(count_to_buy >= 1);\n        if (count_to_buy > 5) count_to_buy = 5;\n        // operation safety check with functions div() and require() above\n        return_value = msg.value - count_to_buy * crowdSaleDragonPrice;\n        if (return_value > 0) msg.sender.transfer(return_value);\n        wallet.transfer(msg.value - return_value);\n        for(uint256 i = 1; i <= count_to_buy; i += 1) {\n            if (block.number < timeToFirstBorn) {\n                // TODO add safe transfer\n                DragonETH(mainContract).createDragon(msg.sender, timeToFirstBorn, 0, 0, 0, 0);\n            } else {\n                DragonETH(mainContract).createDragon(msg.sender, block.number + timeToBorn, 0, 0, 0, 0);\n            }\n            soldDragons++;\n            crowdSaleDragonPrice = crowdSaleDragonPrice + priceChanger;\n        }\n        \n    }\n\n    function changePrice(uint256 _price) external onlyAdmin {\n       crowdSaleDragonPrice = _price;\n    }\n\n    function setPriceChanger(uint256 _priceChanger) external onlyAdmin {\n       priceChanger = _priceChanger;\n    }\n\n    function changeWallet(address _wallet) external onlyAdmin {\n        wallet = _wallet;\n    }\n    \n    function setTimeToBorn(uint256 _timeToBorn, uint256 _timeToFirstBorn) external onlyAdmin {\n        timeToBorn = _timeToBorn;\n        timeToFirstBorn = _timeToFirstBorn;\n        \n    }\n\n    function withdrawAllEther() external onlyAdmin {\n        require(wallet != 0);\n        wallet.transfer(address(this).balance);\n    }\n}\n",
  "sourcePath": "/home/k/work/eth/CD/DragonETH/contracts/contracts/CrowdSale.sol",
  "compiler": {
    "name": "solc",
    "version": "0.4.21+commit.dfe3193c.Emscripten.clang"
  },
  "schemaVersion": "2.0.0",
  "updatedAt": "2018-04-17T04:04:35.462Z"
}