{
  "contractName": "CrowdSaleDragonETH",
  "abi": [
    {
      "constant": true,
      "inputs": [],
      "name": "priceChanger",
      "outputs": [
        {
          "name": "",
          "type": "uint256"
        }
      ],
      "payable": false,
      "stateMutability": "view",
      "type": "function"
    },
    {
      "constant": false,
      "inputs": [],
      "name": "unpause",
      "outputs": [],
      "payable": false,
      "stateMutability": "nonpayable",
      "type": "function"
    },
    {
      "constant": true,
      "inputs": [],
      "name": "paused",
      "outputs": [
        {
          "name": "",
          "type": "bool"
        }
      ],
      "payable": false,
      "stateMutability": "view",
      "type": "function"
    },
    {
      "constant": true,
      "inputs": [],
      "name": "soldDragons",
      "outputs": [
        {
          "name": "",
          "type": "uint256"
        }
      ],
      "payable": false,
      "stateMutability": "view",
      "type": "function"
    },
    {
      "constant": false,
      "inputs": [],
      "name": "destroy",
      "outputs": [],
      "payable": false,
      "stateMutability": "nonpayable",
      "type": "function"
    },
    {
      "constant": false,
      "inputs": [],
      "name": "pause",
      "outputs": [],
      "payable": false,
      "stateMutability": "nonpayable",
      "type": "function"
    },
    {
      "constant": true,
      "inputs": [],
      "name": "owner",
      "outputs": [
        {
          "name": "",
          "type": "address"
        }
      ],
      "payable": false,
      "stateMutability": "view",
      "type": "function"
    },
    {
      "constant": true,
      "inputs": [],
      "name": "crowdSaleDragonPrice",
      "outputs": [
        {
          "name": "",
          "type": "uint256"
        }
      ],
      "payable": false,
      "stateMutability": "view",
      "type": "function"
    },
    {
      "constant": true,
      "inputs": [],
      "name": "mainContract",
      "outputs": [
        {
          "name": "",
          "type": "address"
        }
      ],
      "payable": false,
      "stateMutability": "view",
      "type": "function"
    },
    {
      "constant": false,
      "inputs": [
        {
          "name": "newOwner",
          "type": "address"
        }
      ],
      "name": "transferOwnership",
      "outputs": [],
      "payable": false,
      "stateMutability": "nonpayable",
      "type": "function"
    },
    {
      "inputs": [
        {
          "name": "_wallet",
          "type": "address"
        },
        {
          "name": "_mainContract",
          "type": "address"
        }
      ],
      "payable": false,
      "stateMutability": "nonpayable",
      "type": "constructor"
    },
    {
      "payable": true,
      "stateMutability": "payable",
      "type": "fallback"
    },
    {
      "anonymous": false,
      "inputs": [],
      "name": "Pause",
      "type": "event"
    },
    {
      "anonymous": false,
      "inputs": [],
      "name": "Unpause",
      "type": "event"
    },
    {
      "anonymous": false,
      "inputs": [
        {
          "indexed": true,
          "name": "previousOwner",
          "type": "address"
        },
        {
          "indexed": true,
          "name": "newOwner",
          "type": "address"
        }
      ],
      "name": "OwnershipTransferred",
      "type": "event"
    },
    {
      "constant": false,
      "inputs": [
        {
          "name": "_price",
          "type": "uint256"
        }
      ],
      "name": "changePrice",
      "outputs": [],
      "payable": false,
      "stateMutability": "nonpayable",
      "type": "function"
    },
    {
      "constant": false,
      "inputs": [
        {
          "name": "_priceChanger",
          "type": "uint256"
        }
      ],
      "name": "setPriceChanger",
      "outputs": [],
      "payable": false,
      "stateMutability": "nonpayable",
      "type": "function"
    },
    {
      "constant": false,
      "inputs": [
        {
          "name": "_wallet",
          "type": "address"
        }
      ],
      "name": "changeWallet",
      "outputs": [],
      "payable": false,
      "stateMutability": "nonpayable",
      "type": "function"
    },
    {
      "constant": false,
      "inputs": [],
      "name": "withdrawAllEther",
      "outputs": [],
      "payable": false,
      "stateMutability": "nonpayable",
      "type": "function"
    }
  ],
  "bytecode": "0x60606040526000805460a060020a60ff0219169055662386f26fc10000600355652d79883d2000600555341561003457600080fd5b604051604080610777833981016040528080519190602001805160008054600160a060020a03338116600160a060020a0319928316179092556001805496831696821696909617909555600280549190921694169390931790925550506106d7806100a06000396000f3006060604052600436106100cf5763ffffffff7c01000000000000000000000000000000000000000000000000000000006000350416632da0c25c811461025e57806331c91117146102835780633f4ba83a146102985780635c975abb146102ab57806371443c4d146102d257806383197ef0146102e55780638456cb59146102f85780638da5cb5b1461030b57806391be0b311461033a57806398b9a2dc14610350578063a2b40d191461036f578063ae26211414610385578063d270e7ab14610398578063f2fde38b146103ab575b600080548190819060a060020a900460ff16156100eb57600080fd5b600454620186a09011156100fe57600080fd5b60035434101561010d57600080fd5b6003543481151561011a57fe5b049250600183101561012b57600080fd5b600583111561013957600592505b600354830234039150600082111561017c57600160a060020a03331682156108fc0283604051600060405180830381858888f19350505050151561017c57600080fd5b600154600160a060020a03163483900380156108fc0290604051600060405180830381858888f1935050505015156101b357600080fd5b5060015b82811161025957600254600160a060020a031663614959d9336040517c010000000000000000000000000000000000000000000000000000000063ffffffff8416028152600160a060020a039091166004820152602401600060405180830381600087803b151561022757600080fd5b5af1151561023457600080fd5b50506004805460019081019091556005546003805490910190559190910190506101b7565b505050005b341561026957600080fd5b6102716103ca565b60405190815260200160405180910390f35b341561028e57600080fd5b6102966103d0565b005b34156102a357600080fd5b61029661043d565b34156102b657600080fd5b6102be6104bc565b604051901515815260200160405180910390f35b34156102dd57600080fd5b6102716104cc565b34156102f057600080fd5b6102966104d2565b341561030357600080fd5b6102966104de565b341561031657600080fd5b61031e610562565b604051600160a060020a03909116815260200160405180910390f35b341561034557600080fd5b610296600435610571565b341561035b57600080fd5b610296600160a060020a0360043516610591565b341561037a57600080fd5b6102966004356105db565b341561039057600080fd5b6102716105fb565b34156103a357600080fd5b61031e610601565b34156103b657600080fd5b610296600160a060020a0360043516610610565b60055481565b60005433600160a060020a039081169116146103eb57600080fd5b600154600160a060020a0316151561040257600080fd5b600154600160a060020a039081169030163180156108fc0290604051600060405180830381858888f19350505050151561043b57600080fd5b565b60005433600160a060020a0390811691161461045857600080fd5b60005460a060020a900460ff16151561047057600080fd5b6000805474ff0000000000000000000000000000000000000000191690557f7805862f689e2f13df9f062ff482ad3ad112aca9e0847911ed832e158c525b3360405160405180910390a1565b60005460a060020a900460ff1681565b60045481565b33600160a060020a0316ff5b60005433600160a060020a039081169116146104f957600080fd5b60005460a060020a900460ff161561051057600080fd5b6000805474ff0000000000000000000000000000000000000000191660a060020a1790557f6985a02210a168e66602d3235cb6db0e70f92b3ba4d376a33c0f3d9434bff62560405160405180910390a1565b600054600160a060020a031681565b60005433600160a060020a0390811691161461058c57600080fd5b600555565b60005433600160a060020a039081169116146105ac57600080fd5b6001805473ffffffffffffffffffffffffffffffffffffffff1916600160a060020a0392909216919091179055565b60005433600160a060020a039081169116146105f657600080fd5b600355565b60035481565b600254600160a060020a031681565b60005433600160a060020a0390811691161461062b57600080fd5b600160a060020a038116151561064057600080fd5b600054600160a060020a0380831691167f8be0079c531659141344cd1fd0a4f28419497f9722a3daafe3b4186f6b6457e060405160405180910390a36000805473ffffffffffffffffffffffffffffffffffffffff1916600160a060020a03929092169190911790555600a165627a7a723058208800646d3a5a666e89222908c14988fa9e339f04eefc68e6c7cf81374d3167560029",
  "source": "pragma solidity ^0.4.21;\n\nimport \"./ownership/Pausable.sol\";\n\ncontract DragonETH {\n\nfunction createDragon(address _to) external;\n\n}\ncontract CrowdSaleDragonETH is Pausable {\n    address private wallet;\n    address public mainContract;\n    uint256 public crowdSaleDragonPrice = 0.01 ether;\n    uint256 public soldDragons;\n    uint256 public priceChanger = 0.00005 ether;\n\n    function CrowdSaleDragonETH(address _wallet, address _mainContract) public {\n        wallet = _wallet;\n        mainContract = _mainContract;\n    }\n\n\n    function() external payable whenNotPaused {\n       require(soldDragons <= 100000);\n       require(msg.value >= crowdSaleDragonPrice);\n        uint256 count_to_buy;\n        uint256 return_value;\n  \n        count_to_buy = msg.value / crowdSaleDragonPrice;\n        require(count_to_buy >= 1);\n        if (count_to_buy > 5) count_to_buy = 5;\n        return_value = msg.value - count_to_buy * crowdSaleDragonPrice;\n        if (return_value > 0) msg.sender.transfer(return_value);\n        wallet.transfer(msg.value - return_value);\n        for(uint256 len = 1; len <= count_to_buy; len += 1) {\n          DragonETH(mainContract).createDragon(msg.sender);\n          soldDragons++;\n          crowdSaleDragonPrice = crowdSaleDragonPrice + priceChanger;\n        }\n        //TODO Add promo for CryptoKitty owners\n        \n    }\n\n    function changePrice(uint256 _price) external onlyOwner {\n       crowdSaleDragonPrice = _price;\n    }\n\n    function setPriceChanger(uint256 _priceChanger) external onlyOwner {\n       priceChanger = _priceChanger;\n    }\n\n    function changeWallet(address _wallet) external onlyOwner {\n        wallet = _wallet;\n    }\n\n    function withdrawAllEther() external onlyOwner {\n        require(wallet != 0);\n        wallet.transfer(address(this).balance);\n    }\n}\n",
  "sourcePath": "/home/k/work/eth/CD/DragonETH/contracts/contracts/CrowdSale.sol",
  "compiler": {
    "name": "solc",
    "version": "0.4.21+commit.dfe3193c.Emscripten.clang"
  },
  "schemaVersion": "2.0.0",
  "updatedAt": "2018-04-07T15:12:23.128Z"
}