{
  "contractName": "CrowdSaleDragonETH",
  "abi": [
    {
      "constant": true,
      "inputs": [],
      "name": "timeToFirstBorn",
      "outputs": [
        {
          "name": "",
          "type": "uint256"
        }
      ],
      "payable": false,
      "stateMutability": "view",
      "type": "function"
    },
    {
      "constant": true,
      "inputs": [],
      "name": "priceChanger",
      "outputs": [
        {
          "name": "",
          "type": "uint256"
        }
      ],
      "payable": false,
      "stateMutability": "view",
      "type": "function"
    },
    {
      "constant": false,
      "inputs": [],
      "name": "unpause",
      "outputs": [],
      "payable": false,
      "stateMutability": "nonpayable",
      "type": "function"
    },
    {
      "constant": true,
      "inputs": [],
      "name": "timeToBorn",
      "outputs": [
        {
          "name": "",
          "type": "uint256"
        }
      ],
      "payable": false,
      "stateMutability": "view",
      "type": "function"
    },
    {
      "constant": true,
      "inputs": [],
      "name": "paused",
      "outputs": [
        {
          "name": "",
          "type": "bool"
        }
      ],
      "payable": false,
      "stateMutability": "view",
      "type": "function"
    },
    {
      "constant": true,
      "inputs": [],
      "name": "soldDragons",
      "outputs": [
        {
          "name": "",
          "type": "uint256"
        }
      ],
      "payable": false,
      "stateMutability": "view",
      "type": "function"
    },
    {
      "constant": false,
      "inputs": [],
      "name": "destroy",
      "outputs": [],
      "payable": false,
      "stateMutability": "nonpayable",
      "type": "function"
    },
    {
      "constant": false,
      "inputs": [],
      "name": "pause",
      "outputs": [],
      "payable": false,
      "stateMutability": "nonpayable",
      "type": "function"
    },
    {
      "constant": true,
      "inputs": [],
      "name": "owner",
      "outputs": [
        {
          "name": "",
          "type": "address"
        }
      ],
      "payable": false,
      "stateMutability": "view",
      "type": "function"
    },
    {
      "constant": true,
      "inputs": [],
      "name": "crowdSaleDragonPrice",
      "outputs": [
        {
          "name": "",
          "type": "uint256"
        }
      ],
      "payable": false,
      "stateMutability": "view",
      "type": "function"
    },
    {
      "constant": true,
      "inputs": [],
      "name": "mainContract",
      "outputs": [
        {
          "name": "",
          "type": "address"
        }
      ],
      "payable": false,
      "stateMutability": "view",
      "type": "function"
    },
    {
      "constant": false,
      "inputs": [
        {
          "name": "newOwner",
          "type": "address"
        }
      ],
      "name": "transferOwnership",
      "outputs": [],
      "payable": false,
      "stateMutability": "nonpayable",
      "type": "function"
    },
    {
      "inputs": [
        {
          "name": "_wallet",
          "type": "address"
        },
        {
          "name": "_mainContract",
          "type": "address"
        }
      ],
      "payable": false,
      "stateMutability": "nonpayable",
      "type": "constructor"
    },
    {
      "payable": true,
      "stateMutability": "payable",
      "type": "fallback"
    },
    {
      "anonymous": false,
      "inputs": [],
      "name": "Pause",
      "type": "event"
    },
    {
      "anonymous": false,
      "inputs": [],
      "name": "Unpause",
      "type": "event"
    },
    {
      "anonymous": false,
      "inputs": [
        {
          "indexed": true,
          "name": "previousOwner",
          "type": "address"
        },
        {
          "indexed": true,
          "name": "newOwner",
          "type": "address"
        }
      ],
      "name": "OwnershipTransferred",
      "type": "event"
    },
    {
      "constant": false,
      "inputs": [
        {
          "name": "_price",
          "type": "uint256"
        }
      ],
      "name": "changePrice",
      "outputs": [],
      "payable": false,
      "stateMutability": "nonpayable",
      "type": "function"
    },
    {
      "constant": false,
      "inputs": [
        {
          "name": "_priceChanger",
          "type": "uint256"
        }
      ],
      "name": "setPriceChanger",
      "outputs": [],
      "payable": false,
      "stateMutability": "nonpayable",
      "type": "function"
    },
    {
      "constant": false,
      "inputs": [
        {
          "name": "_wallet",
          "type": "address"
        }
      ],
      "name": "changeWallet",
      "outputs": [],
      "payable": false,
      "stateMutability": "nonpayable",
      "type": "function"
    },
    {
      "constant": false,
      "inputs": [
        {
          "name": "_timeToBorn",
          "type": "uint256"
        },
        {
          "name": "_timeToFirstBorn",
          "type": "uint256"
        }
      ],
      "name": "setTimeToBorn",
      "outputs": [],
      "payable": false,
      "stateMutability": "nonpayable",
      "type": "function"
    },
    {
      "constant": false,
      "inputs": [],
      "name": "withdrawAllEther",
      "outputs": [],
      "payable": false,
      "stateMutability": "nonpayable",
      "type": "function"
    }
  ],
  "bytecode": "0x60606040526000805460a060020a60ff0219168155662386f26fc10000600355652d79883d2000600555611680600655600755341561003d57600080fd5b604051604080610901833981016040528080519190602001805160008054600160a060020a03338116600160a060020a031992831617909255600180549683169682169690961790955560028054919092169416939093179092555050610858806100a96000396000f3006060604052600436106100d75763ffffffff60e060020a600035041663293f5bed81146103595780632da0c25c1461037e57806331c91117146103915780633f4ba83a146103a65780634256fa5a146103b95780635c975abb146103cc57806371443c4d146103f357806383197ef0146104065780638456cb59146104195780638da5cb5b1461042c57806391be0b311461045b57806398b9a2dc14610471578063a2b40d1914610490578063ae262114146104a6578063c8af065f146104b9578063d270e7ab146104d2578063f2fde38b146104e5575b600080548190819060a060020a900460ff16156100f357600080fd5b600454620186a090111561010657600080fd5b60035434101561011557600080fd5b60035461012990349063ffffffff61050416565b9250600183101561013957600080fd5b600583111561014757600592505b600354830234039150600082111561018a57600160a060020a03331682156108fc0283604051600060405180830381858888f19350505050151561018a57600080fd5b600154600160a060020a03163483900380156108fc0290604051600060405180830381858888f1935050505015156101c157600080fd5b5060015b8281116103545760075443101561028757600254600754600160a060020a0390911690633f07618d903390600080808060405160e060020a63ffffffff8916028152600160a060020a03909616600487015260248601949094526044850192909252606484015260848301527dffffffffffffffffffffffffffffffffffffffffffffffffffffffffffff1660a482015260c401600060405180830381600087803b151561027257600080fd5b5af1151561027f57600080fd5b505050610336565b600254600654600160a060020a0390911690633f07618d9033904301600080808060405160e060020a63ffffffff8916028152600160a060020a03909616600487015260248601949094526044850192909252606484015260848301527dffffffffffffffffffffffffffffffffffffffffffffffffffffffffffff1660a482015260c401600060405180830381600087803b151561032557600080fd5b5af1151561033257600080fd5b5050505b600480546001908101909155600554600380549091019055016101c5565b505050005b341561036457600080fd5b61036c610519565b60405190815260200160405180910390f35b341561038957600080fd5b61036c61051f565b341561039c57600080fd5b6103a4610525565b005b34156103b157600080fd5b6103a4610592565b34156103c457600080fd5b61036c610611565b34156103d757600080fd5b6103df610617565b604051901515815260200160405180910390f35b34156103fe57600080fd5b61036c610627565b341561041157600080fd5b6103a461062d565b341561042457600080fd5b6103a4610639565b341561043757600080fd5b61043f6106bd565b604051600160a060020a03909116815260200160405180910390f35b341561046657600080fd5b6103a46004356106cc565b341561047c57600080fd5b6103a4600160a060020a03600435166106ec565b341561049b57600080fd5b6103a4600435610736565b34156104b157600080fd5b61036c610756565b34156104c457600080fd5b6103a460043560243561075c565b34156104dd57600080fd5b61043f610782565b34156104f057600080fd5b6103a4600160a060020a0360043516610791565b6000818381151561051157fe5b049392505050565b60075481565b60055481565b60005433600160a060020a0390811691161461054057600080fd5b600154600160a060020a0316151561055757600080fd5b600154600160a060020a039081169030163180156108fc0290604051600060405180830381858888f19350505050151561059057600080fd5b565b60005433600160a060020a039081169116146105ad57600080fd5b60005460a060020a900460ff1615156105c557600080fd5b6000805474ff0000000000000000000000000000000000000000191690557f7805862f689e2f13df9f062ff482ad3ad112aca9e0847911ed832e158c525b3360405160405180910390a1565b60065481565b60005460a060020a900460ff1681565b60045481565b33600160a060020a0316ff5b60005433600160a060020a0390811691161461065457600080fd5b60005460a060020a900460ff161561066b57600080fd5b6000805474ff0000000000000000000000000000000000000000191660a060020a1790557f6985a02210a168e66602d3235cb6db0e70f92b3ba4d376a33c0f3d9434bff62560405160405180910390a1565b600054600160a060020a031681565b60005433600160a060020a039081169116146106e757600080fd5b600555565b60005433600160a060020a0390811691161461070757600080fd5b6001805473ffffffffffffffffffffffffffffffffffffffff1916600160a060020a0392909216919091179055565b60005433600160a060020a0390811691161461075157600080fd5b600355565b60035481565b60005433600160a060020a0390811691161461077757600080fd5b600691909155600755565b600254600160a060020a031681565b60005433600160a060020a039081169116146107ac57600080fd5b600160a060020a03811615156107c157600080fd5b600054600160a060020a0380831691167f8be0079c531659141344cd1fd0a4f28419497f9722a3daafe3b4186f6b6457e060405160405180910390a36000805473ffffffffffffffffffffffffffffffffffffffff1916600160a060020a03929092169190911790555600a165627a7a723058208e6e50302b73b192c993a5457fa41e6513e1212e300fb8ff8563f797292465b80029",
  "source": "pragma solidity ^0.4.21;\n\nimport \"./security/Pausable.sol\";\nimport \"./math/SafeMath.sol\";\n\ncontract DragonETH {\n\nfunction createDragon(address _to, uint256 _timeToBorn, uint256 _parentOne, uint256 _parentTwo, uint256 _gen1, uint240 _gen2) external;\n\n}\ncontract CrowdSaleDragonETH is Pausable {\n    using SafeMath for uint256;\n    address private wallet;\n    address public mainContract;\n    uint256 public crowdSaleDragonPrice = 0.01 ether;\n    uint256 public soldDragons;\n    uint256 public priceChanger = 0.00005 ether;\n    uint256 public timeToBorn = 5760; // ~ 24h \n    uint256 public timeToFirstBorn = 0; // Change to Birth Date of first dragon \n    function CrowdSaleDragonETH(address _wallet, address _mainContract) public {\n        wallet = _wallet;\n        mainContract = _mainContract;\n    }\n\n\n    function() external payable whenNotPaused {\n       require(soldDragons <= 100000);\n       require(msg.value >= crowdSaleDragonPrice);\n        uint256 count_to_buy;\n        uint256 return_value;\n  \n        count_to_buy = msg.value.div(crowdSaleDragonPrice);\n        require(count_to_buy >= 1);\n        if (count_to_buy > 5) count_to_buy = 5;\n        // operation safety check with functions div() and require() above\n        return_value = msg.value - count_to_buy * (crowdSaleDragonPrice);\n        if (return_value > 0) msg.sender.transfer(return_value);\n        wallet.transfer(msg.value - return_value);\n        for(uint256 len = 1; len <= count_to_buy; len += 1) {\n        // TODO rewrite parameter\n            if (block.number < timeToFirstBorn) {\n                DragonETH(mainContract).createDragon(msg.sender, timeToFirstBorn, 0, 0, 0, 0);\n            } else {\n                DragonETH(mainContract).createDragon(msg.sender, block.number + timeToBorn, 0, 0, 0, 0);\n            }\n            soldDragons++;\n            crowdSaleDragonPrice = crowdSaleDragonPrice + priceChanger;\n        }\n        //TODO Add promo for CryptoKitty owners\n        \n    }\n\n    function changePrice(uint256 _price) external onlyOwner {\n       crowdSaleDragonPrice = _price;\n    }\n\n    function setPriceChanger(uint256 _priceChanger) external onlyOwner {\n       priceChanger = _priceChanger;\n    }\n\n    function changeWallet(address _wallet) external onlyOwner {\n        wallet = _wallet;\n    }\n    \n    function setTimeToBorn(uint256 _timeToBorn, uint256 _timeToFirstBorn) external onlyOwner {\n        timeToBorn = _timeToBorn;\n        timeToFirstBorn = _timeToFirstBorn;\n        \n    }\n\n    function withdrawAllEther() external onlyOwner {\n        require(wallet != 0);\n        wallet.transfer(address(this).balance);\n    }\n}\n",
  "sourcePath": "/home/k/work/eth/CD/DragonETH/contracts/contracts/CrowdSale.sol",
  "compiler": {
    "name": "solc",
    "version": "0.4.21+commit.dfe3193c.Emscripten.clang"
  },
  "schemaVersion": "2.0.0",
  "updatedAt": "2018-04-16T22:46:31.753Z"
}