{
  "contractName": "DragonFightGC",
  "abi": [
    {
      "constant": true,
      "inputs": [
        {
          "name": "addr",
          "type": "address"
        },
        {
          "name": "roleName",
          "type": "string"
        }
      ],
      "name": "checkRole",
      "outputs": [],
      "payable": false,
      "stateMutability": "view",
      "type": "function"
    },
    {
      "constant": true,
      "inputs": [
        {
          "name": "addr",
          "type": "address"
        },
        {
          "name": "roleName",
          "type": "string"
        }
      ],
      "name": "hasRole",
      "outputs": [
        {
          "name": "",
          "type": "bool"
        }
      ],
      "payable": false,
      "stateMutability": "view",
      "type": "function"
    },
    {
      "constant": true,
      "inputs": [],
      "name": "minFightWaitBloc",
      "outputs": [
        {
          "name": "",
          "type": "uint256"
        }
      ],
      "payable": false,
      "stateMutability": "view",
      "type": "function"
    },
    {
      "constant": true,
      "inputs": [],
      "name": "addTime2Rest",
      "outputs": [
        {
          "name": "",
          "type": "uint256"
        }
      ],
      "payable": false,
      "stateMutability": "view",
      "type": "function"
    },
    {
      "constant": true,
      "inputs": [],
      "name": "dragonFightContract",
      "outputs": [
        {
          "name": "",
          "type": "address"
        }
      ],
      "payable": false,
      "stateMutability": "view",
      "type": "function"
    },
    {
      "constant": false,
      "inputs": [],
      "name": "unpause",
      "outputs": [],
      "payable": false,
      "stateMutability": "nonpayable",
      "type": "function"
    },
    {
      "constant": true,
      "inputs": [],
      "name": "maxFightWaitBloc",
      "outputs": [
        {
          "name": "",
          "type": "uint256"
        }
      ],
      "payable": false,
      "stateMutability": "view",
      "type": "function"
    },
    {
      "constant": true,
      "inputs": [],
      "name": "ROLE_PAUSE_ADMIN",
      "outputs": [
        {
          "name": "",
          "type": "string"
        }
      ],
      "payable": false,
      "stateMutability": "view",
      "type": "function"
    },
    {
      "constant": true,
      "inputs": [],
      "name": "paused",
      "outputs": [
        {
          "name": "",
          "type": "bool"
        }
      ],
      "payable": false,
      "stateMutability": "view",
      "type": "function"
    },
    {
      "constant": true,
      "inputs": [],
      "name": "mutagenToDeathWin",
      "outputs": [
        {
          "name": "",
          "type": "uint256"
        }
      ],
      "payable": false,
      "stateMutability": "view",
      "type": "function"
    },
    {
      "constant": false,
      "inputs": [],
      "name": "destroy",
      "outputs": [],
      "payable": false,
      "stateMutability": "nonpayable",
      "type": "function"
    },
    {
      "constant": false,
      "inputs": [],
      "name": "pause",
      "outputs": [],
      "payable": false,
      "stateMutability": "nonpayable",
      "type": "function"
    },
    {
      "constant": false,
      "inputs": [
        {
          "name": "addr",
          "type": "address"
        },
        {
          "name": "roleName",
          "type": "string"
        }
      ],
      "name": "adminRemoveRole",
      "outputs": [],
      "payable": false,
      "stateMutability": "nonpayable",
      "type": "function"
    },
    {
      "constant": true,
      "inputs": [],
      "name": "mutagenToWin",
      "outputs": [
        {
          "name": "",
          "type": "uint256"
        }
      ],
      "payable": false,
      "stateMutability": "view",
      "type": "function"
    },
    {
      "constant": false,
      "inputs": [
        {
          "name": "addr",
          "type": "address"
        },
        {
          "name": "roleName",
          "type": "string"
        }
      ],
      "name": "adminAddRole",
      "outputs": [],
      "payable": false,
      "stateMutability": "nonpayable",
      "type": "function"
    },
    {
      "constant": true,
      "inputs": [],
      "name": "dragonStatsContract",
      "outputs": [
        {
          "name": "",
          "type": "address"
        }
      ],
      "payable": false,
      "stateMutability": "view",
      "type": "function"
    },
    {
      "constant": true,
      "inputs": [],
      "name": "mainContract",
      "outputs": [
        {
          "name": "",
          "type": "address"
        }
      ],
      "payable": false,
      "stateMutability": "view",
      "type": "function"
    },
    {
      "constant": true,
      "inputs": [],
      "name": "ROLE_ADMIN",
      "outputs": [
        {
          "name": "",
          "type": "string"
        }
      ],
      "payable": false,
      "stateMutability": "view",
      "type": "function"
    },
    {
      "constant": true,
      "inputs": [],
      "name": "mutagenContract",
      "outputs": [
        {
          "name": "",
          "type": "address"
        }
      ],
      "payable": false,
      "stateMutability": "view",
      "type": "function"
    },
    {
      "constant": true,
      "inputs": [],
      "name": "mutagenToLose",
      "outputs": [
        {
          "name": "",
          "type": "uint256"
        }
      ],
      "payable": false,
      "stateMutability": "view",
      "type": "function"
    },
    {
      "anonymous": false,
      "inputs": [],
      "name": "Pause",
      "type": "event"
    },
    {
      "anonymous": false,
      "inputs": [],
      "name": "Unpause",
      "type": "event"
    },
    {
      "anonymous": false,
      "inputs": [
        {
          "indexed": false,
          "name": "addr",
          "type": "address"
        },
        {
          "indexed": false,
          "name": "roleName",
          "type": "string"
        }
      ],
      "name": "RoleAdded",
      "type": "event"
    },
    {
      "anonymous": false,
      "inputs": [
        {
          "indexed": false,
          "name": "addr",
          "type": "address"
        },
        {
          "indexed": false,
          "name": "roleName",
          "type": "string"
        }
      ],
      "name": "RoleRemoved",
      "type": "event"
    },
    {
      "constant": false,
      "inputs": [
        {
          "name": "_newAddress",
          "type": "address"
        }
      ],
      "name": "changeAddressMutagenContract",
      "outputs": [],
      "payable": false,
      "stateMutability": "nonpayable",
      "type": "function"
    },
    {
      "constant": false,
      "inputs": [
        {
          "name": "_newAddress",
          "type": "address"
        }
      ],
      "name": "changeAddressMainContract",
      "outputs": [],
      "payable": false,
      "stateMutability": "nonpayable",
      "type": "function"
    },
    {
      "constant": false,
      "inputs": [
        {
          "name": "_newAddress",
          "type": "address"
        }
      ],
      "name": "changeAddressFightContract",
      "outputs": [],
      "payable": false,
      "stateMutability": "nonpayable",
      "type": "function"
    },
    {
      "constant": false,
      "inputs": [
        {
          "name": "_newAddress",
          "type": "address"
        }
      ],
      "name": "changeAddressStatsContract",
      "outputs": [],
      "payable": false,
      "stateMutability": "nonpayable",
      "type": "function"
    },
    {
      "constant": false,
      "inputs": [
        {
          "name": "_wallet",
          "type": "address"
        }
      ],
      "name": "changeWallet",
      "outputs": [],
      "payable": false,
      "stateMutability": "nonpayable",
      "type": "function"
    },
    {
      "constant": false,
      "inputs": [
        {
          "name": "_minFightWaitBloc",
          "type": "uint256"
        }
      ],
      "name": "changeMinFightWaitBloc",
      "outputs": [],
      "payable": false,
      "stateMutability": "nonpayable",
      "type": "function"
    },
    {
      "constant": false,
      "inputs": [
        {
          "name": "_maxFightWaitBloc",
          "type": "uint256"
        }
      ],
      "name": "changeMaxFightWaitBloc",
      "outputs": [],
      "payable": false,
      "stateMutability": "nonpayable",
      "type": "function"
    },
    {
      "constant": false,
      "inputs": [
        {
          "name": "_mutagenToWin",
          "type": "uint256"
        }
      ],
      "name": "changeMutagenToWin",
      "outputs": [],
      "payable": false,
      "stateMutability": "nonpayable",
      "type": "function"
    },
    {
      "constant": false,
      "inputs": [
        {
          "name": "_mutagenToLose",
          "type": "uint256"
        }
      ],
      "name": "changeMutagenToLose",
      "outputs": [],
      "payable": false,
      "stateMutability": "nonpayable",
      "type": "function"
    },
    {
      "constant": false,
      "inputs": [
        {
          "name": "_mutagenToDeathWin",
          "type": "uint256"
        }
      ],
      "name": "changeMutagenToDeathWin",
      "outputs": [],
      "payable": false,
      "stateMutability": "nonpayable",
      "type": "function"
    },
    {
      "constant": false,
      "inputs": [
        {
          "name": "_addTime2Rest",
          "type": "uint256"
        }
      ],
      "name": "changeAddTime2Rest",
      "outputs": [],
      "payable": false,
      "stateMutability": "nonpayable",
      "type": "function"
    },
    {
      "constant": false,
      "inputs": [],
      "name": "withdrawAllEther",
      "outputs": [],
      "payable": false,
      "stateMutability": "nonpayable",
      "type": "function"
    }
  ],
  "bytecode": "0x606060409081526001805460ff1916815560506006556202a300600755600a60088190556009919091556064905560f0600b5561007c9033908051908101604052600581527f61646d696e0000000000000000000000000000000000000000000000000000006020820152640100000000610e086100cb82021704565b6100c63360408051908101604052600a81527f706175736541646d696e000000000000000000000000000000000000000000006020820152640100000000610e086100cb82021704565b61021a565b610148826000836040518082805190602001908083835b602083106101015780518252601f1990920191602091820191016100e2565b6001836020036101000a03801982511681845116808217855250505050505090500191505090815260200160405190819003902090640100000000610f0d6101f582021704565b7fbfec83d64eaa953f2708271a023ab9ee82057f8f3578d548c1a4ba0b5b7004898282604051600160a060020a038316815260406020820181815290820183818151815260200191508051906020019080838360005b838110156101b657808201518382015260200161019e565b50505050905090810190601f1680156101e35780820380516001836020036101000a031916815260200191505b50935050505060405180910390a15050565b600160a060020a0316600090815260209190915260409020805460ff19166001179055565b610f5e806200022a6000396000f3006060604052600436106101955763ffffffff7c01000000000000000000000000000000000000000000000000000000006000350416630988ca8c811461019a578063217fe6c6146101fb57806323810b8c1461026e57806331c9111714610293578063332390c5146102a65780633d2eeb40146102b95780633f2e72ab146102cf5780633f4ba83a146102fe57806345d8e2d51461031157806347492352146103245780634a1f679b146103ae5780634e559a9a146103cd5780635c975abb146103e3578063682f8f0f146103f65780636be2a3db1461040c5780636f3ecb501461041f578063777793a5146104355780637b52be281461044b57806383197ef0146104615780638456cb591461047457806388cee87e1461048757806389dd7cbd146104e65780638ac450661461050557806398b9a2dc14610518578063b25fa92c14610537578063b4f6a96514610596578063bd94be5e146105b5578063ceacd73e146105d4578063d270e7ab146105e7578063d391014b146105fa578063d4ef908c1461060d578063fe36cab914610620575b600080fd5b34156101a557600080fd5b6101f960048035600160a060020a03169060446024803590810190830135806020601f8201819004810201604051908101604052818152929190602084018383808284375094965061063395505050505050565b005b341561020657600080fd5b61025a60048035600160a060020a03169060446024803590810190830135806020601f820181900481020160405190810160405281815292919060208401838380828437509496506106ad95505050505050565b604051901515815260200160405180910390f35b341561027957600080fd5b61028161072c565b60405190815260200160405180910390f35b341561029e57600080fd5b6101f9610732565b34156102b157600080fd5b6102816107ac565b34156102c457600080fd5b6101f96004356107b2565b34156102da57600080fd5b6102e26107df565b604051600160a060020a03909116815260200160405180910390f35b341561030957600080fd5b6101f96107ee565b341561031c57600080fd5b610281610874565b341561032f57600080fd5b61033761087a565b60405160208082528190810183818151815260200191508051906020019080838360005b8381101561037357808201518382015260200161035b565b50505050905090810190601f1680156103a05780820380516001836020036101000a031916815260200191505b509250505060405180910390f35b34156103b957600080fd5b6101f9600160a060020a03600435166108b1565b34156103d857600080fd5b6101f9600435610908565b34156103ee57600080fd5b61025a610935565b341561040157600080fd5b6101f960043561093e565b341561041757600080fd5b61028161096b565b341561042a57600080fd5b6101f9600435610971565b341561044057600080fd5b6101f960043561099e565b341561045657600080fd5b6101f96004356109cb565b341561046c57600080fd5b6101f96109f8565b341561047f57600080fd5b6101f9610a04565b341561049257600080fd5b6101f960048035600160a060020a03169060446024803590810190830135806020601f82018190048102016040519081016040528181529291906020840183838082843750949650610a8b95505050505050565b34156104f157600080fd5b6101f9600160a060020a0360043516610abd565b341561051057600080fd5b610281610b14565b341561052357600080fd5b6101f9600160a060020a0360043516610b1a565b341561054257600080fd5b6101f960048035600160a060020a03169060446024803590810190830135806020601f82018190048102016040519081016040528181529291906020840183838082843750949650610b7195505050505050565b34156105a157600080fd5b6101f9600160a060020a0360043516610ba3565b34156105c057600080fd5b6101f9600160a060020a0360043516610bfa565b34156105df57600080fd5b6102e2610c57565b34156105f257600080fd5b6102e2610c66565b341561060557600080fd5b610337610c75565b341561061857600080fd5b6102e2610c97565b341561062b57600080fd5b610281610cab565b6106a9826000836040518082805190602001908083835b602083106106695780518252601f19909201916020918201910161064a565b6001836020036101000a0380198251168184511680821785525050505050509050019150509081526020016040519081900390209063ffffffff610cb116565b5050565b6000610725836000846040518082805190602001908083835b602083106106e55780518252601f1990920191602091820191016106c6565b6001836020036101000a0380198251168184511680821785525050505050509050019150509081526020016040519081900390209063ffffffff610cc616565b9392505050565b60065481565b61075a33604080519081016040526005815260d960020a6430b236b4b7026020820152610633565b600554600160a060020a0316151561077157600080fd5b600554600160a060020a039081169030163180156108fc0290604051600060405180830381858888f1935050505015156107aa57600080fd5b565b600b5481565b6107da33604080519081016040526005815260d960020a6430b236b4b7026020820152610633565b600a55565b600354600160a060020a031681565b61082b3360408051908101604052600a81527f706175736541646d696e000000000000000000000000000000000000000000006020820152610633565b60015460ff16151561083c57600080fd5b6001805460ff191690557f7805862f689e2f13df9f062ff482ad3ad112aca9e0847911ed832e158c525b3360405160405180910390a1565b60075481565b60408051908101604052600a81527f706175736541646d696e00000000000000000000000000000000000000000000602082015281565b6108d933604080519081016040526005815260d960020a6430b236b4b7026020820152610633565b6002805473ffffffffffffffffffffffffffffffffffffffff1916600160a060020a0392909216919091179055565b61093033604080519081016040526005815260d960020a6430b236b4b7026020820152610633565b600855565b60015460ff1681565b61096633604080519081016040526005815260d960020a6430b236b4b7026020820152610633565b600b55565b600a5481565b61099933604080519081016040526005815260d960020a6430b236b4b7026020820152610633565b600955565b6109c633604080519081016040526005815260d960020a6430b236b4b7026020820152610633565b600755565b6109f333604080519081016040526005815260d960020a6430b236b4b7026020820152610633565b600655565b33600160a060020a0316ff5b610a413360408051908101604052600a81527f706175736541646d696e000000000000000000000000000000000000000000006020820152610633565b60015460ff1615610a5157600080fd5b6001805460ff1916811790557f6985a02210a168e66602d3235cb6db0e70f92b3ba4d376a33c0f3d9434bff62560405160405180910390a1565b610ab333604080519081016040526005815260d960020a6430b236b4b7026020820152610633565b6106a98282610ce5565b610ae533604080519081016040526005815260d960020a6430b236b4b7026020820152610633565b6004805473ffffffffffffffffffffffffffffffffffffffff1916600160a060020a0392909216919091179055565b60085481565b610b4233604080519081016040526005815260d960020a6430b236b4b7026020820152610633565b6005805473ffffffffffffffffffffffffffffffffffffffff1916600160a060020a0392909216919091179055565b610b9933604080519081016040526005815260d960020a6430b236b4b7026020820152610633565b6106a98282610e08565b610bcb33604080519081016040526005815260d960020a6430b236b4b7026020820152610633565b6003805473ffffffffffffffffffffffffffffffffffffffff1916600160a060020a0392909216919091179055565b610c2233604080519081016040526005815260d960020a6430b236b4b7026020820152610633565b60018054600160a060020a039092166101000274ffffffffffffffffffffffffffffffffffffffff0019909216919091179055565b600454600160a060020a031681565b600254600160a060020a031681565b604080519081016040526005815260d960020a6430b236b4b702602082015281565b6001546101009004600160a060020a031681565b60095481565b610cbb8282610cc6565b15156106a957600080fd5b600160a060020a03166000908152602091909152604090205460ff1690565b610d5b826000836040518082805190602001908083835b60208310610d1b5780518252601f199092019160209182019101610cfc565b6001836020036101000a0380198251168184511680821785525050505050509050019150509081526020016040519081900390209063ffffffff610eeb16565b7fd211483f91fc6eff862467f8de606587a30c8fc9981056f051b897a418df803a8282604051600160a060020a038316815260406020820181815290820183818151815260200191508051906020019080838360005b83811015610dc9578082015183820152602001610db1565b50505050905090810190601f168015610df65780820380516001836020036101000a031916815260200191505b50935050505060405180910390a15050565b610e7e826000836040518082805190602001908083835b60208310610e3e5780518252601f199092019160209182019101610e1f565b6001836020036101000a0380198251168184511680821785525050505050509050019150509081526020016040519081900390209063ffffffff610f0d16565b7fbfec83d64eaa953f2708271a023ab9ee82057f8f3578d548c1a4ba0b5b7004898282604051600160a060020a0383168152604060208201818152908201838181518152602001915080519060200190808383600083811015610dc9578082015183820152602001610db1565b600160a060020a0316600090815260209190915260409020805460ff19169055565b600160a060020a0316600090815260209190915260409020805460ff191660011790555600a165627a7a72305820eabd6b931e4132d45689e083dece39d87c136349d3c133f9c4c82bb9133475be0029",
  "source": "pragma solidity ^0.4.21;\n\nimport \"../security/Pausable.sol\";\n//import \"./math/SafeMath.sol\";\n\ncontract DragonETH {\n    \n    function ownerOf(uint256 _tokenId) public view returns (address);\n    function checkDragonStatus(uint256 _dragonID, uint8 _stage) public view;\n    function setCurrentAction(uint256 _dragonID, uint8 _currentAction) external;\n    function setTime2Rest(uint256 _dragonID, uint256 _addNextBlock2Action) external;\n\n    \n}\n\ncontract DragonFight {\n    function getWinner(uint256 _dragonOneID, uint256 _dragonTwoID) external returns (uint256 _winerID);\n}\n\ncontract DragonStats {\n    function incFightWin(uint256 _dragonID) external;\n    function incFightLose(uint256 _dragonID) external;\n    function incFightToDeathWin(uint256 _dragonID) external;\n    function setLastAction(uint256 _dragonID, uint256 _lastActionDragonID, uint8 _lastActionID) external;\n}\n\ncontract Mutagen {\n    function mint(address _to, uint256 _amount)  public returns (bool);\n}\n\ncontract DragonFightGC is Pausable {\n//    using SafeMath for uint256;\n    Mutagen public mutagenContract;\n    DragonETH public mainContract;\n    DragonFight public dragonFightContract;\n    DragonStats public dragonStatsContract;\n    address wallet;\n    uint256 public minFightWaitBloc = 80; // ~20 min\n    uint256 public maxFightWaitBloc = 172800; // ~30 days??????\n    uint256 public mutagenToWin = 10;\n    uint256 public mutagenToLose =1;\n    uint256 public mutagenToDeathWin = 100;\n    uint256 public addTime2Rest = 240; // ~ 60 min\n    \n    \n    function changeAddressMutagenContract(address _newAddress) external onlyAdmin {\n        mutagenContract = Mutagen(_newAddress);\n    }\n    function changeAddressMainContract(address _newAddress) external onlyAdmin {\n        mainContract = DragonETH(_newAddress);\n    }\n    function changeAddressFightContract(address _newAddress) external onlyAdmin {\n        dragonFightContract = DragonFight(_newAddress);\n    }\n    function changeAddressStatsContract(address _newAddress) external onlyAdmin {\n        dragonStatsContract = DragonStats(_newAddress);\n    }\n    function changeWallet(address _wallet) external onlyAdmin {\n        wallet = _wallet;\n    }\n\n    function changeMinFightWaitBloc(uint256 _minFightWaitBloc) external onlyAdmin {\n        minFightWaitBloc = _minFightWaitBloc;\n    }\n\n    function changeMaxFightWaitBloc(uint256 _maxFightWaitBloc) external onlyAdmin {\n        maxFightWaitBloc = _maxFightWaitBloc;\n    }\n    \n    function changeMutagenToWin(uint256 _mutagenToWin) external onlyAdmin {\n        mutagenToWin = _mutagenToWin;\n    }\n    \n    function changeMutagenToLose(uint256 _mutagenToLose) external onlyAdmin {\n        mutagenToLose = _mutagenToLose;\n    }\n    \n    function changeMutagenToDeathWin(uint256 _mutagenToDeathWin) external onlyAdmin {\n        mutagenToDeathWin = _mutagenToDeathWin;\n    }\n    function changeAddTime2Rest(uint256 _addTime2Rest) external onlyAdmin {\n        addTime2Rest = _addTime2Rest;\n    }\n    function withdrawAllEther() external onlyAdmin {\n        require(wallet != 0);\n        wallet.transfer(address(this).balance);\n    }\n}",
  "sourcePath": "/home/k/work/eth/CD/DragonETH/contracts/contracts/fight/DragonFightGC.sol",
  "compiler": {
    "name": "solc",
    "version": "0.4.21+commit.dfe3193c.Emscripten.clang"
  },
  "schemaVersion": "2.0.0",
  "updatedAt": "2018-04-17T04:04:35.496Z"
}