{
  "contractName": "DragonStats",
  "abi": [
    {
      "constant": true,
      "inputs": [
        {
          "name": "addr",
          "type": "address"
        },
        {
          "name": "roleName",
          "type": "string"
        }
      ],
      "name": "checkRole",
      "outputs": [],
      "payable": false,
      "stateMutability": "view",
      "type": "function"
    },
    {
      "constant": true,
      "inputs": [
        {
          "name": "addr",
          "type": "address"
        },
        {
          "name": "roleName",
          "type": "string"
        }
      ],
      "name": "hasRole",
      "outputs": [
        {
          "name": "",
          "type": "bool"
        }
      ],
      "payable": false,
      "stateMutability": "view",
      "type": "function"
    },
    {
      "constant": true,
      "inputs": [],
      "name": "ROLE_PAUSE_ADMIN",
      "outputs": [
        {
          "name": "",
          "type": "string"
        }
      ],
      "payable": false,
      "stateMutability": "view",
      "type": "function"
    },
    {
      "constant": true,
      "inputs": [
        {
          "name": "",
          "type": "uint256"
        }
      ],
      "name": "birthBlock",
      "outputs": [
        {
          "name": "",
          "type": "uint256"
        }
      ],
      "payable": false,
      "stateMutability": "view",
      "type": "function"
    },
    {
      "constant": false,
      "inputs": [],
      "name": "destroy",
      "outputs": [],
      "payable": false,
      "stateMutability": "nonpayable",
      "type": "function"
    },
    {
      "constant": false,
      "inputs": [
        {
          "name": "addr",
          "type": "address"
        },
        {
          "name": "roleName",
          "type": "string"
        }
      ],
      "name": "adminRemoveRole",
      "outputs": [],
      "payable": false,
      "stateMutability": "nonpayable",
      "type": "function"
    },
    {
      "constant": true,
      "inputs": [
        {
          "name": "",
          "type": "uint256"
        }
      ],
      "name": "parents",
      "outputs": [
        {
          "name": "parentOne",
          "type": "uint128"
        },
        {
          "name": "parentTwo",
          "type": "uint128"
        }
      ],
      "payable": false,
      "stateMutability": "view",
      "type": "function"
    },
    {
      "constant": true,
      "inputs": [
        {
          "name": "",
          "type": "uint256"
        }
      ],
      "name": "lastActions",
      "outputs": [
        {
          "name": "lastActionID",
          "type": "uint8"
        },
        {
          "name": "lastActionDragonID",
          "type": "uint248"
        }
      ],
      "payable": false,
      "stateMutability": "view",
      "type": "function"
    },
    {
      "constant": false,
      "inputs": [
        {
          "name": "addr",
          "type": "address"
        },
        {
          "name": "roleName",
          "type": "string"
        }
      ],
      "name": "adminAddRole",
      "outputs": [],
      "payable": false,
      "stateMutability": "nonpayable",
      "type": "function"
    },
    {
      "constant": true,
      "inputs": [
        {
          "name": "",
          "type": "uint256"
        }
      ],
      "name": "deathBlock",
      "outputs": [
        {
          "name": "",
          "type": "uint256"
        }
      ],
      "payable": false,
      "stateMutability": "view",
      "type": "function"
    },
    {
      "constant": true,
      "inputs": [],
      "name": "ROLE_ADMIN",
      "outputs": [
        {
          "name": "",
          "type": "string"
        }
      ],
      "payable": false,
      "stateMutability": "view",
      "type": "function"
    },
    {
      "constant": true,
      "inputs": [
        {
          "name": "",
          "type": "uint256"
        }
      ],
      "name": "dragonStats",
      "outputs": [
        {
          "name": "fightWin",
          "type": "uint32"
        },
        {
          "name": "fightLose",
          "type": "uint32"
        },
        {
          "name": "children",
          "type": "uint32"
        },
        {
          "name": "fightToDeathWin",
          "type": "uint32"
        },
        {
          "name": "mutagenFace",
          "type": "uint32"
        },
        {
          "name": "mutagenFight",
          "type": "uint32"
        },
        {
          "name": "genLabFace",
          "type": "uint32"
        },
        {
          "name": "genLabFight",
          "type": "uint32"
        }
      ],
      "payable": false,
      "stateMutability": "view",
      "type": "function"
    },
    {
      "anonymous": false,
      "inputs": [
        {
          "indexed": false,
          "name": "addr",
          "type": "address"
        },
        {
          "indexed": false,
          "name": "roleName",
          "type": "string"
        }
      ],
      "name": "RoleAdded",
      "type": "event"
    },
    {
      "anonymous": false,
      "inputs": [
        {
          "indexed": false,
          "name": "addr",
          "type": "address"
        },
        {
          "indexed": false,
          "name": "roleName",
          "type": "string"
        }
      ],
      "name": "RoleRemoved",
      "type": "event"
    },
    {
      "constant": false,
      "inputs": [
        {
          "name": "_dragonID",
          "type": "uint256"
        }
      ],
      "name": "setBirthBlock",
      "outputs": [],
      "payable": false,
      "stateMutability": "nonpayable",
      "type": "function"
    },
    {
      "constant": false,
      "inputs": [
        {
          "name": "_dragonID",
          "type": "uint256"
        }
      ],
      "name": "setDeathBlock",
      "outputs": [],
      "payable": false,
      "stateMutability": "nonpayable",
      "type": "function"
    },
    {
      "constant": false,
      "inputs": [
        {
          "name": "_dragonID",
          "type": "uint256"
        },
        {
          "name": "_parentOne",
          "type": "uint256"
        },
        {
          "name": "_parentTwo",
          "type": "uint256"
        }
      ],
      "name": "setParents",
      "outputs": [],
      "payable": false,
      "stateMutability": "nonpayable",
      "type": "function"
    },
    {
      "constant": false,
      "inputs": [
        {
          "name": "_dragonID",
          "type": "uint256"
        },
        {
          "name": "_lastActionDragonID",
          "type": "uint256"
        },
        {
          "name": "_lastActionID",
          "type": "uint8"
        }
      ],
      "name": "setLastAction",
      "outputs": [],
      "payable": false,
      "stateMutability": "nonpayable",
      "type": "function"
    },
    {
      "constant": false,
      "inputs": [
        {
          "name": "_dragonID",
          "type": "uint256"
        }
      ],
      "name": "incFightWin",
      "outputs": [],
      "payable": false,
      "stateMutability": "nonpayable",
      "type": "function"
    },
    {
      "constant": false,
      "inputs": [
        {
          "name": "_dragonID",
          "type": "uint256"
        }
      ],
      "name": "incFightLose",
      "outputs": [],
      "payable": false,
      "stateMutability": "nonpayable",
      "type": "function"
    },
    {
      "constant": false,
      "inputs": [
        {
          "name": "_dragonID",
          "type": "uint256"
        }
      ],
      "name": "incFightToDeathWin",
      "outputs": [],
      "payable": false,
      "stateMutability": "nonpayable",
      "type": "function"
    },
    {
      "constant": false,
      "inputs": [
        {
          "name": "_dragonID",
          "type": "uint256"
        }
      ],
      "name": "incChildren",
      "outputs": [],
      "payable": false,
      "stateMutability": "nonpayable",
      "type": "function"
    },
    {
      "constant": false,
      "inputs": [
        {
          "name": "_dragonID",
          "type": "uint256"
        },
        {
          "name": "_mutagenCount",
          "type": "uint256"
        }
      ],
      "name": "addMutagenFace",
      "outputs": [],
      "payable": false,
      "stateMutability": "nonpayable",
      "type": "function"
    },
    {
      "constant": false,
      "inputs": [
        {
          "name": "_dragonID",
          "type": "uint256"
        },
        {
          "name": "_mutagenCount",
          "type": "uint256"
        }
      ],
      "name": "addMutagenFight",
      "outputs": [],
      "payable": false,
      "stateMutability": "nonpayable",
      "type": "function"
    },
    {
      "constant": false,
      "inputs": [
        {
          "name": "_dragonID",
          "type": "uint256"
        }
      ],
      "name": "incGenLabFace",
      "outputs": [],
      "payable": false,
      "stateMutability": "nonpayable",
      "type": "function"
    },
    {
      "constant": false,
      "inputs": [
        {
          "name": "_dragonID",
          "type": "uint256"
        }
      ],
      "name": "incGenLabFight",
      "outputs": [],
      "payable": false,
      "stateMutability": "nonpayable",
      "type": "function"
    },
    {
      "constant": true,
      "inputs": [
        {
          "name": "_dragonID",
          "type": "uint256"
        }
      ],
      "name": "getDragonFight",
      "outputs": [
        {
          "name": "",
          "type": "uint256"
        }
      ],
      "payable": false,
      "stateMutability": "view",
      "type": "function"
    }
  ],
  "bytecode": "0x6060604052620000513360408051908101604052600581527f61646d696e000000000000000000000000000000000000000000000000000000602082015264010000000062001113620000a482021704565b6200009e3360408051908101604052600a81527f706175736541646d696e00000000000000000000000000000000000000000000602082015264010000000062001113620000a482021704565b620001fb565b62000126826000836040518082805190602001908083835b60208310620000dd5780518252601f199092019160209182019101620000bc565b6001836020036101000a0380198251168184511680821785525050505050509050019150509081526020016040519081900390209064010000000062001218620001d682021704565b7fbfec83d64eaa953f2708271a023ab9ee82057f8f3578d548c1a4ba0b5b7004898282604051600160a060020a038316815260406020820181815290820183818151815260200191508051906020019080838360005b83811015620001965780820151838201526020016200017c565b50505050905090810190601f168015620001c45780820380516001836020036101000a031916815260200191505b50935050505060405180910390a15050565b600160a060020a0316600090815260209190915260409020805460ff19166001179055565b611289806200020b6000396000f30060606040526004361061012f5763ffffffff60e060020a6000350416630988ca8c8114610134578063217fe6c61461019557806324534192146102085780632454d1f0146102215780632a952b4b1461023757806347492352146102535780635aeee9f9146102dd57806361c6a8e4146102f35780638007a9131461030c57806383197ef01461033457806388cee87e14610347578063898572a6146103a65780638bc01196146103e95780638dd66012146104245780638e056fe61461043a578063a9a07af914610450578063af24cba214610466578063b25fa92c14610485578063b59c9b12146104e4578063c96266e8146104fa578063d391014b14610510578063da2b469714610523578063daf47ba31461058b578063dd1d5e64146105a1578063f5ef98ea146105b7575b600080fd5b341561013f57600080fd5b61019360048035600160a060020a03169060446024803590810190830135806020601f820181900481020160405190810160405281815292919060208401838380828437509496506105cd95505050505050565b005b34156101a057600080fd5b6101f460048035600160a060020a03169060446024803590810190830135806020601f8201819004810201604051908101604052818152929190602084018383808284375094965061064795505050505050565b604051901515815260200160405180910390f35b341561021357600080fd5b6101936004356024356106c6565b341561022c57600080fd5b610193600435610762565b341561024257600080fd5b6101936004356024356044356107cb565b341561025e57600080fd5b6102666108bb565b60405160208082528190810183818151815260200191508051906020019080838360005b838110156102a257808201518382015260200161028a565b50505050905090810190601f1680156102cf5780820380516001836020036101000a031916815260200191505b509250505060405180910390f35b34156102e857600080fd5b6101936004356108f2565b34156102fe57600080fd5b61019360043560243561096b565b341561031757600080fd5b6103226004356109ff565b60405190815260200160405180910390f35b341561033f57600080fd5b610193610a11565b341561035257600080fd5b61019360048035600160a060020a03169060446024803590810190830135806020601f82018190048102016040519081016040528181529291906020840183838082843750949650610a1d95505050505050565b34156103b157600080fd5b6103bc600435610a64565b6040516fffffffffffffffffffffffffffffffff9283168152911660208201526040908101905180910390f35b34156103f457600080fd5b6103ff600435610aa0565b60405160ff9092168252600160f860020a031660208201526040908101905180910390f35b341561042f57600080fd5b610193600435610ac5565b341561044557600080fd5b610193600435610b34565b341561045b57600080fd5b610193600435610b8d565b341561047157600080fd5b61019360043560243560ff60443516610c16565b341561049057600080fd5b61019360048035600160a060020a03169060446024803590810190830135806020601f82018190048102016040519081016040528181529291906020840183838082843750949650610cc495505050505050565b34156104ef57600080fd5b610322600435610d0b565b341561050557600080fd5b610322600435610d1d565b341561051b57600080fd5b610266610d5c565b341561052e57600080fd5b610539600435610d93565b60405163ffffffff9889168152968816602088015294871660408088019190915293871660608701529186166080860152851660a0850152841660c0840152921660e082015261010001905180910390f35b341561059657600080fd5b610193600435610e34565b34156105ac57600080fd5b610193600435610ed8565b34156105c257600080fd5b610193600435610f63565b610643826000836040518082805190602001908083835b602083106106035780518252601f1990920191602091820191016105e4565b6001836020036101000a0380198251168184511680821785525050505050509050019150509081526020016040519081900390209063ffffffff610fbc16565b5050565b60006106bf836000846040518082805190602001908083835b6020831061067f5780518252601f199092019160209182019101610660565b6001836020036101000a0380198251168184511680821785525050505050509050019150509081526020016040519081900390209063ffffffff610fd116565b9392505050565b60408051908101604052601481527f4d75746167656e4669676874436f6e7472616374000000000000000000000000602082015261070433826105cd565b50600091825260056020526040909120805463ffffffff7401000000000000000000000000000000000000000080830482169094011690920277ffffffff000000000000000000000000000000000000000019909216919091179055565b60408051908101604052600d81527f4669676874436f6e74726163740000000000000000000000000000000000000060208201526107a033826105cd565b506000908152600560205260409020805463ffffffff8082166001011663ffffffff19909116179055565b60408051908101604052600c815260008051602061123e83398151915260208201526107f733826105cd565b6000848152600160205260409020541561081057600080fd5b6fffffffffffffffffffffffffffffffff831161086157600084815260036020526040902080546fffffffffffffffffffffffffffffffff19166fffffffffffffffffffffffffffffffff85161790555b6fffffffffffffffffffffffffffffffff82116108b557600084815260036020526040902080546fffffffffffffffffffffffffffffffff8085167001000000000000000000000000000000000291161790555b50505050565b60408051908101604052600a81527f706175736541646d696e00000000000000000000000000000000000000000000602082015281565b60408051908101604052600d81527f4669676874436f6e747261637400000000000000000000000000000000000000602082015261093033826105cd565b5060009081526005602052604090208054600163ffffffff640100000000808404821692909201160267ffffffff0000000019909116179055565b60408051908101604052601381527f4d75746167656e46616365436f6e74726163740000000000000000000000000060208201526109a933826105cd565b50600091825260056020526040909120805463ffffffff70010000000000000000000000000000000080830482169094011690920273ffffffff0000000000000000000000000000000019909216919091179055565b60016020526000908152604090205481565b33600160a060020a0316ff5b610a5a3360408051908101604052600581527f61646d696e00000000000000000000000000000000000000000000000000000060208201526105cd565b6106438282610ff0565b6003602052600090815260409020546fffffffffffffffffffffffffffffffff8082169170010000000000000000000000000000000090041682565b60046020526000908152604090205460ff8116906101009004600160f860020a031682565b60408051908101604052600c815260008051602061123e8339815191526020820152610af133826105cd565b5060009081526005602052604090208054600163ffffffff6801000000000000000080840482169290920116026bffffffff000000000000000019909116179055565b60408051908101604052600c815260008051602061123e8339815191526020820152610b6033826105cd565b60008281526001602052604090205415610b7957600080fd5b506000908152600160205260409020439055565b60408051908101604052600d81527f4465617468436f6e7472616374000000000000000000000000000000000000006020820152610bcb33826105cd565b5060009081526005602052604090208054600163ffffffff6c0100000000000000000000000080840482169290920116026fffffffff00000000000000000000000019909116179055565b60408051908101604052600e81527f416374696f6e436f6e74726163740000000000000000000000000000000000006020820152610c5433826105cd565b6000848152600460205260409020805460ff191660ff8416179055600160f860020a03831115610c98576000848152600460205260409020805460ff1690556108b5565b60008481526004602052604090208054600160f860020a0385166101000260ff90911617905550505050565b610d013360408051908101604052600581527f61646d696e00000000000000000000000000000000000000000000000000000060208201526105cd565b6106438282611113565b60026020526000908152604090205481565b60008181526005602052604090205463ffffffff80821664010000000083048216016c0100000000000000000000000090920481169190910116919050565b60408051908101604052600581527f61646d696e000000000000000000000000000000000000000000000000000000602082015281565b60056020526000908152604090205463ffffffff8082169164010000000081048216916801000000000000000082048116916c01000000000000000000000000810482169170010000000000000000000000000000000082048116917401000000000000000000000000000000000000000081048216917801000000000000000000000000000000000000000000000000820481169160e060020a90041688565b60408051908101604052600e81527f47656e4c6162436f6e74726163740000000000000000000000000000000000006020820152610e7233826105cd565b5060009081526005602052604090208054600163ffffffff780100000000000000000000000000000000000000000000000080840482169290920116027fffffffff00000000ffffffffffffffffffffffffffffffffffffffffffffffff909116179055565b60408051908101604052600e81527f47656e4c6162436f6e74726163740000000000000000000000000000000000006020820152610f1633826105cd565b5060009081526005602052604090208054600163ffffffff60e060020a80840482169290920116027bffffffffffffffffffffffffffffffffffffffffffffffffffffffff909116179055565b60408051908101604052600c815260008051602061123e8339815191526020820152610f8f33826105cd565b60008281526002602052604090205415610fa857600080fd5b506000908152600260205260409020439055565b610fc68282610fd1565b151561064357600080fd5b600160a060020a03166000908152602091909152604090205460ff1690565b611066826000836040518082805190602001908083835b602083106110265780518252601f199092019160209182019101611007565b6001836020036101000a0380198251168184511680821785525050505050509050019150509081526020016040519081900390209063ffffffff6111f616565b7fd211483f91fc6eff862467f8de606587a30c8fc9981056f051b897a418df803a8282604051600160a060020a038316815260406020820181815290820183818151815260200191508051906020019080838360005b838110156110d45780820151838201526020016110bc565b50505050905090810190601f1680156111015780820380516001836020036101000a031916815260200191505b50935050505060405180910390a15050565b611189826000836040518082805190602001908083835b602083106111495780518252601f19909201916020918201910161112a565b6001836020036101000a0380198251168184511680821785525050505050509050019150509081526020016040519081900390209063ffffffff61121816565b7fbfec83d64eaa953f2708271a023ab9ee82057f8f3578d548c1a4ba0b5b7004898282604051600160a060020a03831681526040602082018181529082018381815181526020019150805190602001908083836000838110156110d45780820151838201526020016110bc565b600160a060020a0316600090815260209190915260409020805460ff19169055565b600160a060020a0316600090815260209190915260409020805460ff1916600117905556004d61696e436f6e74726163740000000000000000000000000000000000000000a165627a7a72305820918122ee3274e270102ea724507cb2e139bee9a3c5bed7c50b04c652ed792ec40029",
  "source": "pragma solidity ^0.4.21;\n\nimport \"./security/rbac/RBACWithAdmin.sol\";\n\ncontract DragonStats is RBACWithAdmin {\n    uint256 constant UINT128_MAX = 340282366920938463463374607431768211455;\n    uint256 constant UINT248_MAX = 452312848583266388373324160190187140051835877600158453279131187530910662655;\n    struct parent {\n        uint128 parentOne;\n        uint128 parentTwo;\n    }\n    \n    struct lastAction {\n        uint8  lastActionID;\n        uint248 lastActionDragonID;\n    }\n    \n    struct dragonStat {\n        uint32 fightWin;\n        uint32 fightLose;\n        uint32 children;\n        uint32 fightToDeathWin;\n        uint32 mutagenFace;\n        uint32 mutagenFight;\n        uint32 genLabFace;\n        uint32 genLabFight;\n    }\n    \n    mapping(uint256 => uint256) public birthBlock;\n    mapping(uint256 => uint256) public deathBlock;\n    mapping(uint256 => parent)  public parents;\n    mapping(uint256 => lastAction) public lastActions;\n    mapping(uint256 => dragonStat) public dragonStats;\n\n\n    function setBirthBlock(uint256 _dragonID) external onlyRole(\"MainContract\") {\n        require(birthBlock[_dragonID] == 0);\n        birthBlock[_dragonID] = block.number;\n    }\n    \n    function setDeathBlock(uint256 _dragonID) external onlyRole(\"MainContract\") {\n        require(deathBlock[_dragonID] == 0);\n        deathBlock[_dragonID] = block.number;\n    }\n    \n    function setParents(uint256 _dragonID, uint256 _parentOne, uint256 _parentTwo) external onlyRole(\"MainContract\") {\n        \n        require(birthBlock[_dragonID] == 0);\n        \n        if (_parentOne <= UINT128_MAX) { \n            parents[_dragonID].parentOne = uint128(_parentOne);\n        }\n        \n        if (_parentTwo <= UINT128_MAX) { \n            parents[_dragonID].parentTwo = uint128(_parentTwo);\n        }\n    }\n    function setLastAction(uint256 _dragonID, uint256 _lastActionDragonID, uint8 _lastActionID) external onlyRole(\"ActionContract\") {\n        lastActions[_dragonID].lastActionID = _lastActionID;\n        if (_lastActionDragonID > UINT248_MAX) {\n            lastActions[_dragonID].lastActionDragonID = 0;\n        } else {\n            lastActions[_dragonID].lastActionDragonID = uint248(_lastActionDragonID);\n        }\n    }\n    function incFightWin(uint256 _dragonID) external onlyRole(\"FightContract\") {\n        dragonStats[_dragonID].fightWin++;\n    }\n    function incFightLose(uint256 _dragonID) external onlyRole(\"FightContract\") {\n        dragonStats[_dragonID].fightLose++;\n    }\n    function incFightToDeathWin(uint256 _dragonID) external onlyRole(\"DeathContract\") {\n        dragonStats[_dragonID].fightToDeathWin++;\n    }\n    function incChildren(uint256 _dragonID) external onlyRole(\"MainContract\") {\n        dragonStats[_dragonID].children++;\n    }\n    function addMutagenFace(uint256 _dragonID, uint256 _mutagenCount) external onlyRole(\"MutagenFaceContract\") {\n        dragonStats[_dragonID].mutagenFace = dragonStats[_dragonID].mutagenFace + uint32(_mutagenCount);\n    }\n    function addMutagenFight(uint256 _dragonID, uint256 _mutagenCount) external onlyRole(\"MutagenFightContract\") {\n        dragonStats[_dragonID].mutagenFight = dragonStats[_dragonID].mutagenFight + uint32(_mutagenCount);\n    }\n    function incGenLabFace(uint256 _dragonID) external onlyRole(\"GenLabContract\") {\n        dragonStats[_dragonID].genLabFace++;\n    }\n    function incGenLabFight(uint256 _dragonID) external onlyRole(\"GenLabContract\") {\n        dragonStats[_dragonID].genLabFight++;\n    }\n    function getDragonFight(uint256 _dragonID) external view returns (uint256){\n        return  (dragonStats[_dragonID].fightWin + dragonStats[_dragonID].fightLose + dragonStats[_dragonID].fightToDeathWin);\n    }\n}\n",
  "sourcePath": "/home/k/work/eth/CD/DragonETH/contracts/contracts/DragonStats.sol",
  "compiler": {
    "name": "solc",
    "version": "0.4.21+commit.dfe3193c.Emscripten.clang"
  },
  "schemaVersion": "2.0.0",
  "updatedAt": "2018-04-18T06:07:54.840Z"
}