{
  "contractName": "DragonFightGC",
  "abi": [
    {
      "constant": true,
      "inputs": [],
      "name": "minFightWaitBloc",
      "outputs": [
        {
          "name": "",
          "type": "uint256"
        }
      ],
      "payable": false,
      "stateMutability": "view",
      "type": "function"
    },
    {
      "constant": true,
      "inputs": [],
      "name": "dragonFightContract",
      "outputs": [
        {
          "name": "",
          "type": "address"
        }
      ],
      "payable": false,
      "stateMutability": "view",
      "type": "function"
    },
    {
      "constant": false,
      "inputs": [],
      "name": "unpause",
      "outputs": [],
      "payable": false,
      "stateMutability": "nonpayable",
      "type": "function"
    },
    {
      "constant": true,
      "inputs": [],
      "name": "maxFightWaitBloc",
      "outputs": [
        {
          "name": "",
          "type": "uint256"
        }
      ],
      "payable": false,
      "stateMutability": "view",
      "type": "function"
    },
    {
      "constant": true,
      "inputs": [],
      "name": "paused",
      "outputs": [
        {
          "name": "",
          "type": "bool"
        }
      ],
      "payable": false,
      "stateMutability": "view",
      "type": "function"
    },
    {
      "constant": true,
      "inputs": [],
      "name": "mutagenToDeathWin",
      "outputs": [
        {
          "name": "",
          "type": "uint256"
        }
      ],
      "payable": false,
      "stateMutability": "view",
      "type": "function"
    },
    {
      "constant": false,
      "inputs": [],
      "name": "destroy",
      "outputs": [],
      "payable": false,
      "stateMutability": "nonpayable",
      "type": "function"
    },
    {
      "constant": false,
      "inputs": [],
      "name": "pause",
      "outputs": [],
      "payable": false,
      "stateMutability": "nonpayable",
      "type": "function"
    },
    {
      "constant": true,
      "inputs": [],
      "name": "mutagenToWin",
      "outputs": [
        {
          "name": "",
          "type": "uint256"
        }
      ],
      "payable": false,
      "stateMutability": "view",
      "type": "function"
    },
    {
      "constant": true,
      "inputs": [],
      "name": "owner",
      "outputs": [
        {
          "name": "",
          "type": "address"
        }
      ],
      "payable": false,
      "stateMutability": "view",
      "type": "function"
    },
    {
      "constant": true,
      "inputs": [],
      "name": "dragonStatsContract",
      "outputs": [
        {
          "name": "",
          "type": "address"
        }
      ],
      "payable": false,
      "stateMutability": "view",
      "type": "function"
    },
    {
      "constant": true,
      "inputs": [],
      "name": "mainContract",
      "outputs": [
        {
          "name": "",
          "type": "address"
        }
      ],
      "payable": false,
      "stateMutability": "view",
      "type": "function"
    },
    {
      "constant": true,
      "inputs": [],
      "name": "mutagenContract",
      "outputs": [
        {
          "name": "",
          "type": "address"
        }
      ],
      "payable": false,
      "stateMutability": "view",
      "type": "function"
    },
    {
      "constant": false,
      "inputs": [
        {
          "name": "newOwner",
          "type": "address"
        }
      ],
      "name": "transferOwnership",
      "outputs": [],
      "payable": false,
      "stateMutability": "nonpayable",
      "type": "function"
    },
    {
      "constant": true,
      "inputs": [],
      "name": "mutagenToLose",
      "outputs": [
        {
          "name": "",
          "type": "uint256"
        }
      ],
      "payable": false,
      "stateMutability": "view",
      "type": "function"
    },
    {
      "anonymous": false,
      "inputs": [],
      "name": "Pause",
      "type": "event"
    },
    {
      "anonymous": false,
      "inputs": [],
      "name": "Unpause",
      "type": "event"
    },
    {
      "anonymous": false,
      "inputs": [
        {
          "indexed": true,
          "name": "previousOwner",
          "type": "address"
        },
        {
          "indexed": true,
          "name": "newOwner",
          "type": "address"
        }
      ],
      "name": "OwnershipTransferred",
      "type": "event"
    },
    {
      "constant": false,
      "inputs": [
        {
          "name": "_newAddress",
          "type": "address"
        }
      ],
      "name": "changeAddressMutagenContract",
      "outputs": [],
      "payable": false,
      "stateMutability": "nonpayable",
      "type": "function"
    },
    {
      "constant": false,
      "inputs": [
        {
          "name": "_newAddress",
          "type": "address"
        }
      ],
      "name": "changeAddressMainContract",
      "outputs": [],
      "payable": false,
      "stateMutability": "nonpayable",
      "type": "function"
    },
    {
      "constant": false,
      "inputs": [
        {
          "name": "_newAddress",
          "type": "address"
        }
      ],
      "name": "changeAddressFightContract",
      "outputs": [],
      "payable": false,
      "stateMutability": "nonpayable",
      "type": "function"
    },
    {
      "constant": false,
      "inputs": [
        {
          "name": "_newAddress",
          "type": "address"
        }
      ],
      "name": "changeAddressStatsContract",
      "outputs": [],
      "payable": false,
      "stateMutability": "nonpayable",
      "type": "function"
    },
    {
      "constant": false,
      "inputs": [
        {
          "name": "_wallet",
          "type": "address"
        }
      ],
      "name": "changeWallet",
      "outputs": [],
      "payable": false,
      "stateMutability": "nonpayable",
      "type": "function"
    },
    {
      "constant": false,
      "inputs": [
        {
          "name": "_minFightWaitBloc",
          "type": "uint256"
        }
      ],
      "name": "changeMinFightWaitBloc",
      "outputs": [],
      "payable": false,
      "stateMutability": "nonpayable",
      "type": "function"
    },
    {
      "constant": false,
      "inputs": [
        {
          "name": "_maxFightWaitBloc",
          "type": "uint256"
        }
      ],
      "name": "changeMaxFightWaitBloc",
      "outputs": [],
      "payable": false,
      "stateMutability": "nonpayable",
      "type": "function"
    },
    {
      "constant": false,
      "inputs": [
        {
          "name": "_mutagenToWin",
          "type": "uint256"
        }
      ],
      "name": "changeMutagenToWin",
      "outputs": [],
      "payable": false,
      "stateMutability": "nonpayable",
      "type": "function"
    },
    {
      "constant": false,
      "inputs": [
        {
          "name": "_mutagenToLose",
          "type": "uint256"
        }
      ],
      "name": "changeMutagenToLose",
      "outputs": [],
      "payable": false,
      "stateMutability": "nonpayable",
      "type": "function"
    },
    {
      "constant": false,
      "inputs": [
        {
          "name": "_mutagenToDeathWin",
          "type": "uint256"
        }
      ],
      "name": "changeMutagenToDeathWin",
      "outputs": [],
      "payable": false,
      "stateMutability": "nonpayable",
      "type": "function"
    }
  ],
  "bytecode": "0x60606040526000805460506006556202a300600755600a6008819055600160095560649055600160a060020a033316600160a860020a03199091161790556108688061004c6000396000f3006060604052600436106101485763ffffffff7c010000000000000000000000000000000000000000000000000000000060003504166323810b8c811461014d5780633d2eeb40146101725780633f2e72ab1461018a5780633f4ba83a146101b957806345d8e2d5146101cc5780634a1f679b146101df5780634e559a9a146101fe5780635c975abb146102145780636be2a3db1461023b5780636f3ecb501461024e578063777793a5146102645780637b52be281461027a57806383197ef0146102905780638456cb59146102a357806389dd7cbd146102b65780638ac45066146102d55780638da5cb5b146102e857806398b9a2dc146102fb578063b4f6a9651461031a578063bd94be5e14610339578063ceacd73e14610358578063d270e7ab1461036b578063d4ef908c1461037e578063f2fde38b14610391578063fe36cab9146103b0575b600080fd5b341561015857600080fd5b6101606103c3565b60405190815260200160405180910390f35b341561017d57600080fd5b6101886004356103c9565b005b341561019557600080fd5b61019d6103e9565b604051600160a060020a03909116815260200160405180910390f35b34156101c457600080fd5b6101886103f8565b34156101d757600080fd5b610160610488565b34156101ea57600080fd5b610188600160a060020a036004351661048e565b341561020957600080fd5b6101886004356104d8565b341561021f57600080fd5b6102276104f8565b604051901515815260200160405180910390f35b341561024657600080fd5b610160610519565b341561025957600080fd5b61018860043561051f565b341561026f57600080fd5b61018860043561053f565b341561028557600080fd5b61018860043561055f565b341561029b57600080fd5b61018861057f565b34156102ae57600080fd5b61018861058b565b34156102c157600080fd5b610188600160a060020a0360043516610631565b34156102e057600080fd5b61016061067b565b34156102f357600080fd5b61019d610681565b341561030657600080fd5b610188600160a060020a0360043516610690565b341561032557600080fd5b610188600160a060020a03600435166106da565b341561034457600080fd5b610188600160a060020a0360043516610724565b341561036357600080fd5b61019d61076e565b341561037657600080fd5b61019d61077d565b341561038957600080fd5b61019d61078c565b341561039c57600080fd5b610188600160a060020a036004351661079b565b34156103bb57600080fd5b610160610836565b60065481565b60005433600160a060020a039081169116146103e457600080fd5b600a55565b600354600160a060020a031681565b60005433600160a060020a0390811691161461041357600080fd5b60005474010000000000000000000000000000000000000000900460ff16151561043c57600080fd5b6000805474ff0000000000000000000000000000000000000000191690557f7805862f689e2f13df9f062ff482ad3ad112aca9e0847911ed832e158c525b3360405160405180910390a1565b60075481565b60005433600160a060020a039081169116146104a957600080fd5b6002805473ffffffffffffffffffffffffffffffffffffffff1916600160a060020a0392909216919091179055565b60005433600160a060020a039081169116146104f357600080fd5b600855565b60005474010000000000000000000000000000000000000000900460ff1681565b600a5481565b60005433600160a060020a0390811691161461053a57600080fd5b600955565b60005433600160a060020a0390811691161461055a57600080fd5b600755565b60005433600160a060020a0390811691161461057a57600080fd5b600655565b33600160a060020a0316ff5b60005433600160a060020a039081169116146105a657600080fd5b60005474010000000000000000000000000000000000000000900460ff16156105ce57600080fd5b6000805474ff00000000000000000000000000000000000000001916740100000000000000000000000000000000000000001790557f6985a02210a168e66602d3235cb6db0e70f92b3ba4d376a33c0f3d9434bff62560405160405180910390a1565b60005433600160a060020a0390811691161461064c57600080fd5b6004805473ffffffffffffffffffffffffffffffffffffffff1916600160a060020a0392909216919091179055565b60085481565b600054600160a060020a031681565b60005433600160a060020a039081169116146106ab57600080fd5b6005805473ffffffffffffffffffffffffffffffffffffffff1916600160a060020a0392909216919091179055565b60005433600160a060020a039081169116146106f557600080fd5b6003805473ffffffffffffffffffffffffffffffffffffffff1916600160a060020a0392909216919091179055565b60005433600160a060020a0390811691161461073f57600080fd5b6001805473ffffffffffffffffffffffffffffffffffffffff1916600160a060020a0392909216919091179055565b600454600160a060020a031681565b600254600160a060020a031681565b600154600160a060020a031681565b60005433600160a060020a039081169116146107b657600080fd5b600160a060020a03811615156107cb57600080fd5b600054600160a060020a0380831691167f8be0079c531659141344cd1fd0a4f28419497f9722a3daafe3b4186f6b6457e060405160405180910390a36000805473ffffffffffffffffffffffffffffffffffffffff1916600160a060020a0392909216919091179055565b600954815600a165627a7a7230582026c5ce774c0eb92ae221bf1562a983872a4b491aa71ef1217453ed67eb659f2a0029",
  "source": "pragma solidity ^0.4.21;\n\nimport \"../security/Pausable.sol\";\n//import \"./math/SafeMath.sol\";\n\ncontract DragonETH {\n    function ownerOf(uint256 _tokenId) public view returns (address);\n}\n\ncontract DragonFight {\n    function getWinner(uint256 _dragonOneID, uint256 _dragonTwoID) external returns (uint256 _winerID);\n}\n\ncontract DragonStats {\n    function incFightWin(uint256 _dragonID) external;\n    function incFightLose(uint256 _dragonID) external;\n    function incFightToDeathWin(uint256 _dragonID) external;\n    function setLastAction(uint256 _dragonID, uint256 _lastActionDragonID, uint8 _lastActionID) external;\n}\n\ncontract Mutagen {\n    function mint(address _to, uint256 _amount)  public returns (bool);\n}\n\ncontract DragonFightGC is Pausable {\n//    using SafeMath for uint256;\n    Mutagen public mutagenContract;\n    DragonETH public mainContract;\n    DragonFight public dragonFightContract;\n    DragonStats public dragonStatsContract;\n    address wallet;\n    uint256 public minFightWaitBloc = 80; //~20 min\n    uint256 public maxFightWaitBloc = 172800; //~30 days??????\n    uint256 public mutagenToWin = 10;\n    uint256 public mutagenToLose =1;\n    uint256 public mutagenToDeathWin = 100;\n    \n    function changeAddressMutagenContract(address _newAddress) external onlyOwner {\n        mutagenContract = Mutagen(_newAddress);\n    }\n    function changeAddressMainContract(address _newAddress) external onlyOwner {\n        mainContract = DragonETH(_newAddress);\n    }\n    function changeAddressFightContract(address _newAddress) external onlyOwner {\n        dragonFightContract = DragonFight(_newAddress);\n    }\n    function changeAddressStatsContract(address _newAddress) external onlyOwner {\n        dragonStatsContract = DragonStats(_newAddress);\n    }\n    function changeWallet(address _wallet) external onlyOwner {\n        wallet = _wallet;\n    }\n\n    function changeMinFightWaitBloc(uint256 _minFightWaitBloc) external onlyOwner {\n        minFightWaitBloc = _minFightWaitBloc;\n    }\n\n    function changeMaxFightWaitBloc(uint256 _maxFightWaitBloc) external onlyOwner {\n        maxFightWaitBloc = _maxFightWaitBloc;\n    }\n    \n    function changeMutagenToWin(uint256 _mutagenToWin) external onlyOwner {\n        mutagenToWin = _mutagenToWin;\n    }\n    \n    function changeMutagenToLose(uint256 _mutagenToLose) external onlyOwner {\n        mutagenToLose = _mutagenToLose;\n    }\n    \n    function changeMutagenToDeathWin(uint256 _mutagenToDeathWin) external onlyOwner {\n        mutagenToDeathWin = _mutagenToDeathWin;\n    }\n}",
  "sourcePath": "/home/k/work/eth/CD/DragonETH/contracts/contracts/fight/DragonFightGC.sol",
  "compiler": {
    "name": "solc",
    "version": "0.4.21+commit.dfe3193c.Emscripten.clang"
  },
  "schemaVersion": "2.0.0",
  "updatedAt": "2018-04-16T22:46:31.782Z"
}