{
  "contractName": "DragonETH_GC",
  "abi": [
    {
      "constant": true,
      "inputs": [
        {
          "name": "addr",
          "type": "address"
        },
        {
          "name": "roleName",
          "type": "string"
        }
      ],
      "name": "checkRole",
      "outputs": [],
      "payable": false,
      "stateMutability": "view",
      "type": "function"
    },
    {
      "constant": true,
      "inputs": [
        {
          "name": "addr",
          "type": "address"
        },
        {
          "name": "roleName",
          "type": "string"
        }
      ],
      "name": "hasRole",
      "outputs": [
        {
          "name": "",
          "type": "bool"
        }
      ],
      "payable": false,
      "stateMutability": "view",
      "type": "function"
    },
    {
      "constant": true,
      "inputs": [],
      "name": "secondsInBlock",
      "outputs": [
        {
          "name": "",
          "type": "uint256"
        }
      ],
      "payable": false,
      "stateMutability": "view",
      "type": "function"
    },
    {
      "constant": true,
      "inputs": [],
      "name": "fmpContractAddress",
      "outputs": [
        {
          "name": "",
          "type": "address"
        }
      ],
      "payable": false,
      "stateMutability": "view",
      "type": "function"
    },
    {
      "constant": false,
      "inputs": [],
      "name": "destroy",
      "outputs": [],
      "payable": false,
      "stateMutability": "nonpayable",
      "type": "function"
    },
    {
      "constant": false,
      "inputs": [
        {
          "name": "addr",
          "type": "address"
        },
        {
          "name": "roleName",
          "type": "string"
        }
      ],
      "name": "adminRemoveRole",
      "outputs": [],
      "payable": false,
      "stateMutability": "nonpayable",
      "type": "function"
    },
    {
      "constant": false,
      "inputs": [
        {
          "name": "addr",
          "type": "address"
        },
        {
          "name": "roleName",
          "type": "string"
        }
      ],
      "name": "adminAddRole",
      "outputs": [],
      "payable": false,
      "stateMutability": "nonpayable",
      "type": "function"
    },
    {
      "constant": true,
      "inputs": [],
      "name": "dragonStatsContract",
      "outputs": [
        {
          "name": "",
          "type": "address"
        }
      ],
      "payable": false,
      "stateMutability": "view",
      "type": "function"
    },
    {
      "constant": true,
      "inputs": [],
      "name": "genRNGContractAddress",
      "outputs": [
        {
          "name": "",
          "type": "address"
        }
      ],
      "payable": false,
      "stateMutability": "view",
      "type": "function"
    },
    {
      "constant": true,
      "inputs": [],
      "name": "ROLE_ADMIN",
      "outputs": [
        {
          "name": "",
          "type": "string"
        }
      ],
      "payable": false,
      "stateMutability": "view",
      "type": "function"
    },
    {
      "anonymous": false,
      "inputs": [
        {
          "indexed": false,
          "name": "addr",
          "type": "address"
        },
        {
          "indexed": false,
          "name": "roleName",
          "type": "string"
        }
      ],
      "name": "RoleAdded",
      "type": "event"
    },
    {
      "anonymous": false,
      "inputs": [
        {
          "indexed": false,
          "name": "addr",
          "type": "address"
        },
        {
          "indexed": false,
          "name": "roleName",
          "type": "string"
        }
      ],
      "name": "RoleRemoved",
      "type": "event"
    },
    {
      "constant": false,
      "inputs": [
        {
          "name": "_genRNGContractAddress",
          "type": "address"
        }
      ],
      "name": "changeGenRNGcontractAddress",
      "outputs": [],
      "payable": false,
      "stateMutability": "nonpayable",
      "type": "function"
    },
    {
      "constant": false,
      "inputs": [
        {
          "name": "_fmpContractAddress",
          "type": "address"
        }
      ],
      "name": "changeFMPcontractAddress",
      "outputs": [],
      "payable": false,
      "stateMutability": "nonpayable",
      "type": "function"
    },
    {
      "constant": false,
      "inputs": [
        {
          "name": "_secondsInBlock",
          "type": "uint256"
        }
      ],
      "name": "changeSecondsInBlock",
      "outputs": [],
      "payable": false,
      "stateMutability": "nonpayable",
      "type": "function"
    },
    {
      "constant": false,
      "inputs": [
        {
          "name": "_dragonStatsContract",
          "type": "address"
        }
      ],
      "name": "changeDragonStatsContract",
      "outputs": [],
      "payable": false,
      "stateMutability": "nonpayable",
      "type": "function"
    }
  ],
  "bytecode": "0x6060604052600f6004556100533360408051908101604052600581527f61646d696e000000000000000000000000000000000000000000000000000000602082015264010000000061083761005882021704565b6101a7565b6100d5826000836040518082805190602001908083835b6020831061008e5780518252601f19909201916020918201910161006f565b6001836020036101000a0380198251168184511680821785525050505050509050019150509081526020016040519081900390209064010000000061093c61018282021704565b7fbfec83d64eaa953f2708271a023ab9ee82057f8f3578d548c1a4ba0b5b7004898282604051600160a060020a038316815260406020820181815290820183818151815260200191508051906020019080838360005b8381101561014357808201518382015260200161012b565b50505050905090810190601f1680156101705780820380516001836020036101000a031916815260200191505b50935050505060405180910390a15050565b600160a060020a0316600090815260209190915260409020805460ff19166001179055565b61098d806101b66000396000f3006060604052600436106100cf5763ffffffff7c01000000000000000000000000000000000000000000000000000000006000350416630988ca8c81146100d45780630fda890e146101355780631180f83b14610154578063217fe6c614610173578063398f0970146101e657806354b498591461020b57806383197ef01461023a57806388cee87e1461024d578063b25fa92c146102ac578063ceacd73e1461030b578063d33e1a481461031e578063d391014b14610331578063d80d9c55146103bb578063fab77582146103d1575b600080fd5b34156100df57600080fd5b61013360048035600160a060020a03169060446024803590810190830135806020601f820181900481020160405190810160405281815292919060208401838380828437509496506103f095505050505050565b005b341561014057600080fd5b610133600160a060020a036004351661046a565b341561015f57600080fd5b610133600160a060020a03600435166104c1565b341561017e57600080fd5b6101d260048035600160a060020a03169060446024803590810190830135806020601f8201819004810201604051908101604052818152929190602084018383808284375094965061051895505050505050565b604051901515815260200160405180910390f35b34156101f157600080fd5b6101f9610597565b60405190815260200160405180910390f35b341561021657600080fd5b61021e61059d565b604051600160a060020a03909116815260200160405180910390f35b341561024557600080fd5b6101336105ac565b341561025857600080fd5b61013360048035600160a060020a03169060446024803590810190830135806020601f820181900481020160405190810160405281815292919060208401838380828437509496506105b895505050505050565b34156102b757600080fd5b61013360048035600160a060020a03169060446024803590810190830135806020601f820181900481020160405190810160405281815292919060208401838380828437509496506105ea95505050505050565b341561031657600080fd5b61021e61061c565b341561032957600080fd5b61021e61062b565b341561033c57600080fd5b61034461063a565b60405160208082528190810183818151815260200191508051906020019080838360005b83811015610380578082015183820152602001610368565b50505050905090810190601f1680156103ad5780820380516001836020036101000a031916815260200191505b509250505060405180910390f35b34156103c657600080fd5b61013360043561065c565b34156103dc57600080fd5b610133600160a060020a0360043516610689565b610466826000836040518082805190602001908083835b602083106104265780518252601f199092019160209182019101610407565b6001836020036101000a0380198251168184511680821785525050505050509050019150509081526020016040519081900390209063ffffffff6106e016565b5050565b61049233604080519081016040526005815260d960020a6430b236b4b70260208201526103f0565b6001805473ffffffffffffffffffffffffffffffffffffffff1916600160a060020a0392909216919091179055565b6104e933604080519081016040526005815260d960020a6430b236b4b70260208201526103f0565b6002805473ffffffffffffffffffffffffffffffffffffffff1916600160a060020a0392909216919091179055565b6000610590836000846040518082805190602001908083835b602083106105505780518252601f199092019160209182019101610531565b6001836020036101000a0380198251168184511680821785525050505050509050019150509081526020016040519081900390209063ffffffff6106f516565b9392505050565b60045481565b600254600160a060020a031681565b33600160a060020a0316ff5b6105e033604080519081016040526005815260d960020a6430b236b4b70260208201526103f0565b6104668282610714565b61061233604080519081016040526005815260d960020a6430b236b4b70260208201526103f0565b6104668282610837565b600354600160a060020a031681565b600154600160a060020a031681565b604080519081016040526005815260d960020a6430b236b4b702602082015281565b61068433604080519081016040526005815260d960020a6430b236b4b70260208201526103f0565b600455565b6106b133604080519081016040526005815260d960020a6430b236b4b70260208201526103f0565b6003805473ffffffffffffffffffffffffffffffffffffffff1916600160a060020a0392909216919091179055565b6106ea82826106f5565b151561046657600080fd5b600160a060020a03166000908152602091909152604090205460ff1690565b61078a826000836040518082805190602001908083835b6020831061074a5780518252601f19909201916020918201910161072b565b6001836020036101000a0380198251168184511680821785525050505050509050019150509081526020016040519081900390209063ffffffff61091a16565b7fd211483f91fc6eff862467f8de606587a30c8fc9981056f051b897a418df803a8282604051600160a060020a038316815260406020820181815290820183818151815260200191508051906020019080838360005b838110156107f85780820151838201526020016107e0565b50505050905090810190601f1680156108255780820380516001836020036101000a031916815260200191505b50935050505060405180910390a15050565b6108ad826000836040518082805190602001908083835b6020831061086d5780518252601f19909201916020918201910161084e565b6001836020036101000a0380198251168184511680821785525050505050509050019150509081526020016040519081900390209063ffffffff61093c16565b7fbfec83d64eaa953f2708271a023ab9ee82057f8f3578d548c1a4ba0b5b7004898282604051600160a060020a03831681526040602082018181529082018381815181526020019150805190602001908083836000838110156107f85780820151838201526020016107e0565b600160a060020a0316600090815260209190915260409020805460ff19169055565b600160a060020a0316600090815260209190915260409020805460ff191660011790555600a165627a7a72305820d8eec0afcd7d80cb9fdd7e8c30aa354e856029f7c82def82f744cb480c20f6610029",
  "source": "pragma solidity ^0.4.21;\n\nimport \"./security/rbac/RBACWithAdmin.sol\";\n\ncontract GenRNG {\n\n    function getNewGens(address _from, uint256 _dragonID) external returns (uint256[2] resultGen);\n}\n\ncontract FixMarketPlace {\n\n    function addToFixMarketPlace(address _dragonOwner, uint256 _dragonID, uint256 _dragonPrice, uint256 _endBlockNumber) external returns (bool sucsses);\n}\n\ncontract DragonStats {\n    function setParents(uint256 _dragonID, uint256 _parentOne, uint256 _parentTwo) external;\n    function setBirthBlock(uint256 _dragonID) external;\n    function incChildren(uint256 _dragonID) external;\n}\ncontract DragonETH_GC is RBACWithAdmin {\n    GenRNG public genRNGContractAddress;\n    FixMarketPlace public fmpContractAddress;\n    DragonStats public dragonStatsContract;\n    \n    uint256 public secondsInBlock = 15;\n\n    function changeGenRNGcontractAddress(address _genRNGContractAddress) external onlyAdmin {\n        genRNGContractAddress = GenRNG(_genRNGContractAddress);\n    }\n    function changeFMPcontractAddress(address _fmpContractAddress) external onlyAdmin {\n        fmpContractAddress = FixMarketPlace(_fmpContractAddress);\n    }\n    function changeSecondsInBlock(uint256 _secondsInBlock) external onlyAdmin {\n        secondsInBlock = _secondsInBlock;\n    }\n    function changeDragonStatsContract(address _dragonStatsContract) external onlyAdmin {\n        dragonStatsContract = DragonStats(_dragonStatsContract);\n    }\n}",
  "sourcePath": "/home/k/work/eth/CD/DragonETH/contracts/contracts/DragonETH_GC.sol",
  "compiler": {
    "name": "solc",
    "version": "0.4.21+commit.dfe3193c.Emscripten.clang"
  },
  "schemaVersion": "2.0.0",
  "updatedAt": "2018-04-16T22:46:31.756Z"
}