{
  "contractName": "DragonFight",
  "abi": [
    {
      "constant": true,
      "inputs": [
        {
          "name": "addr",
          "type": "address"
        },
        {
          "name": "roleName",
          "type": "string"
        }
      ],
      "name": "checkRole",
      "outputs": [],
      "payable": false,
      "stateMutability": "view",
      "type": "function"
    },
    {
      "constant": true,
      "inputs": [
        {
          "name": "addr",
          "type": "address"
        },
        {
          "name": "roleName",
          "type": "string"
        }
      ],
      "name": "hasRole",
      "outputs": [
        {
          "name": "",
          "type": "bool"
        }
      ],
      "payable": false,
      "stateMutability": "view",
      "type": "function"
    },
    {
      "constant": true,
      "inputs": [],
      "name": "ROLE_PAUSE_ADMIN",
      "outputs": [
        {
          "name": "",
          "type": "string"
        }
      ],
      "payable": false,
      "stateMutability": "view",
      "type": "function"
    },
    {
      "constant": false,
      "inputs": [],
      "name": "destroy",
      "outputs": [],
      "payable": false,
      "stateMutability": "nonpayable",
      "type": "function"
    },
    {
      "constant": false,
      "inputs": [
        {
          "name": "addr",
          "type": "address"
        },
        {
          "name": "roleName",
          "type": "string"
        }
      ],
      "name": "adminRemoveRole",
      "outputs": [],
      "payable": false,
      "stateMutability": "nonpayable",
      "type": "function"
    },
    {
      "constant": false,
      "inputs": [
        {
          "name": "addr",
          "type": "address"
        },
        {
          "name": "roleName",
          "type": "string"
        }
      ],
      "name": "adminAddRole",
      "outputs": [],
      "payable": false,
      "stateMutability": "nonpayable",
      "type": "function"
    },
    {
      "constant": true,
      "inputs": [],
      "name": "ROLE_ADMIN",
      "outputs": [
        {
          "name": "",
          "type": "string"
        }
      ],
      "payable": false,
      "stateMutability": "view",
      "type": "function"
    },
    {
      "anonymous": false,
      "inputs": [
        {
          "indexed": false,
          "name": "addr",
          "type": "address"
        },
        {
          "indexed": false,
          "name": "roleName",
          "type": "string"
        }
      ],
      "name": "RoleAdded",
      "type": "event"
    },
    {
      "anonymous": false,
      "inputs": [
        {
          "indexed": false,
          "name": "addr",
          "type": "address"
        },
        {
          "indexed": false,
          "name": "roleName",
          "type": "string"
        }
      ],
      "name": "RoleRemoved",
      "type": "event"
    },
    {
      "constant": true,
      "inputs": [
        {
          "name": "_dragonOneID",
          "type": "uint256"
        },
        {
          "name": "_dragonTwoID",
          "type": "uint256"
        }
      ],
      "name": "getWinner",
      "outputs": [
        {
          "name": "_winerID",
          "type": "uint256"
        }
      ],
      "payable": false,
      "stateMutability": "view",
      "type": "function"
    }
  ],
  "bytecode": "0x606060405261004e3360408051908101604052600581527f61646d696e000000000000000000000000000000000000000000000000000000602082015264010000000061068761009d82021704565b6100983360408051908101604052600a81527f706175736541646d696e00000000000000000000000000000000000000000000602082015264010000000061068761009d82021704565b6101ec565b61011a826000836040518082805190602001908083835b602083106100d35780518252601f1990920191602091820191016100b4565b6001836020036101000a0380198251168184511680821785525050505050509050019150509081526020016040519081900390209064010000000061078c6101c782021704565b7fbfec83d64eaa953f2708271a023ab9ee82057f8f3578d548c1a4ba0b5b7004898282604051600160a060020a038316815260406020820181815290820183818151815260200191508051906020019080838360005b83811015610188578082015183820152602001610170565b50505050905090810190601f1680156101b55780820380516001836020036101000a031916815260200191505b50935050505060405180910390a15050565b600160a060020a0316600090815260209190915260409020805460ff19166001179055565b6107dd806101fb6000396000f30060606040526004361061008d5763ffffffff7c01000000000000000000000000000000000000000000000000000000006000350416630988ca8c8114610092578063217fe6c6146100f357806339ff487b14610166578063474923521461019157806383197ef01461021b57806388cee87e1461022e578063b25fa92c1461028d578063d391014b146102ec575b600080fd5b341561009d57600080fd5b6100f160048035600160a060020a03169060446024803590810190830135806020601f820181900481020160405190810160405281815292919060208401838380828437509496506102ff95505050505050565b005b34156100fe57600080fd5b61015260048035600160a060020a03169060446024803590810190830135806020601f8201819004810201604051908101604052818152929190602084018383808284375094965061037995505050505050565b604051901515815260200160405180910390f35b341561017157600080fd5b61017f6004356024356103fa565b60405190815260200160405180910390f35b341561019c57600080fd5b6101a4610428565b60405160208082528190810183818151815260200191508051906020019080838360005b838110156101e05780820151838201526020016101c8565b50505050905090810190601f16801561020d5780820380516001836020036101000a031916815260200191505b509250505060405180910390f35b341561022657600080fd5b6100f161045f565b341561023957600080fd5b6100f160048035600160a060020a03169060446024803590810190830135806020601f8201819004810201604051908101604052818152929190602084018383808284375094965061046b95505050505050565b341561029857600080fd5b6100f160048035600160a060020a03169060446024803590810190830135806020601f820181900481020160405190810160405281815292919060208401838380828437509496506104b295505050505050565b34156102f757600080fd5b6101a46104f9565b610375826000836040518082805190602001908083835b602083106103355780518252601f199092019160209182019101610316565b6001836020036101000a0380198251168184511680821785525050505050509050019150509081526020016040519081900390209063ffffffff61053016565b5050565b60006103f1836000846040518082805190602001908083835b602083106103b15780518252601f199092019160209182019101610392565b6001836020036101000a0380198251168184511680821785525050505050509050019150509081526020016040519081900390209063ffffffff61054516565b90505b92915050565b60008282141561040957600080fd5b607f60ff6001194301401611156104215750816103f4565b50806103f4565b60408051908101604052600a81527f706175736541646d696e00000000000000000000000000000000000000000000602082015281565b33600160a060020a0316ff5b6104a83360408051908101604052600581527f61646d696e00000000000000000000000000000000000000000000000000000060208201526102ff565b6103758282610564565b6104ef3360408051908101604052600581527f61646d696e00000000000000000000000000000000000000000000000000000060208201526102ff565b6103758282610687565b60408051908101604052600581527f61646d696e000000000000000000000000000000000000000000000000000000602082015281565b61053a8282610545565b151561037557600080fd5b600160a060020a03166000908152602091909152604090205460ff1690565b6105da826000836040518082805190602001908083835b6020831061059a5780518252601f19909201916020918201910161057b565b6001836020036101000a0380198251168184511680821785525050505050509050019150509081526020016040519081900390209063ffffffff61076a16565b7fd211483f91fc6eff862467f8de606587a30c8fc9981056f051b897a418df803a8282604051600160a060020a038316815260406020820181815290820183818151815260200191508051906020019080838360005b83811015610648578082015183820152602001610630565b50505050905090810190601f1680156106755780820380516001836020036101000a031916815260200191505b50935050505060405180910390a15050565b6106fd826000836040518082805190602001908083835b602083106106bd5780518252601f19909201916020918201910161069e565b6001836020036101000a0380198251168184511680821785525050505050509050019150509081526020016040519081900390209063ffffffff61078c16565b7fbfec83d64eaa953f2708271a023ab9ee82057f8f3578d548c1a4ba0b5b7004898282604051600160a060020a0383168152604060208201818152908201838181518152602001915080519060200190808383600083811015610648578082015183820152602001610630565b600160a060020a0316600090815260209190915260409020805460ff19169055565b600160a060020a0316600090815260209190915260409020805460ff191660011790555600a165627a7a723058206fb9b1f37bf2e7d40edc644a0f0d1472d6c7003ec86a1d37afb352fa7477de300029",
  "source": "pragma solidity ^0.4.21;\n\nimport \"../security/rbac/RBACWithAdmin.sol\";\n\ncontract DragonFight is RBACWithAdmin {\n    function getWinner(uint256 _dragonOneID, uint256 _dragonTwoID) external view returns (uint256 _winerID){\n    // TODO Develop It!!!!\n        require(_dragonOneID != _dragonTwoID);\n        if (uint8(block.blockhash(block.number-2)) > 127 ) {\n            return _dragonOneID;    \n        } else {\n            return _dragonTwoID;\n        }\n        \n    }\n    \n}\n\n",
  "sourcePath": "/home/k/work/eth/CD/DragonETH/contracts/contracts/private/DragonFight.sol",
  "compiler": {
    "name": "solc",
    "version": "0.4.21+commit.dfe3193c.Emscripten.clang"
  },
  "schemaVersion": "2.0.0",
  "updatedAt": "2018-04-17T04:04:35.495Z"
}