{
  "contractName": "DragonsFightPlace",
  "abi": [
    {
      "constant": true,
      "inputs": [],
      "name": "minFightWaitBloc",
      "outputs": [
        {
          "name": "",
          "type": "uint256"
        }
      ],
      "payable": false,
      "stateMutability": "view",
      "type": "function"
    },
    {
      "constant": true,
      "inputs": [
        {
          "name": "",
          "type": "uint256"
        }
      ],
      "name": "dragonsEndBlock",
      "outputs": [
        {
          "name": "",
          "type": "uint256"
        }
      ],
      "payable": false,
      "stateMutability": "view",
      "type": "function"
    },
    {
      "constant": false,
      "inputs": [
        {
          "name": "_mutagenToDeathWin",
          "type": "uint256"
        }
      ],
      "name": "changeMutagenToDeathWin",
      "outputs": [],
      "payable": false,
      "stateMutability": "nonpayable",
      "type": "function"
    },
    {
      "constant": true,
      "inputs": [],
      "name": "dragonFightContract",
      "outputs": [
        {
          "name": "",
          "type": "address"
        }
      ],
      "payable": false,
      "stateMutability": "view",
      "type": "function"
    },
    {
      "constant": false,
      "inputs": [],
      "name": "unpause",
      "outputs": [],
      "payable": false,
      "stateMutability": "nonpayable",
      "type": "function"
    },
    {
      "constant": true,
      "inputs": [],
      "name": "maxFightWaitBloc",
      "outputs": [
        {
          "name": "",
          "type": "uint256"
        }
      ],
      "payable": false,
      "stateMutability": "view",
      "type": "function"
    },
    {
      "constant": false,
      "inputs": [
        {
          "name": "_newAddress",
          "type": "address"
        }
      ],
      "name": "changeAddressMainContract",
      "outputs": [],
      "payable": false,
      "stateMutability": "nonpayable",
      "type": "function"
    },
    {
      "constant": false,
      "inputs": [
        {
          "name": "_mutagenToWin",
          "type": "uint256"
        }
      ],
      "name": "changeMutagenToWin",
      "outputs": [],
      "payable": false,
      "stateMutability": "nonpayable",
      "type": "function"
    },
    {
      "constant": true,
      "inputs": [],
      "name": "paused",
      "outputs": [
        {
          "name": "",
          "type": "bool"
        }
      ],
      "payable": false,
      "stateMutability": "view",
      "type": "function"
    },
    {
      "constant": true,
      "inputs": [],
      "name": "totalDragonsToFight",
      "outputs": [
        {
          "name": "",
          "type": "uint256"
        }
      ],
      "payable": false,
      "stateMutability": "view",
      "type": "function"
    },
    {
      "constant": true,
      "inputs": [],
      "name": "mutagenToDeathWin",
      "outputs": [
        {
          "name": "",
          "type": "uint256"
        }
      ],
      "payable": false,
      "stateMutability": "view",
      "type": "function"
    },
    {
      "constant": false,
      "inputs": [
        {
          "name": "_mutagenToLose",
          "type": "uint256"
        }
      ],
      "name": "changeMutagenToLose",
      "outputs": [],
      "payable": false,
      "stateMutability": "nonpayable",
      "type": "function"
    },
    {
      "constant": false,
      "inputs": [
        {
          "name": "_maxFightWaitBloc",
          "type": "uint256"
        }
      ],
      "name": "changeMaxFightWaitBloc",
      "outputs": [],
      "payable": false,
      "stateMutability": "nonpayable",
      "type": "function"
    },
    {
      "constant": false,
      "inputs": [
        {
          "name": "_minFightWaitBloc",
          "type": "uint256"
        }
      ],
      "name": "changeMinFightWaitBloc",
      "outputs": [],
      "payable": false,
      "stateMutability": "nonpayable",
      "type": "function"
    },
    {
      "constant": false,
      "inputs": [],
      "name": "destroy",
      "outputs": [],
      "payable": false,
      "stateMutability": "nonpayable",
      "type": "function"
    },
    {
      "constant": false,
      "inputs": [],
      "name": "pause",
      "outputs": [],
      "payable": false,
      "stateMutability": "nonpayable",
      "type": "function"
    },
    {
      "constant": false,
      "inputs": [
        {
          "name": "_newAddress",
          "type": "address"
        }
      ],
      "name": "changeAddressStatsContract",
      "outputs": [],
      "payable": false,
      "stateMutability": "nonpayable",
      "type": "function"
    },
    {
      "constant": true,
      "inputs": [],
      "name": "mutagenToWin",
      "outputs": [
        {
          "name": "",
          "type": "uint256"
        }
      ],
      "payable": false,
      "stateMutability": "view",
      "type": "function"
    },
    {
      "constant": true,
      "inputs": [],
      "name": "owner",
      "outputs": [
        {
          "name": "",
          "type": "address"
        }
      ],
      "payable": false,
      "stateMutability": "view",
      "type": "function"
    },
    {
      "constant": false,
      "inputs": [
        {
          "name": "_wallet",
          "type": "address"
        }
      ],
      "name": "changeWallet",
      "outputs": [],
      "payable": false,
      "stateMutability": "nonpayable",
      "type": "function"
    },
    {
      "constant": true,
      "inputs": [],
      "name": "priceToFight",
      "outputs": [
        {
          "name": "",
          "type": "uint256"
        }
      ],
      "payable": false,
      "stateMutability": "view",
      "type": "function"
    },
    {
      "constant": true,
      "inputs": [
        {
          "name": "",
          "type": "uint256"
        }
      ],
      "name": "dragonsList",
      "outputs": [
        {
          "name": "",
          "type": "uint256"
        }
      ],
      "payable": false,
      "stateMutability": "view",
      "type": "function"
    },
    {
      "constant": false,
      "inputs": [
        {
          "name": "_newAddress",
          "type": "address"
        }
      ],
      "name": "changeAddressFightContract",
      "outputs": [],
      "payable": false,
      "stateMutability": "nonpayable",
      "type": "function"
    },
    {
      "constant": false,
      "inputs": [
        {
          "name": "_newAddress",
          "type": "address"
        }
      ],
      "name": "changeAddressMutagenContract",
      "outputs": [],
      "payable": false,
      "stateMutability": "nonpayable",
      "type": "function"
    },
    {
      "constant": true,
      "inputs": [],
      "name": "dragonStatsContract",
      "outputs": [
        {
          "name": "",
          "type": "address"
        }
      ],
      "payable": false,
      "stateMutability": "view",
      "type": "function"
    },
    {
      "constant": true,
      "inputs": [],
      "name": "priceToAdd",
      "outputs": [
        {
          "name": "",
          "type": "uint256"
        }
      ],
      "payable": false,
      "stateMutability": "view",
      "type": "function"
    },
    {
      "constant": true,
      "inputs": [],
      "name": "mainContract",
      "outputs": [
        {
          "name": "",
          "type": "address"
        }
      ],
      "payable": false,
      "stateMutability": "view",
      "type": "function"
    },
    {
      "constant": true,
      "inputs": [],
      "name": "mutagenContract",
      "outputs": [
        {
          "name": "",
          "type": "address"
        }
      ],
      "payable": false,
      "stateMutability": "view",
      "type": "function"
    },
    {
      "constant": false,
      "inputs": [
        {
          "name": "newOwner",
          "type": "address"
        }
      ],
      "name": "transferOwnership",
      "outputs": [],
      "payable": false,
      "stateMutability": "nonpayable",
      "type": "function"
    },
    {
      "constant": true,
      "inputs": [],
      "name": "mutagenToLose",
      "outputs": [
        {
          "name": "",
          "type": "uint256"
        }
      ],
      "payable": false,
      "stateMutability": "view",
      "type": "function"
    },
    {
      "inputs": [
        {
          "name": "_wallet",
          "type": "address"
        }
      ],
      "payable": false,
      "stateMutability": "nonpayable",
      "type": "constructor"
    },
    {
      "anonymous": false,
      "inputs": [],
      "name": "Pause",
      "type": "event"
    },
    {
      "anonymous": false,
      "inputs": [],
      "name": "Unpause",
      "type": "event"
    },
    {
      "anonymous": false,
      "inputs": [
        {
          "indexed": true,
          "name": "previousOwner",
          "type": "address"
        },
        {
          "indexed": true,
          "name": "newOwner",
          "type": "address"
        }
      ],
      "name": "OwnershipTransferred",
      "type": "event"
    },
    {
      "constant": false,
      "inputs": [
        {
          "name": "_dragonID",
          "type": "uint256"
        },
        {
          "name": "_endBlockNumber",
          "type": "uint256"
        }
      ],
      "name": "addToFightPlace",
      "outputs": [],
      "payable": true,
      "stateMutability": "payable",
      "type": "function"
    },
    {
      "constant": false,
      "inputs": [
        {
          "name": "_dragonID",
          "type": "uint256"
        }
      ],
      "name": "delFromFightPlace",
      "outputs": [],
      "payable": false,
      "stateMutability": "nonpayable",
      "type": "function"
    },
    {
      "constant": false,
      "inputs": [
        {
          "name": "_yourDragonID",
          "type": "uint256"
        },
        {
          "name": "_thisDragonID",
          "type": "uint256"
        }
      ],
      "name": "fightWithDragon",
      "outputs": [],
      "payable": true,
      "stateMutability": "payable",
      "type": "function"
    },
    {
      "constant": true,
      "inputs": [],
      "name": "getAllDragonsFight",
      "outputs": [
        {
          "name": "",
          "type": "uint256[]"
        }
      ],
      "payable": false,
      "stateMutability": "view",
      "type": "function"
    },
    {
      "constant": true,
      "inputs": [],
      "name": "getDragonsTofight",
      "outputs": [
        {
          "name": "",
          "type": "uint256[]"
        }
      ],
      "payable": false,
      "stateMutability": "view",
      "type": "function"
    },
    {
      "constant": false,
      "inputs": [
        {
          "name": "_start",
          "type": "uint256"
        },
        {
          "name": "_count",
          "type": "uint256"
        }
      ],
      "name": "clearStuxDragon",
      "outputs": [
        {
          "name": "_deleted",
          "type": "uint256"
        }
      ],
      "payable": false,
      "stateMutability": "nonpayable",
      "type": "function"
    },
    {
      "constant": false,
      "inputs": [
        {
          "name": "_priceToFight",
          "type": "uint256"
        },
        {
          "name": "_priceToAdd",
          "type": "uint256"
        }
      ],
      "name": "changePrices",
      "outputs": [],
      "payable": false,
      "stateMutability": "nonpayable",
      "type": "function"
    },
    {
      "constant": false,
      "inputs": [],
      "name": "withdrawAllEther",
      "outputs": [],
      "payable": false,
      "stateMutability": "nonpayable",
      "type": "function"
    }
  ],
  "bytecode": "0x60606040526000805460a060020a60ff021916815560506006556202a300600755600a6008819055600160095560649055662386f26fc10000600c55600d55341561004957600080fd5b6040516020806115388339810160405280805160008054600160a060020a03338116600160a060020a03199283161790925560058054929093169116179055505061149f806100996000396000f3006060604052600436106101be5763ffffffff60e060020a60003504166310b65d2681146101c3578063172623e81461022957806323810b8c14610239578063280285c01461025e5780632ff7a0581461027757806331c911171461028d5780633d2eeb40146102a05780633f2e72ab146102b65780633f4ba83a146102e557806345d8e2d5146102f85780634a1f679b1461030b5780634e559a9a1461032a5780635a950e3e146103405780635ab028c6146103595780635c975abb1461036f5780636b137076146103965780636be2a3db146103a95780636c4d5d3d146103bc5780636f3ecb50146103cf578063777793a5146103e55780637b52be28146103fb57806383197ef0146104115780638456cb591461042457806385998a741461043757806389dd7cbd146104455780638ac45066146104645780638da5cb5b1461047757806398b9a2dc1461048a578063a2c3aacd146104a9578063b2af0fb5146104bc578063b4f6a965146104d2578063bd94be5e146104f1578063ceacd73e14610510578063cfa8098814610523578063d270e7ab14610536578063d4ef908c14610549578063f2fde38b1461055c578063fe36cab91461057b575b600080fd5b34156101ce57600080fd5b6101d661058e565b60405160208082528190810183818151815260200191508051906020019060200280838360005b838110156102155780820151838201526020016101fd565b505050509050019250505060405180910390f35b610237600435602435610676565b005b341561024457600080fd5b61024c61082f565b60405190815260200160405180910390f35b341561026957600080fd5b61024c600435602435610835565b341561028257600080fd5b61024c6004356108c6565b341561029857600080fd5b6102376108d8565b34156102ab57600080fd5b610237600435610945565b34156102c157600080fd5b6102c9610965565b604051600160a060020a03909116815260200160405180910390f35b34156102f057600080fd5b610237610974565b341561030357600080fd5b61024c6109f3565b341561031657600080fd5b610237600160a060020a03600435166109f9565b341561033557600080fd5b610237600435610a36565b341561034b57600080fd5b610237600435602435610a56565b341561036457600080fd5b610237600435610a7c565b341561037a57600080fd5b610382610aca565b604051901515815260200160405180910390f35b34156103a157600080fd5b61024c610ada565b34156103b457600080fd5b61024c610ae0565b34156103c757600080fd5b6101d6610ae6565b34156103da57600080fd5b610237600435610b45565b34156103f057600080fd5b610237600435610b65565b341561040657600080fd5b610237600435610b85565b341561041c57600080fd5b610237610ba5565b341561042f57600080fd5b610237610bb1565b610237600435602435610c35565b341561045057600080fd5b610237600160a060020a0360043516610ff3565b341561046f57600080fd5b61024c611030565b341561048257600080fd5b6102c9611036565b341561049557600080fd5b610237600160a060020a0360043516611045565b34156104b457600080fd5b61024c611082565b34156104c757600080fd5b61024c600435611088565b34156104dd57600080fd5b610237600160a060020a03600435166110a7565b34156104fc57600080fd5b610237600160a060020a03600435166110e4565b341561051b57600080fd5b6102c9611121565b341561052e57600080fd5b61024c611130565b341561054157600080fd5b6102c9611136565b341561055457600080fd5b6102c9611145565b341561056757600080fd5b610237600160a060020a0360043516611154565b341561058657600080fd5b61024c6111e2565b610596611424565b61059e611424565b6000806000600b54600014156105d55760006040518059106105bd5750595b9080825280602002602001820160405250945061066f565b600b546040518059106105e55750595b9080825280602002602001820160405250935060009150600092505b600b5483101561066b57601080548490811061061957fe5b906000526020600020900154905043600f6000838152602001908152602001600020541115610660578084838151811061064f57fe5b602090810290910101526001909101905b600190920191610601565b8394505b5050505090565b60008054819060a060020a900460ff161561069057600080fd5b600654831161069e57600080fd5b60075483106106ac57600080fd5b600254600160a060020a0316636352211e8560405160e060020a63ffffffff84160281526004810191909152602401602060405180830381600087803b15156106f457600080fd5b5af1151561070157600080fd5b50505060405180519050915033600160a060020a031682600160a060020a031614151561072d57600080fd5b600d5434101561073c57600080fd5b600d5434039050600c54600014151561078857600554600d54600160a060020a039091169080156108fc0290604051600060405180830381858888f19350505050151561078857600080fd5b80156107bf57600160a060020a03331681156108fc0282604051600060405180830381858888f1935050505015156107bf57600080fd5b6000848152600e602090815260408083208054600160a060020a031916600160a060020a038716179055600f825280832043870190556010805460119093529220819055600181016108118382611436565b506000918252602090912001939093555050600b8054600101905550565b60065481565b600080548190819060a060020a900460ff161561085157600080fd5b8491505b83850182108015610867575060105482105b156108be57601080548390811061087a57fe5b906000526020600020900154905043600f60008381526020019081526020016000205410156108b3576108ac816111e8565b6001909201915b600190910190610855565b505092915050565b600f6020526000908152604090205481565b60005433600160a060020a039081169116146108f357600080fd5b600554600160a060020a0316151561090a57600080fd5b600554600160a060020a039081169030163180156108fc0290604051600060405180830381858888f19350505050151561094357600080fd5b565b60005433600160a060020a0390811691161461096057600080fd5b600a55565b600354600160a060020a031681565b60005433600160a060020a0390811691161461098f57600080fd5b60005460a060020a900460ff1615156109a757600080fd5b6000805474ff0000000000000000000000000000000000000000191690557f7805862f689e2f13df9f062ff482ad3ad112aca9e0847911ed832e158c525b3360405160405180910390a1565b60075481565b60005433600160a060020a03908116911614610a1457600080fd5b60028054600160a060020a031916600160a060020a0392909216919091179055565b60005433600160a060020a03908116911614610a5157600080fd5b600855565b60005433600160a060020a03908116911614610a7157600080fd5b600c91909155600d55565b6000818152600e602052604090205433600160a060020a0390811691161480610ab357506000818152600f60205260409020544390105b1515610abe57600080fd5b610ac7816111e8565b50565b60005460a060020a900460ff1681565b600b5481565b600a5481565b610aee611424565b6010805480602002602001604051908101604052809291908181526020018280548015610b3a57602002820191906000526020600020905b815481526020019060010190808311610b26575b505050505090505b90565b60005433600160a060020a03908116911614610b6057600080fd5b600955565b60005433600160a060020a03908116911614610b8057600080fd5b600755565b60005433600160a060020a03908116911614610ba057600080fd5b600655565b33600160a060020a0316ff5b60005433600160a060020a03908116911614610bcc57600080fd5b60005460a060020a900460ff1615610be357600080fd5b6000805474ff0000000000000000000000000000000000000000191660a060020a1790557f6985a02210a168e66602d3235cb6db0e70f92b3ba4d376a33c0f3d9434bff62560405160405180910390a1565b6000805460a060020a900460ff1615610c4d57600080fd5b6000828152600f6020526040902054431115610c6857600080fd5b600c54341015610c7757600080fd5b600254600160a060020a033381169116636352211e8560405160e060020a63ffffffff84160281526004810191909152602401602060405180830381600087803b1515610cc357600080fd5b5af11515610cd057600080fd5b50505060405180519050600160a060020a0316141515610cef57600080fd5b50600c54348190039015610d3657600554600c54600160a060020a039091169080156108fc0290604051600060405180830381858888f193505050501515610d3657600080fd5b8015610d6d57600160a060020a03331681156108fc0282604051600060405180830381858888f193505050501515610d6d57600080fd5b6003548390600160a060020a03166339ff487b828560405160e060020a63ffffffff851602815260048101929092526024820152604401602060405180830381600087803b1515610dbd57600080fd5b5af11515610dca57600080fd5b505050604051805190501415610ee257600154600854600160a060020a03909116906340c10f1990339060405160e060020a63ffffffff8516028152600160a060020a0390921660048301526024820152604401602060405180830381600087803b1515610e3757600080fd5b5af11515610e4457600080fd5b505050604051805150506001546000838152600e60205260409081902054600954600160a060020a03938416936340c10f19939216915160e060020a63ffffffff8516028152600160a060020a0390921660048301526024820152604401602060405180830381600087803b1515610ebb57600080fd5b5af11515610ec857600080fd5b5050506040518051905050610edd8383611297565b610fe5565b6001546000838152600e60205260409081902054600854600160a060020a03938416936340c10f19939216915160e060020a63ffffffff8516028152600160a060020a0390921660048301526024820152604401602060405180830381600087803b1515610f4f57600080fd5b5af11515610f5c57600080fd5b50505060405180515050600154600954600160a060020a03909116906340c10f1990339060405160e060020a63ffffffff8516028152600160a060020a0390921660048301526024820152604401602060405180830381600087803b1515610fc357600080fd5b5af11515610fd057600080fd5b5050506040518051905050610fe58284611297565b610fee826111e8565b505050565b60005433600160a060020a0390811691161461100e57600080fd5b60048054600160a060020a031916600160a060020a0392909216919091179055565b60085481565b600054600160a060020a031681565b60005433600160a060020a0390811691161461106057600080fd5b60058054600160a060020a031916600160a060020a0392909216919091179055565b600c5481565b601080548290811061109657fe5b600091825260209091200154905081565b60005433600160a060020a039081169116146110c257600080fd5b60038054600160a060020a031916600160a060020a0392909216919091179055565b60005433600160a060020a039081169116146110ff57600080fd5b60018054600160a060020a031916600160a060020a0392909216919091179055565b600454600160a060020a031681565b600d5481565b600254600160a060020a031681565b600154600160a060020a031681565b60005433600160a060020a0390811691161461116f57600080fd5b600160a060020a038116151561118457600080fd5b600054600160a060020a0380831691167f8be0079c531659141344cd1fd0a4f28419497f9722a3daafe3b4186f6b6457e060405160405180910390a360008054600160a060020a031916600160a060020a0392909216919091179055565b60095481565b6000818152600e602090815260408083208054600160a060020a0319169055600f909152812055600b5460019011156112685760108054600019810190811061122d57fe5b9060005260206000209001546010601160008481526020019081526020016000205481548110151561125b57fe5b6000918252602090912001555b601080549061127b906000198301611436565b50600090815260116020526040812055600b8054600019019055565b600454600160a060020a0316632454d1f08360405160e060020a63ffffffff84160281526004810191909152602401600060405180830381600087803b15156112df57600080fd5b5af115156112ec57600080fd5b5050600454600160a060020a03169050635aeee9f98260405160e060020a63ffffffff84160281526004810191909152602401600060405180830381600087803b151561133857600080fd5b5af1151561134557600080fd5b5050600454600160a060020a0316905063af24cba28383600d60405160e060020a63ffffffff86160281526004810193909352602483019190915260ff166044820152606401600060405180830381600087803b15156113a457600080fd5b5af115156113b157600080fd5b5050600454600160a060020a0316905063af24cba28284600e60405160e060020a63ffffffff86160281526004810193909352602483019190915260ff166044820152606401600060405180830381600087803b151561141057600080fd5b5af1151561141d57600080fd5b5050505050565b60206040519081016040526000815290565b815481835581811511610fee57600083815260209020610fee918101908301610b4291905b8082111561146f576000815560010161145b565b50905600a165627a7a723058205d0e48d49b5359eabdeb82fc686be004a26772d2325482192700aacb9eb36d610029",
  "source": "pragma solidity ^0.4.21;\n\nimport \"./DragonFightGC.sol\";\n\ncontract DragonsFightPlace is DragonFightGC {\n    \n    uint256 public totalDragonsToFight;\n    uint256 public priceToFight = 0.01 ether; // price for test\n    uint256 public priceToAdd = 0;  // price for test\n    mapping(uint256 => address) dragonsOwner;\n    mapping(uint256 => uint256) public dragonsEndBlock;\n    uint256[] public dragonsList; \n    mapping(uint256 => uint256) dragonsListIndex;\n\n\n    function DragonsFightPlace(address _wallet) public {\n        wallet = _wallet;\n    }\n\n    function _delItem(uint256 _dragonID) private {\n        delete(dragonsOwner[_dragonID]);\n        delete(dragonsEndBlock[_dragonID]);\n        if (totalDragonsToFight > 1) {\n            dragonsList[dragonsListIndex[_dragonID]] = dragonsList[dragonsList.length - 1];\n        }\n        dragonsList.length--;\n        delete(dragonsListIndex[_dragonID]);\n        totalDragonsToFight--;\n    }\n    function _setFightResult(uint256 _dragonWin, uint256 _dragonLose) private {\n        dragonStatsContract.incFightWin(_dragonWin);\n        dragonStatsContract.incFightLose(_dragonLose);\n        dragonStatsContract.setLastAction(_dragonWin, _dragonLose, 13);\n        dragonStatsContract.setLastAction(_dragonLose, _dragonWin, 14);\n            \n    }\n    \n    function addToFightPlace(uint256 _dragonID, uint256 _endBlockNumber) external payable whenNotPaused {\n        require(_endBlockNumber  > minFightWaitBloc);\n        require(_endBlockNumber < maxFightWaitBloc); //??????\n        address dragonOwner = mainContract.ownerOf(_dragonID);\n        require(dragonOwner == msg.sender);\n        require(msg.value >= priceToAdd);\n        uint256 valueToReturn = msg.value - priceToAdd;\n        if (priceToFight != 0) {\n        wallet.transfer(priceToAdd);\n        }\n        \n        if (valueToReturn != 0) {\n            msg.sender.transfer(valueToReturn);\n        }\n        dragonsOwner[_dragonID] = dragonOwner;\n        dragonsEndBlock[_dragonID] = block.number + _endBlockNumber;\n        dragonsListIndex[_dragonID] = dragonsList.length;\n        dragonsList.push(_dragonID);\n        totalDragonsToFight++;\n        // TODO add dragon blocking\n    }\n    \n    function delFromFightPlace(uint256 _dragonID) external {\n        require(msg.sender == dragonsOwner[_dragonID] || dragonsEndBlock[_dragonID] < block.number);\n         // TODO add dragon unblocking   \n        _delItem(_dragonID);\n    }\n\n    function fightWithDragon(uint256 _yourDragonID,uint256 _thisDragonID) external payable whenNotPaused {\n        require(block.number <= dragonsEndBlock[_thisDragonID]);\n        require(msg.value >= priceToFight);\n        require(mainContract.ownerOf(_yourDragonID) == msg.sender);\n        \n        uint256 valueToReturn = msg.value - priceToFight;\n        if (priceToFight != 0) {\n        wallet.transfer(priceToFight);\n        }\n        \n        if (valueToReturn != 0) {\n            msg.sender.transfer(valueToReturn);\n        }\n\n        if (dragonFightContract.getWinner(_yourDragonID, _thisDragonID) == _yourDragonID ) {\n            \n            mutagenContract.mint(msg.sender,mutagenToWin);\n            mutagenContract.mint(dragonsOwner[_thisDragonID],mutagenToLose);\n            _setFightResult(_yourDragonID, _thisDragonID);\n            \n        } else {\n            \n            mutagenContract.mint(dragonsOwner[_thisDragonID],mutagenToWin);\n            mutagenContract.mint(msg.sender,mutagenToLose);\n            _setFightResult(_thisDragonID, _yourDragonID);\n        }\n        // TODO add dragon unblocking\n        // TODO add rest time\n        \n        _delItem(_thisDragonID);        \n    }\n    function getAllDragonsFight() external view returns(uint256[]) {\n        return dragonsList;\n    }\n    function getDragonsTofight() external view returns(uint256[]) {\n        \n\n        if (totalDragonsToFight == 0) {\n            // Return an empty array\n            return new uint256[](0);\n        } else {\n            // !!!!!! need to test on time go to future\n            uint256[] memory result = new uint256[](totalDragonsToFight);\n            uint256 _dragonIndex;\n            uint256 _resultIndex = 0;\n\n            for (_dragonIndex = 0; _dragonIndex < totalDragonsToFight; _dragonIndex++) {\n                uint256 _dragonID = dragonsList[_dragonIndex];\n                if (dragonsEndBlock[_dragonID] > block.number) {\n                    result[_resultIndex] = _dragonID;\n                    _resultIndex++;\n                }\n            }\n\n            return result;\n        }\n    }\n    function clearStuxDragon(uint256 _start, uint256 _count) external whenNotPaused returns (uint256 _deleted) {\n        uint256 _dragonIndex;\n        \n        for(_dragonIndex=_start; _dragonIndex < _start + _count && _dragonIndex < dragonsList.length; _dragonIndex++) {\n            uint256 _dragonID = dragonsList[_dragonIndex];\n            if (dragonsEndBlock[_dragonID] < block.number) {\n                // TODO add dragon unblocking\n                _delItem(_dragonID);\n                _deleted++;\n            }\n        }\n    }\n   \n    \n\n\n    function changePrices(uint256 _priceToFight,uint256 _priceToAdd) external onlyOwner {\n        priceToFight = _priceToFight;\n        priceToAdd = _priceToAdd;\n    }\n\n    function withdrawAllEther() external onlyOwner {\n        require(wallet != 0);\n        wallet.transfer(address(this).balance);\n    }\n}\n\n",
  "sourcePath": "/home/k/work/eth/CD/DragonETH/contracts/contracts/fight/DragonFightPlace.sol",
  "compiler": {
    "name": "solc",
    "version": "0.4.21+commit.dfe3193c.Emscripten.clang"
  },
  "schemaVersion": "2.0.0",
  "updatedAt": "2018-04-16T22:46:31.783Z"
}