{
  "contractName": "DragonsFightPlace",
  "abi": [
    {
      "constant": true,
      "inputs": [
        {
          "name": "addr",
          "type": "address"
        },
        {
          "name": "roleName",
          "type": "string"
        }
      ],
      "name": "checkRole",
      "outputs": [],
      "payable": false,
      "stateMutability": "view",
      "type": "function"
    },
    {
      "constant": true,
      "inputs": [
        {
          "name": "addr",
          "type": "address"
        },
        {
          "name": "roleName",
          "type": "string"
        }
      ],
      "name": "hasRole",
      "outputs": [
        {
          "name": "",
          "type": "bool"
        }
      ],
      "payable": false,
      "stateMutability": "view",
      "type": "function"
    },
    {
      "constant": true,
      "inputs": [],
      "name": "minFightWaitBloc",
      "outputs": [
        {
          "name": "",
          "type": "uint256"
        }
      ],
      "payable": false,
      "stateMutability": "view",
      "type": "function"
    },
    {
      "constant": true,
      "inputs": [
        {
          "name": "",
          "type": "uint256"
        }
      ],
      "name": "dragonsEndBlock",
      "outputs": [
        {
          "name": "",
          "type": "uint256"
        }
      ],
      "payable": false,
      "stateMutability": "view",
      "type": "function"
    },
    {
      "constant": false,
      "inputs": [],
      "name": "withdrawAllEther",
      "outputs": [],
      "payable": false,
      "stateMutability": "nonpayable",
      "type": "function"
    },
    {
      "constant": true,
      "inputs": [],
      "name": "addTime2Rest",
      "outputs": [
        {
          "name": "",
          "type": "uint256"
        }
      ],
      "payable": false,
      "stateMutability": "view",
      "type": "function"
    },
    {
      "constant": false,
      "inputs": [
        {
          "name": "_mutagenToDeathWin",
          "type": "uint256"
        }
      ],
      "name": "changeMutagenToDeathWin",
      "outputs": [],
      "payable": false,
      "stateMutability": "nonpayable",
      "type": "function"
    },
    {
      "constant": true,
      "inputs": [],
      "name": "dragonFightContract",
      "outputs": [
        {
          "name": "",
          "type": "address"
        }
      ],
      "payable": false,
      "stateMutability": "view",
      "type": "function"
    },
    {
      "constant": false,
      "inputs": [],
      "name": "unpause",
      "outputs": [],
      "payable": false,
      "stateMutability": "nonpayable",
      "type": "function"
    },
    {
      "constant": true,
      "inputs": [],
      "name": "maxFightWaitBloc",
      "outputs": [
        {
          "name": "",
          "type": "uint256"
        }
      ],
      "payable": false,
      "stateMutability": "view",
      "type": "function"
    },
    {
      "constant": true,
      "inputs": [],
      "name": "ROLE_PAUSE_ADMIN",
      "outputs": [
        {
          "name": "",
          "type": "string"
        }
      ],
      "payable": false,
      "stateMutability": "view",
      "type": "function"
    },
    {
      "constant": false,
      "inputs": [
        {
          "name": "_newAddress",
          "type": "address"
        }
      ],
      "name": "changeAddressMainContract",
      "outputs": [],
      "payable": false,
      "stateMutability": "nonpayable",
      "type": "function"
    },
    {
      "constant": false,
      "inputs": [
        {
          "name": "_mutagenToWin",
          "type": "uint256"
        }
      ],
      "name": "changeMutagenToWin",
      "outputs": [],
      "payable": false,
      "stateMutability": "nonpayable",
      "type": "function"
    },
    {
      "constant": true,
      "inputs": [],
      "name": "paused",
      "outputs": [
        {
          "name": "",
          "type": "bool"
        }
      ],
      "payable": false,
      "stateMutability": "view",
      "type": "function"
    },
    {
      "constant": false,
      "inputs": [
        {
          "name": "_addTime2Rest",
          "type": "uint256"
        }
      ],
      "name": "changeAddTime2Rest",
      "outputs": [],
      "payable": false,
      "stateMutability": "nonpayable",
      "type": "function"
    },
    {
      "constant": true,
      "inputs": [],
      "name": "totalDragonsToFight",
      "outputs": [
        {
          "name": "",
          "type": "uint256"
        }
      ],
      "payable": false,
      "stateMutability": "view",
      "type": "function"
    },
    {
      "constant": true,
      "inputs": [],
      "name": "mutagenToDeathWin",
      "outputs": [
        {
          "name": "",
          "type": "uint256"
        }
      ],
      "payable": false,
      "stateMutability": "view",
      "type": "function"
    },
    {
      "constant": false,
      "inputs": [
        {
          "name": "_mutagenToLose",
          "type": "uint256"
        }
      ],
      "name": "changeMutagenToLose",
      "outputs": [],
      "payable": false,
      "stateMutability": "nonpayable",
      "type": "function"
    },
    {
      "constant": false,
      "inputs": [
        {
          "name": "_maxFightWaitBloc",
          "type": "uint256"
        }
      ],
      "name": "changeMaxFightWaitBloc",
      "outputs": [],
      "payable": false,
      "stateMutability": "nonpayable",
      "type": "function"
    },
    {
      "constant": false,
      "inputs": [
        {
          "name": "_minFightWaitBloc",
          "type": "uint256"
        }
      ],
      "name": "changeMinFightWaitBloc",
      "outputs": [],
      "payable": false,
      "stateMutability": "nonpayable",
      "type": "function"
    },
    {
      "constant": false,
      "inputs": [],
      "name": "destroy",
      "outputs": [],
      "payable": false,
      "stateMutability": "nonpayable",
      "type": "function"
    },
    {
      "constant": false,
      "inputs": [],
      "name": "pause",
      "outputs": [],
      "payable": false,
      "stateMutability": "nonpayable",
      "type": "function"
    },
    {
      "constant": false,
      "inputs": [
        {
          "name": "addr",
          "type": "address"
        },
        {
          "name": "roleName",
          "type": "string"
        }
      ],
      "name": "adminRemoveRole",
      "outputs": [],
      "payable": false,
      "stateMutability": "nonpayable",
      "type": "function"
    },
    {
      "constant": false,
      "inputs": [
        {
          "name": "_newAddress",
          "type": "address"
        }
      ],
      "name": "changeAddressStatsContract",
      "outputs": [],
      "payable": false,
      "stateMutability": "nonpayable",
      "type": "function"
    },
    {
      "constant": true,
      "inputs": [],
      "name": "mutagenToWin",
      "outputs": [
        {
          "name": "",
          "type": "uint256"
        }
      ],
      "payable": false,
      "stateMutability": "view",
      "type": "function"
    },
    {
      "constant": false,
      "inputs": [
        {
          "name": "_wallet",
          "type": "address"
        }
      ],
      "name": "changeWallet",
      "outputs": [],
      "payable": false,
      "stateMutability": "nonpayable",
      "type": "function"
    },
    {
      "constant": true,
      "inputs": [],
      "name": "priceToFight",
      "outputs": [
        {
          "name": "",
          "type": "uint256"
        }
      ],
      "payable": false,
      "stateMutability": "view",
      "type": "function"
    },
    {
      "constant": false,
      "inputs": [
        {
          "name": "addr",
          "type": "address"
        },
        {
          "name": "roleName",
          "type": "string"
        }
      ],
      "name": "adminAddRole",
      "outputs": [],
      "payable": false,
      "stateMutability": "nonpayable",
      "type": "function"
    },
    {
      "constant": true,
      "inputs": [
        {
          "name": "",
          "type": "uint256"
        }
      ],
      "name": "dragonsList",
      "outputs": [
        {
          "name": "",
          "type": "uint256"
        }
      ],
      "payable": false,
      "stateMutability": "view",
      "type": "function"
    },
    {
      "constant": false,
      "inputs": [
        {
          "name": "_newAddress",
          "type": "address"
        }
      ],
      "name": "changeAddressFightContract",
      "outputs": [],
      "payable": false,
      "stateMutability": "nonpayable",
      "type": "function"
    },
    {
      "constant": false,
      "inputs": [
        {
          "name": "_newAddress",
          "type": "address"
        }
      ],
      "name": "changeAddressMutagenContract",
      "outputs": [],
      "payable": false,
      "stateMutability": "nonpayable",
      "type": "function"
    },
    {
      "constant": true,
      "inputs": [],
      "name": "dragonStatsContract",
      "outputs": [
        {
          "name": "",
          "type": "address"
        }
      ],
      "payable": false,
      "stateMutability": "view",
      "type": "function"
    },
    {
      "constant": true,
      "inputs": [],
      "name": "priceToAdd",
      "outputs": [
        {
          "name": "",
          "type": "uint256"
        }
      ],
      "payable": false,
      "stateMutability": "view",
      "type": "function"
    },
    {
      "constant": true,
      "inputs": [],
      "name": "mainContract",
      "outputs": [
        {
          "name": "",
          "type": "address"
        }
      ],
      "payable": false,
      "stateMutability": "view",
      "type": "function"
    },
    {
      "constant": true,
      "inputs": [],
      "name": "ROLE_ADMIN",
      "outputs": [
        {
          "name": "",
          "type": "string"
        }
      ],
      "payable": false,
      "stateMutability": "view",
      "type": "function"
    },
    {
      "constant": true,
      "inputs": [],
      "name": "mutagenContract",
      "outputs": [
        {
          "name": "",
          "type": "address"
        }
      ],
      "payable": false,
      "stateMutability": "view",
      "type": "function"
    },
    {
      "constant": true,
      "inputs": [],
      "name": "mutagenToLose",
      "outputs": [
        {
          "name": "",
          "type": "uint256"
        }
      ],
      "payable": false,
      "stateMutability": "view",
      "type": "function"
    },
    {
      "inputs": [
        {
          "name": "_wallet",
          "type": "address"
        }
      ],
      "payable": false,
      "stateMutability": "nonpayable",
      "type": "constructor"
    },
    {
      "anonymous": false,
      "inputs": [],
      "name": "Pause",
      "type": "event"
    },
    {
      "anonymous": false,
      "inputs": [],
      "name": "Unpause",
      "type": "event"
    },
    {
      "anonymous": false,
      "inputs": [
        {
          "indexed": false,
          "name": "addr",
          "type": "address"
        },
        {
          "indexed": false,
          "name": "roleName",
          "type": "string"
        }
      ],
      "name": "RoleAdded",
      "type": "event"
    },
    {
      "anonymous": false,
      "inputs": [
        {
          "indexed": false,
          "name": "addr",
          "type": "address"
        },
        {
          "indexed": false,
          "name": "roleName",
          "type": "string"
        }
      ],
      "name": "RoleRemoved",
      "type": "event"
    },
    {
      "constant": false,
      "inputs": [
        {
          "name": "_dragonID",
          "type": "uint256"
        },
        {
          "name": "_endBlockNumber",
          "type": "uint256"
        }
      ],
      "name": "addToFightPlace",
      "outputs": [],
      "payable": true,
      "stateMutability": "payable",
      "type": "function"
    },
    {
      "constant": false,
      "inputs": [
        {
          "name": "_dragonID",
          "type": "uint256"
        }
      ],
      "name": "delFromFightPlace",
      "outputs": [],
      "payable": false,
      "stateMutability": "nonpayable",
      "type": "function"
    },
    {
      "constant": false,
      "inputs": [
        {
          "name": "_yourDragonID",
          "type": "uint256"
        },
        {
          "name": "_thisDragonID",
          "type": "uint256"
        }
      ],
      "name": "fightWithDragon",
      "outputs": [],
      "payable": true,
      "stateMutability": "payable",
      "type": "function"
    },
    {
      "constant": true,
      "inputs": [],
      "name": "getAllDragonsFight",
      "outputs": [
        {
          "name": "",
          "type": "uint256[]"
        }
      ],
      "payable": false,
      "stateMutability": "view",
      "type": "function"
    },
    {
      "constant": true,
      "inputs": [],
      "name": "getDragonsTofight",
      "outputs": [
        {
          "name": "",
          "type": "uint256[]"
        }
      ],
      "payable": false,
      "stateMutability": "view",
      "type": "function"
    },
    {
      "constant": false,
      "inputs": [
        {
          "name": "_start",
          "type": "uint256"
        },
        {
          "name": "_count",
          "type": "uint256"
        }
      ],
      "name": "clearStuxDragon",
      "outputs": [
        {
          "name": "_deleted",
          "type": "uint256"
        }
      ],
      "payable": false,
      "stateMutability": "nonpayable",
      "type": "function"
    },
    {
      "constant": false,
      "inputs": [
        {
          "name": "_priceToFight",
          "type": "uint256"
        },
        {
          "name": "_priceToAdd",
          "type": "uint256"
        }
      ],
      "name": "changePrices",
      "outputs": [],
      "payable": false,
      "stateMutability": "nonpayable",
      "type": "function"
    }
  ],
  "bytecode": "0x60606040526001805460ff1916815560506006556202a300600755600a60088190556009919091556064905560f0600b5566038d7ea4c68000600d556000600e5534156200004c57600080fd5b604051602080620021e6833981016040528080519150620000b190503360408051908101604052600581527f61646d696e000000000000000000000000000000000000000000000000000000602082015264010000000062001db66200012482021704565b620000fe3360408051908101604052600a81527f706175736541646d696e00000000000000000000000000000000000000000000602082015264010000000062001db66200012482021704565b60058054600160a060020a031916600160a060020a03929092169190911790556200027b565b620001a6826000836040518082805190602001908083835b602083106200015d5780518252601f1990920191602091820191016200013c565b6001836020036101000a0380198251168184511680821785525050505050509050019150509081526020016040519081900390209064010000000062001ebb6200025682021704565b7fbfec83d64eaa953f2708271a023ab9ee82057f8f3578d548c1a4ba0b5b7004898282604051600160a060020a038316815260406020820181815290820183818151815260200191508051906020019080838360005b8381101562000216578082015183820152602001620001fc565b50505050905090810190601f168015620002445780820380516001836020036101000a031916815260200191505b50935050505060405180910390a15050565b600160a060020a0316600090815260209190915260409020805460ff19166001179055565b611f5b806200028b6000396000f3006060604052600436106102005763ffffffff60e060020a6000350416630988ca8c811461020557806310b65d2614610266578063172623e8146102cc578063217fe6c6146102da57806323810b8c1461034d578063280285c0146103725780632ff7a0581461038b57806331c91117146103a1578063332390c5146103b45780633d2eeb40146103c75780633f2e72ab146103dd5780633f4ba83a1461040c57806345d8e2d51461041f57806347492352146104325780634a1f679b146104bc5780634e559a9a146104db5780635a950e3e146104f15780635ab028c61461050a5780635c975abb14610520578063682f8f0f146105335780636b137076146105495780636be2a3db1461055c5780636c4d5d3d1461056f5780636f3ecb5014610582578063777793a5146105985780637b52be28146105ae57806383197ef0146105c45780638456cb59146105d757806385998a74146105ea57806388cee87e146105f857806389dd7cbd146106575780638ac450661461067657806398b9a2dc14610689578063a2c3aacd146106a8578063b25fa92c146106bb578063b2af0fb51461071a578063b4f6a96514610730578063bd94be5e1461074f578063ceacd73e1461076e578063cfa8098814610781578063d270e7ab14610794578063d391014b146107a7578063d4ef908c146107ba578063fe36cab9146107cd575b600080fd5b341561021057600080fd5b61026460048035600160a060020a03169060446024803590810190830135806020601f820181900481020160405190810160405281815292919060208401838380828437509496506107e095505050505050565b005b341561027157600080fd5b61027961085a565b60405160208082528190810183818151815260200191508051906020019060200280838360005b838110156102b85780820151838201526020016102a0565b505050509050019250505060405180910390f35b610264600435602435610942565b34156102e557600080fd5b61033960048035600160a060020a03169060446024803590810190830135806020601f82018190048102016040519081016040528181529291906020840183838082843750949650610bcd95505050505050565b604051901515815260200160405180910390f35b341561035857600080fd5b610360610c4c565b60405190815260200160405180910390f35b341561037d57600080fd5b610360600435602435610c52565b341561039657600080fd5b610360600435610d40565b34156103ac57600080fd5b610264610d52565b34156103bf57600080fd5b610360610dcc565b34156103d257600080fd5b610264600435610dd2565b34156103e857600080fd5b6103f0610dff565b604051600160a060020a03909116815260200160405180910390f35b341561041757600080fd5b610264610e0e565b341561042a57600080fd5b610360610e94565b341561043d57600080fd5b610445610e9a565b60405160208082528190810183818151815260200191508051906020019080838360005b83811015610481578082015183820152602001610469565b50505050905090810190601f1680156104ae5780820380516001836020036101000a031916815260200191505b509250505060405180910390f35b34156104c757600080fd5b610264600160a060020a0360043516610ed1565b34156104e657600080fd5b610264600435610f28565b34156104fc57600080fd5b610264600435602435610f55565b341561051557600080fd5b610264600435610f88565b341561052b57600080fd5b610339611038565b341561053e57600080fd5b610264600435611041565b341561055457600080fd5b61036061106e565b341561056757600080fd5b610360611074565b341561057a57600080fd5b61027961107a565b341561058d57600080fd5b6102646004356110d9565b34156105a357600080fd5b610264600435611106565b34156105b957600080fd5b610264600435611133565b34156105cf57600080fd5b610264611160565b34156105e257600080fd5b61026461116c565b6102646004356024356111f3565b341561060357600080fd5b61026460048035600160a060020a03169060446024803590810190830135806020601f820181900481020160405190810160405281815292919060208401838380828437509496506117c595505050505050565b341561066257600080fd5b610264600160a060020a03600435166117f7565b341561068157600080fd5b61036061184e565b341561069457600080fd5b610264600160a060020a0360043516611854565b34156106b357600080fd5b6103606118ab565b34156106c657600080fd5b61026460048035600160a060020a03169060446024803590810190830135806020601f820181900481020160405190810160405281815292919060208401838380828437509496506118b195505050505050565b341561072557600080fd5b6103606004356118e3565b341561073b57600080fd5b610264600160a060020a0360043516611902565b341561075a57600080fd5b610264600160a060020a0360043516611959565b341561077957600080fd5b6103f06119b6565b341561078c57600080fd5b6103606119c5565b341561079f57600080fd5b6103f06119cb565b34156107b257600080fd5b6104456119da565b34156107c557600080fd5b6103f06119fc565b34156107d857600080fd5b610360611a10565b610856826000836040518082805190602001908083835b602083106108165780518252601f1990920191602091820191016107f7565b6001836020036101000a0380198251168184511680821785525050505050509050019150509081526020016040519081900390209063ffffffff611a1616565b5050565b610862611ee0565b61086a611ee0565b6000806000600c54600014156108a15760006040518059106108895750595b9080825280602002602001820160405250945061093b565b600c546040518059106108b15750595b9080825280602002602001820160405250935060009150600092505b600c548310156109375760118054849081106108e557fe5b9060005260206000209001549050436010600083815260200190815260200160002054111561092c578084838151811061091b57fe5b602090810290910101526001909101905b6001909201916108cd565b8394505b5050505090565b600154600090819060ff161561095757600080fd5b600654831161096557600080fd5b600754831061097357600080fd5b600254600160a060020a0316636352211e8560405160e060020a63ffffffff84160281526004810191909152602401602060405180830381600087803b15156109bb57600080fd5b5af115156109c857600080fd5b50505060405180519050915033600160a060020a031682600160a060020a03161415156109f457600080fd5b600e54341015610a0357600080fd5b60028054600160a060020a03169063e823fa2090869060405160e060020a63ffffffff8516028152600481019290925260ff166024820152604401600060405180830381600087803b1515610a5757600080fd5b5af11515610a6457600080fd5b505050600e5434039050600d546000141515610ab357600554600e54600160a060020a039091169080156108fc0290604051600060405180830381858888f193505050501515610ab357600080fd5b8015610aea57600160a060020a03331681156108fc0282604051600060405180830381858888f193505050501515610aea57600080fd5b6000848152600f60209081526040808320805473ffffffffffffffffffffffffffffffffffffffff1916600160a060020a038716179055601082528083204387019055601180546012909352922081905560018101610b498382611ef2565b506000918252602090912001849055600c80546001908101909155600254600160a060020a03169063950311ab90869060405160e060020a63ffffffff8516028152600481019290925260ff166024820152604401600060405180830381600087803b1515610bb757600080fd5b5af11515610bc457600080fd5b50505050505050565b6000610c45836000846040518082805190602001908083835b60208310610c055780518252601f199092019160209182019101610be6565b6001836020036101000a0380198251168184511680821785525050505050509050019150509081526020016040519081900390209063ffffffff611a2b16565b9392505050565b60065481565b6001546000908190819060ff1615610c6957600080fd5b8491505b83850182108015610c7f575060115482105b15610d38576011805483908110610c9257fe5b90600052602060002090015490504360106000838152602001908152602001600020541015610d2d57600254600160a060020a031663950311ab82600060405160e060020a63ffffffff8516028152600481019290925260ff166024820152604401600060405180830381600087803b1515610d0d57600080fd5b5af11515610d1a57600080fd5b505050610d2681611a4a565b6001909201915b600190910190610c6d565b505092915050565b60106020526000908152604090205481565b610d7a33604080519081016040526005815260d960020a6430b236b4b70260208201526107e0565b600554600160a060020a03161515610d9157600080fd5b600554600160a060020a039081169030163180156108fc0290604051600060405180830381858888f193505050501515610dca57600080fd5b565b600b5481565b610dfa33604080519081016040526005815260d960020a6430b236b4b70260208201526107e0565b600a55565b600354600160a060020a031681565b610e4b3360408051908101604052600a81527f706175736541646d696e0000000000000000000000000000000000000000000060208201526107e0565b60015460ff161515610e5c57600080fd5b6001805460ff191690557f7805862f689e2f13df9f062ff482ad3ad112aca9e0847911ed832e158c525b3360405160405180910390a1565b60075481565b60408051908101604052600a81527f706175736541646d696e00000000000000000000000000000000000000000000602082015281565b610ef933604080519081016040526005815260d960020a6430b236b4b70260208201526107e0565b6002805473ffffffffffffffffffffffffffffffffffffffff1916600160a060020a0392909216919091179055565b610f5033604080519081016040526005815260d960020a6430b236b4b70260208201526107e0565b600855565b610f7d33604080519081016040526005815260d960020a6430b236b4b70260208201526107e0565b600d91909155600e55565b6000818152600f602052604090205433600160a060020a0390811691161480610fbf57506000818152601060205260409020544390105b1515610fca57600080fd5b600254600160a060020a031663950311ab82600060405160e060020a63ffffffff8516028152600481019290925260ff166024820152604401600060405180830381600087803b151561101c57600080fd5b5af1151561102957600080fd5b50505061103581611a4a565b50565b60015460ff1681565b61106933604080519081016040526005815260d960020a6430b236b4b70260208201526107e0565b600b55565b600c5481565b600a5481565b611082611ee0565b60118054806020026020016040519081016040528092919081815260200182805480156110ce57602002820191906000526020600020905b8154815260200190600101908083116110ba575b505050505090505b90565b61110133604080519081016040526005815260d960020a6430b236b4b70260208201526107e0565b600955565b61112e33604080519081016040526005815260d960020a6430b236b4b70260208201526107e0565b600755565b61115b33604080519081016040526005815260d960020a6430b236b4b70260208201526107e0565b600655565b33600160a060020a0316ff5b6111a93360408051908101604052600a81527f706175736541646d696e0000000000000000000000000000000000000000000060208201526107e0565b60015460ff16156111b957600080fd5b6001805460ff1916811790557f6985a02210a168e66602d3235cb6db0e70f92b3ba4d376a33c0f3d9434bff62560405160405180910390a1565b60015460009060ff161561120657600080fd5b60008281526010602052604090205443111561122157600080fd5b600d5434101561123057600080fd5b600254600160a060020a033381169116636352211e8560405160e060020a63ffffffff84160281526004810191909152602401602060405180830381600087803b151561127c57600080fd5b5af1151561128957600080fd5b50505060405180519050600160a060020a03161415156112a857600080fd5b60028054600160a060020a03169063e823fa2090859060405160e060020a63ffffffff8516028152600481019290925260ff166024820152604401600060405180830381600087803b15156112fc57600080fd5b5af1151561130957600080fd5b5050600d5434819003925015905061135457600554600d54600160a060020a039091169080156108fc0290604051600060405180830381858888f19350505050151561135457600080fd5b801561138b57600160a060020a03331681156108fc0282604051600060405180830381858888f19350505050151561138b57600080fd5b6003548390600160a060020a03166339ff487b828560405160e060020a63ffffffff851602815260048101929092526024820152604401602060405180830381600087803b15156113db57600080fd5b5af115156113e857600080fd5b505050604051805190501415611512576001809054906101000a9004600160a060020a0316600160a060020a03166340c10f193360085460405160e060020a63ffffffff8516028152600160a060020a0390921660048301526024820152604401602060405180830381600087803b151561146257600080fd5b5af1151561146f57600080fd5b505050604051805150506001546000838152600f60205260409081902054600954600160a060020a036101009094048416936340c10f19939216915160e060020a63ffffffff8516028152600160a060020a0390921660048301526024820152604401602060405180830381600087803b15156114eb57600080fd5b5af115156114f857600080fd5b505050604051805190505061150d8383611b06565b611628565b6001546000838152600f60205260409081902054600854600160a060020a036101009094048416936340c10f19939216915160e060020a63ffffffff8516028152600160a060020a0390921660048301526024820152604401602060405180830381600087803b151561158457600080fd5b5af1151561159157600080fd5b50505060405180519050506001809054906101000a9004600160a060020a0316600160a060020a03166340c10f193360095460405160e060020a63ffffffff8516028152600160a060020a0390921660048301526024820152604401602060405180830381600087803b151561160657600080fd5b5af1151561161357600080fd5b50505060405180519050506116288284611b06565b600254600160a060020a031663950311ab84600060405160e060020a63ffffffff8516028152600481019290925260ff166024820152604401600060405180830381600087803b151561167a57600080fd5b5af1151561168757600080fd5b5050600254600160a060020a0316905063950311ab83600060405160e060020a63ffffffff8516028152600481019290925260ff166024820152604401600060405180830381600087803b15156116dd57600080fd5b5af115156116ea57600080fd5b5050600254600b54600160a060020a03909116915063633de6aa90859060405160e060020a63ffffffff851602815260048101929092526024820152604401600060405180830381600087803b151561174257600080fd5b5af1151561174f57600080fd5b5050600254600b54600160a060020a03909116915063633de6aa90849060405160e060020a63ffffffff851602815260048101929092526024820152604401600060405180830381600087803b15156117a757600080fd5b5af115156117b457600080fd5b5050506117c082611a4a565b505050565b6117ed33604080519081016040526005815260d960020a6430b236b4b70260208201526107e0565b6108568282611c93565b61181f33604080519081016040526005815260d960020a6430b236b4b70260208201526107e0565b6004805473ffffffffffffffffffffffffffffffffffffffff1916600160a060020a0392909216919091179055565b60085481565b61187c33604080519081016040526005815260d960020a6430b236b4b70260208201526107e0565b6005805473ffffffffffffffffffffffffffffffffffffffff1916600160a060020a0392909216919091179055565b600d5481565b6118d933604080519081016040526005815260d960020a6430b236b4b70260208201526107e0565b6108568282611db6565b60118054829081106118f157fe5b600091825260209091200154905081565b61192a33604080519081016040526005815260d960020a6430b236b4b70260208201526107e0565b6003805473ffffffffffffffffffffffffffffffffffffffff1916600160a060020a0392909216919091179055565b61198133604080519081016040526005815260d960020a6430b236b4b70260208201526107e0565b60018054600160a060020a039092166101000274ffffffffffffffffffffffffffffffffffffffff0019909216919091179055565b600454600160a060020a031681565b600e5481565b600254600160a060020a031681565b604080519081016040526005815260d960020a6430b236b4b702602082015281565b6001546101009004600160a060020a031681565b60095481565b611a208282611a2b565b151561085657600080fd5b600160a060020a03166000908152602091909152604090205460ff1690565b6000818152600f60209081526040808320805473ffffffffffffffffffffffffffffffffffffffff191690556010909152812055600c546001901115611ad757601180546000198101908110611a9c57fe5b90600052602060002090015460116012600084815260200190815260200160002054815481101515611aca57fe5b6000918252602090912001555b6011805490611aea906000198301611ef2565b50600090815260126020526040812055600c8054600019019055565b600454600160a060020a0316632454d1f08360405160e060020a63ffffffff84160281526004810191909152602401600060405180830381600087803b1515611b4e57600080fd5b5af11515611b5b57600080fd5b5050600454600160a060020a03169050635aeee9f98260405160e060020a63ffffffff84160281526004810191909152602401600060405180830381600087803b1515611ba757600080fd5b5af11515611bb457600080fd5b5050600454600160a060020a0316905063af24cba28383600d60405160e060020a63ffffffff86160281526004810193909352602483019190915260ff166044820152606401600060405180830381600087803b1515611c1357600080fd5b5af11515611c2057600080fd5b5050600454600160a060020a0316905063af24cba28284600e60405160e060020a63ffffffff86160281526004810193909352602483019190915260ff166044820152606401600060405180830381600087803b1515611c7f57600080fd5b5af11515611c8c57600080fd5b5050505050565b611d09826000836040518082805190602001908083835b60208310611cc95780518252601f199092019160209182019101611caa565b6001836020036101000a0380198251168184511680821785525050505050509050019150509081526020016040519081900390209063ffffffff611e9916565b7fd211483f91fc6eff862467f8de606587a30c8fc9981056f051b897a418df803a8282604051600160a060020a038316815260406020820181815290820183818151815260200191508051906020019080838360005b83811015611d77578082015183820152602001611d5f565b50505050905090810190601f168015611da45780820380516001836020036101000a031916815260200191505b50935050505060405180910390a15050565b611e2c826000836040518082805190602001908083835b60208310611dec5780518252601f199092019160209182019101611dcd565b6001836020036101000a0380198251168184511680821785525050505050509050019150509081526020016040519081900390209063ffffffff611ebb16565b7fbfec83d64eaa953f2708271a023ab9ee82057f8f3578d548c1a4ba0b5b7004898282604051600160a060020a0383168152604060208201818152908201838181518152602001915080519060200190808383600083811015611d77578082015183820152602001611d5f565b600160a060020a0316600090815260209190915260409020805460ff19169055565b600160a060020a0316600090815260209190915260409020805460ff19166001179055565b60206040519081016040526000815290565b8154818355818115116117c0576000838152602090206117c09181019083016110d691905b80821115611f2b5760008155600101611f17565b50905600a165627a7a723058209dafffe069a78e923ab5ff95cd79be92f5de9c7e8cdeef341dfffc72d9f739500029",
  "source": "pragma solidity ^0.4.21;\n\nimport \"./DragonFightGC.sol\";\n\ncontract DragonsFightPlace is DragonFightGC {\n    \n    uint256 public totalDragonsToFight;\n    uint256 public priceToFight = 0.001 ether; // price for test\n    uint256 public priceToAdd = 0;  // price for test\n    mapping(uint256 => address) dragonsOwner;\n    mapping(uint256 => uint256) public dragonsEndBlock;\n    uint256[] public dragonsList; \n    mapping(uint256 => uint256) dragonsListIndex;\n\n\n    function DragonsFightPlace(address _wallet) public {\n        wallet = _wallet;\n    }\n\n    function _delItem(uint256 _dragonID) private {\n        delete(dragonsOwner[_dragonID]);\n        delete(dragonsEndBlock[_dragonID]);\n        if (totalDragonsToFight > 1) {\n            dragonsList[dragonsListIndex[_dragonID]] = dragonsList[dragonsList.length - 1];\n        }\n        dragonsList.length--;\n        delete(dragonsListIndex[_dragonID]);\n        totalDragonsToFight--;\n    }\n    function _setFightResult(uint256 _dragonWin, uint256 _dragonLose) private {\n        dragonStatsContract.incFightWin(_dragonWin);\n        dragonStatsContract.incFightLose(_dragonLose);\n        dragonStatsContract.setLastAction(_dragonWin, _dragonLose, 13);\n        dragonStatsContract.setLastAction(_dragonLose, _dragonWin, 14);\n            \n    }\n    \n    function addToFightPlace(uint256 _dragonID, uint256 _endBlockNumber) external payable whenNotPaused {\n        require(_endBlockNumber  > minFightWaitBloc);\n        require(_endBlockNumber < maxFightWaitBloc); //??????\n        address dragonOwner = mainContract.ownerOf(_dragonID);\n        require(dragonOwner == msg.sender);\n        require(msg.value >= priceToAdd);\n        mainContract.checkDragonStatus(_dragonID, 2);\n        uint256 valueToReturn = msg.value - priceToAdd;\n        if (priceToFight != 0) {\n        wallet.transfer(priceToAdd);\n        }\n        \n        if (valueToReturn != 0) {\n            msg.sender.transfer(valueToReturn);\n        }\n        dragonsOwner[_dragonID] = dragonOwner;\n        dragonsEndBlock[_dragonID] = block.number + _endBlockNumber;\n        dragonsListIndex[_dragonID] = dragonsList.length;\n        dragonsList.push(_dragonID);\n        totalDragonsToFight++;\n        mainContract.setCurrentAction(_dragonID, 1);\n        \n    }\n    \n    function delFromFightPlace(uint256 _dragonID) external {\n        require(msg.sender == dragonsOwner[_dragonID] || dragonsEndBlock[_dragonID] < block.number);\n         mainContract.setCurrentAction(_dragonID, 0);\n        _delItem(_dragonID);\n    }\n\n    function fightWithDragon(uint256 _yourDragonID,uint256 _thisDragonID) external payable whenNotPaused {\n        require(block.number <= dragonsEndBlock[_thisDragonID]);\n        require(msg.value >= priceToFight);\n        require(mainContract.ownerOf(_yourDragonID) == msg.sender);\n        mainContract.checkDragonStatus(_yourDragonID, 2);\n        uint256 valueToReturn = msg.value - priceToFight;\n        if (priceToFight != 0) {\n        wallet.transfer(priceToFight);\n        }\n        \n        if (valueToReturn != 0) {\n            msg.sender.transfer(valueToReturn);\n        }\n\n        if (dragonFightContract.getWinner(_yourDragonID, _thisDragonID) == _yourDragonID ) {\n            \n            mutagenContract.mint(msg.sender,mutagenToWin);\n            mutagenContract.mint(dragonsOwner[_thisDragonID],mutagenToLose);\n            _setFightResult(_yourDragonID, _thisDragonID);\n            \n        } else {\n            \n            mutagenContract.mint(dragonsOwner[_thisDragonID],mutagenToWin);\n            mutagenContract.mint(msg.sender,mutagenToLose);\n            _setFightResult(_thisDragonID, _yourDragonID);\n        }\n        mainContract.setCurrentAction(_yourDragonID, 0);\n        mainContract.setCurrentAction(_thisDragonID, 0);\n        // TODO add rest time\n        mainContract.setTime2Rest(_yourDragonID, addTime2Rest);\n        mainContract.setTime2Rest(_thisDragonID, addTime2Rest);\n        _delItem(_thisDragonID);        \n    }\n    function getAllDragonsFight() external view returns(uint256[]) {\n        return dragonsList;\n    }\n    function getDragonsTofight() external view returns(uint256[]) {\n        \n\n        if (totalDragonsToFight == 0) {\n            // Return an empty array\n            return new uint256[](0);\n        } else {\n            // !!!!!! need to test on time go to future\n            uint256[] memory result = new uint256[](totalDragonsToFight);\n            uint256 _dragonIndex;\n            uint256 _resultIndex = 0;\n\n            for (_dragonIndex = 0; _dragonIndex < totalDragonsToFight; _dragonIndex++) {\n                uint256 _dragonID = dragonsList[_dragonIndex];\n                if (dragonsEndBlock[_dragonID] > block.number) {\n                    result[_resultIndex] = _dragonID;\n                    _resultIndex++;\n                }\n            }\n\n            return result;\n        }\n    }\n    function clearStuxDragon(uint256 _start, uint256 _count) external whenNotPaused returns (uint256 _deleted) {\n        uint256 _dragonIndex;\n        \n        for(_dragonIndex=_start; _dragonIndex < _start + _count && _dragonIndex < dragonsList.length; _dragonIndex++) {\n            uint256 _dragonID = dragonsList[_dragonIndex];\n            if (dragonsEndBlock[_dragonID] < block.number) {\n                mainContract.setCurrentAction(_dragonID, 0);\n                _delItem(_dragonID);\n                _deleted++;\n            }\n        }\n    }\n   \n    \n\n\n    function changePrices(uint256 _priceToFight,uint256 _priceToAdd) external onlyAdmin {\n        priceToFight = _priceToFight;\n        priceToAdd = _priceToAdd;\n    }\n\n   \n}\n\n",
  "sourcePath": "/home/k/work/eth/CD/DragonETH/contracts/contracts/fight/DragonFightPlace.sol",
  "compiler": {
    "name": "solc",
    "version": "0.4.21+commit.dfe3193c.Emscripten.clang"
  },
  "schemaVersion": "2.0.0",
  "updatedAt": "2018-04-17T04:04:35.497Z"
}