{
  "contractName": "DragonETH_GC",
  "abi": [
    {
      "constant": true,
      "inputs": [
        {
          "name": "addr",
          "type": "address"
        },
        {
          "name": "roleName",
          "type": "string"
        }
      ],
      "name": "checkRole",
      "outputs": [],
      "payable": false,
      "stateMutability": "view",
      "type": "function"
    },
    {
      "constant": true,
      "inputs": [],
      "name": "auctionContract",
      "outputs": [
        {
          "name": "",
          "type": "address"
        }
      ],
      "payable": false,
      "stateMutability": "view",
      "type": "function"
    },
    {
      "constant": true,
      "inputs": [],
      "name": "priceDecraseTime2Action",
      "outputs": [
        {
          "name": "",
          "type": "uint256"
        }
      ],
      "payable": false,
      "stateMutability": "view",
      "type": "function"
    },
    {
      "constant": true,
      "inputs": [
        {
          "name": "addr",
          "type": "address"
        },
        {
          "name": "roleName",
          "type": "string"
        }
      ],
      "name": "hasRole",
      "outputs": [
        {
          "name": "",
          "type": "bool"
        }
      ],
      "payable": false,
      "stateMutability": "view",
      "type": "function"
    },
    {
      "constant": true,
      "inputs": [],
      "name": "secondsInBlock",
      "outputs": [
        {
          "name": "",
          "type": "uint256"
        }
      ],
      "payable": false,
      "stateMutability": "view",
      "type": "function"
    },
    {
      "constant": true,
      "inputs": [],
      "name": "ROLE_PAUSE_ADMIN",
      "outputs": [
        {
          "name": "",
          "type": "string"
        }
      ],
      "payable": false,
      "stateMutability": "view",
      "type": "function"
    },
    {
      "constant": true,
      "inputs": [],
      "name": "priceChangeName",
      "outputs": [
        {
          "name": "",
          "type": "uint256"
        }
      ],
      "payable": false,
      "stateMutability": "view",
      "type": "function"
    },
    {
      "constant": true,
      "inputs": [],
      "name": "fmpContractAddress",
      "outputs": [
        {
          "name": "",
          "type": "address"
        }
      ],
      "payable": false,
      "stateMutability": "view",
      "type": "function"
    },
    {
      "constant": true,
      "inputs": [],
      "name": "priceSelectFight2Death",
      "outputs": [
        {
          "name": "",
          "type": "uint256"
        }
      ],
      "payable": false,
      "stateMutability": "view",
      "type": "function"
    },
    {
      "constant": false,
      "inputs": [],
      "name": "destroy",
      "outputs": [],
      "payable": false,
      "stateMutability": "nonpayable",
      "type": "function"
    },
    {
      "constant": false,
      "inputs": [
        {
          "name": "addr",
          "type": "address"
        },
        {
          "name": "roleName",
          "type": "string"
        }
      ],
      "name": "adminRemoveRole",
      "outputs": [],
      "payable": false,
      "stateMutability": "nonpayable",
      "type": "function"
    },
    {
      "constant": true,
      "inputs": [],
      "name": "randomFight2DeathContract",
      "outputs": [
        {
          "name": "",
          "type": "address"
        }
      ],
      "payable": false,
      "stateMutability": "view",
      "type": "function"
    },
    {
      "constant": true,
      "inputs": [],
      "name": "superContract",
      "outputs": [
        {
          "name": "",
          "type": "address"
        }
      ],
      "payable": false,
      "stateMutability": "view",
      "type": "function"
    },
    {
      "constant": false,
      "inputs": [
        {
          "name": "addr",
          "type": "address"
        },
        {
          "name": "roleName",
          "type": "string"
        }
      ],
      "name": "adminAddRole",
      "outputs": [],
      "payable": false,
      "stateMutability": "nonpayable",
      "type": "function"
    },
    {
      "constant": true,
      "inputs": [],
      "name": "priceRandomFight2Death",
      "outputs": [
        {
          "name": "",
          "type": "uint256"
        }
      ],
      "payable": false,
      "stateMutability": "view",
      "type": "function"
    },
    {
      "constant": true,
      "inputs": [],
      "name": "mutagen2FaceContract",
      "outputs": [
        {
          "name": "",
          "type": "address"
        }
      ],
      "payable": false,
      "stateMutability": "view",
      "type": "function"
    },
    {
      "constant": true,
      "inputs": [],
      "name": "necropolisContract",
      "outputs": [
        {
          "name": "",
          "type": "address"
        }
      ],
      "payable": false,
      "stateMutability": "view",
      "type": "function"
    },
    {
      "constant": true,
      "inputs": [],
      "name": "dragonStatsContract",
      "outputs": [
        {
          "name": "",
          "type": "address"
        }
      ],
      "payable": false,
      "stateMutability": "view",
      "type": "function"
    },
    {
      "constant": true,
      "inputs": [],
      "name": "genRNGContractAddress",
      "outputs": [
        {
          "name": "",
          "type": "address"
        }
      ],
      "payable": false,
      "stateMutability": "view",
      "type": "function"
    },
    {
      "constant": true,
      "inputs": [],
      "name": "ROLE_ADMIN",
      "outputs": [
        {
          "name": "",
          "type": "string"
        }
      ],
      "payable": false,
      "stateMutability": "view",
      "type": "function"
    },
    {
      "constant": true,
      "inputs": [],
      "name": "selectFight2DeathContract",
      "outputs": [
        {
          "name": "",
          "type": "address"
        }
      ],
      "payable": false,
      "stateMutability": "view",
      "type": "function"
    },
    {
      "anonymous": false,
      "inputs": [
        {
          "indexed": false,
          "name": "addr",
          "type": "address"
        },
        {
          "indexed": false,
          "name": "roleName",
          "type": "string"
        }
      ],
      "name": "RoleAdded",
      "type": "event"
    },
    {
      "anonymous": false,
      "inputs": [
        {
          "indexed": false,
          "name": "addr",
          "type": "address"
        },
        {
          "indexed": false,
          "name": "roleName",
          "type": "string"
        }
      ],
      "name": "RoleRemoved",
      "type": "event"
    },
    {
      "constant": false,
      "inputs": [
        {
          "name": "_genRNGContractAddress",
          "type": "address"
        }
      ],
      "name": "changeGenRNGcontractAddress",
      "outputs": [],
      "payable": false,
      "stateMutability": "nonpayable",
      "type": "function"
    },
    {
      "constant": false,
      "inputs": [
        {
          "name": "_fmpContractAddress",
          "type": "address"
        }
      ],
      "name": "changeFMPcontractAddress",
      "outputs": [],
      "payable": false,
      "stateMutability": "nonpayable",
      "type": "function"
    },
    {
      "constant": false,
      "inputs": [
        {
          "name": "_auctionContract",
          "type": "address"
        }
      ],
      "name": "changeAuctionContract",
      "outputs": [],
      "payable": false,
      "stateMutability": "nonpayable",
      "type": "function"
    },
    {
      "constant": false,
      "inputs": [
        {
          "name": "_selectFight2DeathContract",
          "type": "address"
        }
      ],
      "name": "changeSelectFight2DeathContract",
      "outputs": [],
      "payable": false,
      "stateMutability": "nonpayable",
      "type": "function"
    },
    {
      "constant": false,
      "inputs": [
        {
          "name": "_randomFight2DeathContract",
          "type": "address"
        }
      ],
      "name": "changeRandomFight2DeathContract",
      "outputs": [],
      "payable": false,
      "stateMutability": "nonpayable",
      "type": "function"
    },
    {
      "constant": false,
      "inputs": [
        {
          "name": "_mutagen2FaceContract",
          "type": "address"
        }
      ],
      "name": "changeMutagen2FaceContract",
      "outputs": [],
      "payable": false,
      "stateMutability": "nonpayable",
      "type": "function"
    },
    {
      "constant": false,
      "inputs": [
        {
          "name": "_superContract",
          "type": "address"
        }
      ],
      "name": "changeSuperContract",
      "outputs": [],
      "payable": false,
      "stateMutability": "nonpayable",
      "type": "function"
    },
    {
      "constant": false,
      "inputs": [
        {
          "name": "_wallet",
          "type": "address"
        }
      ],
      "name": "changeWallet",
      "outputs": [],
      "payable": false,
      "stateMutability": "nonpayable",
      "type": "function"
    },
    {
      "constant": false,
      "inputs": [
        {
          "name": "_priceDecraseTime2Action",
          "type": "uint256"
        }
      ],
      "name": "changePriceDecraseTime2Action",
      "outputs": [],
      "payable": false,
      "stateMutability": "nonpayable",
      "type": "function"
    },
    {
      "constant": false,
      "inputs": [
        {
          "name": "_priceRandomFight2Death",
          "type": "uint256"
        }
      ],
      "name": "changePriceRandomFight2Death",
      "outputs": [],
      "payable": false,
      "stateMutability": "nonpayable",
      "type": "function"
    },
    {
      "constant": false,
      "inputs": [
        {
          "name": "_priceSelectFight2Death",
          "type": "uint256"
        }
      ],
      "name": "changePriceSelectFight2Death",
      "outputs": [],
      "payable": false,
      "stateMutability": "nonpayable",
      "type": "function"
    },
    {
      "constant": false,
      "inputs": [
        {
          "name": "_priceChangeName",
          "type": "uint256"
        }
      ],
      "name": "changePriceChangeName",
      "outputs": [],
      "payable": false,
      "stateMutability": "nonpayable",
      "type": "function"
    },
    {
      "constant": false,
      "inputs": [
        {
          "name": "_secondsInBlock",
          "type": "uint256"
        }
      ],
      "name": "changeSecondsInBlock",
      "outputs": [],
      "payable": false,
      "stateMutability": "nonpayable",
      "type": "function"
    },
    {
      "constant": false,
      "inputs": [
        {
          "name": "_adultDragonStage",
          "type": "uint8"
        }
      ],
      "name": "changeAdultDragonStage",
      "outputs": [],
      "payable": false,
      "stateMutability": "nonpayable",
      "type": "function"
    },
    {
      "constant": false,
      "inputs": [],
      "name": "withdrawAllEther",
      "outputs": [],
      "payable": false,
      "stateMutability": "nonpayable",
      "type": "function"
    },
    {
      "constant": true,
      "inputs": [
        {
          "name": "_interfaceID",
          "type": "bytes4"
        }
      ],
      "name": "supportsInterface",
      "outputs": [
        {
          "name": "",
          "type": "bool"
        }
      ],
      "payable": false,
      "stateMutability": "pure",
      "type": "function"
    }
  ],
  "bytecode": "0x60606040908152600a805460a060020a60ff02191674030000000000000000000000000000000000000000179055600f600b819055652d79883d2000600c556702c68af0bb140000600d55670429d069189e0000600e55662386f26fc100009055620000ad9033908051908101604052600581527f61646d696e000000000000000000000000000000000000000000000000000000602082015264010000000062000fa16200010082021704565b620000fa3360408051908101604052600a81527f706175736541646d696e00000000000000000000000000000000000000000000602082015264010000000062000fa16200010082021704565b62000257565b62000182826000836040518082805190602001908083835b60208310620001395780518252601f19909201916020918201910162000118565b6001836020036101000a03801982511681845116808217855250505050505090500191505090815260200160405190819003902090640100000000620010a66200023282021704565b7fbfec83d64eaa953f2708271a023ab9ee82057f8f3578d548c1a4ba0b5b7004898282604051600160a060020a038316815260406020820181815290820183818151815260200191508051906020019080838360005b83811015620001f2578082015183820152602001620001d8565b50505050905090810190601f168015620002205780820380516001836020036101000a031916815260200191505b50935050505060405180910390a15050565b600160a060020a0316600090815260209190915260409020805460ff19166001179055565b6110f780620002676000396000f3006060604052600436106101cc5763ffffffff7c010000000000000000000000000000000000000000000000000000000060003504166301ffc9a781146101d15780630988ca8c146102055780630ab8afac146102665780630dfb0297146102955780630fda890e146102ab5780631023d597146102ca5780631180f83b146102ef578063217fe6c61461030e57806331c911171461036d578063398f0970146103805780634014c1c71461039357806347492352146103b25780634aeda70d1461043c578063505a202b1461045b57806354b498591461046e57806356c11ba31461048157806357f32591146104945780635d088fc6146104aa57806383197ef0146104c95780638527c3b0146104dc57806388cee87e146104f25780638e416b9b1461055157806397df8a501461056457806398b9a2dc14610583578063b04fc4e1146105a2578063b25fa92c146105b5578063b373a61c14610614578063b40e415e14610627578063b6a794091461063a578063ba35c0be1461064d578063bda775311461066c578063ce3b047514610685578063ceacd73e1461069b578063d33e1a48146106ae578063d391014b146106c1578063d5f17df2146106d4578063d80d9c55146106e7575b600080fd5b34156101dc57600080fd5b6101f1600160e060020a0319600435166106fd565b604051901515815260200160405180910390f35b341561021057600080fd5b61026460048035600160a060020a03169060446024803590810190830135806020601f820181900481020160405190810160405281815292919060208401838380828437509496506107ce95505050505050565b005b341561027157600080fd5b610279610848565b604051600160a060020a03909116815260200160405180910390f35b34156102a057600080fd5b610264600435610857565b34156102b657600080fd5b610264600160a060020a0360043516610884565b34156102d557600080fd5b6102dd6108ce565b60405190815260200160405180910390f35b34156102fa57600080fd5b610264600160a060020a03600435166108d4565b341561031957600080fd5b6101f160048035600160a060020a03169060446024803590810190830135806020601f8201819004810201604051908101604052818152929190602084018383808284375094965061091e95505050505050565b341561037857600080fd5b61026461099d565b341561038b57600080fd5b6102dd610a17565b341561039e57600080fd5b610264600160a060020a0360043516610a1d565b34156103bd57600080fd5b6103c5610a67565b60405160208082528190810183818151815260200191508051906020019080838360005b838110156104015780820151838201526020016103e9565b50505050905090810190601f16801561042e5780820380516001836020036101000a031916815260200191505b509250505060405180910390f35b341561044757600080fd5b610264600160a060020a0360043516610a9e565b341561046657600080fd5b6102dd610ae8565b341561047957600080fd5b610279610aee565b341561048c57600080fd5b6102dd610afd565b341561049f57600080fd5b610264600435610b03565b34156104b557600080fd5b610264600160a060020a0360043516610b30565b34156104d457600080fd5b610264610b7a565b34156104e757600080fd5b610264600435610b86565b34156104fd57600080fd5b61026460048035600160a060020a03169060446024803590810190830135806020601f82018190048102016040519081016040528181529291906020840183838082843750949650610bb395505050505050565b341561055c57600080fd5b610279610be5565b341561056f57600080fd5b610264600160a060020a0360043516610bf4565b341561058e57600080fd5b610264600160a060020a0360043516610c3e565b34156105ad57600080fd5b610279610c88565b34156105c057600080fd5b61026460048035600160a060020a03169060446024803590810190830135806020601f82018190048102016040519081016040528181529291906020840183838082843750949650610c9795505050505050565b341561061f57600080fd5b6102dd610cc9565b341561063257600080fd5b610279610ccf565b341561064557600080fd5b610279610cde565b341561065857600080fd5b610264600160a060020a0360043516610ced565b341561067757600080fd5b61026460ff60043516610d37565b341561069057600080fd5b610264600435610da1565b34156106a657600080fd5b610279610dce565b34156106b957600080fd5b610279610ddd565b34156106cc57600080fd5b6103c5610dec565b34156106df57600080fd5b610279610e0e565b34156106f257600080fd5b610264600435610e1d565b6000600160e060020a031982167f01ffc9a70000000000000000000000000000000000000000000000000000000014806107605750600160e060020a031982167f80ac58cd00000000000000000000000000000000000000000000000000000000145b806107945750600160e060020a031982167f5b5e139f00000000000000000000000000000000000000000000000000000000145b806107c85750600160e060020a031982167f780e9d6300000000000000000000000000000000000000000000000000000000145b92915050565b610844826000836040518082805190602001908083835b602083106108045780518252601f1990920191602091820191016107e5565b6001836020036101000a0380198251168184511680821785525050505050509050019150509081526020016040519081900390209063ffffffff610e4a16565b5050565b600554600160a060020a031681565b61087f33604080519081016040526005815260d960020a6430b236b4b70260208201526107ce565b600e55565b6108ac33604080519081016040526005815260d960020a6430b236b4b70260208201526107ce565b60018054600160a060020a031916600160a060020a0392909216919091179055565b600c5481565b6108fc33604080519081016040526005815260d960020a6430b236b4b70260208201526107ce565b60028054600160a060020a031916600160a060020a0392909216919091179055565b6000610996836000846040518082805190602001908083835b602083106109565780518252601f199092019160209182019101610937565b6001836020036101000a0380198251168184511680821785525050505050509050019150509081526020016040519081900390209063ffffffff610e5f16565b9392505050565b6109c533604080519081016040526005815260d960020a6430b236b4b70260208201526107ce565b600a54600160a060020a031615156109dc57600080fd5b600a54600160a060020a039081169030163180156108fc0290604051600060405180830381858888f193505050501515610a1557600080fd5b565b600b5481565b610a4533604080519081016040526005815260d960020a6430b236b4b70260208201526107ce565b60098054600160a060020a031916600160a060020a0392909216919091179055565b60408051908101604052600a81527f706175736541646d696e00000000000000000000000000000000000000000000602082015281565b610ac633604080519081016040526005815260d960020a6430b236b4b70260208201526107ce565b60058054600160a060020a031916600160a060020a0392909216919091179055565b600f5481565b600254600160a060020a031681565b600e5481565b610b2b33604080519081016040526005815260d960020a6430b236b4b70260208201526107ce565b600f55565b610b5833604080519081016040526005815260d960020a6430b236b4b70260208201526107ce565b60088054600160a060020a031916600160a060020a0392909216919091179055565b33600160a060020a0316ff5b610bae33604080519081016040526005815260d960020a6430b236b4b70260208201526107ce565b600d55565b610bdb33604080519081016040526005815260d960020a6430b236b4b70260208201526107ce565b6108448282610e7e565b600854600160a060020a031681565b610c1c33604080519081016040526005815260d960020a6430b236b4b70260208201526107ce565b60068054600160a060020a031916600160a060020a0392909216919091179055565b610c6633604080519081016040526005815260d960020a6430b236b4b70260208201526107ce565b600a8054600160a060020a031916600160a060020a0392909216919091179055565b600654600160a060020a031681565b610cbf33604080519081016040526005815260d960020a6430b236b4b70260208201526107ce565b6108448282610fa1565b600d5481565b600954600160a060020a031681565b600454600160a060020a031681565b610d1533604080519081016040526005815260d960020a6430b236b4b70260208201526107ce565b60078054600160a060020a031916600160a060020a0392909216919091179055565b610d5f33604080519081016040526005815260d960020a6430b236b4b70260208201526107ce565b600a805460ff909216740100000000000000000000000000000000000000000274ff000000000000000000000000000000000000000019909216919091179055565b610dc933604080519081016040526005815260d960020a6430b236b4b70260208201526107ce565b600c55565b600354600160a060020a031681565b600154600160a060020a031681565b604080519081016040526005815260d960020a6430b236b4b702602082015281565b600754600160a060020a031681565b610e4533604080519081016040526005815260d960020a6430b236b4b70260208201526107ce565b600b55565b610e548282610e5f565b151561084457600080fd5b600160a060020a03166000908152602091909152604090205460ff1690565b610ef4826000836040518082805190602001908083835b60208310610eb45780518252601f199092019160209182019101610e95565b6001836020036101000a0380198251168184511680821785525050505050509050019150509081526020016040519081900390209063ffffffff61108416565b7fd211483f91fc6eff862467f8de606587a30c8fc9981056f051b897a418df803a8282604051600160a060020a038316815260406020820181815290820183818151815260200191508051906020019080838360005b83811015610f62578082015183820152602001610f4a565b50505050905090810190601f168015610f8f5780820380516001836020036101000a031916815260200191505b50935050505060405180910390a15050565b611017826000836040518082805190602001908083835b60208310610fd75780518252601f199092019160209182019101610fb8565b6001836020036101000a0380198251168184511680821785525050505050509050019150509081526020016040519081900390209063ffffffff6110a616565b7fbfec83d64eaa953f2708271a023ab9ee82057f8f3578d548c1a4ba0b5b7004898282604051600160a060020a0383168152604060208201818152908201838181518152602001915080519060200190808383600083811015610f62578082015183820152602001610f4a565b600160a060020a0316600090815260209190915260409020805460ff19169055565b600160a060020a0316600090815260209190915260409020805460ff191660011790555600a165627a7a72305820a00a335289d48bdbc10efe24e4d714fc052cef78a93d3949a9f818d61fc130940029",
  "source": "pragma solidity ^0.4.21;\n\nimport \"./security/rbac/RBACWithAdmin.sol\";\n\ncontract GenRNG {\n\n    function getNewGens(address _from, uint256 _dragonID) external returns (uint256[2] resultGen);\n}\n\ncontract FixMarketPlace {\n\n    function add2MarketPlace(address _dragonOwner, uint256 _dragonID, uint256 _dragonPrice, uint256 _endBlockNumber) external returns (bool);\n}\ncontract Auction {\n    function add2Auction(address _dragonOwner, uint256 _dragonID, uint256 _startPrice, uint256 _step, uint256 _endPrice, uint256 _endBlockNumber) external returns (bool);\n}\ncontract DragonSelectFight2Death {\n    function addSelctFight2Death(address _dragonOwner, uint256 _yourDragonID, uint256 _oppDragonID, uint256 _endBlockNumber, uint256 _priceSelectFight2Death) external;\n}\ncontract DragonsRandomFight2Death {\n    function addRandomFight2Death(address _dragonOwner, uint256 _DragonID) external;\n}\ncontract Mutagen2Face {\n    function addDragon(address _dragonOwner, uint256 _dragonID, uint256 mutagenCount) external;\n}\ncontract SuperContract {\n    function checkDragon(uint256 _dragonID) external returns (bool);\n}\ncontract DragonStats {\n    function setParents(uint256 _dragonID, uint256 _parentOne, uint256 _parentTwo) external;\n    function setBirthBlock(uint256 _dragonID) external;\n    function incChildren(uint256 _dragonID) external;\n    function setDeathBlock(uint256 _dragonID) external;\n    function getDragonFight(uint256 _dragonID) external view returns (uint256);\n}\ncontract Necropolis {\n     function addDragon(address _lastDragonOwner, uint256 _dragonID, uint256 _deathReason) external;\n}\n\ncontract DragonETH_GC is RBACWithAdmin {\n    GenRNG public genRNGContractAddress;\n    FixMarketPlace public fmpContractAddress;\n    DragonStats public dragonStatsContract;\n    Necropolis public necropolisContract;\n    Auction public auctionContract;\n    SuperContract public superContract;\n    DragonSelectFight2Death public selectFight2DeathContract;\n    DragonsRandomFight2Death public randomFight2DeathContract;\n    Mutagen2Face public mutagen2FaceContract;\n    \n    address wallet;\n    \n    uint8 adultDragonStage = 3;\n    uint256 constant UINT256_MAX = 115792089237316195423570985008687907853269984665640564039457584007913129639935;\n    uint256 public secondsInBlock = 15;\n    uint256 public priceDecraseTime2Action = 0.00005 ether; //  1 block\n    uint256 public priceRandomFight2Death = 0.2 ether;\n    uint256 public priceSelectFight2Death = 0.3 ether;\n    uint256 public priceChangeName = 0.01 ether;\n\n    function changeGenRNGcontractAddress(address _genRNGContractAddress) external onlyAdmin {\n        genRNGContractAddress = GenRNG(_genRNGContractAddress);\n    }\n    function changeFMPcontractAddress(address _fmpContractAddress) external onlyAdmin {\n        fmpContractAddress = FixMarketPlace(_fmpContractAddress);\n    }\n    function changeAuctionContract(address _auctionContract) external onlyAdmin {\n        auctionContract = Auction(_auctionContract);\n    }\n    function changeSelectFight2DeathContract(address _selectFight2DeathContract) external onlyAdmin {\n        selectFight2DeathContract = DragonSelectFight2Death(_selectFight2DeathContract);\n    }\n    function changeRandomFight2DeathContract(address _randomFight2DeathContract) external onlyAdmin {\n        randomFight2DeathContract = DragonsRandomFight2Death(_randomFight2DeathContract);\n    }\n    function changeMutagen2FaceContract(address _mutagen2FaceContract) external onlyAdmin {\n        mutagen2FaceContract = Mutagen2Face(_mutagen2FaceContract);\n    }\n    function changeSuperContract(address _superContract) external onlyAdmin {\n        superContract = SuperContract(_superContract);\n    }\n    function changeWallet(address _wallet) external onlyAdmin {\n        wallet = _wallet;\n    }\n    function changePriceDecraseTime2Action(uint256 _priceDecraseTime2Action) external onlyAdmin {\n        priceDecraseTime2Action = _priceDecraseTime2Action;\n    }\n    function changePriceRandomFight2Death(uint256 _priceRandomFight2Death) external onlyAdmin {\n        priceRandomFight2Death = _priceRandomFight2Death;\n    }\n    function changePriceSelectFight2Death(uint256 _priceSelectFight2Death) external onlyAdmin {\n        priceSelectFight2Death = _priceSelectFight2Death;\n    }\n    function changePriceChangeName(uint256 _priceChangeName) external onlyAdmin {\n        priceChangeName = _priceChangeName;\n    }\n     function changeSecondsInBlock(uint256 _secondsInBlock) external onlyAdmin {\n        secondsInBlock = _secondsInBlock;\n    }\n    function changeAdultDragonStage(uint8 _adultDragonStage) external onlyAdmin {\n        adultDragonStage = _adultDragonStage;\n    }\n    function withdrawAllEther() external onlyAdmin {\n        require(wallet != 0);\n        wallet.transfer(address(this).balance);\n    }\n    \n    // EIP-165 and EIP-721\n    bytes4 constant ERC165_Signature = 0x01ffc9a7;\n    bytes4 constant ERC721_Signature = 0x80ac58cd;\n    bytes4 constant ERC721Metadata_Signature = 0x5b5e139f;\n    bytes4 constant ERC721Enumerable_Signature = 0x780e9d63;\n    \n    function supportsInterface(bytes4 _interfaceID) external pure returns (bool)\n    {\n        \n\n        return ((_interfaceID == ERC165_Signature) || \n                (_interfaceID == ERC721_Signature) ||\n                (_interfaceID == ERC721Metadata_Signature) ||\n                (_interfaceID == ERC721Enumerable_Signature)\n                \n        \n        );\n    }\n}",
  "sourcePath": "/home/k/work/eth/CD/DragonETH/contracts/contracts/DragonETH_GC.sol",
  "compiler": {
    "name": "solc",
    "version": "0.4.21+commit.dfe3193c.Emscripten.clang"
  },
  "schemaVersion": "2.0.0",
  "updatedAt": "2018-04-18T06:07:54.819Z"
}