{
  "contractName": "DragonFight",
  "abi": [
    {
      "constant": true,
      "inputs": [
        {
          "name": "addr",
          "type": "address"
        },
        {
          "name": "roleName",
          "type": "string"
        }
      ],
      "name": "checkRole",
      "outputs": [],
      "payable": false,
      "stateMutability": "view",
      "type": "function"
    },
    {
      "constant": true,
      "inputs": [
        {
          "name": "addr",
          "type": "address"
        },
        {
          "name": "roleName",
          "type": "string"
        }
      ],
      "name": "hasRole",
      "outputs": [
        {
          "name": "",
          "type": "bool"
        }
      ],
      "payable": false,
      "stateMutability": "view",
      "type": "function"
    },
    {
      "constant": false,
      "inputs": [],
      "name": "destroy",
      "outputs": [],
      "payable": false,
      "stateMutability": "nonpayable",
      "type": "function"
    },
    {
      "constant": false,
      "inputs": [
        {
          "name": "addr",
          "type": "address"
        },
        {
          "name": "roleName",
          "type": "string"
        }
      ],
      "name": "adminRemoveRole",
      "outputs": [],
      "payable": false,
      "stateMutability": "nonpayable",
      "type": "function"
    },
    {
      "constant": false,
      "inputs": [
        {
          "name": "addr",
          "type": "address"
        },
        {
          "name": "roleName",
          "type": "string"
        }
      ],
      "name": "adminAddRole",
      "outputs": [],
      "payable": false,
      "stateMutability": "nonpayable",
      "type": "function"
    },
    {
      "constant": true,
      "inputs": [],
      "name": "ROLE_ADMIN",
      "outputs": [
        {
          "name": "",
          "type": "string"
        }
      ],
      "payable": false,
      "stateMutability": "view",
      "type": "function"
    },
    {
      "anonymous": false,
      "inputs": [
        {
          "indexed": false,
          "name": "addr",
          "type": "address"
        },
        {
          "indexed": false,
          "name": "roleName",
          "type": "string"
        }
      ],
      "name": "RoleAdded",
      "type": "event"
    },
    {
      "anonymous": false,
      "inputs": [
        {
          "indexed": false,
          "name": "addr",
          "type": "address"
        },
        {
          "indexed": false,
          "name": "roleName",
          "type": "string"
        }
      ],
      "name": "RoleRemoved",
      "type": "event"
    },
    {
      "constant": true,
      "inputs": [
        {
          "name": "_dragonOneID",
          "type": "uint256"
        },
        {
          "name": "_dragonTwoID",
          "type": "uint256"
        }
      ],
      "name": "getWinner",
      "outputs": [
        {
          "name": "_winerID",
          "type": "uint256"
        }
      ],
      "payable": false,
      "stateMutability": "view",
      "type": "function"
    }
  ],
  "bytecode": "0x606060405261004e3360408051908101604052600581527f61646d696e000000000000000000000000000000000000000000000000000000602082015264010000000061063261005382021704565b6101a2565b6100d0826000836040518082805190602001908083835b602083106100895780518252601f19909201916020918201910161006a565b6001836020036101000a0380198251168184511680821785525050505050509050019150509081526020016040519081900390209064010000000061073761017d82021704565b7fbfec83d64eaa953f2708271a023ab9ee82057f8f3578d548c1a4ba0b5b7004898282604051600160a060020a038316815260406020820181815290820183818151815260200191508051906020019080838360005b8381101561013e578082015183820152602001610126565b50505050905090810190601f16801561016b5780820380516001836020036101000a031916815260200191505b50935050505060405180910390a15050565b600160a060020a0316600090815260209190915260409020805460ff19166001179055565b610788806101b16000396000f3006060604052600436106100825763ffffffff7c01000000000000000000000000000000000000000000000000000000006000350416630988ca8c8114610087578063217fe6c6146100e857806339ff487b1461015b57806383197ef01461018657806388cee87e14610199578063b25fa92c146101f8578063d391014b14610257575b600080fd5b341561009257600080fd5b6100e660048035600160a060020a03169060446024803590810190830135806020601f820181900481020160405190810160405281815292919060208401838380828437509496506102e195505050505050565b005b34156100f357600080fd5b61014760048035600160a060020a03169060446024803590810190830135806020601f8201819004810201604051908101604052818152929190602084018383808284375094965061035b95505050505050565b604051901515815260200160405180910390f35b341561016657600080fd5b6101746004356024356103dc565b60405190815260200160405180910390f35b341561019157600080fd5b6100e661040a565b34156101a457600080fd5b6100e660048035600160a060020a03169060446024803590810190830135806020601f8201819004810201604051908101604052818152929190602084018383808284375094965061041695505050505050565b341561020357600080fd5b6100e660048035600160a060020a03169060446024803590810190830135806020601f8201819004810201604051908101604052818152929190602084018383808284375094965061045d95505050505050565b341561026257600080fd5b61026a6104a4565b60405160208082528190810183818151815260200191508051906020019080838360005b838110156102a657808201518382015260200161028e565b50505050905090810190601f1680156102d35780820380516001836020036101000a031916815260200191505b509250505060405180910390f35b610357826000836040518082805190602001908083835b602083106103175780518252601f1990920191602091820191016102f8565b6001836020036101000a0380198251168184511680821785525050505050509050019150509081526020016040519081900390209063ffffffff6104db16565b5050565b60006103d3836000846040518082805190602001908083835b602083106103935780518252601f199092019160209182019101610374565b6001836020036101000a0380198251168184511680821785525050505050509050019150509081526020016040519081900390209063ffffffff6104f016565b90505b92915050565b6000828214156103eb57600080fd5b607f60ff6001194301401611156104035750816103d6565b50806103d6565b33600160a060020a0316ff5b6104533360408051908101604052600581527f61646d696e00000000000000000000000000000000000000000000000000000060208201526102e1565b610357828261050f565b61049a3360408051908101604052600581527f61646d696e00000000000000000000000000000000000000000000000000000060208201526102e1565b6103578282610632565b60408051908101604052600581527f61646d696e000000000000000000000000000000000000000000000000000000602082015281565b6104e582826104f0565b151561035757600080fd5b600160a060020a03166000908152602091909152604090205460ff1690565b610585826000836040518082805190602001908083835b602083106105455780518252601f199092019160209182019101610526565b6001836020036101000a0380198251168184511680821785525050505050509050019150509081526020016040519081900390209063ffffffff61071516565b7fd211483f91fc6eff862467f8de606587a30c8fc9981056f051b897a418df803a8282604051600160a060020a038316815260406020820181815290820183818151815260200191508051906020019080838360005b838110156105f35780820151838201526020016105db565b50505050905090810190601f1680156106205780820380516001836020036101000a031916815260200191505b50935050505060405180910390a15050565b6106a8826000836040518082805190602001908083835b602083106106685780518252601f199092019160209182019101610649565b6001836020036101000a0380198251168184511680821785525050505050509050019150509081526020016040519081900390209063ffffffff61073716565b7fbfec83d64eaa953f2708271a023ab9ee82057f8f3578d548c1a4ba0b5b7004898282604051600160a060020a03831681526040602082018181529082018381815181526020019150805190602001908083836000838110156105f35780820151838201526020016105db565b600160a060020a0316600090815260209190915260409020805460ff19169055565b600160a060020a0316600090815260209190915260409020805460ff191660011790555600a165627a7a72305820c62ad15d17b22244ad3ae0acb2875648330389e6c00cbb0f9cdf138a845e54f60029",
  "source": "pragma solidity ^0.4.21;\n\nimport \"../security/rbac/RBACWithAdmin.sol\";\n\ncontract DragonFight is RBACWithAdmin {\n    function getWinner(uint256 _dragonOneID, uint256 _dragonTwoID) external view returns (uint256 _winerID){\n    // TODO Develop It!!!!\n        require(_dragonOneID != _dragonTwoID);\n        if (uint8(block.blockhash(block.number-2)) > 127 ) {\n            return _dragonOneID;    \n        } else {\n            return _dragonTwoID;\n        }\n        \n    }\n    \n}\n\n",
  "sourcePath": "/home/k/work/eth/CD/DragonETH/contracts/contracts/private/DragonFight.sol",
  "compiler": {
    "name": "solc",
    "version": "0.4.21+commit.dfe3193c.Emscripten.clang"
  },
  "schemaVersion": "2.0.0",
  "updatedAt": "2018-04-16T22:46:31.782Z"
}