{
  "contractName": "FixMarketPlace",
  "abi": [
    {
      "constant": true,
      "inputs": [
        {
          "name": "",
          "type": "uint256"
        }
      ],
      "name": "dragonsEndBlock",
      "outputs": [
        {
          "name": "",
          "type": "uint256"
        }
      ],
      "payable": false,
      "stateMutability": "view",
      "type": "function"
    },
    {
      "constant": true,
      "inputs": [],
      "name": "minSellTime",
      "outputs": [
        {
          "name": "",
          "type": "uint256"
        }
      ],
      "payable": false,
      "stateMutability": "view",
      "type": "function"
    },
    {
      "constant": false,
      "inputs": [],
      "name": "unpause",
      "outputs": [],
      "payable": false,
      "stateMutability": "nonpayable",
      "type": "function"
    },
    {
      "constant": true,
      "inputs": [
        {
          "name": "",
          "type": "uint256"
        }
      ],
      "name": "dragonPrices",
      "outputs": [
        {
          "name": "",
          "type": "uint256"
        }
      ],
      "payable": false,
      "stateMutability": "view",
      "type": "function"
    },
    {
      "constant": true,
      "inputs": [],
      "name": "ownersPercent",
      "outputs": [
        {
          "name": "",
          "type": "uint256"
        }
      ],
      "payable": false,
      "stateMutability": "view",
      "type": "function"
    },
    {
      "constant": true,
      "inputs": [],
      "name": "paused",
      "outputs": [
        {
          "name": "",
          "type": "bool"
        }
      ],
      "payable": false,
      "stateMutability": "view",
      "type": "function"
    },
    {
      "constant": false,
      "inputs": [],
      "name": "destroy",
      "outputs": [],
      "payable": false,
      "stateMutability": "nonpayable",
      "type": "function"
    },
    {
      "constant": false,
      "inputs": [],
      "name": "pause",
      "outputs": [],
      "payable": false,
      "stateMutability": "nonpayable",
      "type": "function"
    },
    {
      "constant": true,
      "inputs": [],
      "name": "owner",
      "outputs": [
        {
          "name": "",
          "type": "address"
        }
      ],
      "payable": false,
      "stateMutability": "view",
      "type": "function"
    },
    {
      "constant": true,
      "inputs": [
        {
          "name": "",
          "type": "uint256"
        }
      ],
      "name": "dragonsList",
      "outputs": [
        {
          "name": "",
          "type": "uint256"
        }
      ],
      "payable": false,
      "stateMutability": "view",
      "type": "function"
    },
    {
      "constant": true,
      "inputs": [],
      "name": "mainContract",
      "outputs": [
        {
          "name": "",
          "type": "address"
        }
      ],
      "payable": false,
      "stateMutability": "view",
      "type": "function"
    },
    {
      "constant": true,
      "inputs": [],
      "name": "totalDragonsToSale",
      "outputs": [
        {
          "name": "",
          "type": "uint256"
        }
      ],
      "payable": false,
      "stateMutability": "view",
      "type": "function"
    },
    {
      "constant": false,
      "inputs": [
        {
          "name": "newOwner",
          "type": "address"
        }
      ],
      "name": "transferOwnership",
      "outputs": [],
      "payable": false,
      "stateMutability": "nonpayable",
      "type": "function"
    },
    {
      "constant": true,
      "inputs": [],
      "name": "maxSellTime",
      "outputs": [
        {
          "name": "",
          "type": "uint256"
        }
      ],
      "payable": false,
      "stateMutability": "view",
      "type": "function"
    },
    {
      "inputs": [
        {
          "name": "_wallet",
          "type": "address"
        }
      ],
      "payable": false,
      "stateMutability": "nonpayable",
      "type": "constructor"
    },
    {
      "anonymous": false,
      "inputs": [],
      "name": "Pause",
      "type": "event"
    },
    {
      "anonymous": false,
      "inputs": [],
      "name": "Unpause",
      "type": "event"
    },
    {
      "anonymous": false,
      "inputs": [
        {
          "indexed": true,
          "name": "previousOwner",
          "type": "address"
        },
        {
          "indexed": true,
          "name": "newOwner",
          "type": "address"
        }
      ],
      "name": "OwnershipTransferred",
      "type": "event"
    },
    {
      "constant": false,
      "inputs": [
        {
          "name": "_newAddress",
          "type": "address"
        }
      ],
      "name": "changeAddressMainContract",
      "outputs": [],
      "payable": false,
      "stateMutability": "nonpayable",
      "type": "function"
    },
    {
      "constant": false,
      "inputs": [
        {
          "name": "_dragonOwner",
          "type": "address"
        },
        {
          "name": "_dragonID",
          "type": "uint256"
        },
        {
          "name": "_dragonPrice",
          "type": "uint256"
        },
        {
          "name": "_endBlockNumber",
          "type": "uint256"
        }
      ],
      "name": "addToFixMarketPlace",
      "outputs": [
        {
          "name": "sucsses",
          "type": "bool"
        }
      ],
      "payable": false,
      "stateMutability": "nonpayable",
      "type": "function"
    },
    {
      "constant": false,
      "inputs": [
        {
          "name": "_dragonID",
          "type": "uint256"
        }
      ],
      "name": "delFromFixMarketPlace",
      "outputs": [],
      "payable": false,
      "stateMutability": "nonpayable",
      "type": "function"
    },
    {
      "constant": false,
      "inputs": [
        {
          "name": "_dragonID",
          "type": "uint256"
        }
      ],
      "name": "buyDragon",
      "outputs": [],
      "payable": true,
      "stateMutability": "payable",
      "type": "function"
    },
    {
      "constant": true,
      "inputs": [],
      "name": "getAllDragonsSale",
      "outputs": [
        {
          "name": "",
          "type": "uint256[]"
        }
      ],
      "payable": false,
      "stateMutability": "view",
      "type": "function"
    },
    {
      "constant": true,
      "inputs": [],
      "name": "getDragonsToSale",
      "outputs": [
        {
          "name": "",
          "type": "uint256[]"
        }
      ],
      "payable": false,
      "stateMutability": "view",
      "type": "function"
    },
    {
      "constant": false,
      "inputs": [
        {
          "name": "_start",
          "type": "uint256"
        },
        {
          "name": "_count",
          "type": "uint256"
        }
      ],
      "name": "clearStuxDragon",
      "outputs": [
        {
          "name": "_deleted",
          "type": "uint256"
        }
      ],
      "payable": false,
      "stateMutability": "nonpayable",
      "type": "function"
    },
    {
      "constant": false,
      "inputs": [
        {
          "name": "_wallet",
          "type": "address"
        }
      ],
      "name": "changeWallet",
      "outputs": [],
      "payable": false,
      "stateMutability": "nonpayable",
      "type": "function"
    },
    {
      "constant": false,
      "inputs": [
        {
          "name": "_minSellTime",
          "type": "uint256"
        }
      ],
      "name": "changeMinSellTime",
      "outputs": [],
      "payable": false,
      "stateMutability": "nonpayable",
      "type": "function"
    },
    {
      "constant": false,
      "inputs": [
        {
          "name": "_maxSellTime",
          "type": "uint256"
        }
      ],
      "name": "changeMaxSellTime",
      "outputs": [],
      "payable": false,
      "stateMutability": "nonpayable",
      "type": "function"
    },
    {
      "constant": false,
      "inputs": [
        {
          "name": "_ownersPercent",
          "type": "uint256"
        }
      ],
      "name": "changeOwnersPercent",
      "outputs": [],
      "payable": false,
      "stateMutability": "nonpayable",
      "type": "function"
    },
    {
      "constant": false,
      "inputs": [],
      "name": "withdrawAllEther",
      "outputs": [],
      "payable": false,
      "stateMutability": "nonpayable",
      "type": "function"
    }
  ],
  "bytecode": "0x60606040526000805460a060020a60ff0219169055600d6004556203f4806005556032600655341561003057600080fd5b604051602080610f358339810160405280805160008054600160a060020a03338116600160a060020a031992831617909255600280549290931691161790555050610eb5806100806000396000f30060606040526004361061013a5763ffffffff60e060020a600035041663280285c0811461013f5780632ff7a0581461016a57806331c91117146101805780633e289515146101955780633f4ba83a146101a85780634a1f679b146101bb57806351004341146101da578063559bdcaf146101f05780635c975abb14610203578063736d68651461022a57806383197ef0146102405780638456cb59146102535780638d159787146102665780638da5cb5b1461027157806398b9a2dc146102a0578063ada78125146102bf578063b2af0fb5146102d5578063b456b590146102eb578063d270e7ab14610301578063d5051cc814610314578063d685a0031461037a578063dbd48439146103a2578063de82aad6146103b5578063e411f850146103c8578063f2fde38b146103de578063f730fa61146103fd575b600080fd5b341561014a57600080fd5b610158600435602435610410565b60405190815260200160405180910390f35b341561017557600080fd5b61015860043561052c565b341561018b57600080fd5b61019361053e565b005b34156101a057600080fd5b6101586105ab565b34156101b357600080fd5b6101936105b1565b34156101c657600080fd5b610193600160a060020a0360043516610630565b34156101e557600080fd5b61015860043561067a565b34156101fb57600080fd5b61015861068c565b341561020e57600080fd5b610216610692565b604051901515815260200160405180910390f35b341561023557600080fd5b6101936004356106a2565b341561024b57600080fd5b61019361077b565b341561025e57600080fd5b610193610787565b61019360043561080b565b341561027c57600080fd5b6102846109b4565b604051600160a060020a03909116815260200160405180910390f35b34156102ab57600080fd5b610193600160a060020a03600435166109c3565b34156102ca57600080fd5b610193600435610a0d565b34156102e057600080fd5b610158600435610a2d565b34156102f657600080fd5b610193600435610a4c565b341561030c57600080fd5b610284610a6c565b341561031f57600080fd5b610327610a7b565b60405160208082528190810183818151815260200191508051906020019060200280838360005b8381101561036657808201518382015260200161034e565b505050509050019250505060405180910390f35b341561038557600080fd5b610216600160a060020a0360043516602435604435606435610ada565b34156103ad57600080fd5b610158610bc5565b34156103c057600080fd5b610327610bcb565b34156103d357600080fd5b610193600435610cb3565b34156103e957600080fd5b610193600160a060020a0360043516610cd3565b341561040857600080fd5b610158610d6e565b600080548190819060a060020a900460ff161561042c57600080fd5b8491505b838501821080156104425750600a5482105b1561052457600a80548390811061045557fe5b90600052602060002090015490504360096000838152602001908152602001600020541015610519576001546000828152600760205260409081902054600160a060020a03928316926323b872dd9230929091169085905160e060020a63ffffffff8616028152600160a060020a0393841660048201529190921660248201526044810191909152606401600060405180830381600087803b15156104f957600080fd5b5af1151561050657600080fd5b50505061051281610d74565b6001909201915b600190910190610430565b505092915050565b60096020526000908152604090205481565b60005433600160a060020a0390811691161461055957600080fd5b600254600160a060020a0316151561057057600080fd5b600254600160a060020a039081169030163180156108fc0290604051600060405180830381858888f1935050505015156105a957600080fd5b565b60045481565b60005433600160a060020a039081169116146105cc57600080fd5b60005460a060020a900460ff1615156105e457600080fd5b6000805474ff0000000000000000000000000000000000000000191690557f7805862f689e2f13df9f062ff482ad3ad112aca9e0847911ed832e158c525b3360405160405180910390a1565b60005433600160a060020a0390811691161461064b57600080fd5b6001805473ffffffffffffffffffffffffffffffffffffffff1916600160a060020a0392909216919091179055565b60086020526000908152604090205481565b60065481565b60005460a060020a900460ff1681565b60008181526007602052604090205433600160a060020a03908116911614806106d957506000818152600960205260409020544390105b15156106e457600080fd5b6001546000828152600760205260409081902054600160a060020a03928316926323b872dd9230929091169085905160e060020a63ffffffff8616028152600160a060020a0393841660048201529190921660248201526044810191909152606401600060405180830381600087803b151561075f57600080fd5b5af1151561076c57600080fd5b50505061077881610d74565b50565b33600160a060020a0316ff5b60005433600160a060020a039081169116146107a257600080fd5b60005460a060020a900460ff16156107b957600080fd5b6000805474ff0000000000000000000000000000000000000000191660a060020a1790557f6985a02210a168e66602d3235cb6db0e70f92b3ba4d376a33c0f3d9434bff62560405160405180910390a1565b60008054819060a060020a900460ff161561082557600080fd5b60008381526009602052604090205443111561084057600080fd5b6006546000848152600860205260409020546103e8918102919091049250820134101561086c57600080fd5b50600082815260086020526040902054340381900380156108b857600160a060020a03331681156108fc0282604051600060405180830381858888f1935050505015156108b857600080fd5b600154600160a060020a03166323b872dd30338660405160e060020a63ffffffff8616028152600160a060020a0393841660048201529190921660248201526044810191909152606401600060405180830381600087803b151561091b57600080fd5b5af1151561092857600080fd5b5050600254600160a060020a0316905082156108fc0283604051600060405180830381858888f19350505050151561095f57600080fd5b6000838152600760205260409081902054600160a060020a0316903483900384900380156108fc029151600060405180830381858888f1935050505015156109a657600080fd5b6109af83610d74565b505050565b600054600160a060020a031681565b60005433600160a060020a039081169116146109de57600080fd5b6002805473ffffffffffffffffffffffffffffffffffffffff1916600160a060020a0392909216919091179055565b60005433600160a060020a03908116911614610a2857600080fd5b600555565b600a805482908110610a3b57fe5b600091825260209091200154905081565b60005433600160a060020a03908116911614610a6757600080fd5b600655565b600154600160a060020a031681565b610a83610e3a565b600a805480602002602001604051908101604052809291908181526020018280548015610acf57602002820191906000526020600020905b815481526020019060010190808311610abb575b505050505090505b90565b6000805460a060020a900460ff1615610af257600080fd5b60015433600160a060020a03908116911614610b0d57600080fd5b60045443018211610b1d57600080fd5b60055443018210610b2d57600080fd5b60008311610b3a57600080fd5b6000848152600760209081526040808320805473ffffffffffffffffffffffffffffffffffffffff1916600160a060020a038a161790556008825280832086905560098252808320859055600a8054600b909352922081905560018101610ba18382610e4c565b50600091825260209091200184905550600380546001908101909155949350505050565b60035481565b610bd3610e3a565b610bdb610e3a565b600080600060035460001415610c12576000604051805910610bfa5750595b90808252806020026020018201604052509450610cac565b600354604051805910610c225750595b9080825280602002602001820160405250935060009150600092505b600354831015610ca857600a805484908110610c5657fe5b90600052602060002090015490504360096000838152602001908152602001600020541115610c9d5780848381518110610c8c57fe5b602090810290910101526001909101905b600190920191610c3e565b8394505b5050505090565b60005433600160a060020a03908116911614610cce57600080fd5b600455565b60005433600160a060020a03908116911614610cee57600080fd5b600160a060020a0381161515610d0357600080fd5b600054600160a060020a0380831691167f8be0079c531659141344cd1fd0a4f28419497f9722a3daafe3b4186f6b6457e060405160405180910390a36000805473ffffffffffffffffffffffffffffffffffffffff1916600160a060020a0392909216919091179055565b60055481565b6000818152600760209081526040808320805473ffffffffffffffffffffffffffffffffffffffff191690556008825280832083905560099091528120556003546001901115610e0b57600a80546000198101908110610dd057fe5b906000526020600020900154600a600b600084815260200190815260200160002054815481101515610dfe57fe5b6000918252602090912001555b600a805490610e1e906000198301610e4c565b506000908152600b602052604081205560038054600019019055565b60206040519081016040526000815290565b8154818355818115116109af576000838152602090206109af918101908301610ad791905b80821115610e855760008155600101610e71565b50905600a165627a7a72305820fd4ebb86a758c2bae044018b069816e7d48f6a2f6abc3b3bc9fd98ed108167830029",
  "source": "pragma solidity ^0.4.21;\n\nimport \"./ownership/Pausable.sol\";\n\ncontract DragonETH {\nfunction transferFrom(address _from, address _to, uint256 _tokenId) public;\n}\n\ncontract FixMarketPlace is Pausable {\n    DragonETH public mainContract;\n    address wallet;\n    uint256 public totalDragonsToSale;\n    uint256 public minSellTime = 13; //~2 min\n    uint256 public maxSellTime = 259200; //~30 days??????\n    uint256 public ownersPercent = 50; // eq 5%\n    mapping(uint256 => address) dragonsOwner;\n    mapping(uint256 => uint256) public dragonPrices;\n    mapping(uint256 => uint256) public dragonsEndBlock;\n    uint256[] public dragonsList; \n    mapping(uint256 => uint256) dragonsListIndex;\n    //mapping (address => uint256[]) private ownedTokens;\n\n    function FixMarketPlace(address _wallet) public {\n        wallet = _wallet;\n    }\n\n    function changeAddressMainContract(address _newAddress) external onlyOwner {\n        mainContract = DragonETH(_newAddress);\n    }\n    function _delItem(uint256 _dragonID) private {\n        delete(dragonsOwner[_dragonID]);\n        delete(dragonPrices[_dragonID]);\n        delete(dragonsEndBlock[_dragonID]);\n        if (totalDragonsToSale > 1) {\n            dragonsList[dragonsListIndex[_dragonID]] = dragonsList[dragonsList.length - 1];\n        }\n        dragonsList.length--;\n        delete(dragonsListIndex[_dragonID]);\n        totalDragonsToSale--;\n    }\n    function addToFixMarketPlace(address _dragonOwner, uint256 _dragonID, uint256 _dragonPrice, uint256 _endBlockNumber) external whenNotPaused returns (bool sucsses) {\n        require(msg.sender == address(mainContract));\n        require(_endBlockNumber  > block.number + minSellTime);\n        require(_endBlockNumber < block.number + maxSellTime ); //??????\n        require(_dragonPrice > 0);\n        dragonsOwner[_dragonID] = _dragonOwner;\n        dragonPrices[_dragonID] = _dragonPrice;\n        dragonsEndBlock[_dragonID] = _endBlockNumber;\n        dragonsListIndex[_dragonID] = dragonsList.length;\n        dragonsList.push(_dragonID);\n        totalDragonsToSale++;\n        return true;\n    }\n    \n    function delFromFixMarketPlace(uint256 _dragonID) external {\n            require(msg.sender == dragonsOwner[_dragonID] || dragonsEndBlock[_dragonID] < block.number);\n            mainContract.transferFrom(address(this), dragonsOwner[_dragonID], _dragonID);\n            _delItem(_dragonID);\n    }\n\n    function buyDragon(uint256 _dragonID) external payable whenNotPaused {\n        require(block.number <= dragonsEndBlock[_dragonID]);\n        uint256 _dragonCommisions = dragonPrices[_dragonID] * ownersPercent / 1000;\n        require(msg.value >= dragonPrices[_dragonID] + _dragonCommisions);\n        uint256 valueToReturn = msg.value - dragonPrices[_dragonID] - _dragonCommisions;\n        if (valueToReturn != 0) {\n            msg.sender.transfer(valueToReturn);\n        }\n    \n        mainContract.transferFrom(address(this), msg.sender, _dragonID);\n        wallet.transfer(_dragonCommisions);\n        dragonsOwner[_dragonID].transfer(msg.value - valueToReturn - _dragonCommisions);\n        _delItem(_dragonID);        \n    }\n    function getAllDragonsSale() external view returns(uint256[]) {\n        return dragonsList;\n    }\n    function getDragonsToSale() external view returns(uint256[]) {\n        \n\n        if (totalDragonsToSale == 0) {\n            // Return an empty array\n            return new uint256[](0);\n        } else {\n            // !!!!!! need to test on time go to future\n            uint256[] memory result = new uint256[](totalDragonsToSale);\n            uint256 _dragonIndex;\n            uint256 _resultIndex = 0;\n\n            for (_dragonIndex = 0; _dragonIndex < totalDragonsToSale; _dragonIndex++) {\n                uint256 _dragonID = dragonsList[_dragonIndex];\n                if (dragonsEndBlock[_dragonID] > block.number) {\n                    result[_resultIndex] = _dragonID;\n                    _resultIndex++;\n                }\n            }\n\n            return result;\n        }\n    }\n    function clearStuxDragon(uint256 _start, uint256 _count) external whenNotPaused returns (uint256 _deleted) {\n        uint256 _dragonIndex;\n        \n        for(_dragonIndex=_start; _dragonIndex < _start + _count && _dragonIndex < dragonsList.length; _dragonIndex++) {\n            uint256 _dragonID = dragonsList[_dragonIndex];\n            if (dragonsEndBlock[_dragonID] < block.number) {\n                mainContract.transferFrom(address(this), dragonsOwner[_dragonID], _dragonID);\n                _delItem(_dragonID);\n                _deleted++;\n            }\n        }\n    }\n   \n    \n    function changeWallet(address _wallet) external onlyOwner {\n        wallet = _wallet;\n    }\n\n    function changeMinSellTime(uint256 _minSellTime) external onlyOwner {\n        minSellTime = _minSellTime;\n    }\n\n    function changeMaxSellTime(uint256 _maxSellTime) external onlyOwner {\n        maxSellTime = _maxSellTime;\n    }\n\n    function changeOwnersPercent(uint256 _ownersPercent) external onlyOwner {\n        ownersPercent = _ownersPercent;\n    }\n\n    function withdrawAllEther() external onlyOwner {\n        require(wallet != 0);\n        wallet.transfer(address(this).balance);\n    }\n}\n\n",
  "sourcePath": "/home/k/work/eth/CD/DragonETH/contracts/contracts/FixMarketPlace.sol",
  "compiler": {
    "name": "solc",
    "version": "0.4.21+commit.dfe3193c.Emscripten.clang"
  },
  "schemaVersion": "2.0.0",
  "updatedAt": "2018-04-07T15:12:23.134Z"
}