{
  "contractName": "FixMarketPlace",
  "abi": [
    {
      "constant": true,
      "inputs": [
        {
          "name": "addr",
          "type": "address"
        },
        {
          "name": "roleName",
          "type": "string"
        }
      ],
      "name": "checkRole",
      "outputs": [],
      "payable": false,
      "stateMutability": "view",
      "type": "function"
    },
    {
      "constant": true,
      "inputs": [
        {
          "name": "addr",
          "type": "address"
        },
        {
          "name": "roleName",
          "type": "string"
        }
      ],
      "name": "hasRole",
      "outputs": [
        {
          "name": "",
          "type": "bool"
        }
      ],
      "payable": false,
      "stateMutability": "view",
      "type": "function"
    },
    {
      "constant": true,
      "inputs": [
        {
          "name": "",
          "type": "uint256"
        }
      ],
      "name": "dragonsEndBlock",
      "outputs": [
        {
          "name": "",
          "type": "uint256"
        }
      ],
      "payable": false,
      "stateMutability": "view",
      "type": "function"
    },
    {
      "constant": true,
      "inputs": [],
      "name": "minSellTime",
      "outputs": [
        {
          "name": "",
          "type": "uint256"
        }
      ],
      "payable": false,
      "stateMutability": "view",
      "type": "function"
    },
    {
      "constant": false,
      "inputs": [],
      "name": "unpause",
      "outputs": [],
      "payable": false,
      "stateMutability": "nonpayable",
      "type": "function"
    },
    {
      "constant": true,
      "inputs": [],
      "name": "ROLE_PAUSE_ADMIN",
      "outputs": [
        {
          "name": "",
          "type": "string"
        }
      ],
      "payable": false,
      "stateMutability": "view",
      "type": "function"
    },
    {
      "constant": true,
      "inputs": [
        {
          "name": "",
          "type": "uint256"
        }
      ],
      "name": "dragonPrices",
      "outputs": [
        {
          "name": "",
          "type": "uint256"
        }
      ],
      "payable": false,
      "stateMutability": "view",
      "type": "function"
    },
    {
      "constant": true,
      "inputs": [],
      "name": "ownersPercent",
      "outputs": [
        {
          "name": "",
          "type": "uint256"
        }
      ],
      "payable": false,
      "stateMutability": "view",
      "type": "function"
    },
    {
      "constant": true,
      "inputs": [],
      "name": "paused",
      "outputs": [
        {
          "name": "",
          "type": "bool"
        }
      ],
      "payable": false,
      "stateMutability": "view",
      "type": "function"
    },
    {
      "constant": false,
      "inputs": [],
      "name": "destroy",
      "outputs": [],
      "payable": false,
      "stateMutability": "nonpayable",
      "type": "function"
    },
    {
      "constant": false,
      "inputs": [],
      "name": "pause",
      "outputs": [],
      "payable": false,
      "stateMutability": "nonpayable",
      "type": "function"
    },
    {
      "constant": false,
      "inputs": [
        {
          "name": "addr",
          "type": "address"
        },
        {
          "name": "roleName",
          "type": "string"
        }
      ],
      "name": "adminRemoveRole",
      "outputs": [],
      "payable": false,
      "stateMutability": "nonpayable",
      "type": "function"
    },
    {
      "constant": false,
      "inputs": [
        {
          "name": "addr",
          "type": "address"
        },
        {
          "name": "roleName",
          "type": "string"
        }
      ],
      "name": "adminAddRole",
      "outputs": [],
      "payable": false,
      "stateMutability": "nonpayable",
      "type": "function"
    },
    {
      "constant": true,
      "inputs": [
        {
          "name": "",
          "type": "uint256"
        }
      ],
      "name": "dragonsList",
      "outputs": [
        {
          "name": "",
          "type": "uint256"
        }
      ],
      "payable": false,
      "stateMutability": "view",
      "type": "function"
    },
    {
      "constant": true,
      "inputs": [],
      "name": "mainContract",
      "outputs": [
        {
          "name": "",
          "type": "address"
        }
      ],
      "payable": false,
      "stateMutability": "view",
      "type": "function"
    },
    {
      "constant": true,
      "inputs": [],
      "name": "ROLE_ADMIN",
      "outputs": [
        {
          "name": "",
          "type": "string"
        }
      ],
      "payable": false,
      "stateMutability": "view",
      "type": "function"
    },
    {
      "constant": true,
      "inputs": [],
      "name": "totalDragonsToSale",
      "outputs": [
        {
          "name": "",
          "type": "uint256"
        }
      ],
      "payable": false,
      "stateMutability": "view",
      "type": "function"
    },
    {
      "constant": true,
      "inputs": [],
      "name": "maxSellTime",
      "outputs": [
        {
          "name": "",
          "type": "uint256"
        }
      ],
      "payable": false,
      "stateMutability": "view",
      "type": "function"
    },
    {
      "inputs": [
        {
          "name": "_wallet",
          "type": "address"
        }
      ],
      "payable": false,
      "stateMutability": "nonpayable",
      "type": "constructor"
    },
    {
      "anonymous": false,
      "inputs": [],
      "name": "Pause",
      "type": "event"
    },
    {
      "anonymous": false,
      "inputs": [],
      "name": "Unpause",
      "type": "event"
    },
    {
      "anonymous": false,
      "inputs": [
        {
          "indexed": false,
          "name": "addr",
          "type": "address"
        },
        {
          "indexed": false,
          "name": "roleName",
          "type": "string"
        }
      ],
      "name": "RoleAdded",
      "type": "event"
    },
    {
      "anonymous": false,
      "inputs": [
        {
          "indexed": false,
          "name": "addr",
          "type": "address"
        },
        {
          "indexed": false,
          "name": "roleName",
          "type": "string"
        }
      ],
      "name": "RoleRemoved",
      "type": "event"
    },
    {
      "constant": false,
      "inputs": [
        {
          "name": "_dragonOwner",
          "type": "address"
        },
        {
          "name": "_dragonID",
          "type": "uint256"
        },
        {
          "name": "_dragonPrice",
          "type": "uint256"
        },
        {
          "name": "_endBlockNumber",
          "type": "uint256"
        }
      ],
      "name": "add2MarketPlace",
      "outputs": [
        {
          "name": "",
          "type": "bool"
        }
      ],
      "payable": false,
      "stateMutability": "nonpayable",
      "type": "function"
    },
    {
      "constant": false,
      "inputs": [
        {
          "name": "_dragonID",
          "type": "uint256"
        }
      ],
      "name": "delFromFixMarketPlace",
      "outputs": [],
      "payable": false,
      "stateMutability": "nonpayable",
      "type": "function"
    },
    {
      "constant": false,
      "inputs": [
        {
          "name": "_dragonID",
          "type": "uint256"
        }
      ],
      "name": "buyDragon",
      "outputs": [],
      "payable": true,
      "stateMutability": "payable",
      "type": "function"
    },
    {
      "constant": true,
      "inputs": [],
      "name": "getAllDragonsSale",
      "outputs": [
        {
          "name": "",
          "type": "uint256[]"
        }
      ],
      "payable": false,
      "stateMutability": "view",
      "type": "function"
    },
    {
      "constant": true,
      "inputs": [],
      "name": "getDragonsToSale",
      "outputs": [
        {
          "name": "",
          "type": "uint256[]"
        }
      ],
      "payable": false,
      "stateMutability": "view",
      "type": "function"
    },
    {
      "constant": false,
      "inputs": [
        {
          "name": "_start",
          "type": "uint256"
        },
        {
          "name": "_count",
          "type": "uint256"
        }
      ],
      "name": "clearStuxDragon",
      "outputs": [
        {
          "name": "_deleted",
          "type": "uint256"
        }
      ],
      "payable": false,
      "stateMutability": "nonpayable",
      "type": "function"
    },
    {
      "constant": false,
      "inputs": [
        {
          "name": "_newAddress",
          "type": "address"
        }
      ],
      "name": "changeAddressMainContract",
      "outputs": [],
      "payable": false,
      "stateMutability": "nonpayable",
      "type": "function"
    },
    {
      "constant": false,
      "inputs": [
        {
          "name": "_wallet",
          "type": "address"
        }
      ],
      "name": "changeWallet",
      "outputs": [],
      "payable": false,
      "stateMutability": "nonpayable",
      "type": "function"
    },
    {
      "constant": false,
      "inputs": [
        {
          "name": "_minSellTime",
          "type": "uint256"
        }
      ],
      "name": "changeMinSellTime",
      "outputs": [],
      "payable": false,
      "stateMutability": "nonpayable",
      "type": "function"
    },
    {
      "constant": false,
      "inputs": [
        {
          "name": "_maxSellTime",
          "type": "uint256"
        }
      ],
      "name": "changeMaxSellTime",
      "outputs": [],
      "payable": false,
      "stateMutability": "nonpayable",
      "type": "function"
    },
    {
      "constant": false,
      "inputs": [
        {
          "name": "_ownersPercent",
          "type": "uint256"
        }
      ],
      "name": "changeOwnersPercent",
      "outputs": [],
      "payable": false,
      "stateMutability": "nonpayable",
      "type": "function"
    },
    {
      "constant": false,
      "inputs": [],
      "name": "withdrawAllEther",
      "outputs": [],
      "payable": false,
      "stateMutability": "nonpayable",
      "type": "function"
    }
  ],
  "bytecode": "0x60606040526001805460ff19169055600d6004556203f480600555603260065534156200002b57600080fd5b604051602080620017e58339810160405280805191506200009090503360408051908101604052600581527f61646d696e0000000000000000000000000000000000000000000000000000006020820152640100000000620013d16200010382021704565b620000dd3360408051908101604052600a81527f706175736541646d696e000000000000000000000000000000000000000000006020820152640100000000620013d16200010382021704565b60028054600160a060020a031916600160a060020a03929092169190911790556200025a565b62000185826000836040518082805190602001908083835b602083106200013c5780518252601f1990920191602091820191016200011b565b6001836020036101000a03801982511681845116808217855250505050505090500191505090815260200160405190819003902090640100000000620014d66200023582021704565b7fbfec83d64eaa953f2708271a023ab9ee82057f8f3578d548c1a4ba0b5b7004898282604051600160a060020a038316815260406020820181815290820183818151815260200191508051906020019080838360005b83811015620001f5578082015183820152602001620001db565b50505050905090810190601f168015620002235780820380516001836020036101000a031916815260200191505b50935050505060405180910390a15050565b600160a060020a0316600090815260209190915260409020805460ff19166001179055565b61157b806200026a6000396000f3006060604052600436106101665763ffffffff60e060020a6000350416630988ca8c811461016b57806311da9598146101cc578063217fe6c614610208578063280285c0146102675780632ff7a0581461029257806331c91117146102a85780633e289515146102bb5780633f4ba83a146102ce57806347492352146102e15780634a1f679b1461036b578063510043411461038a578063559bdcaf146103a05780635c975abb146103b3578063736d6865146103c657806383197ef0146103dc5780638456cb59146103ef57806388cee87e146104025780638d1597871461046157806398b9a2dc1461046c578063ada781251461048b578063b25fa92c146104a1578063b2af0fb514610500578063b456b59014610516578063d270e7ab1461052c578063d391014b1461055b578063d5051cc81461056e578063dbd48439146105d4578063de82aad6146105e7578063e411f850146105fa578063f730fa6114610610575b600080fd5b341561017657600080fd5b6101ca60048035600160a060020a03169060446024803590810190830135806020601f8201819004810201604051908101604052818152929190602084018383808284375094965061062395505050505050565b005b34156101d757600080fd5b6101f4600160a060020a036004351660243560443560643561069d565b604051901515815260200160405180910390f35b341561021357600080fd5b6101f460048035600160a060020a03169060446024803590810190830135806020601f8201819004810201604051908101604052818152929190602084018383808284375094965061078695505050505050565b341561027257600080fd5b610280600435602435610805565b60405190815260200160405180910390f35b341561029d57600080fd5b610280600435610921565b34156102b357600080fd5b6101ca610933565b34156102c657600080fd5b6102806109ad565b34156102d957600080fd5b6101ca6109b3565b34156102ec57600080fd5b6102f4610a39565b60405160208082528190810183818151815260200191508051906020019080838360005b83811015610330578082015183820152602001610318565b50505050905090810190601f16801561035d5780820380516001836020036101000a031916815260200191505b509250505060405180910390f35b341561037657600080fd5b6101ca600160a060020a0360043516610a70565b341561039557600080fd5b610280600435610acd565b34156103ab57600080fd5b610280610adf565b34156103be57600080fd5b6101f4610ae5565b34156103d157600080fd5b6101ca600435610aee565b34156103e757600080fd5b6101ca610bcc565b34156103fa57600080fd5b6101ca610bd8565b341561040d57600080fd5b6101ca60048035600160a060020a03169060446024803590810190830135806020601f82018190048102016040519081016040528181529291906020840183838082843750949650610c5f95505050505050565b6101ca600435610c91565b341561047757600080fd5b6101ca600160a060020a0360043516610e90565b341561049657600080fd5b6101ca600435610ee7565b34156104ac57600080fd5b6101ca60048035600160a060020a03169060446024803590810190830135806020601f82018190048102016040519081016040528181529291906020840183838082843750949650610f1495505050505050565b341561050b57600080fd5b610280600435610f46565b341561052157600080fd5b6101ca600435610f65565b341561053757600080fd5b61053f610f92565b604051600160a060020a03909116815260200160405180910390f35b341561056657600080fd5b6102f4610fa6565b341561057957600080fd5b610581610fc8565b60405160208082528190810183818151815260200191508051906020019060200280838360005b838110156105c05780820151838201526020016105a8565b505050509050019250505060405180910390f35b34156105df57600080fd5b610280611027565b34156105f257600080fd5b61058161102d565b341561060557600080fd5b6101ca600435611115565b341561061b57600080fd5b610280611142565b610699826000836040518082805190602001908083835b602083106106595780518252601f19909201916020918201910161063a565b6001836020036101000a0380198251168184511680821785525050505050509050019150509081526020016040519081900390209063ffffffff61114816565b5050565b60015460009060ff16156106b057600080fd5b60015433600160a060020a0390811661010090920416146106d057600080fd5b60045482116106de57600080fd5b60055482106106ec57600080fd5b600083116106f957600080fd5b6000848152600760209081526040808320805473ffffffffffffffffffffffffffffffffffffffff1916600160a060020a038a1617905560088252808320869055600982528083204386019055600a8054600b90935292208190556001810161076283826114fb565b50600091825260209091200184905550600380546001908101909155949350505050565b60006107fe836000846040518082805190602001908083835b602083106107be5780518252601f19909201916020918201910161079f565b6001836020036101000a0380198251168184511680821785525050505050509050019150509081526020016040519081900390209063ffffffff61115d16565b9392505050565b6001546000908190819060ff161561081c57600080fd5b8491505b838501821080156108325750600a5482105b1561091957600a80548390811061084557fe5b9060005260206000209001549050436009600083815260200190815260200160002054101561090e576001546000828152600760205260409081902054600160a060020a036101009093048316926323b872dd9230929091169085905160e060020a63ffffffff8616028152600160a060020a0393841660048201529190921660248201526044810191909152606401600060405180830381600087803b15156108ee57600080fd5b5af115156108fb57600080fd5b5050506109078161117c565b6001909201915b600190910190610820565b505092915050565b60096020526000908152604090205481565b61095b33604080519081016040526005815260d960020a6430b236b4b7026020820152610623565b600254600160a060020a0316151561097257600080fd5b600254600160a060020a039081169030163180156108fc0290604051600060405180830381858888f1935050505015156109ab57600080fd5b565b60045481565b6109f03360408051908101604052600a81527f706175736541646d696e000000000000000000000000000000000000000000006020820152610623565b60015460ff161515610a0157600080fd5b6001805460ff191690557f7805862f689e2f13df9f062ff482ad3ad112aca9e0847911ed832e158c525b3360405160405180910390a1565b60408051908101604052600a81527f706175736541646d696e00000000000000000000000000000000000000000000602082015281565b610a9833604080519081016040526005815260d960020a6430b236b4b7026020820152610623565b60018054600160a060020a039092166101000274ffffffffffffffffffffffffffffffffffffffff0019909216919091179055565b60086020526000908152604090205481565b60065481565b60015460ff1681565b60008181526007602052604090205433600160a060020a0390811691161480610b2557506000818152600960205260409020544390105b1515610b3057600080fd5b6001546000828152600760205260409081902054600160a060020a036101009093048316926323b872dd9230929091169085905160e060020a63ffffffff8616028152600160a060020a0393841660048201529190921660248201526044810191909152606401600060405180830381600087803b1515610bb057600080fd5b5af11515610bbd57600080fd5b505050610bc98161117c565b50565b33600160a060020a0316ff5b610c153360408051908101604052600a81527f706175736541646d696e000000000000000000000000000000000000000000006020820152610623565b60015460ff1615610c2557600080fd5b6001805460ff1916811790557f6985a02210a168e66602d3235cb6db0e70f92b3ba4d376a33c0f3d9434bff62560405160405180910390a1565b610c8733604080519081016040526005815260d960020a6430b236b4b7026020820152610623565b6106998282611242565b600154600090819060ff1615610ca657600080fd5b600083815260096020526040902054431115610cc157600080fd5b600654600084815260086020526040902054610cf6916103e891610cea9163ffffffff61136516565b9063ffffffff61139b16565b600084815260086020526040902054909250610d18908363ffffffff6113b016565b341015610d2457600080fd5b600083815260086020526040902054610d56908390610d4a90349063ffffffff6113bf16565b9063ffffffff6113bf16565b90508015610d8f57600160a060020a03331681156108fc0282604051600060405180830381858888f193505050501515610d8f57600080fd5b6001546101009004600160a060020a03166342842e0e30338660405160e060020a63ffffffff8616028152600160a060020a0393841660048201529190921660248201526044810191909152606401600060405180830381600087803b1515610df757600080fd5b5af11515610e0457600080fd5b5050600254600160a060020a0316905082156108fc0283604051600060405180830381858888f193505050501515610e3b57600080fd5b6000838152600760205260409081902054600160a060020a0316903483900384900380156108fc029151600060405180830381858888f193505050501515610e8257600080fd5b610e8b8361117c565b505050565b610eb833604080519081016040526005815260d960020a6430b236b4b7026020820152610623565b6002805473ffffffffffffffffffffffffffffffffffffffff1916600160a060020a0392909216919091179055565b610f0f33604080519081016040526005815260d960020a6430b236b4b7026020820152610623565b600555565b610f3c33604080519081016040526005815260d960020a6430b236b4b7026020820152610623565b61069982826113d1565b600a805482908110610f5457fe5b600091825260209091200154905081565b610f8d33604080519081016040526005815260d960020a6430b236b4b7026020820152610623565b600655565b6001546101009004600160a060020a031681565b604080519081016040526005815260d960020a6430b236b4b702602082015281565b610fd061151f565b600a80548060200260200160405190810160405280929190818152602001828054801561101c57602002820191906000526020600020905b815481526020019060010190808311611008575b505050505090505b90565b60035481565b61103561151f565b61103d61151f565b60008060006003546000141561107457600060405180591061105c5750595b9080825280602002602001820160405250945061110e565b6003546040518059106110845750595b9080825280602002602001820160405250935060009150600092505b60035483101561110a57600a8054849081106110b857fe5b906000526020600020900154905043600960008381526020019081526020016000205411156110ff57808483815181106110ee57fe5b602090810290910101526001909101905b6001909201916110a0565b8394505b5050505090565b61113d33604080519081016040526005815260d960020a6430b236b4b7026020820152610623565b600455565b60055481565b611152828261115d565b151561069957600080fd5b600160a060020a03166000908152602091909152604090205460ff1690565b6000818152600760209081526040808320805473ffffffffffffffffffffffffffffffffffffffff19169055600882528083208390556009909152812055600354600190111561121357600a805460001981019081106111d857fe5b906000526020600020900154600a600b60008481526020019081526020016000205481548110151561120657fe5b6000918252602090912001555b600a8054906112269060001983016114fb565b506000908152600b602052604081205560038054600019019055565b6112b8826000836040518082805190602001908083835b602083106112785780518252601f199092019160209182019101611259565b6001836020036101000a0380198251168184511680821785525050505050509050019150509081526020016040519081900390209063ffffffff6114b416565b7fd211483f91fc6eff862467f8de606587a30c8fc9981056f051b897a418df803a8282604051600160a060020a038316815260406020820181815290820183818151815260200191508051906020019080838360005b8381101561132657808201518382015260200161130e565b50505050905090810190601f1680156113535780820380516001836020036101000a031916815260200191505b50935050505060405180910390a15050565b6000808315156113785760009150611394565b5082820282848281151561138857fe5b041461139057fe5b8091505b5092915050565b600081838115156113a857fe5b049392505050565b60008282018381101561139057fe5b6000828211156113cb57fe5b50900390565b611447826000836040518082805190602001908083835b602083106114075780518252601f1990920191602091820191016113e8565b6001836020036101000a0380198251168184511680821785525050505050509050019150509081526020016040519081900390209063ffffffff6114d616565b7fbfec83d64eaa953f2708271a023ab9ee82057f8f3578d548c1a4ba0b5b7004898282604051600160a060020a038316815260406020820181815290820183818151815260200191508051906020019080838360008381101561132657808201518382015260200161130e565b600160a060020a0316600090815260209190915260409020805460ff19169055565b600160a060020a0316600090815260209190915260409020805460ff19166001179055565b815481835581811511610e8b57600083815260209020610e8b918101908301611531565b60206040519081016040526000815290565b61102491905b8082111561154b5760008155600101611537565b50905600a165627a7a7230582094722aed7f013ab9f4ca9fe46836ceb7df34f7c6f2d2316a66f99d79c4c916150029",
  "source": "pragma solidity ^0.4.21;\n\nimport \"./security/Pausable.sol\";\nimport \"./math/SafeMath.sol\";\n\ncontract DragonETH {\nfunction transferFrom(address _from, address _to, uint256 _tokenId) public;\nfunction safeTransferFrom(address _from, address _to, uint256 _tokenId) public;\n  \n}\n\ncontract FixMarketPlace is Pausable {\n    using SafeMath for uint256;\n    DragonETH public mainContract;\n    address wallet;\n    uint256 public totalDragonsToSale;\n    uint256 public minSellTime = 13; //~2 min\n    uint256 public maxSellTime = 259200; //~30 days??????\n    uint256 public ownersPercent = 50; // eq 5%\n    mapping(uint256 => address) dragonsOwner;\n    mapping(uint256 => uint256) public dragonPrices;\n    mapping(uint256 => uint256) public dragonsEndBlock;\n    uint256[] public dragonsList; \n    mapping(uint256 => uint256) dragonsListIndex;\n    //mapping (address => uint256[]) private ownedTokens;\n\n    function FixMarketPlace(address _wallet) public {\n        wallet = _wallet;\n    }\n\n    function _delItem(uint256 _dragonID) private {\n        delete(dragonsOwner[_dragonID]);\n        delete(dragonPrices[_dragonID]);\n        delete(dragonsEndBlock[_dragonID]);\n        if (totalDragonsToSale > 1) {\n            dragonsList[dragonsListIndex[_dragonID]] = dragonsList[dragonsList.length - 1];\n        }\n        dragonsList.length--;\n        delete(dragonsListIndex[_dragonID]);\n        totalDragonsToSale--;\n    }\n    function add2MarketPlace(address _dragonOwner, uint256 _dragonID, uint256 _dragonPrice, uint256 _endBlockNumber) external whenNotPaused returns (bool) {\n        require(msg.sender == address(mainContract));\n        require(_endBlockNumber  > minSellTime);\n        require(_endBlockNumber < maxSellTime ); //??????\n        require(_dragonPrice > 0);\n        dragonsOwner[_dragonID] = _dragonOwner;\n        dragonPrices[_dragonID] = _dragonPrice;\n        dragonsEndBlock[_dragonID] = block.number + _endBlockNumber;\n        dragonsListIndex[_dragonID] = dragonsList.length;\n        dragonsList.push(_dragonID);\n        totalDragonsToSale++;\n        return true;\n    }\n    \n    function delFromFixMarketPlace(uint256 _dragonID) external {\n            require(msg.sender == dragonsOwner[_dragonID] || dragonsEndBlock[_dragonID] < block.number);\n            mainContract.transferFrom(address(this), dragonsOwner[_dragonID], _dragonID);\n            _delItem(_dragonID);\n    }\n\n    function buyDragon(uint256 _dragonID) external payable whenNotPaused {\n        require(block.number <= dragonsEndBlock[_dragonID]);\n        uint256 _dragonCommisions = dragonPrices[_dragonID].mul(ownersPercent).div(1000);\n        require(msg.value >= dragonPrices[_dragonID].add(_dragonCommisions));\n        uint256 valueToReturn = msg.value.sub(dragonPrices[_dragonID]).sub(_dragonCommisions);\n        if (valueToReturn != 0) {\n            msg.sender.transfer(valueToReturn);\n        }\n    \n        mainContract.safeTransferFrom(address(this), msg.sender, _dragonID);\n        wallet.transfer(_dragonCommisions);\n        dragonsOwner[_dragonID].transfer(msg.value - valueToReturn - _dragonCommisions);\n        _delItem(_dragonID);        \n    }\n    function getAllDragonsSale() external view returns(uint256[]) {\n        return dragonsList;\n    }\n    function getDragonsToSale() external view returns(uint256[]) {\n        \n\n        if (totalDragonsToSale == 0) {\n            // Return an empty array\n            return new uint256[](0);\n        } else {\n            // !!!!!! need to test on time go to future\n            uint256[] memory result = new uint256[](totalDragonsToSale);\n            uint256 _dragonIndex;\n            uint256 _resultIndex = 0;\n\n            for (_dragonIndex = 0; _dragonIndex < totalDragonsToSale; _dragonIndex++) {\n                uint256 _dragonID = dragonsList[_dragonIndex];\n                if (dragonsEndBlock[_dragonID] > block.number) {\n                    result[_resultIndex] = _dragonID;\n                    _resultIndex++;\n                }\n            }\n\n            return result;\n        }\n    }\n    function clearStuxDragon(uint256 _start, uint256 _count) external whenNotPaused returns (uint256 _deleted) {\n        uint256 _dragonIndex;\n        \n        for(_dragonIndex=_start; _dragonIndex < _start + _count && _dragonIndex < dragonsList.length; _dragonIndex++) {\n            uint256 _dragonID = dragonsList[_dragonIndex];\n            if (dragonsEndBlock[_dragonID] < block.number) {\n                mainContract.transferFrom(address(this), dragonsOwner[_dragonID], _dragonID);\n                _delItem(_dragonID);\n                _deleted++;\n            }\n        }\n    }\n   \n    function changeAddressMainContract(address _newAddress) external onlyAdmin {\n        mainContract = DragonETH(_newAddress);\n    }\n    \n    function changeWallet(address _wallet) external onlyAdmin {\n        wallet = _wallet;\n    }\n\n    function changeMinSellTime(uint256 _minSellTime) external onlyAdmin {\n        minSellTime = _minSellTime;\n    }\n\n    function changeMaxSellTime(uint256 _maxSellTime) external onlyAdmin {\n        maxSellTime = _maxSellTime;\n    }\n\n    function changeOwnersPercent(uint256 _ownersPercent) external onlyAdmin {\n        ownersPercent = _ownersPercent;\n    }\n\n    function withdrawAllEther() external onlyAdmin {\n        require(wallet != 0);\n        wallet.transfer(address(this).balance);\n    }\n}\n\n",
  "sourcePath": "/home/k/work/eth/CD/DragonETH/contracts/contracts/FixMarketPlace.sol",
  "compiler": {
    "name": "solc",
    "version": "0.4.21+commit.dfe3193c.Emscripten.clang"
  },
  "schemaVersion": "2.0.0",
  "updatedAt": "2018-04-17T04:04:35.471Z"
}