{
  "contractName": "FixMarketPlace",
  "abi": [
    {
      "constant": true,
      "inputs": [
        {
          "name": "",
          "type": "uint256"
        }
      ],
      "name": "dragonsEndBlock",
      "outputs": [
        {
          "name": "",
          "type": "uint256"
        }
      ],
      "payable": false,
      "stateMutability": "view",
      "type": "function"
    },
    {
      "constant": false,
      "inputs": [],
      "name": "unpause",
      "outputs": [],
      "payable": false,
      "stateMutability": "nonpayable",
      "type": "function"
    },
    {
      "constant": true,
      "inputs": [
        {
          "name": "",
          "type": "uint256"
        }
      ],
      "name": "dragonPrices",
      "outputs": [
        {
          "name": "",
          "type": "uint256"
        }
      ],
      "payable": false,
      "stateMutability": "view",
      "type": "function"
    },
    {
      "constant": true,
      "inputs": [],
      "name": "paused",
      "outputs": [
        {
          "name": "",
          "type": "bool"
        }
      ],
      "payable": false,
      "stateMutability": "view",
      "type": "function"
    },
    {
      "constant": true,
      "inputs": [],
      "name": "MAX_BLOCK_TIME",
      "outputs": [
        {
          "name": "",
          "type": "uint256"
        }
      ],
      "payable": false,
      "stateMutability": "view",
      "type": "function"
    },
    {
      "constant": false,
      "inputs": [],
      "name": "destroy",
      "outputs": [],
      "payable": false,
      "stateMutability": "nonpayable",
      "type": "function"
    },
    {
      "constant": false,
      "inputs": [],
      "name": "pause",
      "outputs": [],
      "payable": false,
      "stateMutability": "nonpayable",
      "type": "function"
    },
    {
      "constant": true,
      "inputs": [],
      "name": "owner",
      "outputs": [
        {
          "name": "",
          "type": "address"
        }
      ],
      "payable": false,
      "stateMutability": "view",
      "type": "function"
    },
    {
      "constant": true,
      "inputs": [
        {
          "name": "",
          "type": "uint256"
        }
      ],
      "name": "dragonsList",
      "outputs": [
        {
          "name": "",
          "type": "uint256"
        }
      ],
      "payable": false,
      "stateMutability": "view",
      "type": "function"
    },
    {
      "constant": true,
      "inputs": [],
      "name": "PERCENT",
      "outputs": [
        {
          "name": "",
          "type": "uint256"
        }
      ],
      "payable": false,
      "stateMutability": "view",
      "type": "function"
    },
    {
      "constant": true,
      "inputs": [],
      "name": "mainContract",
      "outputs": [
        {
          "name": "",
          "type": "address"
        }
      ],
      "payable": false,
      "stateMutability": "view",
      "type": "function"
    },
    {
      "constant": true,
      "inputs": [],
      "name": "totalDragonsToSale",
      "outputs": [
        {
          "name": "",
          "type": "uint256"
        }
      ],
      "payable": false,
      "stateMutability": "view",
      "type": "function"
    },
    {
      "constant": false,
      "inputs": [
        {
          "name": "newOwner",
          "type": "address"
        }
      ],
      "name": "transferOwnership",
      "outputs": [],
      "payable": false,
      "stateMutability": "nonpayable",
      "type": "function"
    },
    {
      "constant": true,
      "inputs": [],
      "name": "MIN_BLOCK_TIME",
      "outputs": [
        {
          "name": "",
          "type": "uint256"
        }
      ],
      "payable": false,
      "stateMutability": "view",
      "type": "function"
    },
    {
      "inputs": [
        {
          "name": "_wallet",
          "type": "address"
        }
      ],
      "payable": false,
      "stateMutability": "nonpayable",
      "type": "constructor"
    },
    {
      "anonymous": false,
      "inputs": [],
      "name": "Pause",
      "type": "event"
    },
    {
      "anonymous": false,
      "inputs": [],
      "name": "Unpause",
      "type": "event"
    },
    {
      "anonymous": false,
      "inputs": [
        {
          "indexed": true,
          "name": "previousOwner",
          "type": "address"
        },
        {
          "indexed": true,
          "name": "newOwner",
          "type": "address"
        }
      ],
      "name": "OwnershipTransferred",
      "type": "event"
    },
    {
      "constant": false,
      "inputs": [
        {
          "name": "_newAddress",
          "type": "address"
        }
      ],
      "name": "changeAddressMainContract",
      "outputs": [],
      "payable": false,
      "stateMutability": "nonpayable",
      "type": "function"
    },
    {
      "constant": false,
      "inputs": [
        {
          "name": "_dragonOwner",
          "type": "address"
        },
        {
          "name": "_dragonID",
          "type": "uint256"
        },
        {
          "name": "_dragonPrice",
          "type": "uint256"
        },
        {
          "name": "_endBlockNumber",
          "type": "uint256"
        }
      ],
      "name": "addToFixMarketPlace",
      "outputs": [
        {
          "name": "sucsses",
          "type": "bool"
        }
      ],
      "payable": false,
      "stateMutability": "nonpayable",
      "type": "function"
    },
    {
      "constant": false,
      "inputs": [
        {
          "name": "_dragonID",
          "type": "uint256"
        }
      ],
      "name": "delFromFixMarketPlace",
      "outputs": [],
      "payable": false,
      "stateMutability": "nonpayable",
      "type": "function"
    },
    {
      "constant": false,
      "inputs": [
        {
          "name": "_dragonID",
          "type": "uint256"
        }
      ],
      "name": "buyDragon",
      "outputs": [],
      "payable": true,
      "stateMutability": "payable",
      "type": "function"
    },
    {
      "constant": true,
      "inputs": [],
      "name": "getAllDragonsSale",
      "outputs": [
        {
          "name": "",
          "type": "uint256[]"
        }
      ],
      "payable": false,
      "stateMutability": "view",
      "type": "function"
    },
    {
      "constant": true,
      "inputs": [],
      "name": "getDragonsToSale",
      "outputs": [
        {
          "name": "",
          "type": "uint256[]"
        }
      ],
      "payable": false,
      "stateMutability": "view",
      "type": "function"
    },
    {
      "constant": false,
      "inputs": [
        {
          "name": "_start",
          "type": "uint256"
        },
        {
          "name": "_count",
          "type": "uint256"
        }
      ],
      "name": "clearStuxDragon",
      "outputs": [
        {
          "name": "_deleted",
          "type": "uint256"
        }
      ],
      "payable": false,
      "stateMutability": "nonpayable",
      "type": "function"
    },
    {
      "constant": false,
      "inputs": [
        {
          "name": "_wallet",
          "type": "address"
        }
      ],
      "name": "changeWallet",
      "outputs": [],
      "payable": false,
      "stateMutability": "nonpayable",
      "type": "function"
    },
    {
      "constant": false,
      "inputs": [
        {
          "name": "_minBlockTime",
          "type": "uint256"
        }
      ],
      "name": "changeMinBlockTime",
      "outputs": [],
      "payable": false,
      "stateMutability": "nonpayable",
      "type": "function"
    },
    {
      "constant": false,
      "inputs": [
        {
          "name": "_maxBlockTime",
          "type": "uint256"
        }
      ],
      "name": "changeMaxBlockTime",
      "outputs": [],
      "payable": false,
      "stateMutability": "nonpayable",
      "type": "function"
    },
    {
      "constant": false,
      "inputs": [
        {
          "name": "_percent",
          "type": "uint256"
        }
      ],
      "name": "changePercent",
      "outputs": [],
      "payable": false,
      "stateMutability": "nonpayable",
      "type": "function"
    },
    {
      "constant": false,
      "inputs": [],
      "name": "withdrawAllEther",
      "outputs": [],
      "payable": false,
      "stateMutability": "nonpayable",
      "type": "function"
    }
  ],
  "bytecode": "0x60606040526000805460a060020a60ff0219169055600d6004556203f4806005556032600655341561003057600080fd5b604051602080610f318339810160405280805160008054600160a060020a03338116600160a060020a031992831617909255600280549290931691161790555050610eb1806100806000396000f30060606040526004361061013a5763ffffffff60e060020a600035041663280285c0811461013f5780632ff7a0581461016a57806331c91117146101805780633f4ba83a146101955780634a1f679b146101a857806351004341146101c75780635c975abb146101dd578063736d6865146102045780637b02242d1461021a578063812d6c401461022d57806383197ef0146102435780638456cb59146102565780638d159787146102695780638da5cb5b1461027457806398b9a2dc146102a3578063b2af0fb5146102c2578063b85a8b20146102d8578063d270e7ab146102eb578063d5051cc8146102fe578063d685a00314610364578063dbd484391461038c578063de82aad61461039f578063f11ec3fb146103b2578063f2fde38b146103c8578063f6027665146103e7578063fb6bbd2a146103fa575b600080fd5b341561014a57600080fd5b610158600435602435610410565b60405190815260200160405180910390f35b341561017557600080fd5b61015860043561052c565b341561018b57600080fd5b61019361053e565b005b34156101a057600080fd5b6101936105ab565b34156101b357600080fd5b610193600160a060020a036004351661062a565b34156101d257600080fd5b610158600435610674565b34156101e857600080fd5b6101f0610686565b604051901515815260200160405180910390f35b341561020f57600080fd5b610193600435610696565b341561022557600080fd5b61015861076f565b341561023857600080fd5b610193600435610775565b341561024e57600080fd5b610193610795565b341561026157600080fd5b6101936107a1565b610193600435610825565b341561027f57600080fd5b6102876109ce565b604051600160a060020a03909116815260200160405180910390f35b34156102ae57600080fd5b610193600160a060020a03600435166109dd565b34156102cd57600080fd5b610158600435610a27565b34156102e357600080fd5b610158610a46565b34156102f657600080fd5b610287610a4c565b341561030957600080fd5b610311610a5b565b60405160208082528190810183818151815260200191508051906020019060200280838360005b83811015610350578082015183820152602001610338565b505050509050019250505060405180910390f35b341561036f57600080fd5b6101f0600160a060020a0360043516602435604435606435610aba565b341561039757600080fd5b610158610ba1565b34156103aa57600080fd5b610311610ba7565b34156103bd57600080fd5b610193600435610c8f565b34156103d357600080fd5b610193600160a060020a0360043516610caf565b34156103f257600080fd5b610158610d4a565b341561040557600080fd5b610193600435610d50565b600080548190819060a060020a900460ff161561042c57600080fd5b8491505b838501821080156104425750600a5482105b1561052457600a80548390811061045557fe5b90600052602060002090015490504360096000838152602001908152602001600020541015610519576001546000828152600760205260409081902054600160a060020a03928316926323b872dd9230929091169085905160e060020a63ffffffff8616028152600160a060020a0393841660048201529190921660248201526044810191909152606401600060405180830381600087803b15156104f957600080fd5b5af1151561050657600080fd5b50505061051281610d70565b6001909201915b600190910190610430565b505092915050565b60096020526000908152604090205481565b60005433600160a060020a0390811691161461055957600080fd5b600254600160a060020a0316151561057057600080fd5b600254600160a060020a039081169030163180156108fc0290604051600060405180830381858888f1935050505015156105a957600080fd5b565b60005433600160a060020a039081169116146105c657600080fd5b60005460a060020a900460ff1615156105de57600080fd5b6000805474ff0000000000000000000000000000000000000000191690557f7805862f689e2f13df9f062ff482ad3ad112aca9e0847911ed832e158c525b3360405160405180910390a1565b60005433600160a060020a0390811691161461064557600080fd5b6001805473ffffffffffffffffffffffffffffffffffffffff1916600160a060020a0392909216919091179055565b60086020526000908152604090205481565b60005460a060020a900460ff1681565b60008181526007602052604090205433600160a060020a03908116911614806106cd57506000818152600960205260409020544390105b15156106d857600080fd5b6001546000828152600760205260409081902054600160a060020a03928316926323b872dd9230929091169085905160e060020a63ffffffff8616028152600160a060020a0393841660048201529190921660248201526044810191909152606401600060405180830381600087803b151561075357600080fd5b5af1151561076057600080fd5b50505061076c81610d70565b50565b60055481565b60005433600160a060020a0390811691161461079057600080fd5b600655565b33600160a060020a0316ff5b60005433600160a060020a039081169116146107bc57600080fd5b60005460a060020a900460ff16156107d357600080fd5b6000805474ff0000000000000000000000000000000000000000191660a060020a1790557f6985a02210a168e66602d3235cb6db0e70f92b3ba4d376a33c0f3d9434bff62560405160405180910390a1565b60008054819060a060020a900460ff161561083f57600080fd5b60008381526009602052604090205443111561085a57600080fd5b6006546000848152600860205260409020546103e8918102919091049250820134101561088657600080fd5b50600082815260086020526040902054340381900380156108d257600160a060020a03331681156108fc0282604051600060405180830381858888f1935050505015156108d257600080fd5b600154600160a060020a03166323b872dd30338660405160e060020a63ffffffff8616028152600160a060020a0393841660048201529190921660248201526044810191909152606401600060405180830381600087803b151561093557600080fd5b5af1151561094257600080fd5b5050600254600160a060020a0316905082156108fc0283604051600060405180830381858888f19350505050151561097957600080fd5b6000838152600760205260409081902054600160a060020a0316903483900384900380156108fc029151600060405180830381858888f1935050505015156109c057600080fd5b6109c983610d70565b505050565b600054600160a060020a031681565b60005433600160a060020a039081169116146109f857600080fd5b6002805473ffffffffffffffffffffffffffffffffffffffff1916600160a060020a0392909216919091179055565b600a805482908110610a3557fe5b600091825260209091200154905081565b60065481565b600154600160a060020a031681565b610a63610e36565b600a805480602002602001604051908101604052809291908181526020018280548015610aaf57602002820191906000526020600020905b815481526020019060010190808311610a9b575b505050505090505b90565b6000805460a060020a900460ff1615610ad257600080fd5b60015433600160a060020a03908116911614610aed57600080fd5b60045443018211610afd57600080fd5b438210610b0957600080fd5b60008311610b1657600080fd5b6000848152600760209081526040808320805473ffffffffffffffffffffffffffffffffffffffff1916600160a060020a038a161790556008825280832086905560098252808320859055600a8054600b909352922081905560018101610b7d8382610e48565b50600091825260209091200184905550600380546001908101909155949350505050565b60035481565b610baf610e36565b610bb7610e36565b600080600060035460001415610bee576000604051805910610bd65750595b90808252806020026020018201604052509450610c88565b600354604051805910610bfe5750595b9080825280602002602001820160405250935060009150600092505b600354831015610c8457600a805484908110610c3257fe5b90600052602060002090015490504360096000838152602001908152602001600020541115610c795780848381518110610c6857fe5b602090810290910101526001909101905b600190920191610c1a565b8394505b5050505090565b60005433600160a060020a03908116911614610caa57600080fd5b600455565b60005433600160a060020a03908116911614610cca57600080fd5b600160a060020a0381161515610cdf57600080fd5b600054600160a060020a0380831691167f8be0079c531659141344cd1fd0a4f28419497f9722a3daafe3b4186f6b6457e060405160405180910390a36000805473ffffffffffffffffffffffffffffffffffffffff1916600160a060020a0392909216919091179055565b60045481565b60005433600160a060020a03908116911614610d6b57600080fd5b600555565b6000818152600760209081526040808320805473ffffffffffffffffffffffffffffffffffffffff191690556008825280832083905560099091528120556003546001901115610e0757600a80546000198101908110610dcc57fe5b906000526020600020900154600a600b600084815260200190815260200160002054815481101515610dfa57fe5b6000918252602090912001555b600a805490610e1a906000198301610e48565b506000908152600b602052604081205560038054600019019055565b60206040519081016040526000815290565b8154818355818115116109c9576000838152602090206109c9918101908301610ab791905b80821115610e815760008155600101610e6d565b50905600a165627a7a723058208b349ec752c4b6d0aee8dd4100070009fb900174e36d808038806a34b15894030029",
  "source": "pragma solidity ^0.4.21;\n\nimport \"./ownership/Pausable.sol\";\n\ncontract DragonETH {\nfunction transferFrom(address _from, address _to, uint256 _tokenId) public;\n}\n\ncontract FixMarketPlace is Pausable {\n    DragonETH public mainContract;\n    address wallet;\n    uint256 public totalDragonsToSale;\n    uint256 public MIN_BLOCK_TIME = 13; //~2 min\n    uint256 public MAX_BLOCK_TIME = 259200; //~30 days??????\n    uint256 public PERCENT = 50; // eq 5%\n    mapping(uint256 => address) dragonsOwner;\n    mapping(uint256 => uint256) public dragonPrices;\n    mapping(uint256 => uint256) public dragonsEndBlock;\n    uint256[] public dragonsList; \n    mapping(uint256 => uint256) dragonsListIndex;\n    //mapping (address => uint256[]) private ownedTokens;\n\n    function FixMarketPlace(address _wallet) public {\n        wallet = _wallet;\n    }\n\n    function changeAddressMainContract(address _newAddress) external onlyOwner {\n        mainContract = DragonETH(_newAddress);\n    }\n    function _delItem(uint256 _dragonID) private {\n        delete(dragonsOwner[_dragonID]);\n        delete(dragonPrices[_dragonID]);\n        delete(dragonsEndBlock[_dragonID]);\n        if (totalDragonsToSale > 1) {\n            dragonsList[dragonsListIndex[_dragonID]] = dragonsList[dragonsList.length - 1];\n        }\n        dragonsList.length--;\n        delete(dragonsListIndex[_dragonID]);\n        totalDragonsToSale--;\n    }\n    function addToFixMarketPlace(address _dragonOwner, uint256 _dragonID, uint256 _dragonPrice, uint256 _endBlockNumber) external whenNotPaused returns (bool sucsses) {\n        require(msg.sender == address(mainContract));\n        require(_endBlockNumber  > block.number + MIN_BLOCK_TIME);\n        require(_endBlockNumber < block.number); // ??? + MAX_BLOCK_TIME );\n        require(_dragonPrice > 0);\n        dragonsOwner[_dragonID] = _dragonOwner;\n        dragonPrices[_dragonID] = _dragonPrice;\n        dragonsEndBlock[_dragonID] = _endBlockNumber;\n        dragonsListIndex[_dragonID] = dragonsList.length;\n        dragonsList.push(_dragonID);\n        totalDragonsToSale++;\n        return true;\n    }\n    \n    function delFromFixMarketPlace(uint256 _dragonID) external {\n            require(msg.sender == dragonsOwner[_dragonID] || dragonsEndBlock[_dragonID] < block.number);\n            mainContract.transferFrom(address(this), dragonsOwner[_dragonID], _dragonID);\n            _delItem(_dragonID);\n    }\n\n    function buyDragon(uint256 _dragonID) external payable whenNotPaused {\n        require(block.number <= dragonsEndBlock[_dragonID]);\n        uint256 _dragonCommisions = dragonPrices[_dragonID] * PERCENT / 1000;\n        require(msg.value >= dragonPrices[_dragonID] + _dragonCommisions);\n        uint256 valueToReturn = msg.value - dragonPrices[_dragonID] - _dragonCommisions;\n        if (valueToReturn != 0) {\n            msg.sender.transfer(valueToReturn);\n        }\n    \n        mainContract.transferFrom(address(this), msg.sender, _dragonID);\n        wallet.transfer(_dragonCommisions);\n        dragonsOwner[_dragonID].transfer(msg.value - valueToReturn - _dragonCommisions);\n        _delItem(_dragonID);        \n    }\n    function getAllDragonsSale() external view returns(uint256[]) {\n        return dragonsList;\n    }\n    function getDragonsToSale() external view returns(uint256[]) {\n        \n\n        if (totalDragonsToSale == 0) {\n            // Return an empty array\n            return new uint256[](0);\n        } else {\n            // !!!!!! need to test on time go to future\n            uint256[] memory result = new uint256[](totalDragonsToSale);\n            uint256 _dragonIndex;\n            uint256 _resultIndex = 0;\n\n            for (_dragonIndex = 0; _dragonIndex < totalDragonsToSale; _dragonIndex++) {\n                uint256 _dragonID = dragonsList[_dragonIndex];\n                if (dragonsEndBlock[_dragonID] > block.number) {\n                    result[_resultIndex] = _dragonID;\n                    _resultIndex++;\n                }\n            }\n\n            return result;\n        }\n    }\n    function clearStuxDragon(uint256 _start, uint256 _count) external whenNotPaused returns (uint256 _deleted) {\n        uint256 _dragonIndex;\n        \n        for(_dragonIndex=_start; _dragonIndex < _start + _count && _dragonIndex < dragonsList.length; _dragonIndex++) {\n            uint256 _dragonID = dragonsList[_dragonIndex];\n            if (dragonsEndBlock[_dragonID] < block.number) {\n                mainContract.transferFrom(address(this), dragonsOwner[_dragonID], _dragonID);\n                _delItem(_dragonID);\n                _deleted++;\n            }\n        }\n    }\n   \n    \n    function changeWallet(address _wallet) external onlyOwner {\n        wallet = _wallet;\n    }\n\n    function changeMinBlockTime(uint256 _minBlockTime) external onlyOwner {\n        MIN_BLOCK_TIME = _minBlockTime;\n    }\n\n    function changeMaxBlockTime(uint256 _maxBlockTime) external onlyOwner {\n        MAX_BLOCK_TIME = _maxBlockTime;\n    }\n\n    function changePercent(uint256 _percent) external onlyOwner {\n        PERCENT = _percent;\n    }\n\n    function withdrawAllEther() external onlyOwner {\n        require(wallet != 0);\n        wallet.transfer(address(this).balance);\n    }\n}\n\n",
  "sourcePath": "/home/k/work/eth/CD/DragonETH/contracts/contracts/FixMarketPlace.sol",
  "compiler": {
    "name": "solc",
    "version": "0.4.21+commit.dfe3193c.Emscripten.clang"
  },
  "schemaVersion": "2.0.0",
  "updatedAt": "2018-04-06T14:31:12.629Z"
}