{
  "contractName": "GenRNG",
  "abi": [
    {
      "constant": true,
      "inputs": [
        {
          "name": "addr",
          "type": "address"
        },
        {
          "name": "roleName",
          "type": "string"
        }
      ],
      "name": "checkRole",
      "outputs": [],
      "payable": false,
      "stateMutability": "view",
      "type": "function"
    },
    {
      "constant": true,
      "inputs": [
        {
          "name": "addr",
          "type": "address"
        },
        {
          "name": "roleName",
          "type": "string"
        }
      ],
      "name": "hasRole",
      "outputs": [
        {
          "name": "",
          "type": "bool"
        }
      ],
      "payable": false,
      "stateMutability": "view",
      "type": "function"
    },
    {
      "constant": false,
      "inputs": [
        {
          "name": "addr",
          "type": "address"
        }
      ],
      "name": "removeAddressFromWhitelist",
      "outputs": [
        {
          "name": "success",
          "type": "bool"
        }
      ],
      "payable": false,
      "stateMutability": "nonpayable",
      "type": "function"
    },
    {
      "constant": true,
      "inputs": [],
      "name": "ROLE_PAUSE_ADMIN",
      "outputs": [
        {
          "name": "",
          "type": "string"
        }
      ],
      "payable": false,
      "stateMutability": "view",
      "type": "function"
    },
    {
      "constant": false,
      "inputs": [
        {
          "name": "addr",
          "type": "address"
        }
      ],
      "name": "addAddressToWhitelist",
      "outputs": [
        {
          "name": "success",
          "type": "bool"
        }
      ],
      "payable": false,
      "stateMutability": "nonpayable",
      "type": "function"
    },
    {
      "constant": false,
      "inputs": [],
      "name": "destroy",
      "outputs": [],
      "payable": false,
      "stateMutability": "nonpayable",
      "type": "function"
    },
    {
      "constant": false,
      "inputs": [
        {
          "name": "addr",
          "type": "address"
        },
        {
          "name": "roleName",
          "type": "string"
        }
      ],
      "name": "adminRemoveRole",
      "outputs": [],
      "payable": false,
      "stateMutability": "nonpayable",
      "type": "function"
    },
    {
      "constant": true,
      "inputs": [
        {
          "name": "",
          "type": "address"
        }
      ],
      "name": "whitelist",
      "outputs": [
        {
          "name": "",
          "type": "bool"
        }
      ],
      "payable": false,
      "stateMutability": "view",
      "type": "function"
    },
    {
      "constant": false,
      "inputs": [
        {
          "name": "addr",
          "type": "address"
        },
        {
          "name": "roleName",
          "type": "string"
        }
      ],
      "name": "adminAddRole",
      "outputs": [],
      "payable": false,
      "stateMutability": "nonpayable",
      "type": "function"
    },
    {
      "constant": true,
      "inputs": [],
      "name": "ROLE_ADMIN",
      "outputs": [
        {
          "name": "",
          "type": "string"
        }
      ],
      "payable": false,
      "stateMutability": "view",
      "type": "function"
    },
    {
      "inputs": [
        {
          "name": "_addressRNG",
          "type": "address"
        }
      ],
      "payable": false,
      "stateMutability": "nonpayable",
      "type": "constructor"
    },
    {
      "anonymous": false,
      "inputs": [
        {
          "indexed": false,
          "name": "addr",
          "type": "address"
        }
      ],
      "name": "WhitelistedAddressAdded",
      "type": "event"
    },
    {
      "anonymous": false,
      "inputs": [
        {
          "indexed": false,
          "name": "addr",
          "type": "address"
        }
      ],
      "name": "WhitelistedAddressRemoved",
      "type": "event"
    },
    {
      "anonymous": false,
      "inputs": [
        {
          "indexed": false,
          "name": "addr",
          "type": "address"
        },
        {
          "indexed": false,
          "name": "roleName",
          "type": "string"
        }
      ],
      "name": "RoleAdded",
      "type": "event"
    },
    {
      "anonymous": false,
      "inputs": [
        {
          "indexed": false,
          "name": "addr",
          "type": "address"
        },
        {
          "indexed": false,
          "name": "roleName",
          "type": "string"
        }
      ],
      "name": "RoleRemoved",
      "type": "event"
    },
    {
      "constant": false,
      "inputs": [
        {
          "name": "_addressRNG",
          "type": "address"
        }
      ],
      "name": "changeAddressRNG",
      "outputs": [],
      "payable": false,
      "stateMutability": "nonpayable",
      "type": "function"
    },
    {
      "constant": false,
      "inputs": [
        {
          "name": "_from",
          "type": "address"
        },
        {
          "name": "_dragonID",
          "type": "uint256"
        }
      ],
      "name": "getNewGens",
      "outputs": [
        {
          "name": "resultGen",
          "type": "uint256[2]"
        }
      ],
      "payable": false,
      "stateMutability": "nonpayable",
      "type": "function"
    }
  ],
  "bytecode": "0x606060405234156200001057600080fd5b604051602080620013908339810160405280805191506200007590503360408051908101604052600581527f61646d696e000000000000000000000000000000000000000000000000000000602082015264010000000062000f9d620000e882021704565b620000c23360408051908101604052600a81527f706175736541646d696e00000000000000000000000000000000000000000000602082015264010000000062000f9d620000e882021704565b60028054600160a060020a031916600160a060020a03929092169190911790556200023f565b6200016a826000836040518082805190602001908083835b60208310620001215780518252601f19909201916020918201910162000100565b6001836020036101000a03801982511681845116808217855250505050505090500191505090815260200160405190819003902090640100000000620010a26200021a82021704565b7fbfec83d64eaa953f2708271a023ab9ee82057f8f3578d548c1a4ba0b5b7004898282604051600160a060020a038316815260406020820181815290820183818151815260200191508051906020019080838360005b83811015620001da578082015183820152602001620001c0565b50505050905090810190601f168015620002085780820380516001836020036101000a031916815260200191505b50935050505060405180910390a15050565b600160a060020a0316600090815260209190915260409020805460ff19166001179055565b611141806200024f6000396000f3006060604052600436106100b95763ffffffff7c01000000000000000000000000000000000000000000000000000000006000350416630988ca8c81146100be578063217fe6c61461011f578063286dd3f51461019257806347492352146101b15780634ae3164d1461023b5780637b9417c81461029557806383197ef0146102b457806388cee87e146102c75780639b19251a14610326578063b25fa92c14610345578063d391014b146103a4578063d7690770146103b7575b600080fd5b34156100c957600080fd5b61011d60048035600160a060020a03169060446024803590810190830135806020601f820181900481020160405190810160405281815292919060208401838380828437509496506103d695505050505050565b005b341561012a57600080fd5b61017e60048035600160a060020a03169060446024803590810190830135806020601f8201819004810201604051908101604052818152929190602084018383808284375094965061045095505050505050565b604051901515815260200160405180910390f35b341561019d57600080fd5b61017e600160a060020a03600435166104cf565b34156101bc57600080fd5b6101c4610582565b60405160208082528190810183818151815260200191508051906020019080838360005b838110156102005780820151838201526020016101e8565b50505050905090810190601f16801561022d5780820380516001836020036101000a031916815260200191505b509250505060405180910390f35b341561024657600080fd5b61025d600160a060020a03600435166024356105b9565b6040518082604080838360005b8381101561028257808201518382015260200161026a565b5050505090500191505060405180910390f35b34156102a057600080fd5b61017e600160a060020a0360043516610c90565b34156102bf57600080fd5b61011d610d48565b34156102d257600080fd5b61011d60048035600160a060020a03169060446024803590810190830135806020601f82018190048102016040519081016040528181529291906020840183838082843750949650610d5495505050505050565b341561033157600080fd5b61017e600160a060020a0360043516610d86565b341561035057600080fd5b61011d60048035600160a060020a03169060446024803590810190830135806020601f82018190048102016040519081016040528181529291906020840183838082843750949650610d9b95505050505050565b34156103af57600080fd5b6101c4610dcd565b34156103c257600080fd5b61011d600160a060020a0360043516610def565b61044c826000836040518082805190602001908083835b6020831061040c5780518252601f1990920191602091820191016103ed565b6001836020036101000a0380198251168184511680821785525050505050509050019150509081526020016040519081900390209063ffffffff610e4616565b5050565b60006104c8836000846040518082805190602001908083835b602083106104885780518252601f199092019160209182019101610469565b6001836020036101000a0380198251168184511680821785525050505050509050019150509081526020016040519081900390209063ffffffff610e5b16565b9392505050565b60006104f933604080519081016040526005815260d960020a6430b236b4b70260208201526103d6565b600160a060020a03821660009081526001602052604090205460ff161561057d57600160a060020a03821660009081526001602052604090819020805460ff191690557ff1abf01a1043b7c244d128e8595cf0c1d10743b022b03a02dffd8ca3bf729f5a90839051600160a060020a03909116815260200160405180910390a15060015b919050565b60408051908101604052600a81527f706175736541646d696e00000000000000000000000000000000000000000000602082015281565b6105c16110c7565b6105c96110ed565b600160a060020a03331660009081526001602052604090205460ff1615156105f057600080fd5b600254600160a060020a03166328af4c1485856040517c010000000000000000000000000000000000000000000000000000000063ffffffff8516028152600160a060020a03909216600483015260248201526044016040805180830381600087803b151561065e57600080fd5b5af1151561066b57600080fd5b5050506040516040818101905290506064815160011a60f860020a0260f860020a900460ff1681151561069a57fe5b0660ff1682510182526008825160029190910a0282526005815160021a60f860020a0260f860020a900460ff168115156106d057fe5b0660ff1682510182526008825160029190910a0282526005815160031a60f860020a0260f860020a900460ff1681151561070657fe5b0660ff1682510182526008825160029190910a0282526006815160041a60f860020a0260f860020a900460ff1681151561073c57fe5b0660ff1682510182526008825160029190910a0282526005815160051a60f860020a0260f860020a900460ff1681151561077257fe5b0660ff1682510182526008825160029190910a0282526005815160061a60f860020a0260f860020a900460ff168115156107a857fe5b0660ff1682510182526008825160029190910a0282526008815160071a60f860020a0260f860020a900460ff168115156107de57fe5b0660ff1682510182526008825160029190910a0282526005815160081a60f860020a0260f860020a900460ff1681151561081457fe5b0660ff1682510182526008825160029190910a0282526005815160091a60f860020a0260f860020a900460ff1681151561084a57fe5b0660ff1682510182526008825160029190910a02825260058151600a1a60f860020a0260f860020a900460ff1681151561088057fe5b0660ff1682510182526008825160029190910a02825260058151600b1a60f860020a0260f860020a900460ff168115156108b657fe5b0660ff1682510182526008825160029190910a028252600a8151600c1a60f860020a0260f860020a900460ff168115156108ec57fe5b0660ff1682510182526008825160029190910a02825260058151600d1a60f860020a0260f860020a900460ff1681151561092257fe5b0660ff1682510182526008825160029190910a02825260058151600e1a60f860020a0260f860020a900460ff1681151561095857fe5b0660ff1682510182526008825160029190910a02825260058151600f1a60f860020a0260f860020a900460ff1681151561098e57fe5b0660ff1682510182526008825160029190910a0282526008815160101a60f860020a0260f860020a900460ff168115156109c457fe5b0660ff1682510182526008825160029190910a0282526005815160111a60f860020a0260f860020a900460ff168115156109fa57fe5b0660ff1682510182526008825160029190910a0282526006815160121a60f860020a0260f860020a900460ff16811515610a3057fe5b0660ff1682510182526008825160029190910a0282526005815160131a60f860020a0260f860020a900460ff16811515610a6657fe5b0660ff1682510182526008825160029190910a028252805160141a60f860020a0260f860020a900460ff16826000600281101515610aa057fe5b60200201510182526008825160029190910a0282526005815160151a60f860020a0260f860020a900460ff16811515610ad557fe5b0660ff1682510182526008825160029190910a0282526005815160161a60f860020a0260f860020a900460ff16811515610b0b57fe5b0660ff1682510182526008825160029190910a0282526005815160171a60f860020a0260f860020a900460ff16811515610b4157fe5b0660ff1682510182526008825160029190910a0282526005815160181a60f860020a0260f860020a900460ff16811515610b7757fe5b0660ff1682510182526008825160029190910a0282526005815160191a60f860020a0260f860020a900460ff16811515610bad57fe5b0660ff1682510182526008825160029190910a0282526008825160029190910a02825260058151601b1a60f860020a0260f860020a900460ff16811515610bf057fe5b0660ff1682510182526008825160029190910a02825260058151601c1a60f860020a0260f860020a900460ff16811515610c2657fe5b0660ff1682510182526008825160029190910a02825260058151601d1a60f860020a0260f860020a900460ff16811515610c5c57fe5b0660ff1682510182526008825160029190910a0282526008825160029190910a028252602081015160208301525092915050565b6000610cba33604080519081016040526005815260d960020a6430b236b4b70260208201526103d6565b600160a060020a03821660009081526001602052604090205460ff16151561057d57600160a060020a038216600090815260016020819052604091829020805460ff191690911790557fd1bba68c128cc3f427e5831b3c6f99f480b6efa6b9e80c757768f6124158cc3f90839051600160a060020a03909116815260200160405180910390a1506001919050565b33600160a060020a0316ff5b610d7c33604080519081016040526005815260d960020a6430b236b4b70260208201526103d6565b61044c8282610e7a565b60016020526000908152604090205460ff1681565b610dc333604080519081016040526005815260d960020a6430b236b4b70260208201526103d6565b61044c8282610f9d565b604080519081016040526005815260d960020a6430b236b4b702602082015281565b610e1733604080519081016040526005815260d960020a6430b236b4b70260208201526103d6565b6002805473ffffffffffffffffffffffffffffffffffffffff1916600160a060020a0392909216919091179055565b610e508282610e5b565b151561044c57600080fd5b600160a060020a03166000908152602091909152604090205460ff1690565b610ef0826000836040518082805190602001908083835b60208310610eb05780518252601f199092019160209182019101610e91565b6001836020036101000a0380198251168184511680821785525050505050509050019150509081526020016040519081900390209063ffffffff61108016565b7fd211483f91fc6eff862467f8de606587a30c8fc9981056f051b897a418df803a8282604051600160a060020a038316815260406020820181815290820183818151815260200191508051906020019080838360005b83811015610f5e578082015183820152602001610f46565b50505050905090810190601f168015610f8b5780820380516001836020036101000a031916815260200191505b50935050505060405180910390a15050565b611013826000836040518082805190602001908083835b60208310610fd35780518252601f199092019160209182019101610fb4565b6001836020036101000a0380198251168184511680821785525050505050509050019150509081526020016040519081900390209063ffffffff6110a216565b7fbfec83d64eaa953f2708271a023ab9ee82057f8f3578d548c1a4ba0b5b7004898282604051600160a060020a0383168152604060208201818152908201838181518152602001915080519060200190808383600083811015610f5e578082015183820152602001610f46565b600160a060020a0316600090815260209190915260409020805460ff19169055565b600160a060020a0316600090815260209190915260409020805460ff19166001179055565b604080519081016040526002815b60008152602001906001900390816110d55790505090565b604080519081016040526002815b600081526000199190910190602001816110fb57905050905600a165627a7a7230582088e7398b79e47fda250b48e539ea9fbfd7fa56721ba2a5de1912cc9b0d9971660029",
  "source": "pragma solidity ^0.4.21;\n\nimport \"../security/Whitelist.sol\";\n\ncontract RNG {\nfunction get2b32(address _from, uint256 _dragonID) external returns (bytes32[2] b32);\n}\ncontract GenRNG is Whitelist {\n\n  address private addressRNG;\n\n  function GenRNG(address _addressRNG) public {\n  addressRNG = _addressRNG;\n}\n\nfunction changeAddressRNG(address _addressRNG) external onlyAdmin {\n  addressRNG = _addressRNG;\n}\n\n  function getNewGens(address _from, uint256 _dragonID) external onlyWhitelisted returns (uint256[2] resultGen) {\n   bytes32[2] memory random_number;\n   random_number = RNG(addressRNG).get2b32(_from, _dragonID);\n   //00 rezerved(for color) 00h - 00h\n//01 detailColorSchemaGen = 00h - 63h (99d)\n    resultGen[0] = resultGen[0] + uint8(random_number[0][1]) % 100;\n    resultGen[0] = resultGen[0] << 8;\n//02*detailAuraGen = 00h - 04h\n    resultGen[0] = resultGen[0] + uint8(random_number[0][2]) % 5;\n    resultGen[0] = resultGen[0] << 8;\n//03 detailAuraColorGen = 00h - 04h\n    resultGen[0] = resultGen[0] + uint8(random_number[0][3]) % 5;\n    resultGen[0] = resultGen[0] << 8;\n//04 *detailWingsGen = 00h - 05h\n    resultGen[0] = resultGen[0] + uint8(random_number[0][4]) % 6;\n    resultGen[0] = resultGen[0] << 8;\n//05 detailWingsColor1Gen = 00h - 04h\n    resultGen[0] = resultGen[0] + uint8(random_number[0][5]) % 5;\n    resultGen[0] = resultGen[0] << 8;\n//06 detailWingsColor2Gen = 00h - 04h\n    resultGen[0] = resultGen[0] + uint8(random_number[0][6]) % 5;\n    resultGen[0] = resultGen[0] << 8;\n//07 *detailTailGen = 00h - 07h\n    resultGen[0] = resultGen[0] + uint8(random_number[0][7]) % 8;\n    resultGen[0] = resultGen[0] << 8;\n//08 detailTailColor1Gen = 00h - 04h\n    resultGen[0] = resultGen[0] + uint8(random_number[0][8]) % 5;\n    resultGen[0] = resultGen[0] << 8;\n//09 detailTailColor2Gen = 00h - 04h\n    resultGen[0] = resultGen[0] + uint8(random_number[0][9]) % 5;\n    resultGen[0] = resultGen[0] << 8;\n//10 +detailBodyGen = 00h - 04h\n    resultGen[0] = resultGen[0] + uint8(random_number[0][10]) % 5;\n    resultGen[0] = resultGen[0] << 8;\n//11 detailBodyColorGen = 00h - 04h\n    resultGen[0] = resultGen[0] + uint8(random_number[0][11]) % 5;\n    resultGen[0] = resultGen[0] << 8;\n//12 *detailSpotsGen = 00h - 09h\n    resultGen[0] = resultGen[0] + uint8(random_number[0][12]) % 10;\n    resultGen[0] = resultGen[0] << 8;\n//13 detailSpotsColorGen = 00h - 04h\n    resultGen[0] = resultGen[0] + uint8(random_number[0][13]) % 5;\n    resultGen[0] = resultGen[0] << 8;\n//14 *detailScalesGen = 00h - 04h\n    resultGen[0] = resultGen[0] + uint8(random_number[0][14]) % 5;\n    resultGen[0] = resultGen[0] << 8;\n//15 detailScalesColorGen = 00h - 04h\n    resultGen[0] = resultGen[0] + uint8(random_number[0][15]) % 5;\n    resultGen[0] = resultGen[0] << 8;\n//16 *detailHornsGen = 00h - 07h\n    resultGen[0] = resultGen[0] + uint8(random_number[0][16]) % 8;\n    resultGen[0] = resultGen[0] << 8;\n//17 --detailHornsColorGen = 00h - 04h\n    resultGen[0] = resultGen[0] + uint8(random_number[0][17]) % 5;\n    resultGen[0] = resultGen[0] << 8;\n//18 *detailHeadGen = 00h - 04h\n    resultGen[0] = resultGen[0] + uint8(random_number[0][18]) % 6;\n    resultGen[0] = resultGen[0] << 8;\n//19 detailHeadColorGen = 00h - 04h\n    resultGen[0] = resultGen[0] + uint8(random_number[0][19]) % 5;\n    resultGen[0] = resultGen[0] << 8;\n//20 mutagenImutable 00h-FFh\n    resultGen[0] = resultGen[0] + uint8(random_number[0][20]);\n    resultGen[0] = resultGen[0] << 8;\n//21 *detailClawsGen = 00h - 04h\n    resultGen[0] = resultGen[0] + uint8(random_number[0][21]) % 5;\n    resultGen[0] = resultGen[0] << 8;\n//22 detailClawsColor1Gen = 00h - 04h\n    resultGen[0] = resultGen[0] + uint8(random_number[0][22]) % 5;\n    resultGen[0] = resultGen[0] << 8;\n//23 detailClawsColor2Gen = 00h - 04h\n    resultGen[0] = resultGen[0] + uint8(random_number[0][23]) % 5;\n    resultGen[0] = resultGen[0] << 8;\n//24 ?detailEyesGen = 00h - 04h\n    resultGen[0] = resultGen[0] + uint8(random_number[0][24]) % 5;\n    resultGen[0] = resultGen[0] << 8;\n//25 detailEyesColor1Gen = 00h - 04h\n    resultGen[0] = resultGen[0] + uint8(random_number[0][25]) % 5;\n    resultGen[0] = resultGen[0] << 8;\n//26 detailEyesColor2Gen = 00h - 04h\n    //resultGen[0] = resultGen[0] + uint8(random_number[0][26]) % 5;\n    resultGen[0] = resultGen[0] << 8;\n//27 *detailSpikesGen = 00h - 04h\n    resultGen[0] = resultGen[0] + uint8(random_number[0][27]) % 5;\n    resultGen[0] = resultGen[0] << 8;\n//28 detailSpikesColor1Gen = 00h - 04h\n    resultGen[0] = resultGen[0] + uint8(random_number[0][28]) % 5;\n    resultGen[0] = resultGen[0] << 8;\n//29 detailSpikesColor2Gen = 00h - 04h\n    resultGen[0] = resultGen[0] + uint8(random_number[0][29]) % 5;\n    resultGen[0] = resultGen[0] << 8;\n//30 rezerved 00h - 00h\n//31 rezerved 00h - 00h\n\n\n    resultGen[0] = resultGen[0] << 8;\n    resultGen[1] = uint256(random_number[1]);\n  }\n}\n",
  "sourcePath": "/home/k/work/eth/CD/DragonETH/contracts/contracts/private/GenRNG.sol",
  "compiler": {
    "name": "solc",
    "version": "0.4.21+commit.dfe3193c.Emscripten.clang"
  },
  "schemaVersion": "2.0.0",
  "updatedAt": "2018-04-17T04:04:35.474Z"
}