{
  "contractName": "GenRNG",
  "abi": [
    {
      "constant": false,
      "inputs": [
        {
          "name": "addr",
          "type": "address"
        }
      ],
      "name": "removeAddressFromWhitelist",
      "outputs": [
        {
          "name": "success",
          "type": "bool"
        }
      ],
      "payable": false,
      "stateMutability": "nonpayable",
      "type": "function"
    },
    {
      "constant": false,
      "inputs": [
        {
          "name": "addr",
          "type": "address"
        }
      ],
      "name": "addAddressToWhitelist",
      "outputs": [
        {
          "name": "success",
          "type": "bool"
        }
      ],
      "payable": false,
      "stateMutability": "nonpayable",
      "type": "function"
    },
    {
      "constant": false,
      "inputs": [],
      "name": "destroy",
      "outputs": [],
      "payable": false,
      "stateMutability": "nonpayable",
      "type": "function"
    },
    {
      "constant": true,
      "inputs": [],
      "name": "owner",
      "outputs": [
        {
          "name": "",
          "type": "address"
        }
      ],
      "payable": false,
      "stateMutability": "view",
      "type": "function"
    },
    {
      "constant": true,
      "inputs": [
        {
          "name": "",
          "type": "address"
        }
      ],
      "name": "whitelist",
      "outputs": [
        {
          "name": "",
          "type": "bool"
        }
      ],
      "payable": false,
      "stateMutability": "view",
      "type": "function"
    },
    {
      "constant": false,
      "inputs": [
        {
          "name": "newOwner",
          "type": "address"
        }
      ],
      "name": "transferOwnership",
      "outputs": [],
      "payable": false,
      "stateMutability": "nonpayable",
      "type": "function"
    },
    {
      "inputs": [
        {
          "name": "_addressRNG",
          "type": "address"
        }
      ],
      "payable": false,
      "stateMutability": "nonpayable",
      "type": "constructor"
    },
    {
      "anonymous": false,
      "inputs": [
        {
          "indexed": false,
          "name": "addr",
          "type": "address"
        }
      ],
      "name": "WhitelistedAddressAdded",
      "type": "event"
    },
    {
      "anonymous": false,
      "inputs": [
        {
          "indexed": false,
          "name": "addr",
          "type": "address"
        }
      ],
      "name": "WhitelistedAddressRemoved",
      "type": "event"
    },
    {
      "anonymous": false,
      "inputs": [
        {
          "indexed": true,
          "name": "previousOwner",
          "type": "address"
        },
        {
          "indexed": true,
          "name": "newOwner",
          "type": "address"
        }
      ],
      "name": "OwnershipTransferred",
      "type": "event"
    },
    {
      "constant": false,
      "inputs": [
        {
          "name": "_addressRNG",
          "type": "address"
        }
      ],
      "name": "changeAddressRNG",
      "outputs": [],
      "payable": false,
      "stateMutability": "nonpayable",
      "type": "function"
    },
    {
      "constant": false,
      "inputs": [
        {
          "name": "_from",
          "type": "address"
        },
        {
          "name": "_dragonID",
          "type": "uint256"
        }
      ],
      "name": "getNewGens",
      "outputs": [
        {
          "name": "resultGen",
          "type": "uint256[2]"
        }
      ],
      "payable": false,
      "stateMutability": "nonpayable",
      "type": "function"
    }
  ],
  "bytecode": "0x6060604052341561000f57600080fd5b604051602080610bf38339810160405280805160008054600160a060020a03338116600160a060020a031992831617909255600280549290931691161790555050610b948061005f6000396000f30060606040526004361061008d5763ffffffff7c0100000000000000000000000000000000000000000000000000000000600035041663286dd3f581146100925780634ae3164d146100c55780637b9417c81461011f57806383197ef01461013e5780638da5cb5b146101535780639b19251a14610182578063d7690770146101a1578063f2fde38b146101c0575b600080fd5b341561009d57600080fd5b6100b1600160a060020a03600435166101df565b604051901515815260200160405180910390f35b34156100d057600080fd5b6100e7600160a060020a0360043516602435610284565b6040518082604080838360005b8381101561010c5780820151838201526020016100f4565b5050505090500191505060405180910390f35b341561012a57600080fd5b6100b1600160a060020a036004351661095b565b341561014957600080fd5b610151610a05565b005b341561015e57600080fd5b610166610a11565b604051600160a060020a03909116815260200160405180910390f35b341561018d57600080fd5b6100b1600160a060020a0360043516610a20565b34156101ac57600080fd5b610151600160a060020a0360043516610a35565b34156101cb57600080fd5b610151600160a060020a0360043516610a7f565b6000805433600160a060020a039081169116146101fb57600080fd5b600160a060020a03821660009081526001602052604090205460ff161561027f57600160a060020a03821660009081526001602052604090819020805460ff191690557ff1abf01a1043b7c244d128e8595cf0c1d10743b022b03a02dffd8ca3bf729f5a90839051600160a060020a03909116815260200160405180910390a15060015b919050565b61028c610b1a565b610294610b40565b600160a060020a03331660009081526001602052604090205460ff1615156102bb57600080fd5b600254600160a060020a03166328af4c1485856040517c010000000000000000000000000000000000000000000000000000000063ffffffff8516028152600160a060020a03909216600483015260248201526044016040805180830381600087803b151561032957600080fd5b5af1151561033657600080fd5b5050506040516040818101905290506064815160011a60f860020a0260f860020a900460ff1681151561036557fe5b0660ff1682510182526008825160029190910a0282526005815160021a60f860020a0260f860020a900460ff1681151561039b57fe5b0660ff1682510182526008825160029190910a0282526005815160031a60f860020a0260f860020a900460ff168115156103d157fe5b0660ff1682510182526008825160029190910a0282526006815160041a60f860020a0260f860020a900460ff1681151561040757fe5b0660ff1682510182526008825160029190910a0282526005815160051a60f860020a0260f860020a900460ff1681151561043d57fe5b0660ff1682510182526008825160029190910a0282526005815160061a60f860020a0260f860020a900460ff1681151561047357fe5b0660ff1682510182526008825160029190910a0282526008815160071a60f860020a0260f860020a900460ff168115156104a957fe5b0660ff1682510182526008825160029190910a0282526005815160081a60f860020a0260f860020a900460ff168115156104df57fe5b0660ff1682510182526008825160029190910a0282526005815160091a60f860020a0260f860020a900460ff1681151561051557fe5b0660ff1682510182526008825160029190910a02825260058151600a1a60f860020a0260f860020a900460ff1681151561054b57fe5b0660ff1682510182526008825160029190910a02825260058151600b1a60f860020a0260f860020a900460ff1681151561058157fe5b0660ff1682510182526008825160029190910a028252600a8151600c1a60f860020a0260f860020a900460ff168115156105b757fe5b0660ff1682510182526008825160029190910a02825260058151600d1a60f860020a0260f860020a900460ff168115156105ed57fe5b0660ff1682510182526008825160029190910a02825260058151600e1a60f860020a0260f860020a900460ff1681151561062357fe5b0660ff1682510182526008825160029190910a02825260058151600f1a60f860020a0260f860020a900460ff1681151561065957fe5b0660ff1682510182526008825160029190910a0282526008815160101a60f860020a0260f860020a900460ff1681151561068f57fe5b0660ff1682510182526008825160029190910a0282526005815160111a60f860020a0260f860020a900460ff168115156106c557fe5b0660ff1682510182526008825160029190910a0282526006815160121a60f860020a0260f860020a900460ff168115156106fb57fe5b0660ff1682510182526008825160029190910a0282526005815160131a60f860020a0260f860020a900460ff1681151561073157fe5b0660ff1682510182526008825160029190910a028252805160141a60f860020a0260f860020a900460ff1682600060028110151561076b57fe5b60200201510182526008825160029190910a0282526005815160151a60f860020a0260f860020a900460ff168115156107a057fe5b0660ff1682510182526008825160029190910a0282526005815160161a60f860020a0260f860020a900460ff168115156107d657fe5b0660ff1682510182526008825160029190910a0282526005815160171a60f860020a0260f860020a900460ff1681151561080c57fe5b0660ff1682510182526008825160029190910a0282526005815160181a60f860020a0260f860020a900460ff1681151561084257fe5b0660ff1682510182526008825160029190910a0282526005815160191a60f860020a0260f860020a900460ff1681151561087857fe5b0660ff1682510182526008825160029190910a0282526008825160029190910a02825260058151601b1a60f860020a0260f860020a900460ff168115156108bb57fe5b0660ff1682510182526008825160029190910a02825260058151601c1a60f860020a0260f860020a900460ff168115156108f157fe5b0660ff1682510182526008825160029190910a02825260058151601d1a60f860020a0260f860020a900460ff1681151561092757fe5b0660ff1682510182526008825160029190910a0282526008825160029190910a028252602081015160208301525092915050565b6000805433600160a060020a0390811691161461097757600080fd5b600160a060020a03821660009081526001602052604090205460ff16151561027f57600160a060020a038216600090815260016020819052604091829020805460ff191690911790557fd1bba68c128cc3f427e5831b3c6f99f480b6efa6b9e80c757768f6124158cc3f90839051600160a060020a03909116815260200160405180910390a1506001919050565b33600160a060020a0316ff5b600054600160a060020a031681565b60016020526000908152604090205460ff1681565b60005433600160a060020a03908116911614610a5057600080fd5b6002805473ffffffffffffffffffffffffffffffffffffffff1916600160a060020a0392909216919091179055565b60005433600160a060020a03908116911614610a9a57600080fd5b600160a060020a0381161515610aaf57600080fd5b600054600160a060020a0380831691167f8be0079c531659141344cd1fd0a4f28419497f9722a3daafe3b4186f6b6457e060405160405180910390a36000805473ffffffffffffffffffffffffffffffffffffffff1916600160a060020a0392909216919091179055565b604080519081016040526002815b6000815260200190600190039081610b285790505090565b604080519081016040526002815b60008152600019919091019060200181610b4e57905050905600a165627a7a7230582097b73772e95ef8176bde538a0c05e391d0697955918194d52c60948e8854c2a00029",
  "source": "pragma solidity ^0.4.21;\n\nimport \"../security/Whitelist.sol\";\n\ncontract RNG {\nfunction get2b32(address _from, uint256 _dragonID) external returns (bytes32[2] b32);\n}\ncontract GenRNG is Whitelist {\n\n  address private addressRNG;\n\n  function GenRNG(address _addressRNG) public {\n  addressRNG = _addressRNG;\n}\n\nfunction changeAddressRNG(address _addressRNG) external onlyOwner {\n  addressRNG = _addressRNG;\n}\n\n  function getNewGens(address _from, uint256 _dragonID) external onlyWhitelisted returns (uint256[2] resultGen) {\n   bytes32[2] memory random_number;\n   random_number = RNG(addressRNG).get2b32(_from, _dragonID);\n   //00 rezerved(for color) 00h - 00h\n//01 detailColorSchemaGen = 00h - 63h (99d)\n    resultGen[0] = resultGen[0] + uint8(random_number[0][1]) % 100;\n    resultGen[0] = resultGen[0] << 8;\n//02*detailAuraGen = 00h - 04h\n    resultGen[0] = resultGen[0] + uint8(random_number[0][2]) % 5;\n    resultGen[0] = resultGen[0] << 8;\n//03 detailAuraColorGen = 00h - 04h\n    resultGen[0] = resultGen[0] + uint8(random_number[0][3]) % 5;\n    resultGen[0] = resultGen[0] << 8;\n//04 *detailWingsGen = 00h - 05h\n    resultGen[0] = resultGen[0] + uint8(random_number[0][4]) % 6;\n    resultGen[0] = resultGen[0] << 8;\n//05 detailWingsColor1Gen = 00h - 04h\n    resultGen[0] = resultGen[0] + uint8(random_number[0][5]) % 5;\n    resultGen[0] = resultGen[0] << 8;\n//06 detailWingsColor2Gen = 00h - 04h\n    resultGen[0] = resultGen[0] + uint8(random_number[0][6]) % 5;\n    resultGen[0] = resultGen[0] << 8;\n//07 *detailTailGen = 00h - 07h\n    resultGen[0] = resultGen[0] + uint8(random_number[0][7]) % 8;\n    resultGen[0] = resultGen[0] << 8;\n//08 detailTailColor1Gen = 00h - 04h\n    resultGen[0] = resultGen[0] + uint8(random_number[0][8]) % 5;\n    resultGen[0] = resultGen[0] << 8;\n//09 detailTailColor2Gen = 00h - 04h\n    resultGen[0] = resultGen[0] + uint8(random_number[0][9]) % 5;\n    resultGen[0] = resultGen[0] << 8;\n//10 +detailBodyGen = 00h - 04h\n    resultGen[0] = resultGen[0] + uint8(random_number[0][10]) % 5;\n    resultGen[0] = resultGen[0] << 8;\n//11 detailBodyColorGen = 00h - 04h\n    resultGen[0] = resultGen[0] + uint8(random_number[0][11]) % 5;\n    resultGen[0] = resultGen[0] << 8;\n//12 *detailSpotsGen = 00h - 09h\n    resultGen[0] = resultGen[0] + uint8(random_number[0][12]) % 10;\n    resultGen[0] = resultGen[0] << 8;\n//13 detailSpotsColorGen = 00h - 04h\n    resultGen[0] = resultGen[0] + uint8(random_number[0][13]) % 5;\n    resultGen[0] = resultGen[0] << 8;\n//14 *detailScalesGen = 00h - 04h\n    resultGen[0] = resultGen[0] + uint8(random_number[0][14]) % 5;\n    resultGen[0] = resultGen[0] << 8;\n//15 detailScalesColorGen = 00h - 04h\n    resultGen[0] = resultGen[0] + uint8(random_number[0][15]) % 5;\n    resultGen[0] = resultGen[0] << 8;\n//16 *detailHornsGen = 00h - 07h\n    resultGen[0] = resultGen[0] + uint8(random_number[0][16]) % 8;\n    resultGen[0] = resultGen[0] << 8;\n//17 --detailHornsColorGen = 00h - 04h\n    resultGen[0] = resultGen[0] + uint8(random_number[0][17]) % 5;\n    resultGen[0] = resultGen[0] << 8;\n//18 *detailHeadGen = 00h - 04h\n    resultGen[0] = resultGen[0] + uint8(random_number[0][18]) % 6;\n    resultGen[0] = resultGen[0] << 8;\n//19 detailHeadColorGen = 00h - 04h\n    resultGen[0] = resultGen[0] + uint8(random_number[0][19]) % 5;\n    resultGen[0] = resultGen[0] << 8;\n//20 mutagenImutable 00h-FFh\n    resultGen[0] = resultGen[0] + uint8(random_number[0][20]);\n    resultGen[0] = resultGen[0] << 8;\n//21 *detailClawsGen = 00h - 04h\n    resultGen[0] = resultGen[0] + uint8(random_number[0][21]) % 5;\n    resultGen[0] = resultGen[0] << 8;\n//22 detailClawsColor1Gen = 00h - 04h\n    resultGen[0] = resultGen[0] + uint8(random_number[0][22]) % 5;\n    resultGen[0] = resultGen[0] << 8;\n//23 detailClawsColor2Gen = 00h - 04h\n    resultGen[0] = resultGen[0] + uint8(random_number[0][23]) % 5;\n    resultGen[0] = resultGen[0] << 8;\n//24 ?detailEyesGen = 00h - 04h\n    resultGen[0] = resultGen[0] + uint8(random_number[0][24]) % 5;\n    resultGen[0] = resultGen[0] << 8;\n//25 detailEyesColor1Gen = 00h - 04h\n    resultGen[0] = resultGen[0] + uint8(random_number[0][25]) % 5;\n    resultGen[0] = resultGen[0] << 8;\n//26 detailEyesColor2Gen = 00h - 04h\n    //resultGen[0] = resultGen[0] + uint8(random_number[0][26]) % 5;\n    resultGen[0] = resultGen[0] << 8;\n//27 *detailSpikesGen = 00h - 04h\n    resultGen[0] = resultGen[0] + uint8(random_number[0][27]) % 5;\n    resultGen[0] = resultGen[0] << 8;\n//28 detailSpikesColor1Gen = 00h - 04h\n    resultGen[0] = resultGen[0] + uint8(random_number[0][28]) % 5;\n    resultGen[0] = resultGen[0] << 8;\n//29 detailSpikesColor2Gen = 00h - 04h\n    resultGen[0] = resultGen[0] + uint8(random_number[0][29]) % 5;\n    resultGen[0] = resultGen[0] << 8;\n//30 rezerved 00h - 00h\n//31 rezerved 00h - 00h\n\n\n    resultGen[0] = resultGen[0] << 8;\n    resultGen[1] = uint256(random_number[1]);\n  }\n}\n",
  "sourcePath": "/home/k/work/eth/CD/DragonETH/contracts/contracts/private/GenRNG.sol",
  "compiler": {
    "name": "solc",
    "version": "0.4.21+commit.dfe3193c.Emscripten.clang"
  },
  "schemaVersion": "2.0.0",
  "updatedAt": "2018-04-16T22:46:31.763Z"
}