{
  "contractName": "MintableToken",
  "abi": [
    {
      "constant": false,
      "inputs": [
        {
          "name": "_spender",
          "type": "address"
        },
        {
          "name": "_value",
          "type": "uint256"
        }
      ],
      "name": "approve",
      "outputs": [
        {
          "name": "",
          "type": "bool"
        }
      ],
      "payable": false,
      "stateMutability": "nonpayable",
      "type": "function"
    },
    {
      "constant": true,
      "inputs": [
        {
          "name": "addr",
          "type": "address"
        },
        {
          "name": "roleName",
          "type": "string"
        }
      ],
      "name": "checkRole",
      "outputs": [],
      "payable": false,
      "stateMutability": "view",
      "type": "function"
    },
    {
      "constant": true,
      "inputs": [],
      "name": "totalSupply",
      "outputs": [
        {
          "name": "",
          "type": "uint256"
        }
      ],
      "payable": false,
      "stateMutability": "view",
      "type": "function"
    },
    {
      "constant": true,
      "inputs": [
        {
          "name": "addr",
          "type": "address"
        },
        {
          "name": "roleName",
          "type": "string"
        }
      ],
      "name": "hasRole",
      "outputs": [
        {
          "name": "",
          "type": "bool"
        }
      ],
      "payable": false,
      "stateMutability": "view",
      "type": "function"
    },
    {
      "constant": false,
      "inputs": [
        {
          "name": "_from",
          "type": "address"
        },
        {
          "name": "_to",
          "type": "address"
        },
        {
          "name": "_value",
          "type": "uint256"
        }
      ],
      "name": "transferFrom",
      "outputs": [
        {
          "name": "",
          "type": "bool"
        }
      ],
      "payable": false,
      "stateMutability": "nonpayable",
      "type": "function"
    },
    {
      "constant": false,
      "inputs": [
        {
          "name": "_spender",
          "type": "address"
        },
        {
          "name": "_subtractedValue",
          "type": "uint256"
        }
      ],
      "name": "decreaseApproval",
      "outputs": [
        {
          "name": "",
          "type": "bool"
        }
      ],
      "payable": false,
      "stateMutability": "nonpayable",
      "type": "function"
    },
    {
      "constant": true,
      "inputs": [
        {
          "name": "_owner",
          "type": "address"
        }
      ],
      "name": "balanceOf",
      "outputs": [
        {
          "name": "balance",
          "type": "uint256"
        }
      ],
      "payable": false,
      "stateMutability": "view",
      "type": "function"
    },
    {
      "constant": false,
      "inputs": [],
      "name": "destroy",
      "outputs": [],
      "payable": false,
      "stateMutability": "nonpayable",
      "type": "function"
    },
    {
      "constant": false,
      "inputs": [
        {
          "name": "addr",
          "type": "address"
        },
        {
          "name": "roleName",
          "type": "string"
        }
      ],
      "name": "adminRemoveRole",
      "outputs": [],
      "payable": false,
      "stateMutability": "nonpayable",
      "type": "function"
    },
    {
      "constant": false,
      "inputs": [
        {
          "name": "_to",
          "type": "address"
        },
        {
          "name": "_value",
          "type": "uint256"
        }
      ],
      "name": "transfer",
      "outputs": [
        {
          "name": "",
          "type": "bool"
        }
      ],
      "payable": false,
      "stateMutability": "nonpayable",
      "type": "function"
    },
    {
      "constant": false,
      "inputs": [
        {
          "name": "addr",
          "type": "address"
        },
        {
          "name": "roleName",
          "type": "string"
        }
      ],
      "name": "adminAddRole",
      "outputs": [],
      "payable": false,
      "stateMutability": "nonpayable",
      "type": "function"
    },
    {
      "constant": true,
      "inputs": [],
      "name": "ROLE_ADMIN",
      "outputs": [
        {
          "name": "",
          "type": "string"
        }
      ],
      "payable": false,
      "stateMutability": "view",
      "type": "function"
    },
    {
      "constant": false,
      "inputs": [
        {
          "name": "_spender",
          "type": "address"
        },
        {
          "name": "_addedValue",
          "type": "uint256"
        }
      ],
      "name": "increaseApproval",
      "outputs": [
        {
          "name": "",
          "type": "bool"
        }
      ],
      "payable": false,
      "stateMutability": "nonpayable",
      "type": "function"
    },
    {
      "constant": true,
      "inputs": [
        {
          "name": "_owner",
          "type": "address"
        },
        {
          "name": "_spender",
          "type": "address"
        }
      ],
      "name": "allowance",
      "outputs": [
        {
          "name": "",
          "type": "uint256"
        }
      ],
      "payable": false,
      "stateMutability": "view",
      "type": "function"
    },
    {
      "anonymous": false,
      "inputs": [
        {
          "indexed": true,
          "name": "to",
          "type": "address"
        },
        {
          "indexed": false,
          "name": "amount",
          "type": "uint256"
        }
      ],
      "name": "Mint",
      "type": "event"
    },
    {
      "anonymous": false,
      "inputs": [
        {
          "indexed": false,
          "name": "addr",
          "type": "address"
        },
        {
          "indexed": false,
          "name": "roleName",
          "type": "string"
        }
      ],
      "name": "RoleAdded",
      "type": "event"
    },
    {
      "anonymous": false,
      "inputs": [
        {
          "indexed": false,
          "name": "addr",
          "type": "address"
        },
        {
          "indexed": false,
          "name": "roleName",
          "type": "string"
        }
      ],
      "name": "RoleRemoved",
      "type": "event"
    },
    {
      "anonymous": false,
      "inputs": [
        {
          "indexed": true,
          "name": "owner",
          "type": "address"
        },
        {
          "indexed": true,
          "name": "spender",
          "type": "address"
        },
        {
          "indexed": false,
          "name": "value",
          "type": "uint256"
        }
      ],
      "name": "Approval",
      "type": "event"
    },
    {
      "anonymous": false,
      "inputs": [
        {
          "indexed": true,
          "name": "from",
          "type": "address"
        },
        {
          "indexed": true,
          "name": "to",
          "type": "address"
        },
        {
          "indexed": false,
          "name": "value",
          "type": "uint256"
        }
      ],
      "name": "Transfer",
      "type": "event"
    },
    {
      "constant": false,
      "inputs": [
        {
          "name": "_to",
          "type": "address"
        },
        {
          "name": "_amount",
          "type": "uint256"
        }
      ],
      "name": "mint",
      "outputs": [
        {
          "name": "",
          "type": "bool"
        }
      ],
      "payable": false,
      "stateMutability": "nonpayable",
      "type": "function"
    }
  ],
  "bytecode": "0x606060405261004e3360408051908101604052600581527f61646d696e0000000000000000000000000000000000000000000000000000006020820152640100000000610d8d61005382021704565b6101a2565b6100d0826003836040518082805190602001908083835b602083106100895780518252601f19909201916020918201910161006a565b6001836020036101000a03801982511681845116808217855250505050505090500191505090815260200160405190819003902090640100000000610e9261017d82021704565b7fbfec83d64eaa953f2708271a023ab9ee82057f8f3578d548c1a4ba0b5b7004898282604051600160a060020a038316815260406020820181815290820183818151815260200191508051906020019080838360005b8381101561013e578082015183820152602001610126565b50505050905090810190601f16801561016b5780820380516001836020036101000a031916815260200191505b50935050505060405180910390a15050565b600160a060020a0316600090815260209190915260409020805460ff19166001179055565b610ee3806101b16000396000f3006060604052600436106100da5763ffffffff7c0100000000000000000000000000000000000000000000000000000000600035041663095ea7b381146100df5780630988ca8c1461011557806318160ddd14610176578063217fe6c61461019b57806323b872dd146101fa57806340c10f1914610222578063661884631461024457806370a082311461026657806383197ef01461028557806388cee87e14610298578063a9059cbb146102f7578063b25fa92c14610319578063d391014b14610378578063d73dd62314610402578063dd62ed3e14610424575b600080fd5b34156100ea57600080fd5b610101600160a060020a0360043516602435610449565b604051901515815260200160405180910390f35b341561012057600080fd5b61017460048035600160a060020a03169060446024803590810190830135806020601f820181900481020160405190810160405281815292919060208401838380828437509496506104b595505050505050565b005b341561018157600080fd5b61018961052f565b60405190815260200160405180910390f35b34156101a657600080fd5b61010160048035600160a060020a03169060446024803590810190830135806020601f8201819004810201604051908101604052818152929190602084018383808284375094965061053595505050505050565b341561020557600080fd5b610101600160a060020a03600435811690602435166044356105b4565b341561022d57600080fd5b610101600160a060020a0360043516602435610734565b341561024f57600080fd5b610101600160a060020a036004351660243561084e565b341561027157600080fd5b610189600160a060020a0360043516610948565b341561029057600080fd5b610174610963565b34156102a357600080fd5b61017460048035600160a060020a03169060446024803590810190830135806020601f8201819004810201604051908101604052818152929190602084018383808284375094965061096f95505050505050565b341561030257600080fd5b610101600160a060020a03600435166024356109b6565b341561032457600080fd5b61017460048035600160a060020a03169060446024803590810190830135806020601f82018190048102016040519081016040528181529291906020840183838082843750949650610ac895505050505050565b341561038357600080fd5b61038b610b0f565b60405160208082528190810183818151815260200191508051906020019080838360005b838110156103c75780820151838201526020016103af565b50505050905090810190601f1680156103f45780820380516001836020036101000a031916815260200191505b509250505060405180910390f35b341561040d57600080fd5b610101600160a060020a0360043516602435610b46565b341561042f57600080fd5b610189600160a060020a0360043581169060243516610bea565b600160a060020a03338116600081815260026020908152604080832094871680845294909152808220859055909291907f8c5be1e5ebec7d5bd14f71427d1e84f3dd0314c0f7b2291e5b200ac8c7c3b9259085905190815260200160405180910390a350600192915050565b61052b826003836040518082805190602001908083835b602083106104eb5780518252601f1990920191602091820191016104cc565b6001836020036101000a0380198251168184511680821785525050505050509050019150509081526020016040519081900390209063ffffffff610c1516565b5050565b60015490565b60006105ad836003846040518082805190602001908083835b6020831061056d5780518252601f19909201916020918201910161054e565b6001836020036101000a0380198251168184511680821785525050505050509050019150509081526020016040519081900390209063ffffffff610c2a16565b9392505050565b6000600160a060020a03831615156105cb57600080fd5b600160a060020a0384166000908152602081905260409020548211156105f057600080fd5b600160a060020a038085166000908152600260209081526040808320339094168352929052205482111561062357600080fd5b600160a060020a03841660009081526020819052604090205461064c908363ffffffff610c4916565b600160a060020a038086166000908152602081905260408082209390935590851681522054610681908363ffffffff610c5b16565b600160a060020a03808516600090815260208181526040808320949094558783168252600281528382203390931682529190915220546106c7908363ffffffff610c4916565b600160a060020a03808616600081815260026020908152604080832033861684529091529081902093909355908516917fddf252ad1be2c89b69c2b068fc378daa952ba7f163c4a11628f55a4df523b3ef9085905190815260200160405180910390a35060019392505050565b600060408051908101604052600981527f4d696e744167656e740000000000000000000000000000000000000000000000602082015261077433826104b5565b600154610787908463ffffffff610c5b16565b600155600160a060020a0384166000908152602081905260409020546107b3908463ffffffff610c5b16565b600160a060020a0385166000818152602081905260409081902092909255907f0f6798a560793a54c3bcfe86a93cde1e73087d944c0ea20544137d41213968859085905190815260200160405180910390a2600160a060020a03841660007fddf252ad1be2c89b69c2b068fc378daa952ba7f163c4a11628f55a4df523b3ef8560405190815260200160405180910390a35060019392505050565b600160a060020a033381166000908152600260209081526040808320938616835292905290812054808311156108ab57600160a060020a0333811660009081526002602090815260408083209388168352929052908120556108e2565b6108bb818463ffffffff610c4916565b600160a060020a033381166000908152600260209081526040808320938916835292905220555b600160a060020a0333811660008181526002602090815260408083209489168084529490915290819020547f8c5be1e5ebec7d5bd14f71427d1e84f3dd0314c0f7b2291e5b200ac8c7c3b925915190815260200160405180910390a35060019392505050565b600160a060020a031660009081526020819052604090205490565b33600160a060020a0316ff5b6109ac3360408051908101604052600581527f61646d696e00000000000000000000000000000000000000000000000000000060208201526104b5565b61052b8282610c6a565b6000600160a060020a03831615156109cd57600080fd5b600160a060020a0333166000908152602081905260409020548211156109f257600080fd5b600160a060020a033316600090815260208190526040902054610a1b908363ffffffff610c4916565b600160a060020a033381166000908152602081905260408082209390935590851681522054610a50908363ffffffff610c5b16565b60008085600160a060020a0316600160a060020a031681526020019081526020016000208190555082600160a060020a031633600160a060020a03167fddf252ad1be2c89b69c2b068fc378daa952ba7f163c4a11628f55a4df523b3ef8460405190815260200160405180910390a350600192915050565b610b053360408051908101604052600581527f61646d696e00000000000000000000000000000000000000000000000000000060208201526104b5565b61052b8282610d8d565b60408051908101604052600581527f61646d696e000000000000000000000000000000000000000000000000000000602082015281565b600160a060020a033381166000908152600260209081526040808320938616835292905290812054610b7e908363ffffffff610c5b16565b600160a060020a0333811660008181526002602090815260408083209489168084529490915290819020849055919290917f8c5be1e5ebec7d5bd14f71427d1e84f3dd0314c0f7b2291e5b200ac8c7c3b92591905190815260200160405180910390a350600192915050565b600160a060020a03918216600090815260026020908152604080832093909416825291909152205490565b610c1f8282610c2a565b151561052b57600080fd5b600160a060020a03166000908152602091909152604090205460ff1690565b600082821115610c5557fe5b50900390565b6000828201838110156105ad57fe5b610ce0826003836040518082805190602001908083835b60208310610ca05780518252601f199092019160209182019101610c81565b6001836020036101000a0380198251168184511680821785525050505050509050019150509081526020016040519081900390209063ffffffff610e7016565b7fd211483f91fc6eff862467f8de606587a30c8fc9981056f051b897a418df803a8282604051600160a060020a038316815260406020820181815290820183818151815260200191508051906020019080838360005b83811015610d4e578082015183820152602001610d36565b50505050905090810190601f168015610d7b5780820380516001836020036101000a031916815260200191505b50935050505060405180910390a15050565b610e03826003836040518082805190602001908083835b60208310610dc35780518252601f199092019160209182019101610da4565b6001836020036101000a0380198251168184511680821785525050505050509050019150509081526020016040519081900390209063ffffffff610e9216565b7fbfec83d64eaa953f2708271a023ab9ee82057f8f3578d548c1a4ba0b5b7004898282604051600160a060020a0383168152604060208201818152908201838181518152602001915080519060200190808383600083811015610d4e578082015183820152602001610d36565b600160a060020a0316600090815260209190915260409020805460ff19169055565b600160a060020a0316600090815260209190915260409020805460ff191660011790555600a165627a7a72305820876988ce247ede58937398805268c46adebc39fe46d9929d643e6eb20cdc70ea0029",
  "source": "pragma solidity ^0.4.21;\n\nimport \"./StandardToken.sol\";\nimport \"../security/rbac/RBACWithAdmin.sol\";\n\n/**\n * @title Mintable token\n * @dev Simple ERC20 Token example, with mintable token creation\n * @dev Issue: * https://github.com/OpenZeppelin/zeppelin-solidity/issues/120\n * Based on code by TokenMarketNet: https://github.com/TokenMarketNet/ico/blob/master/contracts/MintableToken.sol\n */\ncontract MintableToken is StandardToken, RBACWithAdmin {\n  event Mint(address indexed to, uint256 amount);\n\n  /**\n   * @dev Function to mint tokens\n   * @param _to The address that will receive the minted tokens.\n   * @param _amount The amount of tokens to mint.\n   * @return A boolean that indicates if the operation was successful.\n   */\n  function mint(address _to, uint256 _amount) public onlyRole(\"MintAgent\") returns (bool) {\n    totalSupply_ = totalSupply_.add(_amount);\n    balances[_to] = balances[_to].add(_amount);\n    emit Mint(_to, _amount);\n    emit Transfer(address(0), _to, _amount);\n    return true;\n  }\n\n}\n",
  "sourcePath": "/home/k/work/eth/CD/DragonETH/contracts/contracts/ERC20/MintableToken.sol",
  "compiler": {
    "name": "solc",
    "version": "0.4.21+commit.dfe3193c.Emscripten.clang"
  },
  "schemaVersion": "2.0.0",
  "updatedAt": "2018-04-16T22:46:31.771Z"
}