{
  "contractName": "MintableToken",
  "abi": [
    {
      "constant": false,
      "inputs": [
        {
          "name": "_spender",
          "type": "address"
        },
        {
          "name": "_value",
          "type": "uint256"
        }
      ],
      "name": "approve",
      "outputs": [
        {
          "name": "",
          "type": "bool"
        }
      ],
      "payable": false,
      "stateMutability": "nonpayable",
      "type": "function"
    },
    {
      "constant": true,
      "inputs": [
        {
          "name": "addr",
          "type": "address"
        },
        {
          "name": "roleName",
          "type": "string"
        }
      ],
      "name": "checkRole",
      "outputs": [],
      "payable": false,
      "stateMutability": "view",
      "type": "function"
    },
    {
      "constant": true,
      "inputs": [],
      "name": "totalSupply",
      "outputs": [
        {
          "name": "",
          "type": "uint256"
        }
      ],
      "payable": false,
      "stateMutability": "view",
      "type": "function"
    },
    {
      "constant": true,
      "inputs": [
        {
          "name": "addr",
          "type": "address"
        },
        {
          "name": "roleName",
          "type": "string"
        }
      ],
      "name": "hasRole",
      "outputs": [
        {
          "name": "",
          "type": "bool"
        }
      ],
      "payable": false,
      "stateMutability": "view",
      "type": "function"
    },
    {
      "constant": false,
      "inputs": [
        {
          "name": "_from",
          "type": "address"
        },
        {
          "name": "_to",
          "type": "address"
        },
        {
          "name": "_value",
          "type": "uint256"
        }
      ],
      "name": "transferFrom",
      "outputs": [
        {
          "name": "",
          "type": "bool"
        }
      ],
      "payable": false,
      "stateMutability": "nonpayable",
      "type": "function"
    },
    {
      "constant": true,
      "inputs": [],
      "name": "ROLE_PAUSE_ADMIN",
      "outputs": [
        {
          "name": "",
          "type": "string"
        }
      ],
      "payable": false,
      "stateMutability": "view",
      "type": "function"
    },
    {
      "constant": false,
      "inputs": [
        {
          "name": "_spender",
          "type": "address"
        },
        {
          "name": "_subtractedValue",
          "type": "uint256"
        }
      ],
      "name": "decreaseApproval",
      "outputs": [
        {
          "name": "",
          "type": "bool"
        }
      ],
      "payable": false,
      "stateMutability": "nonpayable",
      "type": "function"
    },
    {
      "constant": true,
      "inputs": [
        {
          "name": "_owner",
          "type": "address"
        }
      ],
      "name": "balanceOf",
      "outputs": [
        {
          "name": "balance",
          "type": "uint256"
        }
      ],
      "payable": false,
      "stateMutability": "view",
      "type": "function"
    },
    {
      "constant": false,
      "inputs": [],
      "name": "destroy",
      "outputs": [],
      "payable": false,
      "stateMutability": "nonpayable",
      "type": "function"
    },
    {
      "constant": false,
      "inputs": [
        {
          "name": "addr",
          "type": "address"
        },
        {
          "name": "roleName",
          "type": "string"
        }
      ],
      "name": "adminRemoveRole",
      "outputs": [],
      "payable": false,
      "stateMutability": "nonpayable",
      "type": "function"
    },
    {
      "constant": false,
      "inputs": [
        {
          "name": "_to",
          "type": "address"
        },
        {
          "name": "_value",
          "type": "uint256"
        }
      ],
      "name": "transfer",
      "outputs": [
        {
          "name": "",
          "type": "bool"
        }
      ],
      "payable": false,
      "stateMutability": "nonpayable",
      "type": "function"
    },
    {
      "constant": false,
      "inputs": [
        {
          "name": "addr",
          "type": "address"
        },
        {
          "name": "roleName",
          "type": "string"
        }
      ],
      "name": "adminAddRole",
      "outputs": [],
      "payable": false,
      "stateMutability": "nonpayable",
      "type": "function"
    },
    {
      "constant": true,
      "inputs": [],
      "name": "ROLE_ADMIN",
      "outputs": [
        {
          "name": "",
          "type": "string"
        }
      ],
      "payable": false,
      "stateMutability": "view",
      "type": "function"
    },
    {
      "constant": false,
      "inputs": [
        {
          "name": "_spender",
          "type": "address"
        },
        {
          "name": "_addedValue",
          "type": "uint256"
        }
      ],
      "name": "increaseApproval",
      "outputs": [
        {
          "name": "",
          "type": "bool"
        }
      ],
      "payable": false,
      "stateMutability": "nonpayable",
      "type": "function"
    },
    {
      "constant": true,
      "inputs": [
        {
          "name": "_owner",
          "type": "address"
        },
        {
          "name": "_spender",
          "type": "address"
        }
      ],
      "name": "allowance",
      "outputs": [
        {
          "name": "",
          "type": "uint256"
        }
      ],
      "payable": false,
      "stateMutability": "view",
      "type": "function"
    },
    {
      "anonymous": false,
      "inputs": [
        {
          "indexed": true,
          "name": "to",
          "type": "address"
        },
        {
          "indexed": false,
          "name": "amount",
          "type": "uint256"
        }
      ],
      "name": "Mint",
      "type": "event"
    },
    {
      "anonymous": false,
      "inputs": [
        {
          "indexed": false,
          "name": "addr",
          "type": "address"
        },
        {
          "indexed": false,
          "name": "roleName",
          "type": "string"
        }
      ],
      "name": "RoleAdded",
      "type": "event"
    },
    {
      "anonymous": false,
      "inputs": [
        {
          "indexed": false,
          "name": "addr",
          "type": "address"
        },
        {
          "indexed": false,
          "name": "roleName",
          "type": "string"
        }
      ],
      "name": "RoleRemoved",
      "type": "event"
    },
    {
      "anonymous": false,
      "inputs": [
        {
          "indexed": true,
          "name": "owner",
          "type": "address"
        },
        {
          "indexed": true,
          "name": "spender",
          "type": "address"
        },
        {
          "indexed": false,
          "name": "value",
          "type": "uint256"
        }
      ],
      "name": "Approval",
      "type": "event"
    },
    {
      "anonymous": false,
      "inputs": [
        {
          "indexed": true,
          "name": "from",
          "type": "address"
        },
        {
          "indexed": true,
          "name": "to",
          "type": "address"
        },
        {
          "indexed": false,
          "name": "value",
          "type": "uint256"
        }
      ],
      "name": "Transfer",
      "type": "event"
    },
    {
      "constant": false,
      "inputs": [
        {
          "name": "_to",
          "type": "address"
        },
        {
          "name": "_amount",
          "type": "uint256"
        }
      ],
      "name": "mint",
      "outputs": [
        {
          "name": "",
          "type": "bool"
        }
      ],
      "payable": false,
      "stateMutability": "nonpayable",
      "type": "function"
    }
  ],
  "bytecode": "0x606060405261004e3360408051908101604052600581527f61646d696e0000000000000000000000000000000000000000000000000000006020820152640100000000610de261009d82021704565b6100983360408051908101604052600a81527f706175736541646d696e000000000000000000000000000000000000000000006020820152640100000000610de261009d82021704565b6101ec565b61011a826003836040518082805190602001908083835b602083106100d35780518252601f1990920191602091820191016100b4565b6001836020036101000a03801982511681845116808217855250505050505090500191505090815260200160405190819003902090640100000000610ee76101c782021704565b7fbfec83d64eaa953f2708271a023ab9ee82057f8f3578d548c1a4ba0b5b7004898282604051600160a060020a038316815260406020820181815290820183818151815260200191508051906020019080838360005b83811015610188578082015183820152602001610170565b50505050905090810190601f1680156101b55780820380516001836020036101000a031916815260200191505b50935050505060405180910390a15050565b600160a060020a0316600090815260209190915260409020805460ff19166001179055565b610f38806101fb6000396000f3006060604052600436106100e55763ffffffff7c0100000000000000000000000000000000000000000000000000000000600035041663095ea7b381146100ea5780630988ca8c1461012057806318160ddd14610181578063217fe6c6146101a657806323b872dd1461020557806340c10f191461022d578063474923521461024f57806366188463146102d957806370a08231146102fb57806383197ef01461031a57806388cee87e1461032d578063a9059cbb1461038c578063b25fa92c146103ae578063d391014b1461040d578063d73dd62314610420578063dd62ed3e14610442575b600080fd5b34156100f557600080fd5b61010c600160a060020a0360043516602435610467565b604051901515815260200160405180910390f35b341561012b57600080fd5b61017f60048035600160a060020a03169060446024803590810190830135806020601f820181900481020160405190810160405281815292919060208401838380828437509496506104d395505050505050565b005b341561018c57600080fd5b61019461054d565b60405190815260200160405180910390f35b34156101b157600080fd5b61010c60048035600160a060020a03169060446024803590810190830135806020601f8201819004810201604051908101604052818152929190602084018383808284375094965061055395505050505050565b341561021057600080fd5b61010c600160a060020a03600435811690602435166044356105d2565b341561023857600080fd5b61010c600160a060020a0360043516602435610752565b341561025a57600080fd5b61026261086c565b60405160208082528190810183818151815260200191508051906020019080838360005b8381101561029e578082015183820152602001610286565b50505050905090810190601f1680156102cb5780820380516001836020036101000a031916815260200191505b509250505060405180910390f35b34156102e457600080fd5b61010c600160a060020a03600435166024356108a3565b341561030657600080fd5b610194600160a060020a036004351661099d565b341561032557600080fd5b61017f6109b8565b341561033857600080fd5b61017f60048035600160a060020a03169060446024803590810190830135806020601f820181900481020160405190810160405281815292919060208401838380828437509496506109c495505050505050565b341561039757600080fd5b61010c600160a060020a0360043516602435610a0b565b34156103b957600080fd5b61017f60048035600160a060020a03169060446024803590810190830135806020601f82018190048102016040519081016040528181529291906020840183838082843750949650610b1d95505050505050565b341561041857600080fd5b610262610b64565b341561042b57600080fd5b61010c600160a060020a0360043516602435610b9b565b341561044d57600080fd5b610194600160a060020a0360043581169060243516610c3f565b600160a060020a03338116600081815260026020908152604080832094871680845294909152808220859055909291907f8c5be1e5ebec7d5bd14f71427d1e84f3dd0314c0f7b2291e5b200ac8c7c3b9259085905190815260200160405180910390a350600192915050565b610549826003836040518082805190602001908083835b602083106105095780518252601f1990920191602091820191016104ea565b6001836020036101000a0380198251168184511680821785525050505050509050019150509081526020016040519081900390209063ffffffff610c6a16565b5050565b60015490565b60006105cb836003846040518082805190602001908083835b6020831061058b5780518252601f19909201916020918201910161056c565b6001836020036101000a0380198251168184511680821785525050505050509050019150509081526020016040519081900390209063ffffffff610c7f16565b9392505050565b6000600160a060020a03831615156105e957600080fd5b600160a060020a03841660009081526020819052604090205482111561060e57600080fd5b600160a060020a038085166000908152600260209081526040808320339094168352929052205482111561064157600080fd5b600160a060020a03841660009081526020819052604090205461066a908363ffffffff610c9e16565b600160a060020a03808616600090815260208190526040808220939093559085168152205461069f908363ffffffff610cb016565b600160a060020a03808516600090815260208181526040808320949094558783168252600281528382203390931682529190915220546106e5908363ffffffff610c9e16565b600160a060020a03808616600081815260026020908152604080832033861684529091529081902093909355908516917fddf252ad1be2c89b69c2b068fc378daa952ba7f163c4a11628f55a4df523b3ef9085905190815260200160405180910390a35060019392505050565b600060408051908101604052600981527f4d696e744167656e740000000000000000000000000000000000000000000000602082015261079233826104d3565b6001546107a5908463ffffffff610cb016565b600155600160a060020a0384166000908152602081905260409020546107d1908463ffffffff610cb016565b600160a060020a0385166000818152602081905260409081902092909255907f0f6798a560793a54c3bcfe86a93cde1e73087d944c0ea20544137d41213968859085905190815260200160405180910390a2600160a060020a03841660007fddf252ad1be2c89b69c2b068fc378daa952ba7f163c4a11628f55a4df523b3ef8560405190815260200160405180910390a35060019392505050565b60408051908101604052600a81527f706175736541646d696e00000000000000000000000000000000000000000000602082015281565b600160a060020a0333811660009081526002602090815260408083209386168352929052908120548083111561090057600160a060020a033381166000908152600260209081526040808320938816835292905290812055610937565b610910818463ffffffff610c9e16565b600160a060020a033381166000908152600260209081526040808320938916835292905220555b600160a060020a0333811660008181526002602090815260408083209489168084529490915290819020547f8c5be1e5ebec7d5bd14f71427d1e84f3dd0314c0f7b2291e5b200ac8c7c3b925915190815260200160405180910390a35060019392505050565b600160a060020a031660009081526020819052604090205490565b33600160a060020a0316ff5b610a013360408051908101604052600581527f61646d696e00000000000000000000000000000000000000000000000000000060208201526104d3565b6105498282610cbf565b6000600160a060020a0383161515610a2257600080fd5b600160a060020a033316600090815260208190526040902054821115610a4757600080fd5b600160a060020a033316600090815260208190526040902054610a70908363ffffffff610c9e16565b600160a060020a033381166000908152602081905260408082209390935590851681522054610aa5908363ffffffff610cb016565b60008085600160a060020a0316600160a060020a031681526020019081526020016000208190555082600160a060020a031633600160a060020a03167fddf252ad1be2c89b69c2b068fc378daa952ba7f163c4a11628f55a4df523b3ef8460405190815260200160405180910390a350600192915050565b610b5a3360408051908101604052600581527f61646d696e00000000000000000000000000000000000000000000000000000060208201526104d3565b6105498282610de2565b60408051908101604052600581527f61646d696e000000000000000000000000000000000000000000000000000000602082015281565b600160a060020a033381166000908152600260209081526040808320938616835292905290812054610bd3908363ffffffff610cb016565b600160a060020a0333811660008181526002602090815260408083209489168084529490915290819020849055919290917f8c5be1e5ebec7d5bd14f71427d1e84f3dd0314c0f7b2291e5b200ac8c7c3b92591905190815260200160405180910390a350600192915050565b600160a060020a03918216600090815260026020908152604080832093909416825291909152205490565b610c748282610c7f565b151561054957600080fd5b600160a060020a03166000908152602091909152604090205460ff1690565b600082821115610caa57fe5b50900390565b6000828201838110156105cb57fe5b610d35826003836040518082805190602001908083835b60208310610cf55780518252601f199092019160209182019101610cd6565b6001836020036101000a0380198251168184511680821785525050505050509050019150509081526020016040519081900390209063ffffffff610ec516565b7fd211483f91fc6eff862467f8de606587a30c8fc9981056f051b897a418df803a8282604051600160a060020a038316815260406020820181815290820183818151815260200191508051906020019080838360005b83811015610da3578082015183820152602001610d8b565b50505050905090810190601f168015610dd05780820380516001836020036101000a031916815260200191505b50935050505060405180910390a15050565b610e58826003836040518082805190602001908083835b60208310610e185780518252601f199092019160209182019101610df9565b6001836020036101000a0380198251168184511680821785525050505050509050019150509081526020016040519081900390209063ffffffff610ee716565b7fbfec83d64eaa953f2708271a023ab9ee82057f8f3578d548c1a4ba0b5b7004898282604051600160a060020a0383168152604060208201818152908201838181518152602001915080519060200190808383600083811015610da3578082015183820152602001610d8b565b600160a060020a0316600090815260209190915260409020805460ff19169055565b600160a060020a0316600090815260209190915260409020805460ff191660011790555600a165627a7a723058201132d05a49786b690280164d7ecad8ae768eba1858782630cdaa658fcdccd7c90029",
  "source": "pragma solidity ^0.4.21;\n\nimport \"./StandardToken.sol\";\nimport \"../security/rbac/RBACWithAdmin.sol\";\n\n/**\n * @title Mintable token\n * @dev Simple ERC20 Token example, with mintable token creation\n * @dev Issue: * https://github.com/OpenZeppelin/zeppelin-solidity/issues/120\n * Based on code by TokenMarketNet: https://github.com/TokenMarketNet/ico/blob/master/contracts/MintableToken.sol\n */\ncontract MintableToken is StandardToken, RBACWithAdmin {\n  event Mint(address indexed to, uint256 amount);\n\n  /**\n   * @dev Function to mint tokens\n   * @param _to The address that will receive the minted tokens.\n   * @param _amount The amount of tokens to mint.\n   * @return A boolean that indicates if the operation was successful.\n   */\n  function mint(address _to, uint256 _amount) public onlyRole(\"MintAgent\") returns (bool) {\n    totalSupply_ = totalSupply_.add(_amount);\n    balances[_to] = balances[_to].add(_amount);\n    emit Mint(_to, _amount);\n    emit Transfer(address(0), _to, _amount);\n    return true;\n  }\n\n}\n",
  "sourcePath": "/home/k/work/eth/CD/DragonETH/contracts/contracts/ERC20/MintableToken.sol",
  "compiler": {
    "name": "solc",
    "version": "0.4.21+commit.dfe3193c.Emscripten.clang"
  },
  "schemaVersion": "2.0.0",
  "updatedAt": "2018-04-17T04:04:35.484Z"
}