{
  "contractName": "MultiWallet",
  "abi": [
    {
      "constant": true,
      "inputs": [
        {
          "name": "addr",
          "type": "address"
        },
        {
          "name": "roleName",
          "type": "string"
        }
      ],
      "name": "checkRole",
      "outputs": [],
      "payable": false,
      "stateMutability": "view",
      "type": "function"
    },
    {
      "constant": true,
      "inputs": [
        {
          "name": "addr",
          "type": "address"
        },
        {
          "name": "roleName",
          "type": "string"
        }
      ],
      "name": "hasRole",
      "outputs": [
        {
          "name": "",
          "type": "bool"
        }
      ],
      "payable": false,
      "stateMutability": "view",
      "type": "function"
    },
    {
      "constant": false,
      "inputs": [],
      "name": "destroy",
      "outputs": [],
      "payable": false,
      "stateMutability": "nonpayable",
      "type": "function"
    },
    {
      "constant": false,
      "inputs": [
        {
          "name": "addr",
          "type": "address"
        },
        {
          "name": "roleName",
          "type": "string"
        }
      ],
      "name": "adminRemoveRole",
      "outputs": [],
      "payable": false,
      "stateMutability": "nonpayable",
      "type": "function"
    },
    {
      "constant": false,
      "inputs": [
        {
          "name": "addr",
          "type": "address"
        },
        {
          "name": "roleName",
          "type": "string"
        }
      ],
      "name": "adminAddRole",
      "outputs": [],
      "payable": false,
      "stateMutability": "nonpayable",
      "type": "function"
    },
    {
      "constant": true,
      "inputs": [],
      "name": "ROLE_ADMIN",
      "outputs": [
        {
          "name": "",
          "type": "string"
        }
      ],
      "payable": false,
      "stateMutability": "view",
      "type": "function"
    },
    {
      "payable": true,
      "stateMutability": "payable",
      "type": "fallback"
    },
    {
      "anonymous": false,
      "inputs": [
        {
          "indexed": false,
          "name": "addr",
          "type": "address"
        },
        {
          "indexed": false,
          "name": "roleName",
          "type": "string"
        }
      ],
      "name": "RoleAdded",
      "type": "event"
    },
    {
      "anonymous": false,
      "inputs": [
        {
          "indexed": false,
          "name": "addr",
          "type": "address"
        },
        {
          "indexed": false,
          "name": "roleName",
          "type": "string"
        }
      ],
      "name": "RoleRemoved",
      "type": "event"
    },
    {
      "constant": false,
      "inputs": [],
      "name": "divide",
      "outputs": [],
      "payable": false,
      "stateMutability": "nonpayable",
      "type": "function"
    },
    {
      "constant": false,
      "inputs": [
        {
          "name": "_newWallet",
          "type": "address"
        }
      ],
      "name": "changeWallet1",
      "outputs": [],
      "payable": false,
      "stateMutability": "nonpayable",
      "type": "function"
    },
    {
      "constant": false,
      "inputs": [
        {
          "name": "_newWallet",
          "type": "address"
        }
      ],
      "name": "changeWallet2",
      "outputs": [],
      "payable": false,
      "stateMutability": "nonpayable",
      "type": "function"
    },
    {
      "constant": false,
      "inputs": [
        {
          "name": "_newWallet",
          "type": "address"
        }
      ],
      "name": "changeWallet3",
      "outputs": [],
      "payable": false,
      "stateMutability": "nonpayable",
      "type": "function"
    },
    {
      "constant": false,
      "inputs": [
        {
          "name": "_newWallet",
          "type": "address"
        }
      ],
      "name": "changeWallet4",
      "outputs": [],
      "payable": false,
      "stateMutability": "nonpayable",
      "type": "function"
    },
    {
      "constant": false,
      "inputs": [
        {
          "name": "_newWallet",
          "type": "address"
        }
      ],
      "name": "changeWallet5",
      "outputs": [],
      "payable": false,
      "stateMutability": "nonpayable",
      "type": "function"
    },
    {
      "constant": false,
      "inputs": [
        {
          "name": "_newWallet",
          "type": "address"
        }
      ],
      "name": "changeWallet6",
      "outputs": [],
      "payable": false,
      "stateMutability": "nonpayable",
      "type": "function"
    },
    {
      "constant": false,
      "inputs": [
        {
          "name": "_newWallet",
          "type": "address"
        }
      ],
      "name": "changeWallet7",
      "outputs": [],
      "payable": false,
      "stateMutability": "nonpayable",
      "type": "function"
    },
    {
      "constant": false,
      "inputs": [
        {
          "name": "_newWallet",
          "type": "address"
        }
      ],
      "name": "changeWallet8",
      "outputs": [],
      "payable": false,
      "stateMutability": "nonpayable",
      "type": "function"
    }
  ],
  "bytecode": "0x606060409081526000805460ff1916905560028054600160a060020a0319908116731a069d69f42c0d7848cf1f14cbe9d6b1615d4e1717909155600380548216738c7bd56df2dfa39ddcbc2e2792a50a7fa1c7b6d8179055600480548216736862088c5d7eedb6b1ae0c80c6656b5c7f038b6117905560058054821673f66c90b5879405e6fd0b27f0077b13100c5b69c117905560068054821673ec9fefdd828c28b4d1559548e5df6a460d83db29179055600780548216731dbed156a8423abe1ace32abebd972f29ccecd7817905560088054821673638a05783db75e08095a45362e3f207601277dae1790556009805490911673fc4b10427678c60c3d1b0b80625657c95a29ffee1790556101569033908051908101604052600581527f61646d696e0000000000000000000000000000000000000000000000000000006020820152640100000000610b1e61015b82021704565b6102aa565b6101d8826001836040518082805190602001908083835b602083106101915780518252601f199092019160209182019101610172565b6001836020036101000a03801982511681845116808217855250505050505090500191505090815260200160405190819003902090640100000000610c2361028582021704565b7fbfec83d64eaa953f2708271a023ab9ee82057f8f3578d548c1a4ba0b5b7004898282604051600160a060020a038316815260406020820181815290820183818151815260200191508051906020019080838360005b8381101561024657808201518382015260200161022e565b50505050905090810190601f1680156102735780820380516001836020036101000a031916815260200191505b50935050505060405180910390a15050565b600160a060020a0316600090815260209190915260409020805460ff19166001179055565b610c74806102b96000396000f3006060604052600436106100da5763ffffffff7c01000000000000000000000000000000000000000000000000000000006000350416630988ca8c81146100dc57806314b3b0771461013b57806319db2dcb1461015a5780631e9768be14610179578063217fe6c6146101985780633f3cc9931461020b578063429700e71461022a57806360e4e45f1461024957806383197ef01461026857806388cee87e1461027b5780639151d59a146102da578063a1012233146102f9578063b25fa92c14610318578063b53b8d7a14610377578063d391014b1461038a575b005b34156100e757600080fd5b6100da60048035600160a060020a03169060446024803590810190830135806020601f8201819004810201604051908101604052818152929190602084018383808284375094965061041495505050505050565b341561014657600080fd5b6100da600160a060020a036004351661048e565b341561016557600080fd5b6100da600160a060020a03600435166104cb565b341561018457600080fd5b6100da600160a060020a0360043516610508565b34156101a357600080fd5b6101f760048035600160a060020a03169060446024803590810190830135806020601f8201819004810201604051908101604052818152929190602084018383808284375094965061054595505050505050565b604051901515815260200160405180910390f35b341561021657600080fd5b6100da600160a060020a03600435166105c4565b341561023557600080fd5b6100da600160a060020a0360043516610601565b341561025457600080fd5b6100da600160a060020a036004351661063e565b341561027357600080fd5b6100da61067b565b341561028657600080fd5b6100da60048035600160a060020a03169060446024803590810190830135806020601f8201819004810201604051908101604052818152929190602084018383808284375094965061068795505050505050565b34156102e557600080fd5b6100da600160a060020a03600435166106ce565b341561030457600080fd5b6100da600160a060020a036004351661070b565b341561032357600080fd5b6100da60048035600160a060020a03169060446024803590810190830135806020601f8201819004810201604051908101604052818152929190602084018383808284375094965061074895505050505050565b341561038257600080fd5b6100da61078f565b341561039557600080fd5b61039d610990565b60405160208082528190810183818151815260200191508051906020019080838360005b838110156103d95780820151838201526020016103c1565b50505050905090810190601f1680156104065780820380516001836020036101000a031916815260200191505b509250505060405180910390f35b61048a826001836040518082805190602001908083835b6020831061044a5780518252601f19909201916020918201910161042b565b6001836020036101000a0380198251168184511680821785525050505050509050019150509081526020016040519081900390209063ffffffff6109c716565b5050565b60025433600160a060020a039081169116146104a957600080fd5b60028054600160a060020a031916600160a060020a0392909216919091179055565b60035433600160a060020a039081169116146104e657600080fd5b60038054600160a060020a031916600160a060020a0392909216919091179055565b60065433600160a060020a0390811691161461052357600080fd5b60068054600160a060020a031916600160a060020a0392909216919091179055565b60006105bd836001846040518082805190602001908083835b6020831061057d5780518252601f19909201916020918201910161055e565b6001836020036101000a0380198251168184511680821785525050505050509050019150509081526020016040519081900390209063ffffffff6109dc16565b9392505050565b60085433600160a060020a039081169116146105df57600080fd5b60088054600160a060020a031916600160a060020a0392909216919091179055565b60075433600160a060020a0390811691161461061c57600080fd5b60078054600160a060020a031916600160a060020a0392909216919091179055565b60095433600160a060020a0390811691161461065957600080fd5b60098054600160a060020a031916600160a060020a0392909216919091179055565b33600160a060020a0316ff5b6106c43360408051908101604052600581527f61646d696e0000000000000000000000000000000000000000000000000000006020820152610414565b61048a82826109fb565b60055433600160a060020a039081169116146106e957600080fd5b60058054600160a060020a031916600160a060020a0392909216919091179055565b60045433600160a060020a0390811691161461072657600080fd5b60048054600160a060020a031916600160a060020a0392909216919091179055565b6107853360408051908101604052600581527f61646d696e0000000000000000000000000000000000000000000000000000006020820152610414565b61048a8282610b1e565b6000805481908190819060ff16156107a657600080fd5b6000805460ff19166001179055600160a060020a0330163193506032600985020492506019600285020491506032846002549190049150600160a060020a031683156108fc0284604051600060405180830381858888f19350505050151561080d57600080fd5b600354600160a060020a031683156108fc0284604051600060405180830381858888f19350505050151561084057600080fd5b600454600160a060020a031683156108fc0284604051600060405180830381858888f19350505050151561087357600080fd5b600554600160a060020a031683156108fc0284604051600060405180830381858888f1935050505015156108a657600080fd5b600654600160a060020a031682156108fc0283604051600060405180830381858888f1935050505015156108d957600080fd5b600754600160a060020a031681156108fc0282604051600060405180830381858888f19350505050151561090c57600080fd5b600854600160a060020a031682156108fc0283604051600060405180830381858888f19350505050151561093f57600080fd5b600954600160a060020a0316600283026004850286030382900380156108fc0290604051600060405180830381858888f19350505050151561098057600080fd5b50506000805460ff191690555050565b60408051908101604052600581527f61646d696e000000000000000000000000000000000000000000000000000000602082015281565b6109d182826109dc565b151561048a57600080fd5b600160a060020a03166000908152602091909152604090205460ff1690565b610a71826001836040518082805190602001908083835b60208310610a315780518252601f199092019160209182019101610a12565b6001836020036101000a0380198251168184511680821785525050505050509050019150509081526020016040519081900390209063ffffffff610c0116565b7fd211483f91fc6eff862467f8de606587a30c8fc9981056f051b897a418df803a8282604051600160a060020a038316815260406020820181815290820183818151815260200191508051906020019080838360005b83811015610adf578082015183820152602001610ac7565b50505050905090810190601f168015610b0c5780820380516001836020036101000a031916815260200191505b50935050505060405180910390a15050565b610b94826001836040518082805190602001908083835b60208310610b545780518252601f199092019160209182019101610b35565b6001836020036101000a0380198251168184511680821785525050505050509050019150509081526020016040519081900390209063ffffffff610c2316565b7fbfec83d64eaa953f2708271a023ab9ee82057f8f3578d548c1a4ba0b5b7004898282604051600160a060020a0383168152604060208201818152908201838181518152602001915080519060200190808383600083811015610adf578082015183820152602001610ac7565b600160a060020a0316600090815260209190915260409020805460ff19169055565b600160a060020a0316600090815260209190915260409020805460ff191660011790555600a165627a7a723058203be7557f9789b593bd82ac2c259d0a4406b9be9943a9e816a5f502545b95a6d10029",
  "source": "pragma solidity ^0.4.19;\n\nimport \"../security/ReentrancyGuard.sol\";\nimport \"../security/rbac/RBACWithAdmin.sol\";\n\ncontract MultiWallet is ReentrancyGuard, RBACWithAdmin {\n    address wallet1_18 = 0x1a069d69F42C0D7848cF1f14CbE9d6B1615D4E17;\n    address wallet2_18 = 0x8c7bd56DF2Dfa39DDcBc2E2792A50A7fa1C7b6d8;\n    address wallet3_18 = 0x6862088c5D7EEdB6B1Ae0C80c6656B5C7f038B61;\n    address wallet4_18 = 0xF66C90b5879405E6FD0b27F0077B13100c5b69c1;\n    address wallet5_8  = 0xeC9FefdD828C28b4D1559548E5df6a460d83dB29;\n    address wallet6_2  = 0x1DbEd156A8423abe1aCE32abeBD972f29CceCd78;\n    address wallet7_8  = 0x638a05783dB75e08095A45362E3f207601277dAe;\n    address wallet8_10 = 0xfc4b10427678C60c3D1B0b80625657c95a29fFEe;\n\n\n    function() public payable { }\n    \n    function divide() external nonReentrant {\n        uint256 totalBalance = address(this).balance;\n        uint256 w18 = totalBalance * 9 / 50;\n//      uint256 w10 = totalBalance * 1 / 10;\n        uint256 w8  = totalBalance * 2 / 25;\n        uint256 w2  = totalBalance * 1 / 50;\n        wallet1_18.transfer(w18);\n        wallet2_18.transfer(w18);\n        wallet3_18.transfer(w18);\n        wallet4_18.transfer(w18);\n        wallet5_8.transfer(w8);\n        wallet6_2.transfer(w2);\n        wallet7_8.transfer(w8);\n        wallet8_10.transfer(totalBalance - w18 * 4 - w8 * 2 - w2);\n        \n    \n   }\n   function changeWallet1(address _newWallet) external {\n       require(msg.sender == wallet1_18);\n       wallet1_18 = _newWallet;\n   }\n   function changeWallet2(address _newWallet) external {\n       require(msg.sender == wallet2_18);\n       wallet2_18 = _newWallet;\n   }\n   function changeWallet3(address _newWallet) external {\n       require(msg.sender == wallet3_18);\n       wallet3_18 = _newWallet;\n   }\n   function changeWallet4(address _newWallet) external {\n       require(msg.sender == wallet4_18);\n       wallet4_18 = _newWallet;\n   }\n   function changeWallet5(address _newWallet) external {\n       require(msg.sender == wallet5_8);\n       wallet5_8 = _newWallet;\n   }\n   function changeWallet6(address _newWallet) external {\n       require(msg.sender == wallet6_2);\n       wallet6_2 = _newWallet;\n   }\n   function changeWallet7(address _newWallet) external {\n       require(msg.sender == wallet7_8);\n       wallet7_8 = _newWallet;\n   }\n   function changeWallet8(address _newWallet) external {\n       require(msg.sender == wallet8_10);\n       wallet8_10 = _newWallet;\n   }\n \n}\n",
  "sourcePath": "/home/k/work/eth/CD/DragonETH/contracts/contracts/private/MultiWallet.sol",
  "compiler": {
    "name": "solc",
    "version": "0.4.21+commit.dfe3193c.Emscripten.clang"
  },
  "schemaVersion": "2.0.0",
  "updatedAt": "2018-04-16T22:46:31.789Z"
}