{
  "contractName": "MultiWallet",
  "abi": [
    {
      "payable": true,
      "stateMutability": "payable",
      "type": "fallback"
    },
    {
      "constant": false,
      "inputs": [],
      "name": "divide",
      "outputs": [],
      "payable": false,
      "stateMutability": "nonpayable",
      "type": "function"
    },
    {
      "constant": false,
      "inputs": [
        {
          "name": "_newWallet",
          "type": "address"
        }
      ],
      "name": "changeWallet1",
      "outputs": [],
      "payable": false,
      "stateMutability": "nonpayable",
      "type": "function"
    },
    {
      "constant": false,
      "inputs": [
        {
          "name": "_newWallet",
          "type": "address"
        }
      ],
      "name": "changeWallet2",
      "outputs": [],
      "payable": false,
      "stateMutability": "nonpayable",
      "type": "function"
    },
    {
      "constant": false,
      "inputs": [
        {
          "name": "_newWallet",
          "type": "address"
        }
      ],
      "name": "changeWallet3",
      "outputs": [],
      "payable": false,
      "stateMutability": "nonpayable",
      "type": "function"
    },
    {
      "constant": false,
      "inputs": [
        {
          "name": "_newWallet",
          "type": "address"
        }
      ],
      "name": "changeWallet4",
      "outputs": [],
      "payable": false,
      "stateMutability": "nonpayable",
      "type": "function"
    },
    {
      "constant": false,
      "inputs": [
        {
          "name": "_newWallet",
          "type": "address"
        }
      ],
      "name": "changeWallet5",
      "outputs": [],
      "payable": false,
      "stateMutability": "nonpayable",
      "type": "function"
    },
    {
      "constant": false,
      "inputs": [
        {
          "name": "_newWallet",
          "type": "address"
        }
      ],
      "name": "changeWallet6",
      "outputs": [],
      "payable": false,
      "stateMutability": "nonpayable",
      "type": "function"
    },
    {
      "constant": false,
      "inputs": [
        {
          "name": "_newWallet",
          "type": "address"
        }
      ],
      "name": "changeWallet7",
      "outputs": [],
      "payable": false,
      "stateMutability": "nonpayable",
      "type": "function"
    },
    {
      "constant": false,
      "inputs": [
        {
          "name": "_newWallet",
          "type": "address"
        }
      ],
      "name": "changeWallet8",
      "outputs": [],
      "payable": false,
      "stateMutability": "nonpayable",
      "type": "function"
    }
  ],
  "bytecode": "0x6060604052600080547498f04b28946c73d049c04a63ac1f3352689f23bf00600160a860020a031990911617905560018054600160a060020a03199081167336d9399a33c4851526d541e0e4b577e5dadc6be017909155600280548216736862088c5d7eedb6b1ae0c80c6656b5c7f038b6117905560038054821673f66c90b5879405e6fd0b27f0077b13100c5b69c117905560048054821673ec9fefdd828c28b4d1559548e5df6a460d83db29179055600580548216731dbed156a8423abe1ace32abebd972f29ccecd7817905560068054821673638a05783db75e08095a45362e3f207601277dae1790556007805490911673fc4b10427678c60c3d1b0b80625657c95a29ffee179055341561011657600080fd5b6105d7806101256000396000f3006060604052600436106100985763ffffffff7c010000000000000000000000000000000000000000000000000000000060003504166314b3b077811461009a57806319db2dcb146100b95780631e9768be146100d85780633f3cc993146100f7578063429700e71461011657806360e4e45f146101355780639151d59a14610154578063a101223314610173578063b53b8d7a14610192575b005b34156100a557600080fd5b610098600160a060020a03600435166101a5565b34156100c457600080fd5b610098600160a060020a03600435166101fa565b34156100e357600080fd5b610098600160a060020a0360043516610237565b341561010257600080fd5b610098600160a060020a0360043516610274565b341561012157600080fd5b610098600160a060020a03600435166102b1565b341561014057600080fd5b610098600160a060020a03600435166102ee565b341561015f57600080fd5b610098600160a060020a036004351661032b565b341561017e57600080fd5b610098600160a060020a0360043516610368565b341561019d57600080fd5b6100986103a5565b60005433600160a060020a0390811661010090920416146101c557600080fd5b60008054600160a060020a039092166101000274ffffffffffffffffffffffffffffffffffffffff0019909216919091179055565b60015433600160a060020a0390811691161461021557600080fd5b60018054600160a060020a031916600160a060020a0392909216919091179055565b60045433600160a060020a0390811691161461025257600080fd5b60048054600160a060020a031916600160a060020a0392909216919091179055565b60065433600160a060020a0390811691161461028f57600080fd5b60068054600160a060020a031916600160a060020a0392909216919091179055565b60055433600160a060020a039081169116146102cc57600080fd5b60058054600160a060020a031916600160a060020a0392909216919091179055565b60075433600160a060020a0390811691161461030957600080fd5b60078054600160a060020a031916600160a060020a0392909216919091179055565b60035433600160a060020a0390811691161461034657600080fd5b60038054600160a060020a031916600160a060020a0392909216919091179055565b60025433600160a060020a0390811691161461038357600080fd5b60028054600160a060020a031916600160a060020a0392909216919091179055565b6000805481908190819060ff16156103bc57600080fd5b6000805460ff19166001179055600160a060020a03301631935060326009850204925060196002850204915060328460005491900491506101009004600160a060020a03166108fc84150284604051600060405180830381858888f19350505050151561042857600080fd5b600154600160a060020a031683156108fc0284604051600060405180830381858888f19350505050151561045b57600080fd5b600254600160a060020a031683156108fc0284604051600060405180830381858888f19350505050151561048e57600080fd5b600354600160a060020a031683156108fc0284604051600060405180830381858888f1935050505015156104c157600080fd5b600454600160a060020a031682156108fc0283604051600060405180830381858888f1935050505015156104f457600080fd5b600554600160a060020a031681156108fc0282604051600060405180830381858888f19350505050151561052757600080fd5b600654600160a060020a031682156108fc0283604051600060405180830381858888f19350505050151561055a57600080fd5b600754600160a060020a0316600283026004850286030382900380156108fc0290604051600060405180830381858888f19350505050151561059b57600080fd5b50506000805460ff1916905550505600a165627a7a72305820e07a55922cd31e51886eb7cefa80df17518c918b0655515a0d4cf64c560fd14c0029",
  "source": "pragma solidity ^0.4.19;\n\nimport \"../security/ReentrancyGuard.sol\";\n\n\ncontract MultiWallet is ReentrancyGuard {\n    address wallet1_18 = 0x98F04b28946C73D049c04A63Ac1F3352689F23bf; // Renat\n    address wallet2_18 = 0x36d9399A33C4851526D541E0e4B577E5dAdc6be0; // Igor\n    address wallet3_18 = 0x6862088c5D7EEdB6B1Ae0C80c6656B5C7f038B61;\n    address wallet4_18 = 0xF66C90b5879405E6FD0b27F0077B13100c5b69c1;\n    address wallet5_8  = 0xeC9FefdD828C28b4D1559548E5df6a460d83dB29;\n    address wallet6_2  = 0x1DbEd156A8423abe1aCE32abeBD972f29CceCd78;\n    address wallet7_8  = 0x638a05783dB75e08095A45362E3f207601277dAe;\n    address wallet8_10 = 0xfc4b10427678C60c3D1B0b80625657c95a29fFEe;\n\n\n    function() public payable { }\n    \n    function divide() external nonReentrant {\n        uint256 totalBalance = address(this).balance;\n        uint256 w18 = totalBalance * 9 / 50;\n//      uint256 w10 = totalBalance * 1 / 10;\n        uint256 w8  = totalBalance * 2 / 25;\n        uint256 w2  = totalBalance * 1 / 50;\n        wallet1_18.transfer(w18);\n        wallet2_18.transfer(w18);\n        wallet3_18.transfer(w18);\n        wallet4_18.transfer(w18);\n        wallet5_8.transfer(w8);\n        wallet6_2.transfer(w2);\n        wallet7_8.transfer(w8);\n        wallet8_10.transfer(totalBalance - w18 * 4 - w8 * 2 - w2);\n        \n    \n   }\n   function changeWallet1(address _newWallet) external {\n       require(msg.sender == wallet1_18);\n       wallet1_18 = _newWallet;\n   }\n   function changeWallet2(address _newWallet) external {\n       require(msg.sender == wallet2_18);\n       wallet2_18 = _newWallet;\n   }\n   function changeWallet3(address _newWallet) external {\n       require(msg.sender == wallet3_18);\n       wallet3_18 = _newWallet;\n   }\n   function changeWallet4(address _newWallet) external {\n       require(msg.sender == wallet4_18);\n       wallet4_18 = _newWallet;\n   }\n   function changeWallet5(address _newWallet) external {\n       require(msg.sender == wallet5_8);\n       wallet5_8 = _newWallet;\n   }\n   function changeWallet6(address _newWallet) external {\n       require(msg.sender == wallet6_2);\n       wallet6_2 = _newWallet;\n   }\n   function changeWallet7(address _newWallet) external {\n       require(msg.sender == wallet7_8);\n       wallet7_8 = _newWallet;\n   }\n   function changeWallet8(address _newWallet) external {\n       require(msg.sender == wallet8_10);\n       wallet8_10 = _newWallet;\n   }\n \n}\n",
  "sourcePath": "/home/k/work/eth/CD/DragonETH/contracts/contracts/private/MultiWallet.sol",
  "compiler": {
    "name": "solc",
    "version": "0.4.21+commit.dfe3193c.Emscripten.clang"
  },
  "schemaVersion": "2.0.0",
  "updatedAt": "2018-04-17T04:04:35.503Z"
}