{
  "contractName": "Mutagen",
  "abi": [
    {
      "constant": true,
      "inputs": [],
      "name": "name",
      "outputs": [
        {
          "name": "",
          "type": "string"
        }
      ],
      "payable": false,
      "stateMutability": "view",
      "type": "function"
    },
    {
      "constant": false,
      "inputs": [
        {
          "name": "_spender",
          "type": "address"
        },
        {
          "name": "_value",
          "type": "uint256"
        }
      ],
      "name": "approve",
      "outputs": [
        {
          "name": "",
          "type": "bool"
        }
      ],
      "payable": false,
      "stateMutability": "nonpayable",
      "type": "function"
    },
    {
      "constant": true,
      "inputs": [
        {
          "name": "addr",
          "type": "address"
        },
        {
          "name": "roleName",
          "type": "string"
        }
      ],
      "name": "checkRole",
      "outputs": [],
      "payable": false,
      "stateMutability": "view",
      "type": "function"
    },
    {
      "constant": true,
      "inputs": [],
      "name": "totalSupply",
      "outputs": [
        {
          "name": "",
          "type": "uint256"
        }
      ],
      "payable": false,
      "stateMutability": "view",
      "type": "function"
    },
    {
      "constant": true,
      "inputs": [
        {
          "name": "addr",
          "type": "address"
        },
        {
          "name": "roleName",
          "type": "string"
        }
      ],
      "name": "hasRole",
      "outputs": [
        {
          "name": "",
          "type": "bool"
        }
      ],
      "payable": false,
      "stateMutability": "view",
      "type": "function"
    },
    {
      "constant": false,
      "inputs": [
        {
          "name": "_from",
          "type": "address"
        },
        {
          "name": "_to",
          "type": "address"
        },
        {
          "name": "_value",
          "type": "uint256"
        }
      ],
      "name": "transferFrom",
      "outputs": [
        {
          "name": "",
          "type": "bool"
        }
      ],
      "payable": false,
      "stateMutability": "nonpayable",
      "type": "function"
    },
    {
      "constant": true,
      "inputs": [],
      "name": "decimals",
      "outputs": [
        {
          "name": "",
          "type": "uint8"
        }
      ],
      "payable": false,
      "stateMutability": "view",
      "type": "function"
    },
    {
      "constant": false,
      "inputs": [
        {
          "name": "_to",
          "type": "address"
        },
        {
          "name": "_amount",
          "type": "uint256"
        }
      ],
      "name": "mint",
      "outputs": [
        {
          "name": "",
          "type": "bool"
        }
      ],
      "payable": false,
      "stateMutability": "nonpayable",
      "type": "function"
    },
    {
      "constant": true,
      "inputs": [],
      "name": "ROLE_PAUSE_ADMIN",
      "outputs": [
        {
          "name": "",
          "type": "string"
        }
      ],
      "payable": false,
      "stateMutability": "view",
      "type": "function"
    },
    {
      "constant": false,
      "inputs": [
        {
          "name": "_spender",
          "type": "address"
        },
        {
          "name": "_subtractedValue",
          "type": "uint256"
        }
      ],
      "name": "decreaseApproval",
      "outputs": [
        {
          "name": "",
          "type": "bool"
        }
      ],
      "payable": false,
      "stateMutability": "nonpayable",
      "type": "function"
    },
    {
      "constant": true,
      "inputs": [
        {
          "name": "_owner",
          "type": "address"
        }
      ],
      "name": "balanceOf",
      "outputs": [
        {
          "name": "balance",
          "type": "uint256"
        }
      ],
      "payable": false,
      "stateMutability": "view",
      "type": "function"
    },
    {
      "constant": false,
      "inputs": [],
      "name": "destroy",
      "outputs": [],
      "payable": false,
      "stateMutability": "nonpayable",
      "type": "function"
    },
    {
      "constant": false,
      "inputs": [
        {
          "name": "addr",
          "type": "address"
        },
        {
          "name": "roleName",
          "type": "string"
        }
      ],
      "name": "adminRemoveRole",
      "outputs": [],
      "payable": false,
      "stateMutability": "nonpayable",
      "type": "function"
    },
    {
      "constant": true,
      "inputs": [],
      "name": "symbol",
      "outputs": [
        {
          "name": "",
          "type": "string"
        }
      ],
      "payable": false,
      "stateMutability": "view",
      "type": "function"
    },
    {
      "constant": false,
      "inputs": [
        {
          "name": "_from",
          "type": "address"
        },
        {
          "name": "_value",
          "type": "uint256"
        }
      ],
      "name": "burn",
      "outputs": [],
      "payable": false,
      "stateMutability": "nonpayable",
      "type": "function"
    },
    {
      "constant": false,
      "inputs": [
        {
          "name": "_to",
          "type": "address"
        },
        {
          "name": "_value",
          "type": "uint256"
        }
      ],
      "name": "transfer",
      "outputs": [
        {
          "name": "",
          "type": "bool"
        }
      ],
      "payable": false,
      "stateMutability": "nonpayable",
      "type": "function"
    },
    {
      "constant": false,
      "inputs": [
        {
          "name": "addr",
          "type": "address"
        },
        {
          "name": "roleName",
          "type": "string"
        }
      ],
      "name": "adminAddRole",
      "outputs": [],
      "payable": false,
      "stateMutability": "nonpayable",
      "type": "function"
    },
    {
      "constant": true,
      "inputs": [],
      "name": "ROLE_ADMIN",
      "outputs": [
        {
          "name": "",
          "type": "string"
        }
      ],
      "payable": false,
      "stateMutability": "view",
      "type": "function"
    },
    {
      "constant": false,
      "inputs": [
        {
          "name": "_spender",
          "type": "address"
        },
        {
          "name": "_addedValue",
          "type": "uint256"
        }
      ],
      "name": "increaseApproval",
      "outputs": [
        {
          "name": "",
          "type": "bool"
        }
      ],
      "payable": false,
      "stateMutability": "nonpayable",
      "type": "function"
    },
    {
      "constant": true,
      "inputs": [
        {
          "name": "_owner",
          "type": "address"
        },
        {
          "name": "_spender",
          "type": "address"
        }
      ],
      "name": "allowance",
      "outputs": [
        {
          "name": "",
          "type": "uint256"
        }
      ],
      "payable": false,
      "stateMutability": "view",
      "type": "function"
    },
    {
      "anonymous": false,
      "inputs": [
        {
          "indexed": true,
          "name": "burner",
          "type": "address"
        },
        {
          "indexed": false,
          "name": "value",
          "type": "uint256"
        }
      ],
      "name": "Burn",
      "type": "event"
    },
    {
      "anonymous": false,
      "inputs": [
        {
          "indexed": true,
          "name": "to",
          "type": "address"
        },
        {
          "indexed": false,
          "name": "amount",
          "type": "uint256"
        }
      ],
      "name": "Mint",
      "type": "event"
    },
    {
      "anonymous": false,
      "inputs": [
        {
          "indexed": false,
          "name": "addr",
          "type": "address"
        },
        {
          "indexed": false,
          "name": "roleName",
          "type": "string"
        }
      ],
      "name": "RoleAdded",
      "type": "event"
    },
    {
      "anonymous": false,
      "inputs": [
        {
          "indexed": false,
          "name": "addr",
          "type": "address"
        },
        {
          "indexed": false,
          "name": "roleName",
          "type": "string"
        }
      ],
      "name": "RoleRemoved",
      "type": "event"
    },
    {
      "anonymous": false,
      "inputs": [
        {
          "indexed": true,
          "name": "owner",
          "type": "address"
        },
        {
          "indexed": true,
          "name": "spender",
          "type": "address"
        },
        {
          "indexed": false,
          "name": "value",
          "type": "uint256"
        }
      ],
      "name": "Approval",
      "type": "event"
    },
    {
      "anonymous": false,
      "inputs": [
        {
          "indexed": true,
          "name": "from",
          "type": "address"
        },
        {
          "indexed": true,
          "name": "to",
          "type": "address"
        },
        {
          "indexed": false,
          "name": "value",
          "type": "uint256"
        }
      ],
      "name": "Transfer",
      "type": "event"
    }
  ],
  "bytecode": "0x6060604052620000513360408051908101604052600581527f61646d696e000000000000000000000000000000000000000000000000000000602082015264010000000062000ff4620000a482021704565b6200009e3360408051908101604052600a81527f706175736541646d696e00000000000000000000000000000000000000000000602082015264010000000062000ff4620000a482021704565b620001fb565b62000126826003836040518082805190602001908083835b60208310620000dd5780518252601f199092019160209182019101620000bc565b6001836020036101000a03801982511681845116808217855250505050505090500191505090815260200160405190819003902090640100000000620010f9620001d682021704565b7fbfec83d64eaa953f2708271a023ab9ee82057f8f3578d548c1a4ba0b5b7004898282604051600160a060020a038316815260406020820181815290820183818151815260200191508051906020019080838360005b83811015620001965780820151838201526020016200017c565b50505050905090810190601f168015620001c45780820380516001836020036101000a031916815260200191505b50935050505060405180910390a15050565b600160a060020a0316600090815260209190915260409020805460ff19166001179055565b61116a806200020b6000396000f3006060604052600436106101115763ffffffff7c010000000000000000000000000000000000000000000000000000000060003504166306fdde038114610116578063095ea7b3146101a05780630988ca8c146101d657806318160ddd14610237578063217fe6c61461025c57806323b872dd146102bb578063313ce567146102e357806340c10f191461030c578063474923521461032e578063661884631461034157806370a082311461036357806383197ef01461038257806388cee87e1461039557806395d89b41146103f45780639dc29fac14610407578063a9059cbb14610429578063b25fa92c1461044b578063d391014b146104aa578063d73dd623146104bd578063dd62ed3e146104df575b600080fd5b341561012157600080fd5b610129610504565b60405160208082528190810183818151815260200191508051906020019080838360005b8381101561016557808201518382015260200161014d565b50505050905090810190601f1680156101925780820380516001836020036101000a031916815260200191505b509250505060405180910390f35b34156101ab57600080fd5b6101c2600160a060020a036004351660243561053b565b604051901515815260200160405180910390f35b34156101e157600080fd5b61023560048035600160a060020a03169060446024803590810190830135806020601f820181900481020160405190810160405281815292919060208401838380828437509496506105a795505050505050565b005b341561024257600080fd5b61024a610621565b60405190815260200160405180910390f35b341561026757600080fd5b6101c260048035600160a060020a03169060446024803590810190830135806020601f8201819004810201604051908101604052818152929190602084018383808284375094965061062795505050505050565b34156102c657600080fd5b6101c2600160a060020a03600435811690602435166044356106a6565b34156102ee57600080fd5b6102f6610814565b60405160ff909116815260200160405180910390f35b341561031757600080fd5b6101c2600160a060020a0360043516602435610819565b341561033957600080fd5b610129610921565b341561034c57600080fd5b6101c2600160a060020a0360043516602435610958565b341561036e57600080fd5b61024a600160a060020a0360043516610a52565b341561038d57600080fd5b610235610a6d565b34156103a057600080fd5b61023560048035600160a060020a03169060446024803590810190830135806020601f82018190048102016040519081016040528181529291906020840183838082843750949650610a7995505050505050565b34156103ff57600080fd5b610129610ac0565b341561041257600080fd5b610235600160a060020a0360043516602435610af7565b341561043457600080fd5b6101c2600160a060020a0360043516602435610b44565b341561045657600080fd5b61023560048035600160a060020a03169060446024803590810190830135806020601f82018190048102016040519081016040528181529291906020840183838082843750949650610c4495505050505050565b34156104b557600080fd5b610129610c8b565b34156104c857600080fd5b6101c2600160a060020a0360043516602435610cc2565b34156104ea57600080fd5b61024a600160a060020a0360043581169060243516610d66565b60408051908101604052600e81527f546573742067616d652074657374000000000000000000000000000000000000602082015281565b600160a060020a03338116600081815260026020908152604080832094871680845294909152808220859055909291907f8c5be1e5ebec7d5bd14f71427d1e84f3dd0314c0f7b2291e5b200ac8c7c3b9259085905190815260200160405180910390a350600192915050565b61061d826003836040518082805190602001908083835b602083106105dd5780518252601f1990920191602091820191016105be565b6001836020036101000a0380198251168184511680821785525050505050509050019150509081526020016040519081900390209063ffffffff610d9116565b5050565b60015490565b600061069f836003846040518082805190602001908083835b6020831061065f5780518252601f199092019160209182019101610640565b6001836020036101000a0380198251168184511680821785525050505050509050019150509081526020016040519081900390209063ffffffff610da616565b9392505050565b6000600160a060020a03831615156106bd57600080fd5b600160a060020a0384166000908152602081905260409020548211156106e257600080fd5b600160a060020a038085166000908152600260209081526040808320339094168352929052205482111561071557600080fd5b600160a060020a03841660009081526020819052604090205461073e908363ffffffff610dc516565b600160a060020a038086166000908152602081905260408082209390935590851681522054610773908363ffffffff610dd716565b600160a060020a03808516600090815260208181526040808320949094558783168252600281528382203390931682529190915220546107b9908363ffffffff610dc516565b600160a060020a038086166000818152600260209081526040808320338616845290915290819020939093559085169160008051602061111f8339815191529085905190815260200160405180910390a35060019392505050565b600081565b600060408051908101604052600981527f4d696e744167656e740000000000000000000000000000000000000000000000602082015261085933826105a7565b60015461086c908463ffffffff610dd716565b600155600160a060020a038416600090815260208190526040902054610898908463ffffffff610dd716565b600160a060020a0385166000818152602081905260409081902092909255907f0f6798a560793a54c3bcfe86a93cde1e73087d944c0ea20544137d41213968859085905190815260200160405180910390a2600160a060020a038416600060008051602061111f8339815191528560405190815260200160405180910390a35060019392505050565b60408051908101604052600a81527f706175736541646d696e00000000000000000000000000000000000000000000602082015281565b600160a060020a033381166000908152600260209081526040808320938616835292905290812054808311156109b557600160a060020a0333811660009081526002602090815260408083209388168352929052908120556109ec565b6109c5818463ffffffff610dc516565b600160a060020a033381166000908152600260209081526040808320938916835292905220555b600160a060020a0333811660008181526002602090815260408083209489168084529490915290819020547f8c5be1e5ebec7d5bd14f71427d1e84f3dd0314c0f7b2291e5b200ac8c7c3b925915190815260200160405180910390a35060019392505050565b600160a060020a031660009081526020819052604090205490565b33600160a060020a0316ff5b610ab63360408051908101604052600581527f61646d696e00000000000000000000000000000000000000000000000000000060208201526105a7565b61061d8282610de6565b60408051908101604052600481527f5465737400000000000000000000000000000000000000000000000000000000602082015281565b60408051908101604052600981527f4275726e4167656e7400000000000000000000000000000000000000000000006020820152610b3533826105a7565b610b3f8383610f09565b505050565b6000600160a060020a0383161515610b5b57600080fd5b600160a060020a033316600090815260208190526040902054821115610b8057600080fd5b600160a060020a033316600090815260208190526040902054610ba9908363ffffffff610dc516565b600160a060020a033381166000908152602081905260408082209390935590851681522054610bde908363ffffffff610dd716565b60008085600160a060020a0316600160a060020a031681526020019081526020016000208190555082600160a060020a031633600160a060020a031660008051602061111f8339815191528460405190815260200160405180910390a350600192915050565b610c813360408051908101604052600581527f61646d696e00000000000000000000000000000000000000000000000000000060208201526105a7565b61061d8282610ff4565b60408051908101604052600581527f61646d696e000000000000000000000000000000000000000000000000000000602082015281565b600160a060020a033381166000908152600260209081526040808320938616835292905290812054610cfa908363ffffffff610dd716565b600160a060020a0333811660008181526002602090815260408083209489168084529490915290819020849055919290917f8c5be1e5ebec7d5bd14f71427d1e84f3dd0314c0f7b2291e5b200ac8c7c3b92591905190815260200160405180910390a350600192915050565b600160a060020a03918216600090815260026020908152604080832093909416825291909152205490565b610d9b8282610da6565b151561061d57600080fd5b600160a060020a03166000908152602091909152604090205460ff1690565b600082821115610dd157fe5b50900390565b60008282018381101561069f57fe5b610e5c826003836040518082805190602001908083835b60208310610e1c5780518252601f199092019160209182019101610dfd565b6001836020036101000a0380198251168184511680821785525050505050509050019150509081526020016040519081900390209063ffffffff6110d716565b7fd211483f91fc6eff862467f8de606587a30c8fc9981056f051b897a418df803a8282604051600160a060020a038316815260406020820181815290820183818151815260200191508051906020019080838360005b83811015610eca578082015183820152602001610eb2565b50505050905090810190601f168015610ef75780820380516001836020036101000a031916815260200191505b50935050505060405180910390a15050565b600160a060020a038216600090815260208190526040902054811115610f2e57600080fd5b600160a060020a038216600090815260208190526040902054610f57908263ffffffff610dc516565b600160a060020a038316600090815260208190526040902055600154610f83908263ffffffff610dc516565b600155600160a060020a0382167fcc16f5dbb4873280815c1ee09dbd06736cffcc184412cf7a71a0fdb75d397ca58260405190815260200160405180910390a26000600160a060020a03831660008051602061111f8339815191528360405190815260200160405180910390a35050565b61106a826003836040518082805190602001908083835b6020831061102a5780518252601f19909201916020918201910161100b565b6001836020036101000a0380198251168184511680821785525050505050509050019150509081526020016040519081900390209063ffffffff6110f916565b7fbfec83d64eaa953f2708271a023ab9ee82057f8f3578d548c1a4ba0b5b7004898282604051600160a060020a0383168152604060208201818152908201838181518152602001915080519060200190808383600083811015610eca578082015183820152602001610eb2565b600160a060020a0316600090815260209190915260409020805460ff19169055565b600160a060020a0316600090815260209190915260409020805460ff191660011790555600ddf252ad1be2c89b69c2b068fc378daa952ba7f163c4a11628f55a4df523b3efa165627a7a7230582088de467eda55feb5643af0f58985bab1a1a8ece915cb855dcc41341f909007cc0029",
  "source": "pragma solidity ^0.4.21;\n\nimport \"./ERC20/MintableToken.sol\";\nimport \"./ERC20/BurnableToken.sol\";\n\ncontract Mutagen is MintableToken, BurnableToken {\n//    string public constant name = \"DragonETH Mutagen\";\n//    string public constant symbol = \"Mutagen\";\n    uint8  public constant decimals = 0;\n    // TODO del on war deploy\n    string public constant name = \"Test game test\";\n    string public constant symbol = \"Test\";\n    \n}",
  "sourcePath": "/home/k/work/eth/CD/DragonETH/contracts/contracts/Mutagen.sol",
  "compiler": {
    "name": "solc",
    "version": "0.4.21+commit.dfe3193c.Emscripten.clang"
  },
  "schemaVersion": "2.0.0",
  "updatedAt": "2018-04-18T06:07:54.898Z"
}