{
  "contractName": "Necropolis",
  "abi": [
    {
      "constant": true,
      "inputs": [
        {
          "name": "addr",
          "type": "address"
        },
        {
          "name": "roleName",
          "type": "string"
        }
      ],
      "name": "checkRole",
      "outputs": [],
      "payable": false,
      "stateMutability": "view",
      "type": "function"
    },
    {
      "constant": true,
      "inputs": [
        {
          "name": "addr",
          "type": "address"
        },
        {
          "name": "roleName",
          "type": "string"
        }
      ],
      "name": "hasRole",
      "outputs": [
        {
          "name": "",
          "type": "bool"
        }
      ],
      "payable": false,
      "stateMutability": "view",
      "type": "function"
    },
    {
      "constant": true,
      "inputs": [
        {
          "name": "",
          "type": "uint256"
        }
      ],
      "name": "dragonIndex",
      "outputs": [
        {
          "name": "",
          "type": "uint256"
        }
      ],
      "payable": false,
      "stateMutability": "view",
      "type": "function"
    },
    {
      "constant": true,
      "inputs": [],
      "name": "ROLE_PAUSE_ADMIN",
      "outputs": [
        {
          "name": "",
          "type": "string"
        }
      ],
      "payable": false,
      "stateMutability": "view",
      "type": "function"
    },
    {
      "constant": false,
      "inputs": [],
      "name": "destroy",
      "outputs": [],
      "payable": false,
      "stateMutability": "nonpayable",
      "type": "function"
    },
    {
      "constant": false,
      "inputs": [
        {
          "name": "addr",
          "type": "address"
        },
        {
          "name": "roleName",
          "type": "string"
        }
      ],
      "name": "adminRemoveRole",
      "outputs": [],
      "payable": false,
      "stateMutability": "nonpayable",
      "type": "function"
    },
    {
      "constant": false,
      "inputs": [
        {
          "name": "addr",
          "type": "address"
        },
        {
          "name": "roleName",
          "type": "string"
        }
      ],
      "name": "adminAddRole",
      "outputs": [],
      "payable": false,
      "stateMutability": "nonpayable",
      "type": "function"
    },
    {
      "constant": true,
      "inputs": [
        {
          "name": "",
          "type": "uint256"
        }
      ],
      "name": "dragons",
      "outputs": [
        {
          "name": "lastDragonOwner",
          "type": "address"
        },
        {
          "name": "dragonID",
          "type": "uint256"
        },
        {
          "name": "deathReason",
          "type": "uint256"
        }
      ],
      "payable": false,
      "stateMutability": "view",
      "type": "function"
    },
    {
      "constant": true,
      "inputs": [],
      "name": "ROLE_ADMIN",
      "outputs": [
        {
          "name": "",
          "type": "string"
        }
      ],
      "payable": false,
      "stateMutability": "view",
      "type": "function"
    },
    {
      "inputs": [],
      "payable": false,
      "stateMutability": "nonpayable",
      "type": "constructor"
    },
    {
      "anonymous": false,
      "inputs": [
        {
          "indexed": false,
          "name": "addr",
          "type": "address"
        },
        {
          "indexed": false,
          "name": "roleName",
          "type": "string"
        }
      ],
      "name": "RoleAdded",
      "type": "event"
    },
    {
      "anonymous": false,
      "inputs": [
        {
          "indexed": false,
          "name": "addr",
          "type": "address"
        },
        {
          "indexed": false,
          "name": "roleName",
          "type": "string"
        }
      ],
      "name": "RoleRemoved",
      "type": "event"
    },
    {
      "constant": false,
      "inputs": [
        {
          "name": "_lastDragonOwner",
          "type": "address"
        },
        {
          "name": "_dragonID",
          "type": "uint256"
        },
        {
          "name": "_deathReason",
          "type": "uint256"
        }
      ],
      "name": "addDragon",
      "outputs": [],
      "payable": false,
      "stateMutability": "nonpayable",
      "type": "function"
    },
    {
      "constant": true,
      "inputs": [],
      "name": "deadDragons",
      "outputs": [
        {
          "name": "",
          "type": "uint256"
        }
      ],
      "payable": false,
      "stateMutability": "view",
      "type": "function"
    }
  ],
  "bytecode": "0x606060405234156200001057600080fd5b6200001a6200028a565b620000673360408051908101604052600581527f61646d696e00000000000000000000000000000000000000000000000000000060208201526401000000006200083b6200013382021704565b620000b43360408051908101604052600a81527f706175736541646d696e0000000000000000000000000000000000000000000060208201526401000000006200083b6200013382021704565b60606040519081016040908152600080835260208301819052908201526001805491925090808201620000e88382620002aa565b6000928352602090922083916003020181518154600160a060020a031916600160a060020a03919091161781556020820151816001015560408201518160020155505050506200031a565b620001b5826000836040518082805190602001908083835b602083106200016c5780518252601f1990920191602091820191016200014b565b6001836020036101000a03801982511681845116808217855250505050505090500191505090815260200160405190819003902090640100000000620009406200026582021704565b7fbfec83d64eaa953f2708271a023ab9ee82057f8f3578d548c1a4ba0b5b7004898282604051600160a060020a038316815260406020820181815290820183818151815260200191508051906020019080838360005b83811015620002255780820151838201526020016200020b565b50505050905090810190601f168015620002535780820380516001836020036101000a031916815260200191505b50935050505060405180910390a15050565b600160a060020a0316600090815260209190915260409020805460ff19166001179055565b606060405190810160409081526000808352602083018190529082015290565b815481835581811511620002d957600302816003028360005260206000209182019101620002d99190620002de565b505050565b6200031791905b8082111562000313578054600160a060020a03191681556000600182018190556002820155600301620002e5565b5090565b90565b610a25806200032a6000396000f3006060604052600436106100ae5763ffffffff7c01000000000000000000000000000000000000000000000000000000006000350416630988ca8c81146100b3578063217fe6c6146101145780632533c1801461018757806347492352146101af57806352f6ca761461023957806383197ef01461024c57806388cee87e1461025f578063ad4e2f77146102be578063b25fa92c146102e3578063d2a59d6914610342578063d391014b1461038e575b600080fd5b34156100be57600080fd5b61011260048035600160a060020a03169060446024803590810190830135806020601f820181900481020160405190810160405281815292919060208401838380828437509496506103a195505050505050565b005b341561011f57600080fd5b61017360048035600160a060020a03169060446024803590810190830135806020601f8201819004810201604051908101604052818152929190602084018383808284375094965061041b95505050505050565b604051901515815260200160405180910390f35b341561019257600080fd5b61019d60043561049a565b60405190815260200160405180910390f35b34156101ba57600080fd5b6101c26104ac565b60405160208082528190810183818151815260200191508051906020019080838360005b838110156101fe5780820151838201526020016101e6565b50505050905090810190601f16801561022b5780820380516001836020036101000a031916815260200191505b509250505060405180910390f35b341561024457600080fd5b61019d6104e3565b341561025757600080fd5b6101126104ee565b341561026a57600080fd5b61011260048035600160a060020a03169060446024803590810190830135806020601f820181900481020160405190810160405281815292919060208401838380828437509496506104fa95505050505050565b34156102c957600080fd5b610112600160a060020a0360043516602435604435610541565b34156102ee57600080fd5b61011260048035600160a060020a03169060446024803590810190830135806020601f8201819004810201604051908101604052818152929190602084018383808284375094965061062b95505050505050565b341561034d57600080fd5b610358600435610672565b6040518084600160a060020a0316600160a060020a03168152602001838152602001828152602001935050505060405180910390f35b341561039957600080fd5b6101c26106ad565b610417826000836040518082805190602001908083835b602083106103d75780518252601f1990920191602091820191016103b8565b6001836020036101000a0380198251168184511680821785525050505050509050019150509081526020016040519081900390209063ffffffff6106e416565b5050565b6000610493836000846040518082805190602001908083835b602083106104535780518252601f199092019160209182019101610434565b6001836020036101000a0380198251168184511680821785525050505050509050019150509081526020016040519081900390209063ffffffff6106f916565b9392505050565b60026020526000908152604090205481565b60408051908101604052600a81527f706175736541646d696e00000000000000000000000000000000000000000000602082015281565b600154600019015b90565b33600160a060020a0316ff5b6105373360408051908101604052600581527f61646d696e00000000000000000000000000000000000000000000000000000060208201526103a1565b6104178282610718565b610549610965565b60408051908101604052600c81527f4d61696e436f6e74726163740000000000000000000000000000000000000000602082015261058733826103a1565b60606040519081016040908152600160a060020a038716825260208083018790528183018690526001805460008981526002909352929091208290559193508082016105d38382610985565b600092835260209092208491600302018151815473ffffffffffffffffffffffffffffffffffffffff1916600160a060020a039190911617815560208201518160010155604082015181600201555050505050505050565b6106683360408051908101604052600581527f61646d696e00000000000000000000000000000000000000000000000000000060208201526103a1565b610417828261083b565b600180548290811061068057fe5b6000918252602090912060039091020180546001820154600290920154600160a060020a03909116925083565b60408051908101604052600581527f61646d696e000000000000000000000000000000000000000000000000000000602082015281565b6106ee82826106f9565b151561041757600080fd5b600160a060020a03166000908152602091909152604090205460ff1690565b61078e826000836040518082805190602001908083835b6020831061074e5780518252601f19909201916020918201910161072f565b6001836020036101000a0380198251168184511680821785525050505050509050019150509081526020016040519081900390209063ffffffff61091e16565b7fd211483f91fc6eff862467f8de606587a30c8fc9981056f051b897a418df803a8282604051600160a060020a038316815260406020820181815290820183818151815260200191508051906020019080838360005b838110156107fc5780820151838201526020016107e4565b50505050905090810190601f1680156108295780820380516001836020036101000a031916815260200191505b50935050505060405180910390a15050565b6108b1826000836040518082805190602001908083835b602083106108715780518252601f199092019160209182019101610852565b6001836020036101000a0380198251168184511680821785525050505050509050019150509081526020016040519081900390209063ffffffff61094016565b7fbfec83d64eaa953f2708271a023ab9ee82057f8f3578d548c1a4ba0b5b7004898282604051600160a060020a03831681526040602082018181529082018381815181526020019150805190602001908083836000838110156107fc5780820151838201526020016107e4565b600160a060020a0316600090815260209190915260409020805460ff19169055565b600160a060020a0316600090815260209190915260409020805460ff19166001179055565b606060405190810160409081526000808352602083018190529082015290565b8154818355818115116109b1576003028160030283600052602060002091820191016109b191906109b6565b505050565b6104eb91905b808211156109f557805473ffffffffffffffffffffffffffffffffffffffff1916815560006001820181905560028201556003016109bc565b50905600a165627a7a72305820eb9aa14d0d72709cb856c1e4b556014fa1eaec30a56d154f8f7ae926bf29e1300029",
  "source": "pragma solidity ^0.4.21;\n//pragma experimental ABIEncoderV2;\n\nimport \"./security/rbac/RBACWithAdmin.sol\";\n\n\ncontract Necropolis is RBACWithAdmin {\n    struct Dragon {\n        address lastDragonOwner;\n        uint256 dragonID;\n        uint256 deathReason; // 1 - suicide, 2 - drunk, 3 - fight\n    }\n    Dragon[] public dragons;\n    mapping(uint256 => uint256) public dragonIndex;\n    \n    function Necropolis() public {\n       Dragon memory _dragon = Dragon({\n             lastDragonOwner: 0,\n             dragonID: 0,\n             deathReason: 0\n        });\n        dragons.push(_dragon);\n    }\n    \n    function addDragon(address _lastDragonOwner, uint256 _dragonID, uint256 _deathReason) external onlyRole(\"MainContract\") {\n         Dragon memory _dragon = Dragon({\n             lastDragonOwner: _lastDragonOwner,\n             dragonID: _dragonID,\n             deathReason: _deathReason\n    });\n    dragonIndex[_dragonID] = dragons.length;\n    dragons.push(_dragon);\n    }\n    function deadDragons() external view returns (uint256){\n        return dragons.length - 1;\n    }\n /*   function getAllDeadDragons() external view returns(Dragon[]) {\n        return dragons;\n    } \n*/    \n}",
  "sourcePath": "/home/k/work/eth/CD/DragonETH/contracts/contracts/Necropolis.sol",
  "compiler": {
    "name": "solc",
    "version": "0.4.21+commit.dfe3193c.Emscripten.clang"
  },
  "schemaVersion": "2.0.0",
  "updatedAt": "2018-04-18T06:07:54.872Z"
}