{
  "contractName": "Pausable",
  "abi": [
    {
      "constant": true,
      "inputs": [
        {
          "name": "addr",
          "type": "address"
        },
        {
          "name": "roleName",
          "type": "string"
        }
      ],
      "name": "checkRole",
      "outputs": [],
      "payable": false,
      "stateMutability": "view",
      "type": "function"
    },
    {
      "constant": true,
      "inputs": [
        {
          "name": "addr",
          "type": "address"
        },
        {
          "name": "roleName",
          "type": "string"
        }
      ],
      "name": "hasRole",
      "outputs": [
        {
          "name": "",
          "type": "bool"
        }
      ],
      "payable": false,
      "stateMutability": "view",
      "type": "function"
    },
    {
      "constant": true,
      "inputs": [],
      "name": "ROLE_PAUSE_ADMIN",
      "outputs": [
        {
          "name": "",
          "type": "string"
        }
      ],
      "payable": false,
      "stateMutability": "view",
      "type": "function"
    },
    {
      "constant": true,
      "inputs": [],
      "name": "paused",
      "outputs": [
        {
          "name": "",
          "type": "bool"
        }
      ],
      "payable": false,
      "stateMutability": "view",
      "type": "function"
    },
    {
      "constant": false,
      "inputs": [],
      "name": "destroy",
      "outputs": [],
      "payable": false,
      "stateMutability": "nonpayable",
      "type": "function"
    },
    {
      "constant": false,
      "inputs": [
        {
          "name": "addr",
          "type": "address"
        },
        {
          "name": "roleName",
          "type": "string"
        }
      ],
      "name": "adminRemoveRole",
      "outputs": [],
      "payable": false,
      "stateMutability": "nonpayable",
      "type": "function"
    },
    {
      "constant": false,
      "inputs": [
        {
          "name": "addr",
          "type": "address"
        },
        {
          "name": "roleName",
          "type": "string"
        }
      ],
      "name": "adminAddRole",
      "outputs": [],
      "payable": false,
      "stateMutability": "nonpayable",
      "type": "function"
    },
    {
      "constant": true,
      "inputs": [],
      "name": "ROLE_ADMIN",
      "outputs": [
        {
          "name": "",
          "type": "string"
        }
      ],
      "payable": false,
      "stateMutability": "view",
      "type": "function"
    },
    {
      "anonymous": false,
      "inputs": [],
      "name": "Pause",
      "type": "event"
    },
    {
      "anonymous": false,
      "inputs": [],
      "name": "Unpause",
      "type": "event"
    },
    {
      "anonymous": false,
      "inputs": [
        {
          "indexed": false,
          "name": "addr",
          "type": "address"
        },
        {
          "indexed": false,
          "name": "roleName",
          "type": "string"
        }
      ],
      "name": "RoleAdded",
      "type": "event"
    },
    {
      "anonymous": false,
      "inputs": [
        {
          "indexed": false,
          "name": "addr",
          "type": "address"
        },
        {
          "indexed": false,
          "name": "roleName",
          "type": "string"
        }
      ],
      "name": "RoleRemoved",
      "type": "event"
    },
    {
      "constant": false,
      "inputs": [],
      "name": "pause",
      "outputs": [],
      "payable": false,
      "stateMutability": "nonpayable",
      "type": "function"
    },
    {
      "constant": false,
      "inputs": [],
      "name": "unpause",
      "outputs": [],
      "payable": false,
      "stateMutability": "nonpayable",
      "type": "function"
    }
  ],
  "bytecode": "0x606060409081526001805460ff1916905561005a9033908051908101604052600581527f61646d696e00000000000000000000000000000000000000000000000000000060208201526401000000006107916100a982021704565b6100a43360408051908101604052600a81527f706175736541646d696e0000000000000000000000000000000000000000000060208201526401000000006107916100a982021704565b6101f8565b610126826000836040518082805190602001908083835b602083106100df5780518252601f1990920191602091820191016100c0565b6001836020036101000a038019825116818451168082178552505050505050905001915050908152602001604051908190039020906401000000006108966101d382021704565b7fbfec83d64eaa953f2708271a023ab9ee82057f8f3578d548c1a4ba0b5b7004898282604051600160a060020a038316815260406020820181815290820183818151815260200191508051906020019080838360005b8381101561019457808201518382015260200161017c565b50505050905090810190601f1680156101c15780820380516001836020036101000a031916815260200191505b50935050505060405180910390a15050565b600160a060020a0316600090815260209190915260409020805460ff19166001179055565b6108e7806102076000396000f3006060604052600436106100a35763ffffffff7c01000000000000000000000000000000000000000000000000000000006000350416630988ca8c81146100a8578063217fe6c6146101095780633f4ba83a1461017c578063474923521461018f5780635c975abb1461021957806383197ef01461022c5780638456cb591461023f57806388cee87e14610252578063b25fa92c146102b1578063d391014b14610310575b600080fd5b34156100b357600080fd5b61010760048035600160a060020a03169060446024803590810190830135806020601f8201819004810201604051908101604052818152929190602084018383808284375094965061032395505050505050565b005b341561011457600080fd5b61016860048035600160a060020a03169060446024803590810190830135806020601f8201819004810201604051908101604052818152929190602084018383808284375094965061039d95505050505050565b604051901515815260200160405180910390f35b341561018757600080fd5b61010761041c565b341561019a57600080fd5b6101a26104a2565b60405160208082528190810183818151815260200191508051906020019080838360005b838110156101de5780820151838201526020016101c6565b50505050905090810190601f16801561020b5780820380516001836020036101000a031916815260200191505b509250505060405180910390f35b341561022457600080fd5b6101686104d9565b341561023757600080fd5b6101076104e2565b341561024a57600080fd5b6101076104ee565b341561025d57600080fd5b61010760048035600160a060020a03169060446024803590810190830135806020601f8201819004810201604051908101604052818152929190602084018383808284375094965061057595505050505050565b34156102bc57600080fd5b61010760048035600160a060020a03169060446024803590810190830135806020601f820181900481020160405190810160405281815292919060208401838380828437509496506105bc95505050505050565b341561031b57600080fd5b6101a2610603565b610399826000836040518082805190602001908083835b602083106103595780518252601f19909201916020918201910161033a565b6001836020036101000a0380198251168184511680821785525050505050509050019150509081526020016040519081900390209063ffffffff61063a16565b5050565b6000610415836000846040518082805190602001908083835b602083106103d55780518252601f1990920191602091820191016103b6565b6001836020036101000a0380198251168184511680821785525050505050509050019150509081526020016040519081900390209063ffffffff61064f16565b9392505050565b6104593360408051908101604052600a81527f706175736541646d696e000000000000000000000000000000000000000000006020820152610323565b60015460ff16151561046a57600080fd5b6001805460ff191690557f7805862f689e2f13df9f062ff482ad3ad112aca9e0847911ed832e158c525b3360405160405180910390a1565b60408051908101604052600a81527f706175736541646d696e00000000000000000000000000000000000000000000602082015281565b60015460ff1681565b33600160a060020a0316ff5b61052b3360408051908101604052600a81527f706175736541646d696e000000000000000000000000000000000000000000006020820152610323565b60015460ff161561053b57600080fd5b6001805460ff1916811790557f6985a02210a168e66602d3235cb6db0e70f92b3ba4d376a33c0f3d9434bff62560405160405180910390a1565b6105b23360408051908101604052600581527f61646d696e0000000000000000000000000000000000000000000000000000006020820152610323565b610399828261066e565b6105f93360408051908101604052600581527f61646d696e0000000000000000000000000000000000000000000000000000006020820152610323565b6103998282610791565b60408051908101604052600581527f61646d696e000000000000000000000000000000000000000000000000000000602082015281565b610644828261064f565b151561039957600080fd5b600160a060020a03166000908152602091909152604090205460ff1690565b6106e4826000836040518082805190602001908083835b602083106106a45780518252601f199092019160209182019101610685565b6001836020036101000a0380198251168184511680821785525050505050509050019150509081526020016040519081900390209063ffffffff61087416565b7fd211483f91fc6eff862467f8de606587a30c8fc9981056f051b897a418df803a8282604051600160a060020a038316815260406020820181815290820183818151815260200191508051906020019080838360005b8381101561075257808201518382015260200161073a565b50505050905090810190601f16801561077f5780820380516001836020036101000a031916815260200191505b50935050505060405180910390a15050565b610807826000836040518082805190602001908083835b602083106107c75780518252601f1990920191602091820191016107a8565b6001836020036101000a0380198251168184511680821785525050505050509050019150509081526020016040519081900390209063ffffffff61089616565b7fbfec83d64eaa953f2708271a023ab9ee82057f8f3578d548c1a4ba0b5b7004898282604051600160a060020a038316815260406020820181815290820183818151815260200191508051906020019080838360008381101561075257808201518382015260200161073a565b600160a060020a0316600090815260209190915260409020805460ff19169055565b600160a060020a0316600090815260209190915260409020805460ff191660011790555600a165627a7a72305820d6a66901330ea77fc3aaa8f903318fe2ff16484484f1369cb72d8ea789aae4480029",
  "source": "pragma solidity ^0.4.18;\n\n\nimport \"./rbac/RBACWithAdmin.sol\";\n\n\n/**\n * @title Pausable\n * @dev Base contract which allows children to implement an emergency stop mechanism.\n */\ncontract Pausable is RBACWithAdmin {\n  event Pause();\n  event Unpause();\n\n  bool public paused = false;\n\n\n  /**\n   * @dev Modifier to make a function callable only when the contract is not paused.\n   */\n  modifier whenNotPaused() {\n    require(!paused);\n    _;\n  }\n\n  /**\n   * @dev Modifier to make a function callable only when the contract is paused.\n   */\n  modifier whenPaused() {\n    require(paused);\n    _;\n  }\n\n  /**\n   * @dev called by the owner to pause, triggers stopped state\n   */\n  function pause() onlyPauseAdmin whenNotPaused public {\n    paused = true;\n    emit Pause();\n  }\n\n  /**\n   * @dev called by the owner to unpause, returns to normal state\n   */\n  function unpause() onlyPauseAdmin whenPaused public {\n    paused = false;\n    emit Unpause();\n  }\n}\n",
  "sourcePath": "/home/k/work/eth/CD/DragonETH/contracts/contracts/security/Pausable.sol",
  "compiler": {
    "name": "solc",
    "version": "0.4.21+commit.dfe3193c.Emscripten.clang"
  },
  "schemaVersion": "2.0.0",
  "updatedAt": "2018-04-18T06:07:54.924Z"
}