{
  "contractName": "PrivateWhitelist",
  "abi": [
    {
      "constant": true,
      "inputs": [
        {
          "name": "addr",
          "type": "address"
        },
        {
          "name": "roleName",
          "type": "string"
        }
      ],
      "name": "checkRole",
      "outputs": [],
      "payable": false,
      "stateMutability": "view",
      "type": "function"
    },
    {
      "constant": true,
      "inputs": [
        {
          "name": "addr",
          "type": "address"
        },
        {
          "name": "roleName",
          "type": "string"
        }
      ],
      "name": "hasRole",
      "outputs": [
        {
          "name": "",
          "type": "bool"
        }
      ],
      "payable": false,
      "stateMutability": "view",
      "type": "function"
    },
    {
      "constant": true,
      "inputs": [],
      "name": "ROLE_PAUSE_ADMIN",
      "outputs": [
        {
          "name": "",
          "type": "string"
        }
      ],
      "payable": false,
      "stateMutability": "view",
      "type": "function"
    },
    {
      "constant": false,
      "inputs": [],
      "name": "destroy",
      "outputs": [],
      "payable": false,
      "stateMutability": "nonpayable",
      "type": "function"
    },
    {
      "constant": false,
      "inputs": [
        {
          "name": "addr",
          "type": "address"
        },
        {
          "name": "roleName",
          "type": "string"
        }
      ],
      "name": "adminRemoveRole",
      "outputs": [],
      "payable": false,
      "stateMutability": "nonpayable",
      "type": "function"
    },
    {
      "constant": false,
      "inputs": [
        {
          "name": "addr",
          "type": "address"
        },
        {
          "name": "roleName",
          "type": "string"
        }
      ],
      "name": "adminAddRole",
      "outputs": [],
      "payable": false,
      "stateMutability": "nonpayable",
      "type": "function"
    },
    {
      "constant": true,
      "inputs": [],
      "name": "ROLE_ADMIN",
      "outputs": [
        {
          "name": "",
          "type": "string"
        }
      ],
      "payable": false,
      "stateMutability": "view",
      "type": "function"
    },
    {
      "anonymous": false,
      "inputs": [
        {
          "indexed": false,
          "name": "addr",
          "type": "address"
        }
      ],
      "name": "WhitelistedAddressAdded",
      "type": "event"
    },
    {
      "anonymous": false,
      "inputs": [
        {
          "indexed": false,
          "name": "addr",
          "type": "address"
        }
      ],
      "name": "WhitelistedAddressRemoved",
      "type": "event"
    },
    {
      "anonymous": false,
      "inputs": [
        {
          "indexed": false,
          "name": "addr",
          "type": "address"
        },
        {
          "indexed": false,
          "name": "roleName",
          "type": "string"
        }
      ],
      "name": "RoleAdded",
      "type": "event"
    },
    {
      "anonymous": false,
      "inputs": [
        {
          "indexed": false,
          "name": "addr",
          "type": "address"
        },
        {
          "indexed": false,
          "name": "roleName",
          "type": "string"
        }
      ],
      "name": "RoleRemoved",
      "type": "event"
    },
    {
      "constant": false,
      "inputs": [
        {
          "name": "addr",
          "type": "address"
        }
      ],
      "name": "addAddressToWhitelist",
      "outputs": [
        {
          "name": "success",
          "type": "bool"
        }
      ],
      "payable": false,
      "stateMutability": "nonpayable",
      "type": "function"
    },
    {
      "constant": false,
      "inputs": [
        {
          "name": "addr",
          "type": "address"
        }
      ],
      "name": "removeAddressFromWhitelist",
      "outputs": [
        {
          "name": "success",
          "type": "bool"
        }
      ],
      "payable": false,
      "stateMutability": "nonpayable",
      "type": "function"
    }
  ],
  "bytecode": "0x606060405261004e3360408051908101604052600581527f61646d696e00000000000000000000000000000000000000000000000000000060208201526401000000006107a161009d82021704565b6100983360408051908101604052600a81527f706175736541646d696e0000000000000000000000000000000000000000000060208201526401000000006107a161009d82021704565b6101ec565b61011a826000836040518082805190602001908083835b602083106100d35780518252601f1990920191602091820191016100b4565b6001836020036101000a038019825116818451168082178552505050505050905001915050908152602001604051908190039020906401000000006108a66101c782021704565b7fbfec83d64eaa953f2708271a023ab9ee82057f8f3578d548c1a4ba0b5b7004898282604051600160a060020a038316815260406020820181815290820183818151815260200191508051906020019080838360005b83811015610188578082015183820152602001610170565b50505050905090810190601f1680156101b55780820380516001836020036101000a031916815260200191505b50935050505060405180910390a15050565b600160a060020a0316600090815260209190915260409020805460ff19166001179055565b6108f7806101fb6000396000f3006060604052600436106100985763ffffffff7c01000000000000000000000000000000000000000000000000000000006000350416630988ca8c811461009d578063217fe6c6146100fe578063286dd3f51461017157806347492352146101905780637b9417c81461021a57806383197ef01461023957806388cee87e1461024c578063b25fa92c146102ab578063d391014b1461030a575b600080fd5b34156100a857600080fd5b6100fc60048035600160a060020a03169060446024803590810190830135806020601f8201819004810201604051908101604052818152929190602084018383808284375094965061031d95505050505050565b005b341561010957600080fd5b61015d60048035600160a060020a03169060446024803590810190830135806020601f8201819004810201604051908101604052818152929190602084018383808284375094965061039795505050505050565b604051901515815260200160405180910390f35b341561017c57600080fd5b61015d600160a060020a0360043516610416565b341561019b57600080fd5b6101a36104c9565b60405160208082528190810183818151815260200191508051906020019080838360005b838110156101df5780820151838201526020016101c7565b50505050905090810190601f16801561020c5780820380516001836020036101000a031916815260200191505b509250505060405180910390f35b341561022557600080fd5b61015d600160a060020a0360043516610500565b341561024457600080fd5b6100fc6105b8565b341561025757600080fd5b6100fc60048035600160a060020a03169060446024803590810190830135806020601f820181900481020160405190810160405281815292919060208401838380828437509496506105c495505050505050565b34156102b657600080fd5b6100fc60048035600160a060020a03169060446024803590810190830135806020601f820181900481020160405190810160405281815292919060208401838380828437509496506105f695505050505050565b341561031557600080fd5b6101a3610628565b610393826000836040518082805190602001908083835b602083106103535780518252601f199092019160209182019101610334565b6001836020036101000a0380198251168184511680821785525050505050509050019150509081526020016040519081900390209063ffffffff61064a16565b5050565b600061040f836000846040518082805190602001908083835b602083106103cf5780518252601f1990920191602091820191016103b0565b6001836020036101000a0380198251168184511680821785525050505050509050019150509081526020016040519081900390209063ffffffff61065f16565b9392505050565b600061044033604080519081016040526005815260d960020a6430b236b4b702602082015261031d565b600160a060020a03821660009081526001602052604090205460ff16156104c457600160a060020a03821660009081526001602052604090819020805460ff191690557ff1abf01a1043b7c244d128e8595cf0c1d10743b022b03a02dffd8ca3bf729f5a90839051600160a060020a03909116815260200160405180910390a15060015b919050565b60408051908101604052600a81527f706175736541646d696e00000000000000000000000000000000000000000000602082015281565b600061052a33604080519081016040526005815260d960020a6430b236b4b702602082015261031d565b600160a060020a03821660009081526001602052604090205460ff1615156104c457600160a060020a038216600090815260016020819052604091829020805460ff191690911790557fd1bba68c128cc3f427e5831b3c6f99f480b6efa6b9e80c757768f6124158cc3f90839051600160a060020a03909116815260200160405180910390a1506001919050565b33600160a060020a0316ff5b6105ec33604080519081016040526005815260d960020a6430b236b4b702602082015261031d565b610393828261067e565b61061e33604080519081016040526005815260d960020a6430b236b4b702602082015261031d565b61039382826107a1565b604080519081016040526005815260d960020a6430b236b4b702602082015281565b610654828261065f565b151561039357600080fd5b600160a060020a03166000908152602091909152604090205460ff1690565b6106f4826000836040518082805190602001908083835b602083106106b45780518252601f199092019160209182019101610695565b6001836020036101000a0380198251168184511680821785525050505050509050019150509081526020016040519081900390209063ffffffff61088416565b7fd211483f91fc6eff862467f8de606587a30c8fc9981056f051b897a418df803a8282604051600160a060020a038316815260406020820181815290820183818151815260200191508051906020019080838360005b8381101561076257808201518382015260200161074a565b50505050905090810190601f16801561078f5780820380516001836020036101000a031916815260200191505b50935050505060405180910390a15050565b610817826000836040518082805190602001908083835b602083106107d75780518252601f1990920191602091820191016107b8565b6001836020036101000a0380198251168184511680821785525050505050509050019150509081526020016040519081900390209063ffffffff6108a616565b7fbfec83d64eaa953f2708271a023ab9ee82057f8f3578d548c1a4ba0b5b7004898282604051600160a060020a038316815260406020820181815290820183818151815260200191508051906020019080838360008381101561076257808201518382015260200161074a565b600160a060020a0316600090815260209190915260409020805460ff19169055565b600160a060020a0316600090815260209190915260409020805460ff191660011790555600a165627a7a72305820422591979414158d4af9ee579fff5f13b7b9bad97c5aa42cf12c9bc56b1063220029",
  "source": "pragma solidity ^0.4.18;\n\n\nimport \"./rbac/RBACWithAdmin.sol\";\n\n/**\n * @title Whitelist\n * @dev The Whitelist contract has a whitelist of addresses, and provides basic authorization control functions.\n * @dev This simplifies the implementation of \"user permissions\".\n */\ncontract PrivateWhitelist is RBACWithAdmin {\n  mapping(address => bool) private whitelist;\n  \n  event WhitelistedAddressAdded(address addr);\n  event WhitelistedAddressRemoved(address addr);\n\n  /**\n   * @dev Throws if called by any account that's not whitelisted.\n   */\n  modifier onlyWhitelisted() {\n    require(whitelist[msg.sender]);\n    _;\n  }\n\n  /**\n   * @dev add an address to the whitelist\n   * @param addr address\n   * @return true if the address was added to the whitelist, false if the address was already in the whitelist \n   */\n  function addAddressToWhitelist(address addr) onlyAdmin public returns(bool success) {\n    if (!whitelist[addr]) {\n      whitelist[addr] = true;\n      emit WhitelistedAddressAdded(addr);\n      success = true; \n    }\n  }\n\n  /**\n   * @dev add addresses to the whitelist\n   * @param addrs addresses\n   * @return true if at least one address was added to the whitelist, \n   * false if all addresses were already in the whitelist  \n   */\n/*  function addAddressesToWhitelist(address[] addrs) onlyOwner public returns(bool success) {\n    for (uint256 i = 0; i < addrs.length; i++) {\n      if (addAddressToWhitelist(addrs[i])) {\n        success = true;\n      }\n    }\n  }\n*/\n  /**\n   * @dev remove an address from the whitelist\n   * @param addr address\n   * @return true if the address was removed from the whitelist, \n   * false if the address wasn't in the whitelist in the first place \n   */\n  function removeAddressFromWhitelist(address addr) onlyAdmin public returns(bool success) {\n    if (whitelist[addr]) {\n      whitelist[addr] = false;\n      emit WhitelistedAddressRemoved(addr);\n      success = true;\n    }\n  }\n\n  /**\n   * @dev remove addresses from the whitelist\n   * @param addrs addresses\n   * @return true if at least one address was removed from the whitelist, \n   * false if all addresses weren't in the whitelist in the first place\n   */\n/*  function removeAddressesFromWhitelist(address[] addrs) onlyOwner public returns(bool success) {\n    for (uint256 i = 0; i < addrs.length; i++) {\n      if (removeAddressFromWhitelist(addrs[i])) {\n        success = true;\n      }\n    }\n  }\n*/\n}\n",
  "sourcePath": "/home/k/work/eth/CD/DragonETH/contracts/contracts/security/PrivateWitelist.sol",
  "compiler": {
    "name": "solc",
    "version": "0.4.21+commit.dfe3193c.Emscripten.clang"
  },
  "schemaVersion": "2.0.0",
  "updatedAt": "2018-04-17T04:04:35.505Z"
}