{
  "contractName": "RBACWithAdmin",
  "abi": [
    {
      "constant": true,
      "inputs": [
        {
          "name": "addr",
          "type": "address"
        },
        {
          "name": "roleName",
          "type": "string"
        }
      ],
      "name": "checkRole",
      "outputs": [],
      "payable": false,
      "stateMutability": "view",
      "type": "function"
    },
    {
      "constant": true,
      "inputs": [
        {
          "name": "addr",
          "type": "address"
        },
        {
          "name": "roleName",
          "type": "string"
        }
      ],
      "name": "hasRole",
      "outputs": [
        {
          "name": "",
          "type": "bool"
        }
      ],
      "payable": false,
      "stateMutability": "view",
      "type": "function"
    },
    {
      "constant": true,
      "inputs": [],
      "name": "ROLE_PAUSE_ADMIN",
      "outputs": [
        {
          "name": "",
          "type": "string"
        }
      ],
      "payable": false,
      "stateMutability": "view",
      "type": "function"
    },
    {
      "constant": false,
      "inputs": [],
      "name": "destroy",
      "outputs": [],
      "payable": false,
      "stateMutability": "nonpayable",
      "type": "function"
    },
    {
      "constant": true,
      "inputs": [],
      "name": "ROLE_ADMIN",
      "outputs": [
        {
          "name": "",
          "type": "string"
        }
      ],
      "payable": false,
      "stateMutability": "view",
      "type": "function"
    },
    {
      "inputs": [],
      "payable": false,
      "stateMutability": "nonpayable",
      "type": "constructor"
    },
    {
      "anonymous": false,
      "inputs": [
        {
          "indexed": false,
          "name": "addr",
          "type": "address"
        },
        {
          "indexed": false,
          "name": "roleName",
          "type": "string"
        }
      ],
      "name": "RoleAdded",
      "type": "event"
    },
    {
      "anonymous": false,
      "inputs": [
        {
          "indexed": false,
          "name": "addr",
          "type": "address"
        },
        {
          "indexed": false,
          "name": "roleName",
          "type": "string"
        }
      ],
      "name": "RoleRemoved",
      "type": "event"
    },
    {
      "constant": false,
      "inputs": [
        {
          "name": "addr",
          "type": "address"
        },
        {
          "name": "roleName",
          "type": "string"
        }
      ],
      "name": "adminAddRole",
      "outputs": [],
      "payable": false,
      "stateMutability": "nonpayable",
      "type": "function"
    },
    {
      "constant": false,
      "inputs": [
        {
          "name": "addr",
          "type": "address"
        },
        {
          "name": "roleName",
          "type": "string"
        }
      ],
      "name": "adminRemoveRole",
      "outputs": [],
      "payable": false,
      "stateMutability": "nonpayable",
      "type": "function"
    }
  ],
  "bytecode": "0x6060604052341561000f57600080fd5b6100593360408051908101604052600581527f61646d696e00000000000000000000000000000000000000000000000000000060208201526401000000006106216100a882021704565b6100a33360408051908101604052600a81527f706175736541646d696e0000000000000000000000000000000000000000000060208201526401000000006106216100a882021704565b6101f7565b610125826000836040518082805190602001908083835b602083106100de5780518252601f1990920191602091820191016100bf565b6001836020036101000a038019825116818451168082178552505050505050905001915050908152602001604051908190039020906401000000006107266101d282021704565b7fbfec83d64eaa953f2708271a023ab9ee82057f8f3578d548c1a4ba0b5b7004898282604051600160a060020a038316815260406020820181815290820183818151815260200191508051906020019080838360005b8381101561019357808201518382015260200161017b565b50505050905090810190601f1680156101c05780820380516001836020036101000a031916815260200191505b50935050505060405180910390a15050565b600160a060020a0316600090815260209190915260409020805460ff19166001179055565b610777806102066000396000f3006060604052600436106100825763ffffffff7c01000000000000000000000000000000000000000000000000000000006000350416630988ca8c8114610087578063217fe6c6146100e8578063474923521461015b57806383197ef0146101e557806388cee87e146101f8578063b25fa92c14610257578063d391014b146102b6575b600080fd5b341561009257600080fd5b6100e660048035600160a060020a03169060446024803590810190830135806020601f820181900481020160405190810160405281815292919060208401838380828437509496506102c995505050505050565b005b34156100f357600080fd5b61014760048035600160a060020a03169060446024803590810190830135806020601f8201819004810201604051908101604052818152929190602084018383808284375094965061034395505050505050565b604051901515815260200160405180910390f35b341561016657600080fd5b61016e6103c2565b60405160208082528190810183818151815260200191508051906020019080838360005b838110156101aa578082015183820152602001610192565b50505050905090810190601f1680156101d75780820380516001836020036101000a031916815260200191505b509250505060405180910390f35b34156101f057600080fd5b6100e66103f9565b341561020357600080fd5b6100e660048035600160a060020a03169060446024803590810190830135806020601f8201819004810201604051908101604052818152929190602084018383808284375094965061040595505050505050565b341561026257600080fd5b6100e660048035600160a060020a03169060446024803590810190830135806020601f8201819004810201604051908101604052818152929190602084018383808284375094965061044c95505050505050565b34156102c157600080fd5b61016e610493565b61033f826000836040518082805190602001908083835b602083106102ff5780518252601f1990920191602091820191016102e0565b6001836020036101000a0380198251168184511680821785525050505050509050019150509081526020016040519081900390209063ffffffff6104ca16565b5050565b60006103bb836000846040518082805190602001908083835b6020831061037b5780518252601f19909201916020918201910161035c565b6001836020036101000a0380198251168184511680821785525050505050509050019150509081526020016040519081900390209063ffffffff6104df16565b9392505050565b60408051908101604052600a81527f706175736541646d696e00000000000000000000000000000000000000000000602082015281565b33600160a060020a0316ff5b6104423360408051908101604052600581527f61646d696e00000000000000000000000000000000000000000000000000000060208201526102c9565b61033f82826104fe565b6104893360408051908101604052600581527f61646d696e00000000000000000000000000000000000000000000000000000060208201526102c9565b61033f8282610621565b60408051908101604052600581527f61646d696e000000000000000000000000000000000000000000000000000000602082015281565b6104d482826104df565b151561033f57600080fd5b600160a060020a03166000908152602091909152604090205460ff1690565b610574826000836040518082805190602001908083835b602083106105345780518252601f199092019160209182019101610515565b6001836020036101000a0380198251168184511680821785525050505050509050019150509081526020016040519081900390209063ffffffff61070416565b7fd211483f91fc6eff862467f8de606587a30c8fc9981056f051b897a418df803a8282604051600160a060020a038316815260406020820181815290820183818151815260200191508051906020019080838360005b838110156105e25780820151838201526020016105ca565b50505050905090810190601f16801561060f5780820380516001836020036101000a031916815260200191505b50935050505060405180910390a15050565b610697826000836040518082805190602001908083835b602083106106575780518252601f199092019160209182019101610638565b6001836020036101000a0380198251168184511680821785525050505050509050019150509081526020016040519081900390209063ffffffff61072616565b7fbfec83d64eaa953f2708271a023ab9ee82057f8f3578d548c1a4ba0b5b7004898282604051600160a060020a03831681526040602082018181529082018381815181526020019150805190602001908083836000838110156105e25780820151838201526020016105ca565b600160a060020a0316600090815260209190915260409020805460ff19169055565b600160a060020a0316600090815260209190915260409020805460ff191660011790555600a165627a7a72305820ba8536271b2a22ee3fff86a3a35dc7b4e2dee4afc23d17f8d5e28c7e9a3a1fbc0029",
  "source": "pragma solidity ^0.4.18;\n\n// , DESTROYER, DESTROYER, DESTROYER\nimport \"../../SelfDestruct.sol\";\n// , DESTROYER, DESTROYER, DESTROYER\n\n\n\nimport \"./RBAC.sol\";\n\n\n/**\n * @title RBACWithAdmin\n * @author Matt Condon (@Shrugs)\n * @dev It's recommended that you define constants in the contract,\n * @dev like ROLE_ADMIN below, to avoid typos.\n */\ncontract RBACWithAdmin is RBAC, DESTROYER {\n  /**\n   * A constant role name for indicating admins.\n   */\n  string public constant ROLE_ADMIN = \"admin\";\n  string public constant ROLE_PAUSE_ADMIN = \"pauseAdmin\";\n\n  /**\n   * @dev modifier to scope access to admins\n   * // reverts\n   */\n  modifier onlyAdmin()\n  {\n    checkRole(msg.sender, ROLE_ADMIN);\n    _;\n  }\n  modifier onlyPauseAdmin()\n  {\n    checkRole(msg.sender, ROLE_PAUSE_ADMIN);\n    _;\n  }\n  /**\n   * @dev constructor. Sets msg.sender as admin by default\n   */\n  function RBACWithAdmin()\n    public\n  {\n    addRole(msg.sender, ROLE_ADMIN);\n    addRole(msg.sender, ROLE_PAUSE_ADMIN);\n  }\n\n  /**\n   * @dev add a role to an address\n   * @param addr address\n   * @param roleName the name of the role\n   */\n  function adminAddRole(address addr, string roleName)\n    onlyAdmin\n    public\n  {\n    addRole(addr, roleName);\n  }\n\n  /**\n   * @dev remove a role from an address\n   * @param addr address\n   * @param roleName the name of the role\n   */\n  function adminRemoveRole(address addr, string roleName)\n    onlyAdmin\n    public\n  {\n    removeRole(addr, roleName);\n  }\n}\n",
  "sourcePath": "/home/k/work/eth/CD/DragonETH/contracts/contracts/security/rbac/RBACWithAdmin.sol",
  "compiler": {
    "name": "solc",
    "version": "0.4.21+commit.dfe3193c.Emscripten.clang"
  },
  "schemaVersion": "2.0.0",
  "updatedAt": "2018-04-18T06:07:54.932Z"
}