{
  "contractName": "RNG",
  "abi": [
    {
      "constant": false,
      "inputs": [
        {
          "name": "addr",
          "type": "address"
        }
      ],
      "name": "removeAddressFromWhitelist",
      "outputs": [
        {
          "name": "success",
          "type": "bool"
        }
      ],
      "payable": false,
      "stateMutability": "nonpayable",
      "type": "function"
    },
    {
      "constant": false,
      "inputs": [
        {
          "name": "addr",
          "type": "address"
        }
      ],
      "name": "addAddressToWhitelist",
      "outputs": [
        {
          "name": "success",
          "type": "bool"
        }
      ],
      "payable": false,
      "stateMutability": "nonpayable",
      "type": "function"
    },
    {
      "constant": false,
      "inputs": [],
      "name": "destroy",
      "outputs": [],
      "payable": false,
      "stateMutability": "nonpayable",
      "type": "function"
    },
    {
      "constant": true,
      "inputs": [],
      "name": "owner",
      "outputs": [
        {
          "name": "",
          "type": "address"
        }
      ],
      "payable": false,
      "stateMutability": "view",
      "type": "function"
    },
    {
      "constant": false,
      "inputs": [
        {
          "name": "newOwner",
          "type": "address"
        }
      ],
      "name": "transferOwnership",
      "outputs": [],
      "payable": false,
      "stateMutability": "nonpayable",
      "type": "function"
    },
    {
      "inputs": [],
      "payable": false,
      "stateMutability": "nonpayable",
      "type": "constructor"
    },
    {
      "anonymous": false,
      "inputs": [
        {
          "indexed": false,
          "name": "addr",
          "type": "address"
        }
      ],
      "name": "WhitelistedAddressAdded",
      "type": "event"
    },
    {
      "anonymous": false,
      "inputs": [
        {
          "indexed": false,
          "name": "addr",
          "type": "address"
        }
      ],
      "name": "WhitelistedAddressRemoved",
      "type": "event"
    },
    {
      "anonymous": false,
      "inputs": [
        {
          "indexed": true,
          "name": "previousOwner",
          "type": "address"
        },
        {
          "indexed": true,
          "name": "newOwner",
          "type": "address"
        }
      ],
      "name": "OwnershipTransferred",
      "type": "event"
    },
    {
      "constant": false,
      "inputs": [
        {
          "name": "_from",
          "type": "address"
        },
        {
          "name": "_dragonID",
          "type": "uint256"
        }
      ],
      "name": "get2b32",
      "outputs": [
        {
          "name": "b32",
          "type": "bytes32[2]"
        }
      ],
      "payable": false,
      "stateMutability": "nonpayable",
      "type": "function"
    }
  ],
  "bytecode": "0x6060604052341561000f57600080fd5b60008054600160a060020a03191633600160a060020a03161781555b600a8110156100645780600202430340604051908152602001604051908190039020600382600a811061005a57fe5b015560010161002b565b506104cb806100746000396000f3006060604052600436106100775763ffffffff7c0100000000000000000000000000000000000000000000000000000000600035041663286dd3f5811461007c57806328af4c14146100af5780637b9417c81461010957806383197ef0146101285780638da5cb5b1461013d578063f2fde38b1461016c575b600080fd5b341561008757600080fd5b61009b600160a060020a036004351661018b565b604051901515815260200160405180910390f35b34156100ba57600080fd5b6100d1600160a060020a0360043516602435610230565b6040518082604080838360005b838110156100f65780820151838201526020016100de565b5050505090500191505060405180910390f35b341561011457600080fd5b61009b600160a060020a0360043516610317565b341561013357600080fd5b61013b6103c1565b005b341561014857600080fd5b6101506103cd565b604051600160a060020a03909116815260200160405180910390f35b341561017757600080fd5b61013b600160a060020a03600435166103dc565b6000805433600160a060020a039081169116146101a757600080fd5b600160a060020a03821660009081526001602052604090205460ff161561022b57600160a060020a03821660009081526001602052604090819020805460ff191690557ff1abf01a1043b7c244d128e8595cf0c1d10743b022b03a02dffd8ca3bf729f5a90839051600160a060020a03909116815260200160405180910390a15060015b919050565b610238610477565b600160a060020a03331660009081526001602052604090205460ff16151561025f57600080fd5b600254600b5460095460075460055460035401010101600160a060020a038516010182016040519081526020016040519081900390208152600254600c54600a5460085460065460045401010101600160a060020a038516010182016040519081526020016040519081900390206020820152600254600160a060020a03841601604051908152602001604051908190039020600254600390600a9006600a811061030657fe5b015560028054600101905592915050565b6000805433600160a060020a0390811691161461033357600080fd5b600160a060020a03821660009081526001602052604090205460ff16151561022b57600160a060020a038216600090815260016020819052604091829020805460ff191690911790557fd1bba68c128cc3f427e5831b3c6f99f480b6efa6b9e80c757768f6124158cc3f90839051600160a060020a03909116815260200160405180910390a1506001919050565b33600160a060020a0316ff5b600054600160a060020a031681565b60005433600160a060020a039081169116146103f757600080fd5b600160a060020a038116151561040c57600080fd5b600054600160a060020a0380831691167f8be0079c531659141344cd1fd0a4f28419497f9722a3daafe3b4186f6b6457e060405160405180910390a36000805473ffffffffffffffffffffffffffffffffffffffff1916600160a060020a0392909216919091179055565b604080519081016040526002815b6000815260001991909101906020018161048557905050905600a165627a7a7230582088d0aabbd9a7487b949982e4f2a07d6c759f9ee944b690defa308c5578ce06500029",
  "source": "pragma solidity ^0.4.21;\n\n\nimport \"../security/PrivateWitelist.sol\";\n\ncontract RNG is PrivateWhitelist {\n\n    uint256 private curAddressNum;\n    uint256[10] private rndaddress;\n   \n    function RNG()  public{\n       for(uint256 i=0;i<10;i++) {\n           rndaddress[i] = uint256(keccak256(block.blockhash(block.number-2*i)));\n       }\n    }\n  function get2b32(address _from, uint256 _dragonID) external onlyWhitelisted returns (bytes32[2] b32) {\n    b32[0] = keccak256(rndaddress[0]+rndaddress[2]+rndaddress[4]+rndaddress[6]+rndaddress[8]+uint256(_from)+curAddressNum+_dragonID);\n\n    b32[1] = keccak256(rndaddress[1]+rndaddress[3]+rndaddress[5]+rndaddress[7]+rndaddress[9]+uint256(_from)+curAddressNum+_dragonID);\n    rndaddress[curAddressNum % 10 ] = uint256(keccak256(uint256(_from)+curAddressNum));\n    curAddressNum++;\n  }\n\n}\n",
  "sourcePath": "/home/k/work/eth/CD/DragonETH/contracts/contracts/private/RNG.sol",
  "compiler": {
    "name": "solc",
    "version": "0.4.21+commit.dfe3193c.Emscripten.clang"
  },
  "schemaVersion": "2.0.0",
  "updatedAt": "2018-04-16T22:46:31.788Z"
}