{
  "contractName": "RNG",
  "abi": [
    {
      "constant": true,
      "inputs": [
        {
          "name": "addr",
          "type": "address"
        },
        {
          "name": "roleName",
          "type": "string"
        }
      ],
      "name": "checkRole",
      "outputs": [],
      "payable": false,
      "stateMutability": "view",
      "type": "function"
    },
    {
      "constant": true,
      "inputs": [
        {
          "name": "addr",
          "type": "address"
        },
        {
          "name": "roleName",
          "type": "string"
        }
      ],
      "name": "hasRole",
      "outputs": [
        {
          "name": "",
          "type": "bool"
        }
      ],
      "payable": false,
      "stateMutability": "view",
      "type": "function"
    },
    {
      "constant": false,
      "inputs": [
        {
          "name": "addr",
          "type": "address"
        }
      ],
      "name": "removeAddressFromWhitelist",
      "outputs": [
        {
          "name": "success",
          "type": "bool"
        }
      ],
      "payable": false,
      "stateMutability": "nonpayable",
      "type": "function"
    },
    {
      "constant": true,
      "inputs": [],
      "name": "ROLE_PAUSE_ADMIN",
      "outputs": [
        {
          "name": "",
          "type": "string"
        }
      ],
      "payable": false,
      "stateMutability": "view",
      "type": "function"
    },
    {
      "constant": false,
      "inputs": [
        {
          "name": "addr",
          "type": "address"
        }
      ],
      "name": "addAddressToWhitelist",
      "outputs": [
        {
          "name": "success",
          "type": "bool"
        }
      ],
      "payable": false,
      "stateMutability": "nonpayable",
      "type": "function"
    },
    {
      "constant": false,
      "inputs": [],
      "name": "destroy",
      "outputs": [],
      "payable": false,
      "stateMutability": "nonpayable",
      "type": "function"
    },
    {
      "constant": false,
      "inputs": [
        {
          "name": "addr",
          "type": "address"
        },
        {
          "name": "roleName",
          "type": "string"
        }
      ],
      "name": "adminRemoveRole",
      "outputs": [],
      "payable": false,
      "stateMutability": "nonpayable",
      "type": "function"
    },
    {
      "constant": false,
      "inputs": [
        {
          "name": "addr",
          "type": "address"
        },
        {
          "name": "roleName",
          "type": "string"
        }
      ],
      "name": "adminAddRole",
      "outputs": [],
      "payable": false,
      "stateMutability": "nonpayable",
      "type": "function"
    },
    {
      "constant": true,
      "inputs": [],
      "name": "ROLE_ADMIN",
      "outputs": [
        {
          "name": "",
          "type": "string"
        }
      ],
      "payable": false,
      "stateMutability": "view",
      "type": "function"
    },
    {
      "inputs": [],
      "payable": false,
      "stateMutability": "nonpayable",
      "type": "constructor"
    },
    {
      "anonymous": false,
      "inputs": [
        {
          "indexed": false,
          "name": "addr",
          "type": "address"
        }
      ],
      "name": "WhitelistedAddressAdded",
      "type": "event"
    },
    {
      "anonymous": false,
      "inputs": [
        {
          "indexed": false,
          "name": "addr",
          "type": "address"
        }
      ],
      "name": "WhitelistedAddressRemoved",
      "type": "event"
    },
    {
      "anonymous": false,
      "inputs": [
        {
          "indexed": false,
          "name": "addr",
          "type": "address"
        },
        {
          "indexed": false,
          "name": "roleName",
          "type": "string"
        }
      ],
      "name": "RoleAdded",
      "type": "event"
    },
    {
      "anonymous": false,
      "inputs": [
        {
          "indexed": false,
          "name": "addr",
          "type": "address"
        },
        {
          "indexed": false,
          "name": "roleName",
          "type": "string"
        }
      ],
      "name": "RoleRemoved",
      "type": "event"
    },
    {
      "constant": false,
      "inputs": [
        {
          "name": "_from",
          "type": "address"
        },
        {
          "name": "_dragonID",
          "type": "uint256"
        }
      ],
      "name": "get2b32",
      "outputs": [
        {
          "name": "b32",
          "type": "bytes32[2]"
        }
      ],
      "payable": false,
      "stateMutability": "nonpayable",
      "type": "function"
    }
  ],
  "bytecode": "0x6060604052341561000f57600080fd5b600061005b3360408051908101604052600581527f61646d696e00000000000000000000000000000000000000000000000000000060208201526401000000006108ed6100e882021704565b6100a53360408051908101604052600a81527f706175736541646d696e0000000000000000000000000000000000000000000060208201526401000000006108ed6100e882021704565b5060005b600a8110156100e25780600202430340604051908152602001604051908190039020600382600a81106100d857fe5b01556001016100a9565b50610237565b610165826000836040518082805190602001908083835b6020831061011e5780518252601f1990920191602091820191016100ff565b6001836020036101000a038019825116818451168082178552505050505050905001915050908152602001604051908190039020906401000000006109f261021282021704565b7fbfec83d64eaa953f2708271a023ab9ee82057f8f3578d548c1a4ba0b5b7004898282604051600160a060020a038316815260406020820181815290820183818151815260200191508051906020019080838360005b838110156101d35780820151838201526020016101bb565b50505050905090810190601f1680156102005780820380516001836020036101000a031916815260200191505b50935050505060405180910390a15050565b600160a060020a0316600090815260209190915260409020805460ff19166001179055565b610a6b806102466000396000f3006060604052600436106100a35763ffffffff7c01000000000000000000000000000000000000000000000000000000006000350416630988ca8c81146100a8578063217fe6c614610109578063286dd3f51461017c57806328af4c141461019b57806347492352146101f55780637b9417c81461027f57806383197ef01461029e57806388cee87e146102b1578063b25fa92c14610310578063d391014b1461036f575b600080fd5b34156100b357600080fd5b61010760048035600160a060020a03169060446024803590810190830135806020601f8201819004810201604051908101604052818152929190602084018383808284375094965061038295505050505050565b005b341561011457600080fd5b61016860048035600160a060020a03169060446024803590810190830135806020601f820181900481020160405190810160405281815292919060208401838380828437509496506103fc95505050505050565b604051901515815260200160405180910390f35b341561018757600080fd5b610168600160a060020a036004351661047b565b34156101a657600080fd5b6101bd600160a060020a036004351660243561052e565b6040518082604080838360005b838110156101e25780820151838201526020016101ca565b5050505090500191505060405180910390f35b341561020057600080fd5b610208610615565b60405160208082528190810183818151815260200191508051906020019080838360005b8381101561024457808201518382015260200161022c565b50505050905090810190601f1680156102715780820380516001836020036101000a031916815260200191505b509250505060405180910390f35b341561028a57600080fd5b610168600160a060020a036004351661064c565b34156102a957600080fd5b610107610704565b34156102bc57600080fd5b61010760048035600160a060020a03169060446024803590810190830135806020601f8201819004810201604051908101604052818152929190602084018383808284375094965061071095505050505050565b341561031b57600080fd5b61010760048035600160a060020a03169060446024803590810190830135806020601f8201819004810201604051908101604052818152929190602084018383808284375094965061074295505050505050565b341561037a57600080fd5b610208610774565b6103f8826000836040518082805190602001908083835b602083106103b85780518252601f199092019160209182019101610399565b6001836020036101000a0380198251168184511680821785525050505050509050019150509081526020016040519081900390209063ffffffff61079616565b5050565b6000610474836000846040518082805190602001908083835b602083106104345780518252601f199092019160209182019101610415565b6001836020036101000a0380198251168184511680821785525050505050509050019150509081526020016040519081900390209063ffffffff6107ab16565b9392505050565b60006104a533604080519081016040526005815260d960020a6430b236b4b7026020820152610382565b600160a060020a03821660009081526001602052604090205460ff161561052957600160a060020a03821660009081526001602052604090819020805460ff191690557ff1abf01a1043b7c244d128e8595cf0c1d10743b022b03a02dffd8ca3bf729f5a90839051600160a060020a03909116815260200160405180910390a15060015b919050565b610536610a17565b600160a060020a03331660009081526001602052604090205460ff16151561055d57600080fd5b600254600b5460095460075460055460035401010101600160a060020a038516010182016040519081526020016040519081900390208152600254600c54600a5460085460065460045401010101600160a060020a038516010182016040519081526020016040519081900390206020820152600254600160a060020a03841601604051908152602001604051908190039020600254600390600a9006600a811061060457fe5b015560028054600101905592915050565b60408051908101604052600a81527f706175736541646d696e00000000000000000000000000000000000000000000602082015281565b600061067633604080519081016040526005815260d960020a6430b236b4b7026020820152610382565b600160a060020a03821660009081526001602052604090205460ff16151561052957600160a060020a038216600090815260016020819052604091829020805460ff191690911790557fd1bba68c128cc3f427e5831b3c6f99f480b6efa6b9e80c757768f6124158cc3f90839051600160a060020a03909116815260200160405180910390a1506001919050565b33600160a060020a0316ff5b61073833604080519081016040526005815260d960020a6430b236b4b7026020820152610382565b6103f882826107ca565b61076a33604080519081016040526005815260d960020a6430b236b4b7026020820152610382565b6103f882826108ed565b604080519081016040526005815260d960020a6430b236b4b702602082015281565b6107a082826107ab565b15156103f857600080fd5b600160a060020a03166000908152602091909152604090205460ff1690565b610840826000836040518082805190602001908083835b602083106108005780518252601f1990920191602091820191016107e1565b6001836020036101000a0380198251168184511680821785525050505050509050019150509081526020016040519081900390209063ffffffff6109d016565b7fd211483f91fc6eff862467f8de606587a30c8fc9981056f051b897a418df803a8282604051600160a060020a038316815260406020820181815290820183818151815260200191508051906020019080838360005b838110156108ae578082015183820152602001610896565b50505050905090810190601f1680156108db5780820380516001836020036101000a031916815260200191505b50935050505060405180910390a15050565b610963826000836040518082805190602001908083835b602083106109235780518252601f199092019160209182019101610904565b6001836020036101000a0380198251168184511680821785525050505050509050019150509081526020016040519081900390209063ffffffff6109f216565b7fbfec83d64eaa953f2708271a023ab9ee82057f8f3578d548c1a4ba0b5b7004898282604051600160a060020a03831681526040602082018181529082018381815181526020019150805190602001908083836000838110156108ae578082015183820152602001610896565b600160a060020a0316600090815260209190915260409020805460ff19169055565b600160a060020a0316600090815260209190915260409020805460ff19166001179055565b604080519081016040526002815b60008152600019919091019060200181610a2557905050905600a165627a7a723058205aa77a2ad5f01428e9653cfb8be7d588a6539faeaa5402a121103c70cda3d4190029",
  "source": "pragma solidity ^0.4.21;\n\n\nimport \"../security/PrivateWitelist.sol\";\n\ncontract RNG is PrivateWhitelist {\n\n    uint256 private curAddressNum;\n    uint256[10] private rndaddress;\n   \n    function RNG()  public{\n       for(uint256 i=0;i<10;i++) {\n           rndaddress[i] = uint256(keccak256(block.blockhash(block.number-2*i)));\n       }\n    }\n  function get2b32(address _from, uint256 _dragonID) external onlyWhitelisted returns (bytes32[2] b32) {\n    b32[0] = keccak256(rndaddress[0]+rndaddress[2]+rndaddress[4]+rndaddress[6]+rndaddress[8]+uint256(_from)+curAddressNum+_dragonID);\n\n    b32[1] = keccak256(rndaddress[1]+rndaddress[3]+rndaddress[5]+rndaddress[7]+rndaddress[9]+uint256(_from)+curAddressNum+_dragonID);\n    rndaddress[curAddressNum % 10 ] = uint256(keccak256(uint256(_from)+curAddressNum));\n    curAddressNum++;\n  }\n\n}\n",
  "sourcePath": "/home/k/work/eth/CD/DragonETH/contracts/contracts/private/RNG.sol",
  "compiler": {
    "name": "solc",
    "version": "0.4.21+commit.dfe3193c.Emscripten.clang"
  },
  "schemaVersion": "2.0.0",
  "updatedAt": "2018-04-17T04:04:35.502Z"
}